:020000040800F2
:1000000048980020610200081D510008353F000893
:10001000195100086D170008017700080000000062
:1000200000000000000000000000000071590008FE
:100030003D1D00080000000021510008415D00083E
:100040007B0200087B0200087B0200087B0200089C
:100050007B0200087B0200087B0200087B0200088C
:100060007B0200087B0200087B0200087B0200087C
:100070007B0200087B0200087B0200087B0200086C
:100080007B0200087B0200087B0200087B0200085C
:100090007B0200087B0200087B0200087B0200084C
:1000A0007B0200087B0200087B0200087B0200083C
:1000B0007B0200087B0200087B0200087B0200082C
:1000C0007B0200087B0200087B0200087B0200081C
:1000D0007B0200087B0200087B0200087B0200080C
:1000E0007B0200087B0200087B0200087B020008FC
:1000F0007B0200087B0200087B0200087B020008EC
:100100007B0200087B0200087B0200087B020008DB
:100110007B0200087B0200087B020008255E0008C5
:100120007B0200087B0200087B0200087B020008BB
:100130007B0200087B0200087B0200087B020008AB
:100140007B0200087B0200087B0200087B0200089B
:100150007B0200087B0200087B020008F97500089A
:100160007B0200087B0200087B0200087B0200087B
:100170007B0200087B0200087B02000800000000F0
:100180007B0200087B02000800F002F800F058F83B
:100190000AA090E8000C82448344AAF10107DA45E2
:1001A00001D100F04DF8AFF2090EBAE80F0013F0DC
:1001B000010F18BFFB1A43F00103184760B3050095
:1001C00080B30500103A24BF78C878C1FAD8520726
:1001D00024BF30C830C144BF04680C6070470000C1
:1001E0000023002400250026103A28BF78C1FBD840
:1001F000520728BF30C148BF0B607047662910F016
:10020000A687652910F0A387672910F0A0876129C8
:1002100010F09F87642900F06581732901F03F8009
:10022000002070471FB510F080FF01F04FF8040068
:100230000020002110F0AAF8E0601FBD10B510BD2D
:1002400001F04CF91146FFF7EDFF08F03BFD01F01E
:100250006AF903B4FFF7F2FF03BC01F0ABF9000049
:100260000948804709480047FEE7FEE7FEE7FEE74A
:10027000FEE7FEE7FEE7FEE7FEE7FEE70448054986
:10028000054A064B70470000115E0008890100080E
:10029000489200204898002048940020489400206C
:1002A00053EA020C00F069802DE9F04B4FF0000694
:1002B000002B1FBFB3FA83F503FA05F424FA05F601
:1002C0005E4012BF1643B2FA82F502FA05F4C5F198
:1002D00020051EBF22FA05FC44EA0C04203556EA2C
:1002E000044C4FEA144418BF641C4FF000084FF050
:1002F0000009904271EB030C39D3002919BFB1FA00
:1003000081F701FA07F6B0FA80F700FA07F6C7F1AD
:1003100020071EBF20FA07FC46EA0C062037B6FB72
:10032000F4FCA7EB0507103F07F01F0BCBF12006ED
:100330002CFA06F60CFA0BFB44BFB3460026202F1E
:10034000A4BF5E464FF0000B5BEA060C08BF4FF0FF
:10035000010B19EB0B0948EB0608ABFB027C06FB13
:1003600002CC0BFB03CCC01B71EB0C01C1E70B46AD
:10037000024641464846BDE8F08B13B5084318BF16
:100380004FF0FF300146AFF30080BDE81C407047DE
:1003900053EA020C23D010B54C1084EA530404D560
:1003A0004042C1F1000138BF491E1B4204D55242F0
:1003B000C3F1000338BF5B1EFFF772FF14F0804FDC
:1003C00004D04042C1F1000138BF491E14F0004F73
:1003D00004D05242C3F1000338BF5B1E10BD13B5F9
:1003E00040424FF0000070EB0104B8BF012001F063
:1003F000004100281CBF6FF000414FF0FF30AFF309
:1004000000801CBD0FB4044910B503AA029800F087
:100410004BFF10BC5DF814FB740300200FB41CB537
:10042000074B06AA7B4469460090059800F00DFF33
:100430000020694600F01CFF1CBC5DF814FB0000A6
:10044000490E000070B5044685690068C10601D5F3
:10045000302600E02026C00707D070BDD4E9012176
:1004600030469047206A401C20626D1EF6D570BD54
:1004700070B5044685690078C00707D170BDD4E91E
:10048000012120209047206A401C20626D1EF6D575
:1004900070BD70B50C460546012A05D02878800647
:1004A00000D5EA69002302E0012305E05B1C9342CA
:1004B00002D2E05C0028F9D1A869E618C01AA86148
:1004C000286A184428622846FFF7BCFF04E0D5E9F3
:1004D000012114F8010B9047B442F8D32846FFF7E6
:1004E000C7FF70BD2DE9F04106460024106875294C
:1004F000314616A510D0AFF30080002802DA404242
:1005000013A507E031688A0701D512A502E0490763
:1005100004D511A5012401E0AFF3008000210A22D7
:1005200006F1240709E0B0FBF2FCB0FBF2F302FB9A
:100530001C00303078541846491C0028F3D123465B
:100540002A463046BDE8F04100F095BA00000000B0
:100550002D0000002B000000200000002DE9F05FBE
:10056000894604464FF0000ADFF874B1FB44C0F836
:1005700020A02046E1688847002874D0252806D0AE
:10058000D4E901219047206A401C2062F1E700264F
:100590005F462046E16888472028054607DB312D65
:1005A00005D2781910F8200C08B10643F1E7B0071E
:1005B00001D526F00406C4F81CA00027C4F818A032
:1005C0002A2D09D028460FF08FFE38B304EB870898
:1005D000303DC8F8185019E059F8041B204604EBC8
:1005E00087029161E1688847012F054618D1E069CB
:1005F000002820DA26F020061DE0D8F8180000EBCD
:10060000800005EB40003038C8F818002046E1684B
:10061000884705460FF068FE0028EED1012F0AD06A
:100620002E2D08D12046E16888477F1C0546022F01
:1006300046F02006C4DBA069002803DA404246F0F9
:100640000106A061F00701D026F010066C2D0BD03A
:10065000682D09D04C2D39D06A2D35D0742D35D068
:100660007A2D33D016E038E0E1682F4620468847DF
:10067000B842054609D16C2F26D04FF48060E1685E
:10068000064320468847054604E06C2F1AD04FF4F5
:10069000807006430DB3A5F14100192802D820351A
:1006A00046F400664A462946204626604E46FFF735
:1006B000A5FD80B101280BD0F61D26F0070000F142
:1006C000080956E74020E4E78020D8E70020D6E775
:1006D00006F104094DE7284652E7206ABDE8F09F7D
:1006E000E60B010010B5044603E007F079FE401C5C
:1006F00009D014F8010B05490028F6D1BDE81040D7
:100700000A2007F06DBE4FF0FF3010BD74030020CB
:10071000401ECAB210F8011F8A4202D00029F9D146
:100720000020704730B505460B462A4613F8014BAA
:1007300012F8010B08B1A042F8D01CB1002802D079
:100740006D1CF1E7284630BD40EA010310B59B0758
:100750000FD1042A0DD310C808C9121F9C42F8D02B
:1007600020BA19BA884201D9012010BD4FF0FF30DC
:1007700010BD1AB1D30703D0521C07E0002010BDF2
:1007800010F8013B11F8014B1B1B07D110F8013B7E
:1007900011F8014B1B1B01D1921EF1D1184610BD5F
:1007A00010B5431C02E010F8011B71B18107FAD1AA
:1007B0004FF0013202C88C1A8C4314EAC211F9D0EE
:1007C000C01A0A0603D0C01E10BDC01A10BD0A040C
:1007D00001D0801E10BD0902FCD0401E10BD40EAB1
:1007E000010370B59B072ED14FF00136042A2AD39E
:1007F00008C810C99D1B9D43121F15EAC61517D0C6
:10080000D8B2E1B2401A50EA056110D198B2A1B253
:10081000401A50EA05410AD123F07F4024F07F417D
:10082000401A50EA052102D1180EA0EB146070BDE9
:10083000A342DBD018BA21BA884201D9012070BD89
:100840004FF0FF3070BD0AB9002070BD10F8013BB9
:1008500011F8014B63B1A3420AD1521E08D010F81F
:10086000013B11F8014B1BB1A34201D1521EEDD146
:10087000181B70BD032A40F2308010F0030C00F00A
:10088000158011F8013BBCF1020F624498BF11F8CA
:1008900001CB00F8013B38BF11F8013BA2F1040283
:1008A00098BF00F801CB38BF00F8013B11F00303FB
:1008B00000F02580083AC0F0088051F8043B083A5F
:1008C00051F804CBA0E80810F5E7121D5CBF51F801
:1008D000043B40F8043BAFF30080D20724BF11F87B
:1008E000013B11F801CB48BF11F8012B24BF00F8E0
:1008F000013B00F801CB48BF00F8012B704710B551
:10090000203AC0F00B80B1E81850A0E81850B1E8C8
:100910001850A0E81850203ABFF4F5AF5FEA027C07
:1009200024BFB1E81850A0E8185044BF18C918C037
:10093000BDE810405FEA827C24BF51F8043B40F8D8
:10094000043B08BF7047D20728BF31F8023B48BFBD
:1009500011F8012B28BF20F8023B48BF00F8012BFB
:10096000704702F0FF0343EA032242EA024200F02A
:1009700024B84FF000020429C0F0128010F0030CDC
:1009800000F01B80CCF1040CBCF1020F18BF00F882
:10099000012BA8BF20F8022BA1EB0C0100F00DB831
:1009A0005FEAC17C24BF00F8012B00F8012B48BF8F
:1009B00000F8012B70474FF0000200B51346944633
:1009C0009646203922BFA0E80C50A0E80C50B1F1A7
:1009D0002001BFF4F7AF090728BFA0E80C5048BFBB
:1009E0000CC05DF804EB890028BF40F8042B08BF59
:1009F000704748BF20F8022B11F0804F18BF00F855
:100A0000012B704710B5044610F0030F08BF11F01A
:100A1000030F40F015804FF0013E121FC0F20E8010
:100A200051F8043BA3EB0E0C2CEA030C1CEACE1C81
:100A300008BF40F8043BF0D0A1F1040102F1040228
:100A4000521E08DB11F8013B00F8013B002BF7D1E7
:100A50001146FFF78EFF204610BD70477047704764
:100A600010B500F037FC006810BD10B5044600F06A
:100A700031FC046010BD2DE9F0470D4699469246C1
:100A8000044600F124080168880604D5E06921F0D5
:100A90001001216000E00120A84201DD471B00E0B9
:100AA0000027A1697A1902EB0900081AA0612078D1
:100AB000C00602D42046FFF7C5FC002608E0D4E9B2
:100AC00001211AF806009047206A401C761C20621B
:100AD0004E45F4DB2078C0060AD52046FFF7B2FC6D
:100AE00006E0D4E9012130209047206A401C2062B2
:100AF000381EA7F10107F4DC07E0D4E9012118F85A
:100B000005009047206A401C2062281EA5F10105BF
:100B1000F3DC2046FFF7ACFC2078000602D502206B
:100B2000BDE8F0870120FBE72DE9FF4F0C461E468C
:100B30004FF0FF378BB0D2E90001DDF860800A90FA
:100B40008A46C1F30A5505B93D46002108464FF0D3
:100B50000000BAF1000F00F4400005DA00EB80005D
:100B60004FF4400101EA50004FEA9059B9F1010FEA
:100B700000DDB9460A9850EA4A000ED044F61050FB
:100B8000A5F2FF3545432F14B8F1000F1ED0754272
:100B9000291E1EDDC9F100021CE0B8F1010F4FF063
:100BA000000001D0302103E0F24305E02154401C55
:100BB000B042FBDB30460022002121540B99C1F8E2
:100BC0000880C1E900200FB0BDE8F08FBD1B6D1C8F
:100BD000DEE74A4600DA694206A800F005FC06ABEB
:100BE00093E8070003AB83E8070050460A990DF02D
:100BF00099FE8DE80700A0F500501F38009003987B
:100C0000002D0ADD42F21F014A460844002303A9D1
:100C1000039068460EF002F909E0A0F500504A463C
:100C20001F38002303A9039068460EF00CF98DE8E5
:100C300007000004000C03D04FF0FF30410800E033
:100C40001046B8F1000F03D00022009215461EE0B6
:100C5000751E05D400F042FB303262556D1EF9D589
:100C6000B3460122084302D000227F1C04E0207812
:100C7000302801D100227F1E002A099784D01DE070
:100C8000112D07DA00F02AFB303262556D1C50EA54
:100C90000102F5D1084302D00098C8B10EE000214E
:100CA000681E05E0235C625C63542254401E491CAC
:100CB0008142F7DBAB46A81B401E0990002004F8D8
:100CC0000B000B98099AC0F80880C0E9002B7AE75E
:100CD00011264FF0000857E72DE9F04F88460446EB
:100CE000D21D22F0070191B0D1E90001CDE90A013E
:100CF0000EF0E0F902460B98C00F01D02D2007E05E
:100D00002068810701D52B2002E0202101EAC000E4
:100D1000032A099001D0072A05DB034641462046F5
:100D200000F022FB0BE12078800601D5E06900E0AD
:100D30000620B8F1650F814606D0B8F1660F18D0CD
:100D4000B8F1670F70D131E00020B9F1110F0090B8
:100D500001DB112301E009F101030AAA01A90CA892
:100D6000FFF7E2FEDDE90C70002609F1010583467C
:100D700047E001204B4600904FF000470AAA01A926
:100D80000CA8FFF7D1FEDDE90DB00C995D460026F9
:100D900010B909F101000D18B9EB050003D4C0F139
:100DA000FF3609F10105A5EB09002BE0B9F1010FB0
:100DB00001DA4FF001090020B9F1110F0090484607
:100DC00001DD112300E003460AAA01A90CA8FFF7E0
:100DD000ABFEDDE90C704D46002683462078000707
:100DE0000AD4AB4500DA5D4601A8012D04DD4119A6
:100DF00011F8011C302907D04F4502DA17F1040F12
:100E000004DA012082460FE06D1EEEE7002F02DCBF
:100E1000ED1B3E4403E0781CA84200DD7D1CB81B9E
:100E200000F1010A4FF000472078000703D4AA45DB
:100E300001DB4FF0FF3A0021B7F1004F0DF14308FD
:100E40008DF8431024D002202B23002F01DA7F429B
:100E50002D230A21021EA0F1010000DC5FB197FBE7
:100E6000F1FC97FBF1F201FB1C7C17460CF1300CF6
:100E700008F801CDEEE7A8F101000370218809050B
:100E800001D5452100E06521A0F1010800F8011C11
:100E900009980FA9A1EB0807FF1D00B10120411916
:100EA00001EBEA70A1693844081A401EA06120785D
:100EB000C00602D42046FFF7C5FA099828B1D4E944
:100EC00001219047206A401C20622078C00622D56C
:100ED0002046FFF7B7FA1EE0002E04DBB34502DD23
:100EE00001A8805D00E03020D4E901219047206A0C
:100EF000401C2062761CAAF101005FEA000A0AD1B8
:100F000000F0E4F9C0680168405CD4E90121904731
:100F1000206A401C2062281EA5F10105DCDC07E0E8
:100F2000D4E9012118F8010B9047206A401C206287
:100F3000381EA7F10107F3DC2046FFF799FA0320DA
:100F400011B041E62DE9F04F04460D46D21D22F0C6
:100F5000070089B0D0E90097484639460EF0AAF854
:100F60000246F80F01D02D2307E02068810701D544
:100F70002B2302E0202101EAC0038DF820300BB1C1
:100F8000012000E00020032A824601D0072A04DB6A
:100F90002946204600F0E8F93FE12078800601D498
:100FA0000D2500E0E569C7F30A560D2D49DA002149
:100FB0004FEA175B08464FF00000002F00F4400096
:100FC00007DA00EB80004FF4400100EBD07001EA3B
:100FD00060008115012901DD4FF0FF3100224FEA49
:100FE000850CBCF1180F06D31346ACF118004FF076
:100FF0008052C24003E04FF4801323FA0CF30CF14B
:101000000C0CBCF1200F04D3ACF1200C09FA0CF04D
:1010100001E007FA0CF000294FF0004801DD18B993
:101020000FE00ED140450CD319EB02095F4121B905
:10103000404502D19F4329EA0209BBEB175F00D06C
:10104000761C2088000502D57B48784402E07A4867
:101050007844193808AA302302F80A30037C0AF1D0
:101060000101002E0AF1020A53546A4602DC4FF0D5
:10107000300101E04FF031014FF001088DF8001010
:1010800002D0A6F2FF3603E059EA470100D06B4ECA
:10109000002D02DC2178090704D54FF002082E212B
:1010A0008DF80110C44600210BE0C7F303433F0154
:1010B000C35C491C6D1E02F80830052908F10108BF
:1010C00001DA002DF1DC00210CE000EB1973491C62
:1010D0001B786D1E082902F808304FEA091908F13B
:1010E000010801DA002DF0DC21688B0602D516E03C
:1010F000A8F10108E04505DD02EB080313F8013C07
:10110000302BF5D0B8F1000F09DD02EB080313F81E
:10111000013C2E2B03D1090701D4A8F10108002DB1
:1011200005DD3E2102F808106D1E08F10108407C23
:10113000002E02F8080008F1010804DA2D2076429A
:1011400002F8080002E02B2002F808000A214FF400
:101150007A70864208F101080BDB96FBF0F330331E
:1011600002F8083096FBF0F308F1010800FB136663
:1011700001E0642E0CDB642096FBF0F3303302F8C0
:10118000083096FBF0F308F1010800FB136601E05C
:101190000A2E06DB96FBF1F0303002F8080008F169
:1011A000010896FBF1F001FB1060303002F80800F6
:1011B000A16908F1010808EB050202EB0A00081A10
:1011C000A0612078C00602D42046FFF73BF9216ACF
:1011D00008AE01EB0A00206204E0D4E9012116F810
:1011E000010B9047BAF1010AF7D22078C00602D568
:1011F0002046FFF727F96E4609E016F8010B3E2856
:101200000FD0D4E901219047206A401C2062B8F138
:101210000108F2D22046FFF72BF909B00320BDE800
:10122000F08F206A2844206203E0D4E901213020B5
:1012300090476D1EEBD3F8E77D01010002FCFFFF34
:1012400001694A1C02610878704700B58FB0CDE98A
:1012500001310021059105497944CDE9031011467A
:101260006846FFF77BF90FB000BD0000E5FFFFFF08
:101270000A6802F8010B0A60704710B5436913B1A0
:10128000AFF3008001E0FFF704F9012010BD1278F0
:1012900000F124010A7000224A700122EDE7116872
:1012A0004FF0FF32E9E70000074B70B50D467B4475
:1012B000FFF7CBFF0446284600F008F910B14FF0C5
:1012C000FF3070BD204670BD2F7100000048704790
:1012D0001001002000487047F000002030B5B0F148
:1012E0000A0271F100034FEA900E4EEA817EB0EBE4
:1012F0000E0061EB91014FEA101E4EEA017E10EBE9
:101300000E0041EB11114FEA102E4EEA016E10EB68
:101310000E0041EB11214FEA104E4EEA014E10EB48
:101320000E0041EB1141401841F100014FEAD0009D
:1013300040EA41704FEAD1014FEA810444EA9074D7
:1013400010EB800544EB01046D1944EB0404521BBF
:10135000A3414FF0000348BF0A3200D530BD401C06
:1013600041F1000130BD00002DE9F0411F46044667
:1013700003260168072A01F4006004DB08B116A502
:1013800005E016A503E008B115A500E015A521F0BC
:1013900010002060A069C01EA0610FB1401EA061B6
:1013A0002046FFF74FF84FB1D4E901213846904766
:1013B000206A401C2062C01C206206E0206AFAE716
:1013C000D4E9012115F8010B9047761EF8D220468A
:1013D000FFF74EF8BDE8F0814E414E006E616E00A1
:1013E000494E4600696E66002DE9F0478146164673
:1013F0008AB0354878440DC88DE80D0032487844ED
:10140000801C03AC0DC884E80D0041F69B300844F5
:10141000372190FBF1F290FBF1F5A5F1800501FB7E
:1014200012041B3C02D56442012000E00020DFF8DA
:1014300098A080460027FA44AAF1BE0A0EE0E00711
:101440000AD03246684607EB470101230AEB8101C7
:101450000DF0F9FC8DE8070064107F1C002CEED124
:10146000194F7F44AE3F19E0E80715D007EB041091
:101470000DF1180A90E80E008AE80E00C068F042EC
:1014800001D1981908903246012306A903A80DF04E
:10149000DAFC03AB83E807006D10641C002DE3D178
:1014A0004FF0010332466946B8F1000F03A802D09D
:1014B0000DF0B4FC01E00DF0C6FCC9E90001C9F86B
:1014C00008200AB0BDE8F0872C000100007B00F086
:1014D0008000704700487047F00000207546FFF715
:1014E000F9FFAE4605006946534620F007008546E1
:1014F00018B020B5FEF7C2FEBDE820404FF0000650
:101500004FF000074FF000084FF0000BAC46ACE87E
:10151000C009ACE8C009ACE8C009ACE8C00921F0DA
:1015200007018D46704710B50446AFF30080204692
:10153000BDE81040FEF78DBE30B44FF0013C50F8CE
:10154000042B51F8043BCCFA52F4D51A20D1FCB943
:1015500050F8042B51F8043BCCFA52F4D51A17D1A9
:10156000B4B950F8042B51F8043BCCFA52F4D51A14
:101570000ED16CB950F8042B51F8043BCCFA52F45C
:10158000D51A05D1002CDAD030BC4FF000007047DE
:1015900029BAB1FA81F111F01801D1F1200084408B
:1015A000F2D1CA40CB4012F0FF0213F0FF0330BC6F
:1015B000D01A704701491820ABBEFEE72600020092
:1015C0007047000070B540F2F854C2F200040546BE
:1015D00020460E4601F076FA701E062888BF70BDC0
:1015E0000DA030F8160044F24021C0F20F01B1FB0B
:1015F000F0F02168C862E0604008486308F00EFF20
:1016000040F2A4234219C2F2000320460021DA80EE
:10161000BDE8704001F07ABDEE010B024C0294026D
:10162000BA0210037003DC0370B540F27030C2F2EE
:101630000000067840F2A425C2F2000536B940F257
:10164000D420C2F200000078002878D040F2F8548C
:10165000C2F20004204601F035FA08F0DFFE40F245
:101660002601C2F2000109786A69B1FA81F14909DB
:101670000023904238BF012341EA0301A6B10029AB
:101680005DD140F208016B78C2F20001421D08688A
:101690006A613BB30238B0F5487F08602BD14FF444
:1016A0004870002126E000BF002948D1A96940F216
:1016B0000802C2F2000202EB41029288C83068615F
:1016C00052B344F24020C0F20F00B0FBF2F02168A8
:1016D000C862E060400848632046002101F016FD22
:1016E000A9691FE00230B0F5AF6F086003D14FF475
:1016F000AF600121697044F24021C0F20F01B1FBDB
:10170000F0F02168C862E06040084863204600218C
:1017100001F0FCFC13E000BF20680122C262E2601D
:1017200000224263481C4AF6AB21CAF6AA21A0FB5C
:101730000112D10801EB4101A0EB8100A861E8880A
:10174000002808BF70BD08F069FEE988884201D210
:1017500070BD00BF002240F2F850C2F2000000212C
:10176000EA80BDE8704001F05BBD0000FEE70000CC
:101770002DE9F04387B041F2000900200121C4F2B5
:1017800002090590CDE9011002200391049001A9FE
:10179000484600F025FC4846012100F0F5FCE8B37E
:1017A00041F2040540F2B8064DF683670020CEF200
:1017B0000005C2F20006C4F21B3700BF31680446C0
:1017C000A1FB0712910C01912968069128680699DE
:1017D000019A401A904211D228680699019A401A3B
:1017E00090420BD228680699019A401A904205D27D
:1017F00028680699019A401A9042E7D34846012189
:1018000000F0C2FC18B1632C04F10100D6D3622CA5
:1018100004D9012007B0BDE8F08300BF484601218C
:1018200000F0B2FC20B1002007B0BDE8F08300BF9B
:1018300041F2040540F2B8084DF683670020CEF26D
:101840000005C2F20008C4F21B3700BFD8F8001030
:101850000646A1FB0712910C01912968069100BF71
:1018600028680699019A401A904211D22868069970
:10187000019A401A90420BD228680699019A401AA0
:10188000904205D228680699019A401A9042E7D3FF
:101890004846012100F078FC18B9EF2E06F101004E
:1018A000D4D30020EE2E88BF012007B0BDE8F0831E
:1018B0002DE9F04F87B041F2040641F200044DF6E5
:1018C000836BCEF20006C4F20204002701250DF15D
:1018D0000408C4F21B3B4FF0000A4FF000090CE073
:1018E0000138B0FA80F0400900FA0AF00AF1010A62
:1018F000BAF1080F49EA00096AD002200490204694
:1019000041460597CDE90155039700F069FB204654
:101910000121002200F03EFC40F2B800C2F20000BB
:101920000068A0FB0B01880C00EB800040000190D8
:101930003068069030680699019A401A904211D298
:1019400030680699019A401A90420BD23068069985
:10195000019A401A904205D230680699019A401ABD
:101960009042E7D302200490204641460597CDE9F6
:101970000157039500F034FB2046012100F004FCE0
:1019800040F2B801C2F200010968A1FB0B12910CF0
:101990002D22514301913168069100BF3168069AAA
:1019A000019B891A99429BD23168069A019B891A38
:1019B000994295D23168069A019B891A99428FD231
:1019C0003168069A019B891A9942E7D388E700BFDC
:1019D0005FFA89F007B0BDE8F08F0000F0B587B07E
:1019E00041F200040020C4F202040590012103909A
:1019F000022041F20405CDE90111049001A920461D
:101A0000CEF2000500F0ECFA20460121002200F0A1
:101A1000C1FB40F2B806C2F2000630684DF683679B
:101A2000C4F21B37A0FB0701880C40F2EE214843AB
:101A300001902868069000BF28680699019A401A0C
:101A4000904211D228680699019A401A90420BD20E
:101A500028680699019A401A904205D2286806998A
:101A6000019A401A9042E7D320460121012200F05A
:101A700091FB3068A0FB0701880C0001A0EB9140AE
:101A800001902868069000BF28680699019A401ABC
:101A9000904211D228680699019A401A90420BD2BE
:101AA00028680699019A401A904205D2286806993A
:101AB000019A401A9042E7D307B0F0BD10B508F084
:101AC000ADFC40F2A424C2F20004A16888425CD3B9
:101AD0003230A06008F0A2FC616A01F57A71884298
:101AE0001ED908F09BFC606206F03AFC9FED271AB5
:101AF000B4EE410AF1EE10FA12DA40F26C30C2F2A2
:101B0000000080ED000A10EE100A0FF073FA024692
:101B100040F208300B46C2F200001DA1FEF77EFC29
:101B200008F07CFC40F2F022C2F20002E169126887
:101B30001144884298BF10BD08F070FC40F2F422B6
:101B4000C2F200021168E0614A290DDC40F26C30FB
:101B5000C2F200004B1C0068136048F6AC72C2F27F
:101B6000000242F8210010BD48F6AC74C2F2000435
:101B7000211D20464FF49472FEF7C1FE40F26C30F6
:101B8000C2F200000068C4F8280110BD0000FA424B
:101B9000252E3166000000002DE9F04F87B0044685
:101BA00041F200080120C4F20208CDE90100022040
:101BB00041F204060027049001A94046CEF2000637
:101BC0000597039700F00CFA40F2B8094DF68365CB
:101BD000C2F20009C4F21B356FF0070A4FF03A0B4E
:101BE00006E000BF6408072F07F1010780F0A2801C
:101BF00040460121002200F0CDFAE0074CD1D9F88F
:101C00000000A0FB0501880C462148430190306884
:101C1000069000BF30680699019A401A904211D28E
:101C200030680699019A401A90420BD230680699A2
:101C3000019A401A904205D230680699019A401ADA
:101C40009042E7D340460121012200F0A3FAD9F8DF
:101C50000000A0FB05016FF0010000EA5140019077
:101C60003068069030680699019A401A9042B9D2BD
:101C700030680699019A401A9042B3D230680699AA
:101C8000019A401A9042ADD230680699019A401AE2
:101C90009042E7D3A6E700BFD9F80000A0FB0501FA
:101CA0000AEAD13001903068069000BF306806998A
:101CB000019A401A904211D230680699019A401A4E
:101CC00090420BD230680699019A401A904205D290
:101CD00030680699019A401A9042E7D340460121A4
:101CE000012200F057FAD9F80000A0FB0501880C8A
:101CF00000FB0BF001903068069000BF3068069939
:101D0000019A401A9042BFF46DAF30680699019A6B
:101D1000401A9042BFF466AF30680699019A401AA3
:101D20009042BFF45FAF30680699019A401A904222
:101D3000E4D357E707B0BDE8F08F0000704700001C
:101D40002DE9F04F81B02DED048B8CB040F2D720FF
:101D5000C2F200000078002800F0968008F05EFBD8
:101D600048F23064C2F200042168884240F28C805C
:101D700008F054FB00EE100A40F22C00C2F2000002
:101D800090ED001A9FED432A40F26C30B8EE400A05
:101D900021EE021AC2F2000031EE000A0068BCEE29
:101DA000C00A84ED000A0FF025F9804640F2562063
:101DB000C2F20000B0F900B040F25820C2F20000B8
:101DC000B0F9004040F25A20C2F20000B0F90050D1
:101DD00040F25020C2F20000B0F9007040F25220F0
:101DE000C2F20000B0F9006040F25420C2F20000DC
:101DF000B0F900A040F26820C2F2000000688946F5
:101E00000FF0F8F841EC180B40F26C20C2F2000021
:101E100000680FF0EFF841EC190B40F27020C2F2AD
:101E2000000000680FF0E6F8049648F2346641ECD2
:101E3000100BC2F2000642F27511C0F601013046E5
:101E400042464B468DED068B8DED089B8DED0A0BC2
:101E5000CDE900B4CDE90257CDF814A0FEF7DEFAC3
:101E60003046FEF79DFC40F20431C2F200010A68E0
:101E7000024430460A600CB0BDEC048B01B0BDE8F2
:101E8000F04F03F093BE00BF0CB0BDEC048B01B06B
:101E9000BDE8F08F00007A44EFF3108072B600BF07
:101EA000FEE7000010B5ADF5007D40F27420C2F2EF
:101EB00000000068694600220023002408F0E8FAC8
:101EC00020B120460DF5007D10BD00BF684603F02F
:101ED00089F9012420460DF5007D10BD10B582B0B2
:101EE0001FFA80FE1FFA81FC40F668409CB293B254
:101EF000C2F2000071466246009409F0E9FB02B0AC
:101F000010BD000070B5866D044600F049F994F8E4
:101F10003510022928D105462068216C026822F07C
:101F200016020260426922F08002426109B9A16C86
:101F300019B1016821F008010160016821F0010177
:101F4000016000BF20680068C00715D000F028F9C4
:101F5000401B0628F6D320206065032084F8350056
:101F6000002184F8341070BD8020606501200021BC
:101F700084F8341070BD00BFE06D3F2101FA00F01D
:101F8000B060012084F835000020002184F834106E
:101F900070BD000090F83510022909D1052180F8A4
:101FA00035100068016821F00101016000207047D0
:101FB0008021416501207047B0B5044600F0F0F87B
:101FC000054640F20000C2F200000078611C18BF14
:101FD000044400BF00F0E4F8401BA042FAD3B0BDB7
:101FE0002DE9F04F82B000F13E4241F6004502F18A
:101FF000FF77C4F20205082243F6004E4FEAB726E7
:10200000A84208BF0722C4F2010E072E38BF4FEACC
:10201000B7220125002600274FF00008009208E0B3
:1020200008F101080437B8F1100F06F1020600F0BC
:10203000A7800C6805FA08F914EA090FF0D0D1F866
:1020400004B003220BF0030CACF10104B240012CEC
:102050006FEA020A10D88268CC6802EA0A02B44029
:10206000224382604268CBF3001422EA090204FA98
:1020700008F42243426005E0BCF1030F02D14FF0A7
:10208000030C20E0C2688C6802EA0A02B4402243D2
:10209000BCF1020FC26016D16FF0030202EA5802CF
:1020A0000244D2F820C007F01C050F230C69AB4096
:1020B0002CEA030304FA05F52B431362D1F804B0AC
:1020C00001250BF0030C02680CFA06F302EA0A027F
:1020D0001A431BF4403F0260A2D0002243F644039F
:1020E0000192C4F202031A684FF6084C42F480428F
:1020F0001A601A68CFF6FF7C02F480420192019ABE
:1021000028F00302724452F80C3007F00C050F243B
:10211000AC40A343009C04FA05F52B4342F80C3075
:10212000DEF808204B6842EA090543F60C4CDC0255
:1021300058BF22EA0905CEF80850C4F2010CDCF8B9
:1021400000209C0242EA090558BF22EA0905CCF8A2
:102150000050DEF804209C0342EA090558BF22EA39
:102160000905CEF80450DEF80020DB0342EA090539
:1021700058BF22EA0905CEF80050012550E700BFFC
:1021800002B0BDE8F08F00000069084018BF0120D0
:1021900070470000002A08BF0904816170470000F1
:1021A00048F29860C2F200000068704740F20000F8
:1021B00048F29861C2F20000C2F2000100780A6899
:1021C000104408607047000080B543F60040C4F238
:1021D0000200016841F400710160016841F480610E
:1021E0000160016841F480710160032000F0C8F8CB
:1021F0000F2000F005F800F061F8002080BD00001D
:1022000070B586B0002543F640010195C4F2020185
:102210000A68044642F020020A60096801A801F039
:10222000200101910199694600F06AF9049E002E8F
:1022300018BF012600F084F94DF68361B040C4F266
:102240001B31A0FB01014FF0FF3000EB914140F248
:10225000406041F20042C2F20000C4F2000240F2CB
:10226000E733C0E90021C0E902530561856100F050
:10227000DFFB054610B1284606B070BD40F2406055
:10228000C2F2000000F01EFC05460028F3D1372002
:1022900000F036F80F2C0DD83720214600220025FB
:1022A00000F042F840F20400C2F200000460284648
:1022B00006B070BD0125284606B070BD82B0002072
:1022C00043F640010190C4F202014A6842F48042A0
:1022D0004A604A6802F480420192019A00900868BC
:1022E000002240F08050086008680F2100F0805004
:1022F000009000986FF0010002B000F015B80000E7
:10230000002848BF7047C1B200F01F00012202FA46
:1023100000F04EF20012CEF2000242EAD10121F0AA
:10232000030108607047000010B54EF60C5CCEF259
:10233000000CDCF80030C3F3022E8EF00704042CEE
:1023400028BF0424BEF103034FF0FF3E0EFA04F44D
:1023500038BF0023A14399400EFA03F39A43114377
:1023600000F00F0200F160430901043A03F56443F1
:102370006244002848BF02F10C03197010BD000030
:102380004EF60C51CEF200010A684FF6FF031A40D8
:1023900060F30A2242F0806040F0FD7008607047F0
:1023A0002DE9F041002800F08B8043F60808C4F2C4
:1023B00002080446D8F8F8030D4600F007008842EA
:1023C00007D288F8F853D8F8F80300F00700A842BD
:1023D00076D12068810717D5410705D5D8F80010B8
:1023E00041F4E051C8F80010010705D5D8F80010F5
:1023F00041F46041C8F80010D8F80010A26821F03C
:10240000F0011143C8F80010C0073FD1D8F8F80315
:1024100000F00700A84207D988F8F853D8F8F80365
:1024200000F00700A8424BD12068410707D5D8F833
:102430000010E26821F4E0511143C8F800100007D1
:1024400008D5D8F80000216920F4604040EAC100B6
:10245000C8F8000000F09CF8D8F8001041F24242A1
:10246000C1F30311C0F60102515C40F2B80220FA38
:1024700001F140F20400C2F200000068C2F2000262
:102480001160FFF7BDFE0020BDE8F0816068811E8D
:10249000022907D258F8081C89015CBF0120BDE859
:1024A000F08111E0012807D158F8081C89035CBFAE
:1024B0000120BDE8F08107E058F8081C890703D423
:1024C0000120BDE8F08100BFD8F8001021F0030121
:1024D0000843C8F80000FFF763FE064641F288375C
:1024E000D8F80000616800F00C00B0EB810F8DD0CF
:1024F000FFF756FE801BB842F2D90320BDE8F081F9
:102500000F22026043F60802C4F20202136803F0CD
:1025100003034360136803F0F0038360136803F45C
:10252000E053C360D2F800C04FF4E05303EADC0389
:102530000361D2F8F80300F007000860704700005C
:1025400040F2B80043F60801C2F20000C4F20201F2
:102550000068096841F25242C1F38221C0F60102CB
:10256000515CC8407047000040F2B80043F60801D3
:10257000C2F20000C4F202010068096841F252424E
:10258000C1F34231C0F60102515CC84070470000FF
:1025900010B543F60404C4F20204606800F00C01B4
:1025A00042F200400829C0F2F40007D0042918BF05
:1025B00010BD41F20020C0F27A0010BD216801F088
:1025C0003F02216823684902C3F3881106D4A1FBA6
:1025D00000010023FDF764FE07E000BF41F2002088
:1025E000C0F27A004843B0FBF2F021680222C1F346
:1025F000014102EB4101B0FBF1F010BD2DE9F041CA
:1026000082B0002868D00446007843F60006C00770
:10261000C4F202060BD0B06800F00C00042840F0B1
:102620009F803068800302D56068002854D02078ED
:1026300080071AD5B06810F00C0F09D0B06800F010
:102640000C00082840F0A6807068400200F1A280CB
:102650003068800702D5E06801283DD130682169E3
:1026600020F0F80040EAC10030602078000737D43D
:10267000207840074CD4A56955B3B06800F00C0031
:10268000082840F0BB80012D26D07068E16900F475
:1026900080028A4220D1216A00F03F028A421BD187
:1026A00047F6C071626A0140B1EB821F14D1A16A82
:1026B0004FF6FF73C903994300F44032A1F580310E
:1026C0008A4209D1E16A00F07060B0EB016F03D17A
:1026D000002002B0BDE8F081012002B0BDE8F08129
:1026E0006069002840F20000C4F2472076D0012142
:1026F000C0F8801EFFF754FD054600BF706F8007CD
:10270000B6D4FFF74DFD401B0228F7D9DDE000BF2E
:10271000306C10F080580AD100200190306C40F0ED
:1027200080503064306C00F080500190019847F286
:102730000007C4F200073868C00541D4386840F487
:1027400080703860FFF72CFD054600BF3868C00573
:1027500036D4FFF725FD401B0228F7D9B5E000BFAE
:10276000B06800F00C00082803D1706840023FF503
:1027700058AF6068B0F5803F07D0B0F5A02F40F0AB
:102780008D80306840F480203060306840F48030C4
:1027900030608DE0E068002852D00020C4F247206D
:1027A00001210160FFF7FCFC054600BF306880078F
:1027B0003FF554AFFFF7F4FC401B0228F6D984E044
:1027C000A068012805D005284ED1306F40F00400E4
:1027D0003067306F40F0010030674FE00021C0F8F3
:1027E000801EFFF7DDFC0546706F80077FF540AF68
:1027F000FFF7D6FC401B0228F6D966E00027C4F29A
:10280000472700203866FFF7CBFC022D05460BD189
:10281000306880015ED5FFF7C3FC401B02284FF0F3
:102820000300F5D955E700BF306880017FF550AF50
:10283000FFF7B6FC401B02284FF00300F4D948E72D
:102840000020C4F2472000210160FFF7A9FC0546E3
:10285000306880077FF509AFFFF7A2FC401B022814
:102860004FF00300F4D934E7316F002821F0010163
:102870003167316F21F0040131674DD0FFF790FCD3
:10288000054641F2883700BF306F800756D4FFF706
:1028900087FC401BB842F7D917E000BF3168002819
:1028A00021F480313160316821F4802131604FD0D2
:1028B000FFF776FC054600BF306880033FF5B7AEF2
:1028C000FFF76EFC401B6428F6D9032002B0BDE878
:1028D000F08100BF04F11C052FCD084340EA8210AF
:1028E000D9034FF6FF729143A1F5803140EA0560AC
:1028F0000843706001203866FFF752FC044600BFB1
:10290000306880013FF5E4AEFFF74AFC001B022867
:102910004FF00300F4D9DCE6FFF742FC054641F234
:10292000883700BF306F800708D5FFF739FC401BA0
:10293000B8424FF00300F5D9CBE600BFB8F1000F65
:102940007FF499AE306C20F08050306493E600BF85
:10295000FFF726FC054600BF306880037FF567AEB1
:10296000FFF71EFC401B64284FF00300F4D9B0E6CB
:10297000704700007047000010B590F83C20012A15
:102980004FF0020251D080F83D200268D2F804E0F6
:10299000D2F808C00C682EF07003234341F2FF7494
:1029A000C4F20004A24253600EDC40F2FF73C4F292
:1029B00000039A4216DCB2F1804F2BD040F2004364
:1029C000C4F2000324E000BF40F2FF33C4F201036D
:1029D0009A4213DC41F60003C4F200039A4219D074
:1029E000002313E040F60003C4F200039A4211D022
:1029F00040F60043C4F200030AE000BF44F20003C3
:102A0000C4F201039A4205D040F20043C4F201032C
:102A10009A4204D149682CF0800319439160012146
:102A2000002280F83D1080F83C20104610BD0000C8
:102A3000002804BF0120704710B5044690F83D00FF
:102A400028B9002084F83C00204600F01FF802203E
:102A500084F83D002068211D03F0EAF9012084F884
:102A6000460084F83E0084F83F0084F8400084F873
:102A7000410084F8420084F8430084F8440084F85C
:102A8000450084F83D00002010BD000081B00068C2
:102A900040F20041C4F20001884201D001B0704709
:102AA0000020009043F64000C4F20200016841F0AB
:102AB00002010160006800F002000090009801B07F
:102AC0007047000090F83D1001291CBF012070479D
:102AD000022180F83D10006841F2FF72C168C4F223
:102AE0000002904241F00101C1600DDC40F2FF7133
:102AF000C4F20001884215DCB0F1804F2AD040F2C8
:102B00000041C4F2000123E040F2FF31C4F20101B0
:102B1000884213DC41F60001C4F20001884219D05A
:102B2000002113E040F60001C4F20001884211D0F8
:102B300040F60041C4F200010AE000BF44F2000187
:102B4000C4F20101884205D040F20041C4F2010103
:102B5000884206D1816801F00701062904BF0020E0
:102B60007047016841F001010160002070470000DA
:102B700080B590F83C20012A4FF0020200F0C2809C
:102B800080F83D20D0F800C04FF67772DCF80830AE
:102B900023EA0202CCF808200B684F2B28DC1F2BFD
:102BA00044DD202B45D0302B43D0402B40F0AC806F
:102BB000D1F804E0C968DCF82030DCF8202022F0ED
:102BC0000102CCF82020DCF8182022F0F00242EAC2
:102BD000011123F00A0242EA0E02CCF81810CCF8D8
:102BE0002020DCF8081041F0470121F0300180E09E
:102BF0006F2B27DDB3F5005F48D0B3F5805F7AD047
:102C0000702B40F08180D1E901E3C968DCF808202D
:102C100043EA0E0322F47F4243EA01211143CCF838
:102C20000810DCF8081041F0770162E00BB1102BBE
:102C30006AD1DCF8081021F07001194341F0070156
:102C400057E000BF502B35D0602B5DD1D1F804E0A8
:102C5000C968DCF8203023F01003CCF82030DCF811
:102C60001830DCF8202023F4704322F0A00243EA5D
:102C7000013142EA0E12CCF81810CCF82020DCF812
:102C8000081041F0670121F0100132E0D1E901E3C1
:102C9000C968DCF8082043EA0E0322F47F4243EAC5
:102CA00001211143CCF80810DCF8081041F48041F0
:102CB0001FE000BFD1F804E0C968DCF82030DCF880
:102CC000202022F00102CCF82020DCF8182022F08D
:102CD000F00242EA011123F00A0242EA0E02CCF8A5
:102CE0001810CCF82020DCF8081041F0570121F032
:102CF0002001CCF808100022012180F83D100021AD
:102D000080F83C10104680BD0122F5E770470000B6
:102D100010B5016804460869800744BFC8685FEAC7
:102D2000807039D40869400744BFC8685FEA4070C2
:102D30003ED40869000744BFC8685FEA007045D404
:102D40000869C00644BFC8685FEAC0604AD4086921
:102D5000C0071CBFC8685FEAC07051D1086900068F
:102D600044BFC8685FEA006052D40869400644BFA7
:102D7000C8685FEA406053D40869800646BFC868E7
:102D80005FEA806010BD6FF0200220460A61BDE856
:102D90001040FFF7EFBD00BF6FF002000861012097
:102DA00020778869800743D02046FFF7AFFF45E0D2
:102DB0006FF00400086102202077886910F4407FDA
:102DC00040D02046FFF7A2FF42E000BF6FF00800AE
:102DD000086104202077C86980073DD02046FFF7AE
:102DE00095FF3FE06FF01000086108202077C86968
:102DF00010F4407F3AD02046FFF788FF3CE000BF48
:102E00006FF001000861204600F060FA2168A5E734
:102E10006FF0800008612046FFF7AAFD2168A4E753
:102E20006FF040000861204600F05AFA2168A3E7DD
:102E3000204600F025F8204600F066F921680020C1
:102E400020776FE7204600F01BF8204600F05CF981
:102E50002168002020776CE7204600F011F820461A
:102E600000F052F921680020207769E7204600F041
:102E700007F8204600F048F921680020207766E72F
:102E8000704700002DE9F04390F83C30012B04BF5F
:102E90000220BDE8F0834FEAB202032A00F2FC8070
:102EA000DFE802F0023E7EBE036840F200471A6A85
:102EB00043F4806522F001021A621C6A1A46D3F8B4
:102EC00004E052F818CF8E6824F00204C4F201071F
:102ED000BD4244EA060405D1CE6824F00C0426F075
:102EE000040634430E68BD4207D1D1E905572EF4DC
:102EF000407E45EA0E0545EA070E2CF0730737437E
:102F0000C3F804E09F614F6809695F631C629F69B1
:102F100047F008079F619F6927F004079F61B1E0B0
:102F2000036840F200481A6A43F4806522F01002F8
:102F30001A621C6A1A46D3F804C052F818EF8F6858
:102F400024F02004C4F20108454544EA071407D1DF
:102F5000CF686FF0400624F0C00406EA0716344339
:102F6000D1F80090454506D1D1E905562CF44067CB
:102F70002E4347EA860C2EF4E64747EA0927C3F8B2
:102F800004C09F614F6809699F631C629F6947F491
:102F900000679F619F6927F480679F6171E000BFB0
:102FA000036840F200481A6A43F4806522F4807294
:102FB0001A621C6A1A46D3F804C052F81CEF8F68D4
:102FC00024F40074C4F20108454544EA072408D1FA
:102FD000CF6840F2FF463F0224F4406427EA060629
:102FE0003443D1F80090454506D1D1E905562CF47B
:102FF00040572E4347EA061C2EF0730747EA09079D
:10300000C3F804C0DF614F680969DF631C62DF69D0
:1030100047F00807DF61DF6927F00407DF6131E06F
:10302000036840F200451A6A43F4806722F4805234
:103030001A621A46D3F820C05C6852F81CEFD1F827
:1030400000808E68C4F20105AF4204D14D6924F4BA
:10305000804444EA85142CF4005747EA06372EF4DE
:10306000E64646EA08265C60DE614E6809691E6431
:103070001F62DF6947F40067DF61DF6927F480675B
:10308000DF6109021368194311600021002280F8F2
:103090003C200846BDE8F0830121002280F83C2056
:1030A0000846BDE8F0830000002804BF01207047F7
:1030B00010B5044690F83D0028B9002084F83C0083
:1030C000204600F01FF8022084F83D002068211DF2
:1030D00002F0AEFE012084F8460084F83E0084F839
:1030E0003F0084F8400084F8410084F8420084F8EE
:1030F000430084F8440084F8450084F83D00002033
:1031000010BD0000704700007047000041B1082961
:1031100010D0042914BF00F1410200F13F020BE07E
:1031200090F83E20012A1CBF01207047022280F83F
:103130003E2013E000F140021278012A1CBF01205A
:1031400070470222082907D0042914BF80F84120C3
:1031500080F83F2002E000BF80F84020006801F0C6
:103160001F010122036A02FA01F123EA010202624D
:10317000026A114341F2FF72C4F2000290420162FE
:103180000CDC40F2FF71C4F20001884214DCB0F1A3
:10319000804F37D040F2004116E000BF40F2FF31CF
:1031A000C4F20101884215DC41F60001C4F20001BD
:1031B000884227D0002115E040F60001C4F200014A
:1031C00088421FD040F60041C4F20001884219D065
:1031D0001FE000BF44F20001C4F20101884211D097
:1031E00040F20041C4F20101884212D1416C40F228
:1031F000004340F48062C4F2010341F400419A426A
:10320000416406D1816801F00701062904BF00204E
:103210007047016841F00101016000207047000023
:1032200010B5026801F01F0E4FF0010C146A0CFA81
:103230000EF324EA0303136240F20043D2F820C0E5
:1032400042F48064C4F201039C42C2F820C009D158
:10325000136A41F21114234204D1136A40F2444428
:1032600023420FD0136A41F21114234213D1136A7F
:1032700040F2444423420ED1136823F0010313604B
:1032800009E000BF536C23F400435364136A41F216
:1032900011142342EBD008290CD0042910D00029A6
:1032A0004FF0010114BF80F8411080F83E1000205B
:1032B00010BD00BF012180F84010002010BD00BFEC
:1032C000012180F83F10002010BD0000006841F28D
:1032D0000041C4F20001884218BF7047FEF766BF84
:1032E0007047000081B090F83E30202B0CD10029AF
:1032F0004FF0010318BF002A02D1184601B07047F1
:1033000090F83C30012B03D10223184601B07047DE
:103310000123036381628285C28500222221026427
:1033200080F83E100369016880F83C201BB1CA6830
:1033300042F48072CA604A6942F001024A61CA6876
:1033400042F02002CA60026B012A2FD100220092B3
:103350000A68009249680091009900BF016851E82D
:10336000031F026841F0100142E8031313B3016820
:1033700051E8031F026841F0100142E80313CBB18A
:10338000016851E8031F026841F0100142E803138D
:1033900083B1016851E8031F026841F0100142E85F
:1033A0000313002B4FF00003D8D1A6E701231846E2
:1033B00001B070470023184601B0704770B540F265
:1033C0007426C2F200067268824218BF70BD40F2D5
:1033D000CE350446C2F2000551B168180022827051
:1033E0003068298029460022002307F0DFF8706842
:1033F0000023A91C40F2FD1284F83C30BDE8704067
:10340000FFF770BF7047000010B50446206850E811
:10341000030F216820F4907041E80302BAB32068DA
:1034200050E8030F216820F4907041E8030272B362
:10343000206850E8030F216820F4907041E80302EF
:103440002AB3206850E8030F216820F4907041E807
:103450000302002ADAD11AE0206850E8050F21683B
:1034600020F0010041E80502DAB1206850E8050FBC
:10347000216820F0010041E8050292B1206850E87F
:10348000050F216820F0010041E805024AB12068DB
:1034900050E8050F216820F0010041E80502002AEC
:1034A000DAD1206B012824D1206850E8030F21686D
:1034B00020F0100041E80302DAB1206850E8030F61
:1034C000216820F0100041E8030292B1206850E822
:1034D000030F216820F0100041E803024AB1206880
:1034E00050E8030F216820F0100041E80302002A91
:1034F000DAD12068406940060AD400202021E08506
:1035000084F83E1020632046FFF77CFF002010BDAA
:10351000206850E8050F216820F0400041E80502CE
:10352000DAB1206850E8050F216820F0400041E83A
:10353000050292B1206850E8050F216820F0400094
:1035400041E805024AB1206850E8050F216820F0E3
:10355000400041E80502002ADAD1A06B70B146F2C2
:103560006501C0F600010165FEF714FD0028CDD00D
:10357000A06B016D8847002010BD00BF00202021F6
:10358000E08584F83E1020632046FFF73BFF0020D3
:1035900010BD000070470000B0B582B0044600685E
:1035A0000168C368426901F02F05202D03F0200552
:1035B00006D12DB1204602B0BDE8B04002F05CBD9E
:1035C0005FEA017C1EBF02F0010E03F4907212EB61
:1035D0000E0253D1226B012A05D111F0100218BF3F
:1035E00013F0100236D10A0622D513F080021FD044
:1035F00094F83D1021293FD1A168B1F5805F03D136
:103600002169002900F07282216A4A1C226209782D
:103610004160E18C01390A04E1842DD1C16821F0B7
:103620008001C160C16841F04001C16002B0B0BD1D
:10363000490621D513F040011ED0C16821F0400198
:10364000C1602021204684F83D1002B0BDE8B040A2
:1036500000F06EBC00210191016801914168019167
:1036600001994069400613D4A08DE18DE28D002AB6
:1036700018BF884240F0BE8102B0B0BDCA0718BF73
:1036800013F4807240F0BA804A0700F1BD80C2E0B6
:10369000A16B0868426893B2002BEDD0A08D8342E5
:1036A000EAD2E285C969B1F5807F00F09D8020688B
:1036B00050E8030F216820F4807041E80302DAB17A
:1036C000206850E8030F216820F4807041E803026D
:1036D00092B1206850E8030F216820F4807041E81F
:1036E00003024AB1206850E8030F216820F480707B
:1036F00041E80302002ADAD1206850E8050F21686A
:1037000020F0010041E80502DAB1206850E8050F19
:10371000216820F0010041E8050292B1206850E8DC
:10372000050F216820F0010041E805024AB1206838
:1037300050E8050F216820F0010041E80502002A49
:10374000DAD1206850E8050F216820F0400041E8F8
:103750000502DAB1206850E8050F216820F040002A
:1037600041E8050292B1206850E8050F216820F079
:10377000400041E805024AB1206850E8050F216881
:1037800020F0400041E80502002ADAD1202084F828
:103790003E0000202063206850E8030F216820F0DD
:1037A000100041E80302DAB1206850E8030F2168F5
:1037B00020F0100041E8030292B1206850E8030FA6
:1037C000216820F0100041E803024AB1206850E867
:1037D000030F216820F0100041E80302002ADAD12B
:1037E000A06BFEF78FFBA08DE18D401A81B22046C1
:1037F00002B0BDE8B040FFF7E1BD00BF226C42F06F
:10380000010222644A0706D5BEF1000F03D0226CE4
:1038100042F0020222648A0706D5BEF1000F03D0EF
:10382000226C42F004022264BCF1000F09D545EA83
:103830000E02B2FA82F2520903D1226C42F008025F
:103840002264226C002A3FF417AF11F0200118BF48
:10385000002D03D0204602F00FFC20684069216C47
:1038600000F0400001F00801401800F0B58000BFF2
:10387000206850E8030F216820F4907041E80302AB
:10388000BAB3206850E8030F216820F4907041E833
:10389000030272B3206850E8030F216820F490708F
:1038A00041E803022AB3206850E8030F216820F49E
:1038B000907041E80302002ADAD11AE0206850E84B
:1038C000050F216820F0010041E80502DAB1206807
:1038D00050E8050F216820F0010041E8050292B18F
:1038E000206850E8050F216820F0010041E805023A
:1038F0004AB1206850E8050F216820F0010041E836
:103900000502002ADAD1206B012824D1206850E872
:10391000030F216820F0100041E80302DAB12068AB
:1039200050E8030F216820F0100041E8030292B133
:10393000206850E8030F216820F0100041E80302DE
:103940004AB1206850E8030F216820F0100041E8D8
:103950000302002ADAD1202084F83E0000202063F0
:103960002068406940063FD5206850E8050F21686F
:1039700020F0400041E80502DAB1206850E8050F68
:10398000216820F0400041E8050292B1206850E82B
:10399000050F216820F0400041E805024AB1206887
:1039A00050E8050F216820F0400041E80502002A98
:1039B000DAD1A06BC0B146F25901C0F60001016531
:1039C000FEF7E8FA00283FF457AEA06B016D02B095
:1039D000BDE8B040084700BF2046FFF7DBFD0020F0
:1039E000206402B0B0BD00BF204602B0BDE8B040C8
:1039F000FFF7D0BD401A216851E8031F226821F467
:103A0000907142E80313DBB1216851E8031F22687B
:103A100021F4907142E8031393B1216851E8031F28
:103A2000226821F4907142E803134BB1216851E8F8
:103A3000031F226821F4907142E80313002BDAD1AE
:103A4000216851E8051F226821F0010142E80513B1
:103A5000DBB1216851E8051F226821F0010142E82D
:103A6000051393B1216851E8051F226821F0010177
:103A700042E805134BB1216851E8051F226821F087
:103A8000010142E80513002BDAD1202184F83E1011
:103A900000212163216851E8031F226821F01001F1
:103AA00042E80313002B3FF4A1AE216851E8031F45
:103AB000226821F0100142E80313002B3FF496AE78
:103AC000216851E8031F226821F0100142E8031326
:103AD000002B3FF48BAE216851E8031F226821F0D0
:103AE000100142E80313002BD4D17FE6216A31F89C
:103AF000022B6FF35F22426021628AE5002804BF37
:103B00000120704710B5044690F83D0028B9002008
:103B100084F83C00204600F021F8242084F83D0081
:103B20002068C16821F40051C160204602F024FBE6
:103B30002068016921F490410161416921F02A0165
:103B40004161C16841F40051C1600020202120641E
:103B500084F83D1084F83E1010BD000080B586B09A
:103B6000006841F20042C4F2010200219042CDE916
:103B70000411CDE90211019130D041F20001C4F2EB
:103B8000010188425BD1002043F630010090C4F26D
:103B900002014A6942F010024A614A6902F01002C9
:103BA0000092009A00900A6842F001020A600968D7
:103BB00001F00101009100994FF4C06101910221CF
:103BC000CDE9021003200490072005900020C4F2E4
:103BD000020001A9FEF704FA06B080BD43F63000EA
:103BE0000091C4F20200426942F02002426142693F
:103BF00002F020020092009A0091026842F0040252
:103C00000260006800F0040000900098C02001905D
:103C10000220CDE902010320049008200590002035
:103C2000C4F2020000F5006001A9FEF7D9F94720AF
:103C300005210022FEF778FB4720FEF761FB06B066
:103C400080BD000090F83E30202B0BD100294FF0B2
:103C5000010318BF002A01D11846704790F83C3084
:103C6000012B01D1022070470023036381622221CE
:103C70008285C285036480F83E100269016880F87D
:103C80003C301AB1C86840F48070C86048690023AD
:103C900040F001004861C86840F02000C860184644
:103CA00070470000704700002DE9F04381B00446E2
:103CB00090F83D0020280DD10F4600294FF001005B
:103CC00000F0DD801646002A00F0D98094F83C0010
:103CD000012803D1022001B0BDE8F083012084F85F
:103CE0003C000020206421201D4684F83D00FEF7A2
:103CF00057FAA684E684A1680646B1F5805F03D131
:103D00002069002800F01081B8460027002084F8C0
:103D10003C00E18C2068002900F0908005F1010949
:103D20000DE000BFB8F1000F28D018F8011B41606A
:103D3000E18C0139E184E18C002900F07F80016889
:103D40000906EFD4B9F1000F0AD0FDB1FEF728FA49
:103D5000801BA8421AD8206801680906F6D5E1E759
:103D600001680906DED4016809065CBF01685FEAE4
:103D70000161D7D401680906F2D5D3E737F8021BF1
:103D80004FF000086FF35F21D1E700BF206850E8D3
:103D9000030F216820F4D07041E80302BAB3206811
:103DA00050E8030F216820F4D07041E8030272B399
:103DB000206850E8030F216820F4D07041E8030226
:103DC0002AB3206850E8030F216820F4D07041E83E
:103DD0000302002ADAD11AE0206850E8050F2168B2
:103DE00020F0010041E80502DAB1206850E8050F33
:103DF000216820F0010041E8050292B1206850E8F6
:103E0000050F216820F0010041E805024AB1206851
:103E100050E8050F216820F0010041E80502002A62
:103E2000DAD1202084F83D0084F83E00002084F898
:103E30003C00032001B0BDE8F08300BF01684906E3
:103E400019D4FDB1691C0DD10168490613D401686C
:103E500049065CBF01685FEA41610CD4016849060C
:103E6000F2D508E0FEF79CF9801BA8420AD820682A
:103E700000684006F6D5202084F83D00002001B0FF
:103E8000BDE8F083206850E8030F216820F4D0706B
:103E900041E80302E2B3206850E8030F216820F4F0
:103EA000D07041E803029AB3206850E8030F2168FC
:103EB00020F4D07041E8030252B3206850E8030FA9
:103EC000216820F4D07041E80302002ADAD11FE013
:103ED000206850E8050F216820F0010041E8050244
:103EE000002A9ED0206850E8050F216820F00100CC
:103EF00041E80502002A3FF494AF206850E8050F1E
:103F0000216820F0010041E80502002A3FF489AF52
:103F1000206850E8050F216820F0010041E8050203
:103F2000002AD5D17DE700BF4FF00008EEE6000083
:103F300070470000FEE70000F0B583B040F2004497
:103F40000546C4F2020407260A2704E06D00300685
:103F5000A6F1010662D020464FF400410022FEF790
:103F600019F900970098A0B10098013800900098C6
:103F700078B1009801380090009850B1009801384D
:103F80000090009828B1009801380090009800280F
:103F9000EAD1E8B2C20920464FF40051FEF7FAF820
:103FA00001970198A8B100BF0198013801900198CC
:103FB00078B1019801380190019850B10198013809
:103FC0000190019828B101980138019001980028CA
:103FD000EAD120464FF400410122FEF7DBF80297B8
:103FE00002980028B2D000BF0298013802900298CF
:103FF0000028ABD002980138029002980028A5D082
:10400000029801380290029800289FD00298013847
:10401000029002980028E7D198E700BF20464FF4AD
:104020000041002203B0BDE8F040FEF7B3B8000045
:1040300010B584B040F20044C4F2020420464FF4AC
:1040400000510122FEF7A6F820464FF4004101225C
:10405000FEF7A0F80A2001900198A0B1019801385C
:104060000190019878B1019801380190019850B100
:10407000019801380190019828B101980138019008
:1040800001980028EAD120464FF40051FEF77CF851
:1040900028B320464FF400510022FEF77BF80A2097
:1040A00002900298A8B100BF0298013802900298CD
:1040B00078B1029801380290029850B10298013804
:1040C0000290029828B102980138029002980028C4
:1040D000EAD120464FF40051FEF756F810B1002007
:1040E00004B010BD20464FF400510022FEF752F8F4
:1040F0000A2003900398A0B1039801380390039815
:1041000078B1039801380390039850B103980138AF
:104110000390039828B1039801380390039800286E
:10412000EAD1012004B010BDB0B582B040F2004425
:10413000C4F2020420464FF400410022FEF72AF8A0
:104140000A2501950198A0B10198013801900198C4
:1041500078B1019801380190019850B10198013867
:104160000190019828B10198013801900198002828
:10417000EAD120464FF400510022FEF70BF80195DA
:104180000198A0B1019801380190019878B1019887
:1041900001380190019850B10198013801900198BF
:1041A00028B101980138019001980028EAD12046F1
:1041B0004FF400410122FDF7EDFF0A25019501981A
:1041C000A8B100BF019801380190019878B1019819
:1041D00001380190019850B101980138019001987F
:1041E00028B101980138019001980028EAD12046B1
:1041F0004FF400510122FDF7CDFF01950198A0B1C8
:10420000019801380190019878B101980138019026
:10421000019850B1019801380190019828B1019896
:104220000138019001980028EAD102B0B0BD000029
:10423000B0B584B040F20044C4F2020420464FF40A
:1042400000410022FDF7A6FF0A2501950198A0B1C3
:10425000019801380190019878B1019801380190D6
:10426000019850B1019801380190019828B1019846
:104270000138019001980028EAD120464FF40051FE
:104280000122FDF787FF02950298A0B1029801383C
:104290000290029878B1029801380290029850B1C9
:1042A000029801380290029828B1029801380290D1
:1042B00002980028EAD120464FF400410122FDF780
:1042C00069FF0A2003900398A8B100BF0398013842
:1042D0000390039878B1039801380390039850B184
:1042E000039801380390039828B10398013803908C
:1042F00003980028EAD120464FF40051FDF744FF0F
:10430000B0FA80F0450920464FF400410022FDF745
:1043100041FF284604B0B0BD10B540F2D020C2F233
:104320000000007800287DD0FDF7C8FB00F066FA99
:1043300040F22401C2F2000140F26C300978C2F26E
:10434000000090ED000A01EE101AB8EE411AB4EE2A
:10435000410AF1EE10FA17DD9FED331AB4EE410A6F
:10436000F1EE10FA10DA40F27030C2F2000001787B
:1043700051B90121017006F051F840F2A421C2F2B6
:104380000001086110BD00BF40F25020C2F20000E1
:10439000008840F25222C2F2000201B2128880EA82
:1043A000E130A0EBE13011B282EAE132A2EBE1317F
:1043B00040F25422C2F20002128889B211FA80F04F
:1043C00011B282EAE132A2EBE13240F22501C2F2FF
:1043D0000001097810FA82F0C1F10A024FF47A73F1
:1043E0005A43904218DD40F2D420C2F20000027815
:1043F00092B989B140F2A424C2F2000421780131BB
:10440000CAB2032A217038BF10BD0121017006F025
:1044100005F8206110BD00BF40F2A420C2F20000E8
:104420000021017010BD00BF0000A042F0B595B0A2
:104430000446642005F0E2FF002C00F0CF8040F23B
:104440007426C2F200063068746050B941F28042AE
:10445000C0F6010208204FF4007106F05DF87468A0
:10446000306040F2CE37C2F20007BD1C204629461C
:1044700040F2FD12FFF7E6FB7068FEF7C5FF7068BB
:10448000294640F2FD12FEF72DFF0020A7F800029A
:104490008FA0FCF727F9706894A103224FF6FF73F1
:1044A000FFF702FC4FF4FA7005F0A8FF90A0FCF7AC
:1044B00019F9706895A104224FF6FF73FFF7F4FB1A
:1044C0004FF47A7005F09AFF97F80002002800F088
:1044D000858042F2A250C0F60100FCF703F9706833
:1044E00042F2C641C0F6010106224FF6FF73FFF704
:1044F000DBFB4FF4FA7005F081FF42F22A50C0F660
:104500000100FCF7EFF8706882A108224FF6FF73F4
:10451000FFF7CAFB4FF47A7005F070FF80A0FCF73C
:10452000E1F8706882A10D224FF6FF73FFF7BCFB24
:104530004FF4FA7005F062FF81A0FCF7D3F87068C1
:1045400082A10B224FF6FF73FFF7AEFB4FF4FA7018
:1045500005F054FF80A0FCF7C5F8706883A10B221A
:104560004FF6FF73FFF7A0FB4FF4FA7005F046FF1C
:1045700042F26E5107F20220C0F601010A22FCF756
:10458000E3F868B342F2AF50C0F60100FCF7AAF8B6
:10459000012042F2B14142F26E5242F21F5301AC8D
:1045A00087F80102C0F60101C0F60102C0F601035E
:1045B0002046FBF733FF75682046FCF7F1F882B21E
:1045C000284621464FF6FF73FFF76EFB42F210704C
:1045D00005F014FF97F80102022804D215B0F0BDCF
:1045E000022087F8010242F27850C0F60100FCF781
:1045F00079F8706842F2E941C0F601010A224FF6EB
:10460000FF73FFF751FB4FF4FA7005F0F7FE42F22B
:10461000BC50C0F60100FCF765F8706842F2F44146
:10462000C0F601010E224FF6FF73FFF73DFB4FF47A
:10463000FA7005F0E3FE42F23E50C0F60100FCF7CE
:1046400051F842F2035142F2535201ACC0F601015B
:10465000C0F60102204642F2EE13FBF7DFFE75685A
:104660002046FCF79DF882B2284621464FF6FF739C
:10467000FFF71AFB4FF4FA6005F0C0FE42F29550C6
:10468000C0F60100FCF72EF8706842F2CD41C0F68A
:1046900001010E224FF6FF73FFF706FB4FF4FA708D
:1046A00005F0ACFE42F28C50C0F60100FCF71AF89F
:1046B000706842F2DC41C0F601010C224FF6FF7334
:1046C000FFF7F2FA4FF4FA7005F098FE15B0F0BD5E
:1046D000CDCBB3F64553503031C4A3BFE9CDB8B408
:1046E000ABC4A3CABD2E2E2E000000002B2B2B0026
:1046F000B2E2CAD44553503031C4A3BFE9CAC7B7E8
:10470000F1B4E6D4DA2E2E2E0000000041540D0A3A
:104710000000000041542B474D520D0A00000000DC
:10472000BFAAC6F441502B535441C4A3CABD0000D4
:1047300041542B43574D4F44453D330D0A00000073
:10474000B2E9D1AF535349440000000041542B4318
:10475000575341503F0D0A00B2E9D1AFB5B1C7B0D0
:10476000C1ACBDD3B5C4C8C8B5E3000041542B43A8
:10477000574A41503F0D0A00B0B505F04FFE40F2D8
:10478000D024C2F20004E16901F5FA71884205D330
:104790006079C043607105F041FEE061A56905F0F4
:1047A0003DFEEDB1A16901F5FA6188421AD905F023
:1047B00035FEA16941F288321144884216D905F0CC
:1047C0002DFEA16901F5FA51884213D901202080FC
:1047D0004FF48070A4F805000020C4E90600B0BDC5
:1047E000A061B0BD00206070B0BD00BF012060704E
:1047F000B0BD00BF02206070B0BD0000F0B581B058
:1048000005F00CFE40F2A424C2F20004E1688842E4
:10481000C0F0F5803230E06000F0F6F805F0FEFD03
:1048200040F2F022C2F20002216A1268114488426A
:1048300040F2E58005F0F2FD206240F25620C2F21F
:10484000000042F2BC14B0F9002040F20D30C0F676
:104850000104C2F200002146FBF7E0FD40F25820BF
:10486000C2F20000B0F9002040F21730C2F200009E
:104870002146FBF7D3FD40F25A20C2F20000B0F906
:10488000002040F22130C2F200002146FBF7C6FDB5
:1048900040F25020C2F20000B0F9002040F22B306C
:1048A000C2F200002146FBF7B9FD40F25220C2F2ED
:1048B0000000B0F9002040F23530C2F2000021467D
:1048C000FBF7ACFD40F25420C2F20000B0F900202A
:1048D00040F23F30C2F200002146FBF79FFD40F25C
:1048E0006827C2F2000738680CF084FB42F2BF145C
:1048F000024640F24930C0F601040B46C2F2000005
:104900002146FBF78BFD40F26C26C2F200063068B0
:104910000CF070FB024640F253300B46C2F200002E
:104920002146FBF77BFD40F27025C2F200052868A6
:104930000CF060FB024640F25D300B46C2F2000014
:104940002146FBF76BFD40F2F821C2F20001086836
:104950004A2809DC431C3A680B6048F65451C2F2FD
:10496000000141F820200CE048F65454C2F2000443
:10497000211D20464FF49472FBF7C1FF3868C4F83C
:10498000280140F2FC21C2F2000108684A2809DC33
:10499000431C32680B6048F68061C2F2000141F8A6
:1049A00020200CE048F68064C2F20004211D20465D
:1049B0004FF49472FBF7A3FF3068C4F8280140F26B
:1049C0000031C2F2000108684A280BDC431C2A6847
:1049D0000B6049F2D801C2F2000141F8202001B079
:1049E000F0BD00BF49F2D804C2F20004211D2046E8
:1049F0004FF49472FBF783FF2868C4F8280101B0D4
:104A0000F0BD000000000000F0B581B02DED0A8B74
:104A10008CB00DF11E000DF11D0700900DF1260068
:104A200008A903AA0BAB019703F052F9BDF81E00C9
:104A300040F25026C105C2F2000640F1BB809DED58
:104A4000030A9DED041A9DED052A9DED063A9FEDA2
:104A50006A4AB8EEC00A40F2BC07B8EEC11A20EEAE
:104A6000040AC2F2000721EE041AB8EEC22AB8EE18
:104A7000C33AB8EE009A87ED000A22EE042A23EE2C
:104A8000043A86ED031A21EE091A30EE000A20EEF0
:104A9000020A21EE031A31EE000A10EE100A86ED2A
:104AA000042A86ED053A0CF0A5FA41EC100B0AF049
:104AB0001BFB51EC100B9FED4E0B54EC105B2A4688
:104AC00023460BF0D3FF0BF083FCB06196ED04BAE4
:104AD00097ED001A96ED03AA96ED050A3BEE0BCA78
:104AE00031EE011A21EE0A1A2CEE000A30EE010A0C
:104AF00010EE100A0CF07EFA2AEE090A2BEE0C1AC0
:104B000020EE0A0A30EE410AB7EE001A30EE010A32
:104B100041EC180B10EE100A0CF06CFA41EC110B82
:104B2000B0EE480AF0EE680A0AF0FAFD51EC100BFC
:104B30002A4623460BF09AFF0BF04AFCF06197EDF2
:104B4000009A96ED03AA96ED05BA96ED04CA29EEF1
:104B50000B0A2AEE0C1A31EE000A30EE000A10EEB3
:104B6000100A0CF047FA2AEE0A0A29EE091A31EE69
:104B7000000A2CEE0C1A30EE410A2BEE0B1A30EE26
:104B8000410A41EC180B10EE100A0CF033FA41EC1C
:104B9000110BB0EE480AF0EE680A0AF0C1FD51ECC4
:104BA000100B2A4623460BF061FF0BF011FC30621C
:104BB000BDF81E0010F0700F08D0BDF8261031802F
:104BC000BDF828107180BDF82A10B180000708D503
:104BD000BDF82000F080BDF822003081BDF824002F
:104BE00070810CB0BDEC0A8B01B0F0BD00BF00BFFE
:104BF0006666666666A64C400000803010B504F01C
:104C000023F900281CBF002010BD4EA0FBF76AFD51
:104C1000782005F04DFB28B1002453A0FBF762FD7E
:104C2000204610BD42F28930C0F60100FBF75AFD64
:104C3000782004F05BF828B1002455A0FBF752FD62
:104C4000204610BD42F26630C0F60100FBF74AFD77
:104C5000322005F08BFA48B142F2A8300024C0F6A9
:104C60000100FBF73FFD204610BD00BF42F2DA20F5
:104C7000C0F60100FBF736FD03F01EF840B142F22A
:104C8000C9300024C0F60100FBF72CFD204610BD02
:104C900042F28720C0F60100FBF724FD04F010F873
:104CA00003F008FA40B142F284400024C0F601004B
:104CB000FBF718FD204610BD42F24230C0F601005D
:104CC000FBF710FD40F2731002F0A6FE40B142F275
:104CD00002400024C0F60100FBF704FD204610BD91
:104CE00042F2B720C0F60100FBF7FCFC322003F0D3
:104CF00039F948B142F22E400024C0F60100FBF71A
:104D0000F1FC204610BD00BF42F2FE20C0F60100BB
:104D1000FBF7E8FC06F060FA012005F069F90146AE
:104D2000B0FA80F0440942F2594042F22032C0F613
:104D30000100C0F60102002908BF1046FBF7D2FCB3
:104D4000204610BD6D707520696E697469616C696B
:104D50007A6174696F6E20636F6D706C6574652E17
:104D60002E2E2E2E2E0000006D70755F7365745F01
:104D700073656E736F7220636F6D65206163726F10
:104D80007373206572726F72202E2E2E2E2E2E00BF
:104D90006D70755F636F6E6669677572655F666972
:104DA000666F20636F6D65206163726F737320653A
:104DB00072726F72202E2E2E2E2E2E0010B545F6FA
:104DC000F94041F2E042C0F60000C0F601020021C5
:104DD00005F040FC40F25014C2F20004206045F699
:104DE000A14041F2BC42C0F60000C0F60102002121
:104DF00005F030FC606045F6355041F20452C0F6D3
:104E00000000C0F60102002105F024FCA06045F678
:104E1000794041F29842C0F60000C0F6010200213C
:104E200005F018FCE06045F6694041F25C42C0F6CE
:104E30000000C0F60102002105F00CFC206110BD4D
:104E40002DE9F04F87B0002543F63000CDE9055538
:104E50000195C4F20200016841F2000741F010011F
:104E600001600168C4F2020701F01001019101998B
:104E700001950168012241F08001016001684FF055
:104E8000010A01F08001019101990195016841F049
:104E900002010160016801F002010191019901958F
:104EA000016841F004010160016801F00401019111
:104EB00001990195016841F00101016000684FF41A
:104EC000FE4100F00100019001983846FDF762F9BB
:104ED000384648F201010022FDF75CF9A7F540666B
:104EE00030464AF2C0410022FDF754F9A7F50069A7
:104EF00048464FF4706100224FF4706BFDF74AF999
:104F0000A7F5805840464FF419410022FDF742F9B9
:104F10001E2002A902AC81E8210438462146FDF793
:104F20005FF86020CDE90205022004903846214652
:104F3000FDF756F84FF60170CDE9020A38462146D2
:104F4000CDE90455FDF74CF84FF49860CDE9020A1D
:104F500030462146CDE90455FDF742F84FF4204094
:104F600002901120CDE90305304621460595FDF755
:104F700037F848462146CDE902BACDE90455FDF798
:104F80002FF84FF41940CDE9020A40462146CDE9F9
:104F90000455FDF725F807B0BDE8F08FB0B594B023
:104FA00040F2F85040F200450021C2F2000040F209
:104FB000E733C4F200050E91CDE90C110991CDE95A
:104FC0000711CDE90511CDE90311CDE901115322F6
:104FD000C0E9021301618021C0E900528161FDF73F
:104FE00027FD002818BFFCF757FF4FF480500B90A7
:104FF00040F2F850C2F200000BA9FDF7B9FD0028FD
:1050000018BFFCF749FF40F2F850C2F20000FEF76B
:105010004BF8002818BFFCF73FFF40F2F85000247F
:10502000C2F2000008A9CDE90844FDF7A5FC00285C
:1050300018BFFCF731FF6020CDE90104039405940B
:1050400040F2F854C2F2000401A920460022FDF704
:1050500019FF002818BFFCF71FFF2068A84201D0E5
:1050600014B0B0BD002043F630010F90C4F202012D
:105070000A6842F002020A60096801F002010F9119
:105080000F9910210F910221CDE91010CDE91201E5
:1050900005F500300FA9FCF7A3FF14B0B0BD000068
:1050A00080B540F2886041F20001C2F20000C4F213
:1050B000010100234FF00C0C4FF4E13280E80E00A8
:1050C000C0E90333C0E905C3C361FEF717FD00283B
:1050D00008BF80BDBDE88040FCF7DEBE80B540F271
:1050E000CC6041F20041C2F20000C4F20101002391
:1050F0004FF00C0C4FF4E13280E80E00C0E90333AE
:10510000C0E905C3C361FEF7F9FC002808BF80BDF4
:10511000BDE88040FCF7C0BEFEE70000FEE70000EF
:10512000EFF30980BFF36F8F154B1A681EF0100F55
:1051300008BF20ED108A20E9F04F10602DE909002A
:105140004FF0500080F31188BFF34F8FBFF36F8F84
:1051500008F002FC4FF0000080F31188BDE8090060
:1051600019680868B0E8F04F1EF0100F08BFB0ECE7
:10517000108A80F30988BFF36F8F704700BF00BFAC
:10518000640100209FED152AB5EE401A20EE020AB8
:1051900031EE023A9FED124AF1EE10FA08BFB0EE7E
:1051A000443A80EE030A20EE821A81EE031A02EEE0
:1051B000101AB8EEC22A30EE020ABDEEC00A10EE96
:1051C000101A00EE102AB8EEC00A31EE000ABDEE49
:1051D000C00A10EE102AC0E9001270470000004417
:1051E00000400044F0B581B0002800F083800546FF
:1051F0000088002800F07E80AC1C3FA02146FBF711
:1052000001F940A12046FBF78DFA40F2CE36A042CC
:10521000C2F2000604D296F8000220B96AE000BF8C
:10522000012086F8000238A120460422FBF7D7FAB5
:1052300048B996F80102012805D1022086F801023A
:1052400033A0FBF74FFA36A120460E22FBF7C7FA30
:1052500028B9012086F8010235A0FBF743FA38A1EE
:1052600020460D22FBF7BBFA96F80172002808BF12
:10527000022F21D036A120461122FBF7B0FA0028D8
:1052800008BF022F18D037A120460722FBF7A7FA44
:10529000F0B136A120460722FBF7A1FA50BB0A3530
:1052A00028462221FBF734FAA84223D9001BA0F19B
:1052B000080206F2022017E0032142F26150C0F614
:1052C000010086F8011201B0BDE8F040FBF70ABA10
:1052D0000A3528462221FBF71BFAA8420AD9001BEF
:1052E000A0F1080206F21620294601B0BDE8F04000
:1052F000FBF788BB01B0F0BD4553503031207278C8
:105300003A2573004F4B00000D0A4F4B0000000080
:10531000455350303120636F6E6E3A32000000000A
:105320005749464920434F4E4E454354454400009B
:10533000455350303120636F6E6E3A3100000000EB
:10534000434F4E4E4543540D0A0D0A4F4B0000008B
:10535000414C524541445920434F4E4E45435445DC
:10536000440000002B43575341503A002B43574A07
:1053700041503A002DE9F04F81B02DED068BA2B0DF
:1053800012AE054630460C46B0EE418AB0EE609A49
:10539000B0EE40AA05F08EFF30466FF003016FF0CB
:1053A00003026FF0030300F0E1FDB1EE000A3046A6
:1053B000F0EE400AB0EE401A00F040FB3046B0EE8E
:1053C0004A0AF0EE490AB0EE481A00F025F93046D4
:1053D00000210022002300F0C9FD9FED8E9A304687
:1053E000B0EE490AF0EE490AB0EE491A08F012FB95
:1053F0000FFA85F90FFA84FA10AD2846494652464D
:10540000FFF7C0FEDDE91001B2EE008A00F07F0078
:105410000F9001F03F000E90B0EE480AF0EE490AFE
:10542000B0EE491A304608F0F5FA28464946524689
:10543000FFF7A8FEDDE91001B0EE490A00F07F0792
:10544000F0EE480AB0EE491A304601F03F0408F089
:10545000E1FA284649465246FFF794FEDDE910017D
:10546000B0EE480A00F07F0801F03F000D90F0EE2A
:10547000480AB0EE491A304608F0CCFA28464946A8
:105480005246FFF77FFEDDE91001B7EE009A00F00B
:105490007F000C90B0EE490AF0EE490AB0EE481ACF
:1054A000304601F03F0B08F0B5FA2846494652460F
:1054B000FFF768FEDDE91001B1EE0CAA00F07F00F5
:1054C0000B9001F03F000A90B0EE4A0AF0EE490A54
:1054D000B0EE481A304608F09DFA28464946524632
:1054E000FFF750FEDDE91001B0EE490A00F07F0041
:1054F000099001F03F000890F0EE4A0AB0EE481A19
:10550000304608F087FA284649465246FFF73AFEE9
:10551000DDE91001B0EE4A0A00F07F00079001F0CB
:105520003F000690F0EE4A0AB0EE481A304608F006
:1055300071FA284649465246FFF724FEDDE910017C
:105540000F9D00F07F000E9E019001F03F00009043
:10555000284631463A46234604970394FCF7BEFC9E
:1055600031460D9E284642463346CDF80880FCF76A
:10557000B5FC0C9D594628463A462346CDF814B052
:10558000FCF7ACFC2846594642463346FCF7A6FCDD
:10559000DDF82CB00A9F099D089E584639462A46D8
:1055A0003346FCF79BFC079CDDF8189058463946BB
:1055B00022464B46FCF792FCDDF80480DDF800A0A3
:1055C000404651462A463346FCF788FC4046514641
:1055D00022464B46FCF782FCDDE90E105A463B465C
:1055E000FCF77CFCDDE903102A463346FCF776FC29
:1055F00002980D9922464B46FCF770FC0C980599D1
:1056000042465346FCF76AFC22B0BDEC068B01B063
:10561000BDE8F08F000000002DE9F0472DED108B64
:10562000044610EE100AB0EE418AB0EE609A0BF01C
:10563000E1FC9FEDCB0B59EC107B3A464B460BF04F
:1056400015FA9FEDC90B56EC105B2A4633460AF05B
:10565000A5FF0AF0BDFE824619EE100A0BF0CAFC47
:105660003A464B460BF002FA2A4633460AF096FFBA
:105670000AF0AEFE804618EE100A0BF0BBFC3A466C
:105680004B460BF0F3F92A4633460AF087FF0AF03F
:105690009FFE054650460BF0ADFC41EC180BB0EEFA
:1056A000480AF0EE680A0AF03BF951EC100B0AF0D8
:1056B0008FFEB0EE480AF0EE680A09EE100A0AF012
:1056C00093F951EC100B0AF083FEB0EE480AF0EEAD
:1056D000680A0AEE100A0AF087F951EC100B0AF07A
:1056E00077FEB0EE480AF0EE680A0BEE100A0AF0F8
:1056F00017F951EC100B0AF06BFE0CEE100A404645
:105700000BF078FC41EC180BB0EE480AF0EE680A9A
:105710000AF006F951EC100B0AF05AFEB0EE480AF6
:10572000F0EE680A0DEE100A0AF05EF951EC100B6B
:105730000AF04EFEB0EE480AF0EE680A0EEE100ACD
:105740000AF052F951EC100B0AF042FEB0EE480A92
:10575000F0EE680A0FEE100A0AF0E2F851EC100BB6
:105760000AF036FE0AEE900A28460BF043FC41ECA4
:10577000180BB0EE480AF0EE680A0AF0D1F851ECC6
:10578000100B0AF025FEB0EE480AF0EE680A09EEAA
:10579000900A0AF029F951EC100B0AF019FEB0EE4C
:1057A000480AF0EE680A0BEE900A0AF01DF951EC77
:1057B000100B0AF00DFEB0EE480AF0EE680A0CEE8F
:1057C000900A0AF0ADF851EC100B0AF001FE94EDCE
:1057D000010A94ED021A20EE092A21EE0B3A20EE7E
:1057E0000A0A21EE0C1A33EE022A31EE400A94ED39
:1057F000051A94ED063A21EE094A23EE0B5A21EEE2
:105800000A1A23EE0C3A35EE044A33EE411A94EDAF
:10581000093A94ED0A5A23EE096A25EE0B7A23EE33
:105820000A3A25EE0C5A37EE066A35EE433A94ED05
:105830000D5A94ED0E7A65EE090A67EE0B1A71EEB9
:10584000A00AD4ED001A25EE0A5A27EE0C7A37EE9C
:10585000455A21EE8D7A60EE0F2A37EE627AD4ED4A
:10586000042A61EE8E1A20EE2A0A30EE210A62EE38
:105870008D1A61EE0F3A71EEE31AD4ED083A62EE3A
:105880008E2A21EE2A1A31EE221A63EE8D2A63EE59
:105890000F4A72EEE42AD4ED0C4A63EE8E3A23EE00
:1058A0002A3A33EE233A64EE8D3A65EE0F5A64EEEF
:1058B0008E4A25EE2A5A73EEE53A35EE245A62EE08
:1058C0002C4A67EE295A75EEA44A05EE900A22EE9C
:1058D000252A27EE2B7A32EE472A84ED012A84ED21
:1058E000020A24EE2C0A21EEA92A32EE000A24EE46
:1058F000252A21EEAB4A32EE442A84ED040A84EDD7
:10590000061A26EE2C0A22EEA91A84ED052A31EE9B
:10591000000A26EE251A22EEAB2A31EE421A84ED59
:10592000080A84ED091A20EEAC0A23EEA91A31EE1A
:10593000000A20EEA51A23EEAB2A31EE421AC4ED7E
:10594000004A84ED0A3A84ED0C0A84ED0D1A84EDC8
:105950000E5ABDEC108BBDE8F08700BF00BF00BF42
:105960004AD8124DFB21094000000000008066402B
:10597000074B19680868B0E8F04F80F30988BFF357
:105980006F8F4FF0000080F31188704700BF00BF99
:105990006401002010B54FF47A7004F02FFD02F07E
:1059A000A3FCFFF72BF940F21074C2F200040106C9
:1059B000207007D040F2CC60C2F20000BDE8104079
:1059C000FEF734BDFA2004F019FDFFF717F90106C0
:1059D0002070EFD1FA2004F011FDFFF70FF9010656
:1059E0002070E7D1FA2004F009FDFFF707F92070D5
:1059F00040F2CC60C2F20000BDE81040FEF716BDD8
:105A000010B540F2D024C2F200042078002808BF6C
:105A1000FEF7B2FEA07928B1FA200521FBF7D2FDEE
:105A20000020A07101F06EFEFBF7FEFD607900F032
:105A3000D3F8BDE81040FCF783B9000090ED002AD0
:105A400090ED045AD0ED081AD0ED0C4A90ED013AD1
:105A500090ED024A90ED056A90ED067A22EE002A5A
:105A600025EE005AD0ED092AD0ED0A3A61EE801AEF
:105A700024EE800AD0ED0D4A23EE203A24EE014AAE
:105A800026EE206A27EE017A62EEA02A64EEA00AD2
:105A9000D0ED0E4A63EE813A80ED002A80ED013AA6
:105AA00080ED024A80ED045A80ED056A80ED067AA9
:105AB000C0ED081AC0ED092AC0ED0A3A303024EED4
:105AC000811A80EC030A7047B0B541F20004C4F2B9
:105AD000020420460221FCF757FBB0FA80F045098A
