:020000040800F2
:1000000060980020610200087D4400083D3300082C
:10001000794400088D17000891690008000000006D
:10002000000000000000000000000000D14B0008AC
:10003000A91A00080000000031450008554F0008CB
:100040007B0200087B0200087B0200087B0200089C
:100050007B0200087B0200087B0200087B0200088C
:100060007B0200087B0200087B0200087B0200087C
:100070007B0200087B0200087B0200087B0200086C
:100080007B0200087B0200087B0200087B0200085C
:100090007B0200087B0200087B0200087B0200084C
:1000A0007B0200087B0200087B0200087B0200083C
:1000B0007B0200087B0200087B0200087B0200082C
:1000C0007B0200087B0200087B0200087B0200081C
:1000D0007B0200087B0200087B0200087B0200080C
:1000E0007B0200087B0200087B0200087B020008FC
:1000F0007B0200087B0200087B0200087B020008EC
:100100007B0200087B0200087B0200087B020008DB
:100110007B0200087B0200087B02000829500008CF
:100120007B0200087B0200087B0200087B020008BB
:100130007B0200087B0200087B0200087B020008AB
:100140007B0200087B0200087B0200087B0200089B
:100150007B0200087B0200087B0200085D68000843
:100160007B0200087B0200087B0200087B0200087B
:100170007B0200087B0200087B02000800000000F0
:100180007B0200087B02000800F002F800F058F83B
:100190000AA090E8000C82448344AAF10107DA45E2
:1001A00001D100F04DF8AFF2090EBAE80F0013F0DC
:1001B000010F18BFFB1A43F0010318479C9105007B
:1001C000BC910500103A24BF78C878C1FAD852070C
:1001D00024BF30C830C144BF04680C6070470000C1
:1001E0000023002400250026103A28BF78C1FBD840
:1001F000520728BF30C148BF0B60704766290EF018
:10020000A28765290EF09F8767290EF09C876129D8
:100210000EF09B87642900F06581732901F03F800F
:10022000002070471FB50EF07CFF01F04FF804006E
:10023000002000210EF0A6F8E0601FBD10B510BD33
:1002400001F04CF91146FFF7EDFF07F0AFFE01F0AA
:100250006AF903B4FFF7F2FF03BC01F0ABF9000049
:100260000948804709480047FEE7FEE7FEE7FEE74A
:10027000FEE7FEE7FEE7FEE7FEE7FEE70448054986
:10028000054A064B70470000155000088901000818
:10029000609200206098002060940020609400200C
:1002A00053EA020C00F069802DE9F04B4FF0000694
:1002B000002B1FBFB3FA83F503FA05F424FA05F601
:1002C0005E4012BF1643B2FA82F502FA05F4C5F198
:1002D00020051EBF22FA05FC44EA0C04203556EA2C
:1002E000044C4FEA144418BF641C4FF000084FF050
:1002F0000009904271EB030C39D3002919BFB1FA00
:1003000081F701FA07F6B0FA80F700FA07F6C7F1AD
:1003100020071EBF20FA07FC46EA0C062037B6FB72
:10032000F4FCA7EB0507103F07F01F0BCBF12006ED
:100330002CFA06F60CFA0BFB44BFB3460026202F1E
:10034000A4BF5E464FF0000B5BEA060C08BF4FF0FF
:10035000010B19EB0B0948EB0608ABFB027C06FB13
:1003600002CC0BFB03CCC01B71EB0C01C1E70B46AD
:10037000024641464846BDE8F08B13B5084318BF16
:100380004FF0FF300146AFF30080BDE81C407047DE
:1003900053EA020C23D010B54C1084EA530404D560
:1003A0004042C1F1000138BF491E1B4204D55242F0
:1003B000C3F1000338BF5B1EFFF772FF14F0804FDC
:1003C00004D04042C1F1000138BF491E14F0004F73
:1003D00004D05242C3F1000338BF5B1E10BD13B5F9
:1003E00040424FF0000070EB0104B8BF012001F063
:1003F000004100281CBF6FF000414FF0FF30AFF309
:1004000000801CBD0FB4044910B503AA029800F087
:100410004BFF10BC5DF814FB080200200FB41CB5A4
:10042000074B06AA7B4469460090059800F00DFF33
:100430000020694600F01CFF1CBC5DF814FB0000A6
:10044000490E000070B5044685690068C10601D5F3
:10045000302600E02026C00707D070BDD4E9012176
:1004600030469047206A401C20626D1EF6D570BD54
:1004700070B5044685690078C00707D170BDD4E91E
:10048000012120209047206A401C20626D1EF6D575
:1004900070BD70B50C460546012A05D02878800647
:1004A00000D5EA69002302E0012305E05B1C9342CA
:1004B00002D2E05C0028F9D1A869E618C01AA86148
:1004C000286A184428622846FFF7BCFF04E0D5E9F3
:1004D000012114F8010B9047B442F8D32846FFF7E6
:1004E000C7FF70BD2DE9F04106460024106875294C
:1004F000314616A510D0AFF30080002802DA404242
:1005000013A507E031688A0701D512A502E0490763
:1005100004D511A5012401E0AFF3008000210A22D7
:1005200006F1240709E0B0FBF2FCB0FBF2F302FB9A
:100530001C00303078541846491C0028F3D123465B
:100540002A463046BDE8F04100F095BA00000000B0
:100550002D0000002B000000200000002DE9F05FBE
:10056000894604464FF0000ADFF874B1FB44C0F836
:1005700020A02046E1688847002874D0252806D0AE
:10058000D4E901219047206A401C2062F1E700264F
:100590005F462046E16888472028054607DB312D65
:1005A00005D2781910F8200C08B10643F1E7B0071E
:1005B00001D526F00406C4F81CA00027C4F818A032
:1005C0002A2D09D028460DF08BFE38B304EB87089E
:1005D000303DC8F8185019E059F8041B204604EBC8
:1005E00087029161E1688847012F054618D1E069CB
:1005F000002820DA26F020061DE0D8F8180000EBCD
:10060000800005EB40003038C8F818002046E1684B
:10061000884705460DF064FE0028EED1012F0AD070
:100620002E2D08D12046E16888477F1C0546022F01
:1006300046F02006C4DBA069002803DA404246F0F9
:100640000106A061F00701D026F010066C2D0BD03A
:10065000682D09D04C2D39D06A2D35D0742D35D068
:100660007A2D33D016E038E0E1682F4620468847DF
:10067000B842054609D16C2F26D04FF48060E1685E
:10068000064320468847054604E06C2F1AD04FF4F5
:10069000807006430DB3A5F14100192802D820351A
:1006A00046F400664A462946204626604E46FFF735
:1006B000A5FD80B101280BD0F61D26F0070000F142
:1006C000080956E74020E4E78020D8E70020D6E775
:1006D00006F104094DE7284652E7206ABDE8F09F7D
:1006E000DEEB000010B5044603E007F055F8401CAF
:1006F00009D014F8010B05490028F6D1BDE81040D7
:100700000A2007F049B84FF0FF3010BD0802002062
:10071000401ECAB210F8011F8A4202D00029F9D146
:100720000020704730B505460B462A4613F8014BAA
:1007300012F8010B08B1A042F8D01CB1002802D079
:100740006D1CF1E7284630BD40EA010310B59B0758
:100750000FD1042A0DD310C808C9121F9C42F8D02B
:1007600020BA19BA884201D9012010BD4FF0FF30DC
:1007700010BD1AB1D30703D0521C07E0002010BDF2
:1007800010F8013B11F8014B1B1B07D110F8013B7E
:1007900011F8014B1B1B01D1921EF1D1184610BD5F
:1007A00010B5431C02E010F8011B71B18107FAD1AA
:1007B0004FF0013202C88C1A8C4314EAC211F9D0EE
:1007C000C01A0A0603D0C01E10BDC01A10BD0A040C
:1007D00001D0801E10BD0902FCD0401E10BD40EAB1
:1007E000010370B59B072ED14FF00136042A2AD39E
:1007F00008C810C99D1B9D43121F15EAC61517D0C6
:10080000D8B2E1B2401A50EA056110D198B2A1B253
:10081000401A50EA05410AD123F07F4024F07F417D
:10082000401A50EA052102D1180EA0EB146070BDE9
:10083000A342DBD018BA21BA884201D9012070BD89
:100840004FF0FF3070BD0AB9002070BD10F8013BB9
:1008500011F8014B63B1A3420AD1521E08D010F81F
:10086000013B11F8014B1BB1A34201D1521EEDD146
:10087000181B70BD032A40F2308010F0030C00F00A
:10088000158011F8013BBCF1020F624498BF11F8CA
:1008900001CB00F8013B38BF11F8013BA2F1040283
:1008A00098BF00F801CB38BF00F8013B11F00303FB
:1008B00000F02580083AC0F0088051F8043B083A5F
:1008C00051F804CBA0E80810F5E7121D5CBF51F801
:1008D000043B40F8043BAFF30080D20724BF11F87B
:1008E000013B11F801CB48BF11F8012B24BF00F8E0
:1008F000013B00F801CB48BF00F8012B704710B551
:10090000203AC0F00B80B1E81850A0E81850B1E8C8
:100910001850A0E81850203ABFF4F5AF5FEA027C07
:1009200024BFB1E81850A0E8185044BF18C918C037
:10093000BDE810405FEA827C24BF51F8043B40F8D8
:10094000043B08BF7047D20728BF31F8023B48BFBD
:1009500011F8012B28BF20F8023B48BF00F8012BFB
:10096000704702F0FF0343EA032242EA024200F02A
:1009700024B84FF000020429C0F0128010F0030CDC
:1009800000F01B80CCF1040CBCF1020F18BF00F882
:10099000012BA8BF20F8022BA1EB0C0100F00DB831
:1009A0005FEAC17C24BF00F8012B00F8012B48BF8F
:1009B00000F8012B70474FF0000200B51346944633
:1009C0009646203922BFA0E80C50A0E80C50B1F1A7
:1009D0002001BFF4F7AF090728BFA0E80C5048BFBB
:1009E0000CC05DF804EB890028BF40F8042B08BF59
:1009F000704748BF20F8022B11F0804F18BF00F855
:100A0000012B704710B5044610F0030F08BF11F01A
:100A1000030F40F015804FF0013E121FC0F20E8010
:100A200051F8043BA3EB0E0C2CEA030C1CEACE1C81
:100A300008BF40F8043BF0D0A1F1040102F1040228
:100A4000521E08DB11F8013B00F8013B002BF7D1E7
:100A50001146FFF78EFF204610BD70477047704764
:100A600010B500F037FC006810BD10B5044600F06A
:100A700031FC046010BD2DE9F0470D4699469246C1
:100A8000044600F124080168880604D5E06921F0D5
:100A90001001216000E00120A84201DD471B00E0B9
:100AA0000027A1697A1902EB0900081AA0612078D1
:100AB000C00602D42046FFF7C5FC002608E0D4E9B2
:100AC00001211AF806009047206A401C761C20621B
:100AD0004E45F4DB2078C0060AD52046FFF7B2FC6D
:100AE00006E0D4E9012130209047206A401C2062B2
:100AF000381EA7F10107F4DC07E0D4E9012118F85A
:100B000005009047206A401C2062281EA5F10105BF
:100B1000F3DC2046FFF7ACFC2078000602D502206B
:100B2000BDE8F0870120FBE72DE9FF4F0C461E468C
:100B30004FF0FF378BB0D2E90001DDF860800A90FA
:100B40008A46C1F30A5505B93D46002108464FF0D3
:100B50000000BAF1000F00F4400005DA00EB80005D
:100B60004FF4400101EA50004FEA9059B9F1010FEA
:100B700000DDB9460A9850EA4A000ED044F61050FB
:100B8000A5F2FF3545432F14B8F1000F1ED0754272
:100B9000291E1EDDC9F100021CE0B8F1010F4FF063
:100BA000000001D0302103E0F24305E02154401C55
:100BB000B042FBDB30460022002121540B99C1F8E2
:100BC0000880C1E900200FB0BDE8F08FBD1B6D1C8F
:100BD000DEE74A4600DA694206A800F005FC06ABEB
:100BE00093E8070003AB83E8070050460A990BF02F
:100BF00095FE8DE80700A0F500501F38009003987F
:100C0000002D0ADD42F21F014A460844002303A9D1
:100C1000039068460CF0FEF809E0A0F500504A4643
:100C20001F38002303A9039068460CF008F98DE8EB
:100C300007000004000C03D04FF0FF30410800E033
:100C40001046B8F1000F03D00022009215461EE0B6
:100C5000751E05D400F042FB303262556D1EF9D589
:100C6000B3460122084302D000227F1C04E0207812
:100C7000302801D100227F1E002A099784D01DE070
:100C8000112D07DA00F02AFB303262556D1C50EA54
:100C90000102F5D1084302D00098C8B10EE000214E
:100CA000681E05E0235C625C63542254401E491CAC
:100CB0008142F7DBAB46A81B401E0990002004F8D8
:100CC0000B000B98099AC0F80880C0E9002B7AE75E
:100CD00011264FF0000857E72DE9F04F88460446EB
:100CE000D21D22F0070191B0D1E90001CDE90A013E
:100CF0000CF0DCF902460B98C00F01D02D2007E064
:100D00002068810701D52B2002E0202101EAC000E4
:100D1000032A099001D0072A05DB034641462046F5
:100D200000F022FB0BE12078800601D5E06900E0AD
:100D30000620B8F1650F814606D0B8F1660F18D0CD
:100D4000B8F1670F70D131E00020B9F1110F0090B8
:100D500001DB112301E009F101030AAA01A90CA892
:100D6000FFF7E2FEDDE90C70002609F1010583467C
:100D700047E001204B4600904FF000470AAA01A926
:100D80000CA8FFF7D1FEDDE90DB00C995D460026F9
:100D900010B909F101000D18B9EB050003D4C0F139
:100DA000FF3609F10105A5EB09002BE0B9F1010FB0
:100DB00001DA4FF001090020B9F1110F0090484607
:100DC00001DD112300E003460AAA01A90CA8FFF7E0
:100DD000ABFEDDE90C704D46002683462078000707
:100DE0000AD4AB4500DA5D4601A8012D04DD4119A6
:100DF00011F8011C302907D04F4502DA17F1040F12
:100E000004DA012082460FE06D1EEEE7002F02DCBF
:100E1000ED1B3E4403E0781CA84200DD7D1CB81B9E
:100E200000F1010A4FF000472078000703D4AA45DB
:100E300001DB4FF0FF3A0021B7F1004F0DF14308FD
:100E40008DF8431024D002202B23002F01DA7F429B
:100E50002D230A21021EA0F1010000DC5FB197FBE7
:100E6000F1FC97FBF1F201FB1C7C17460CF1300CF6
:100E700008F801CDEEE7A8F101000370218809050B
:100E800001D5452100E06521A0F1010800F8011C11
:100E900009980FA9A1EB0807FF1D00B10120411916
:100EA00001EBEA70A1693844081A401EA06120785D
:100EB000C00602D42046FFF7C5FA099828B1D4E944
:100EC00001219047206A401C20622078C00622D56C
:100ED0002046FFF7B7FA1EE0002E04DBB34502DD23
:100EE00001A8805D00E03020D4E901219047206A0C
:100EF000401C2062761CAAF101005FEA000A0AD1B8
:100F000000F0E4F9C0680168405CD4E90121904731
:100F1000206A401C2062281EA5F10105DCDC07E0E8
:100F2000D4E9012118F8010B9047206A401C206287
:100F3000381EA7F10107F3DC2046FFF799FA0320DA
:100F400011B041E62DE9F04F04460D46D21D22F0C6
:100F5000070089B0D0E90097484639460CF0A6F85A
:100F60000246F80F01D02D2307E02068810701D544
:100F70002B2302E0202101EAC0038DF820300BB1C1
:100F8000012000E00020032A824601D0072A04DB6A
:100F90002946204600F0E8F93FE12078800601D498
:100FA0000D2500E0E569C7F30A560D2D49DA002149
:100FB0004FEA175B08464FF00000002F00F4400096
:100FC00007DA00EB80004FF4400100EBD07001EA3B
:100FD00060008115012901DD4FF0FF3100224FEA49
:100FE000850CBCF1180F06D31346ACF118004FF076
:100FF0008052C24003E04FF4801323FA0CF30CF14B
:101000000C0CBCF1200F04D3ACF1200C09FA0CF04D
:1010100001E007FA0CF000294FF0004801DD18B993
:101020000FE00ED140450CD319EB02095F4121B905
:10103000404502D19F4329EA0209BBEB175F00D06C
:10104000761C2088000502D57B48784402E07A4867
:101050007844193808AA302302F80A30037C0AF1D0
:101060000101002E0AF1020A53546A4602DC4FF0D5
:10107000300101E04FF031014FF001088DF8001010
:1010800002D0A6F2FF3603E059EA470100D06B4ECA
:10109000002D02DC2178090704D54FF002082E212B
:1010A0008DF80110C44600210BE0C7F303433F0154
:1010B000C35C491C6D1E02F80830052908F10108BF
:1010C00001DA002DF1DC00210CE000EB1973491C62
:1010D0001B786D1E082902F808304FEA091908F13B
:1010E000010801DA002DF0DC21688B0602D516E03C
:1010F000A8F10108E04505DD02EB080313F8013C07
:10110000302BF5D0B8F1000F09DD02EB080313F81E
:10111000013C2E2B03D1090701D4A8F10108002DB1
:1011200005DD3E2102F808106D1E08F10108407C23
:10113000002E02F8080008F1010804DA2D2076429A
:1011400002F8080002E02B2002F808000A214FF400
:101150007A70864208F101080BDB96FBF0F330331E
:1011600002F8083096FBF0F308F1010800FB136663
:1011700001E0642E0CDB642096FBF0F3303302F8C0
:10118000083096FBF0F308F1010800FB136601E05C
:101190000A2E06DB96FBF1F0303002F8080008F169
:1011A000010896FBF1F001FB1060303002F80800F6
:1011B000A16908F1010808EB050202EB0A00081A10
:1011C000A0612078C00602D42046FFF73BF9216ACF
:1011D00008AE01EB0A00206204E0D4E9012116F810
:1011E000010B9047BAF1010AF7D22078C00602D568
:1011F0002046FFF727F96E4609E016F8010B3E2856
:101200000FD0D4E901219047206A401C2062B8F138
:101210000108F2D22046FFF72BF909B00320BDE800
:10122000F08F206A2844206203E0D4E901213020B5
:1012300090476D1EEBD3F8E775E1000002FCFFFF5D
:1012400001694A1C02610878704700B58FB0CDE98A
:1012500001310021059105497944CDE9031011467A
:101260006846FFF77BF90FB000BD0000E5FFFFFF08
:101270000A6802F8010B0A60704710B5436913B1A0
:10128000AFF3008001E0FFF704F9012010BD1278F0
:1012900000F124010A7000224A700122EDE7116872
:1012A0004FF0FF32E9E70000074B70B50D467B4475
:1012B000FFF7CBFF0446284600F008F910B14FF0C5
:1012C000FF3070BD204670BDE764000000487047E5
:1012D00020010020004870470001002030B5B0F127
:1012E0000A0271F100034FEA900E4EEA817EB0EBE4
:1012F0000E0061EB91014FEA101E4EEA017E10EBE9
:101300000E0041EB11114FEA102E4EEA016E10EB68
:101310000E0041EB11214FEA104E4EEA014E10EB48
:101320000E0041EB1141401841F100014FEAD0009D
:1013300040EA41704FEAD1014FEA810444EA9074D7
:1013400010EB800544EB01046D1944EB0404521BBF
:10135000A3414FF0000348BF0A3200D530BD401C06
:1013600041F1000130BD00002DE9F0411F46044667
:1013700003260168072A01F4006004DB08B116A502
:1013800005E016A503E008B115A500E015A521F0BC
:1013900010002060A069C01EA0610FB1401EA061B6
:1013A0002046FFF74FF84FB1D4E901213846904766
:1013B000206A401C2062C01C206206E0206AFAE716
:1013C000D4E9012115F8010B9047761EF8D220468A
:1013D000FFF74EF8BDE8F0814E414E006E616E00A1
:1013E000494E4600696E66002DE9F0478146164673
:1013F0008AB0354878440DC88DE80D0032487844ED
:10140000801C03AC0DC884E80D0041F69B300844F5
:10141000372190FBF1F290FBF1F5A5F1800501FB7E
:1014200012041B3C02D56442012000E00020DFF8DA
:1014300098A080460027FA44AAF1BE0A0EE0E00711
:101440000AD03246684607EB470101230AEB8101C7
:101450000BF0F5FC8DE8070064107F1C002CEED12A
:10146000194F7F44AE3F19E0E80715D007EB041091
:101470000DF1180A90E80E008AE80E00C068F042EC
:1014800001D1981908903246012306A903A80BF050
:10149000D6FC03AB83E807006D10641C002DE3D17C
:1014A0004FF0010332466946B8F1000F03A802D09D
:1014B0000BF0B0FC01E00BF0C2FCC9E90001C9F877
:1014C00008200AB0BDE8F08724E00000007B00F0AF
:1014D0008000704700487047000100207546FFF704
:1014E000F9FFAE4605006946534620F007008546E1
:1014F00018B020B5FEF7C2FEBDE820404FF0000650
:101500004FF000074FF000084FF0000BAC46ACE87E
:10151000C009ACE8C009ACE8C009ACE8C00921F0DA
:1015200007018D46704710B50446AFF30080204692
:10153000BDE81040FEF78DBE30B44FF0013C50F8CE
:10154000042B51F8043BCCFA52F4D51A20D1FCB943
:1015500050F8042B51F8043BCCFA52F4D51A17D1A9
:10156000B4B950F8042B51F8043BCCFA52F4D51A14
:101570000ED16CB950F8042B51F8043BCCFA52F45C
:10158000D51A05D1002CDAD030BC4FF000007047DE
:1015900029BAB1FA81F111F01801D1F1200084408B
:1015A000F2D1CA40CB4012F0FF0213F0FF0330BC6F
:1015B000D01A704701491820ABBEFEE72600020092
:1015C00070470000B0B540F23854C2F2000405463E
:1015D000204601F0C7F807F007FC40F20001C2F214
:1015E00000010978012D1DD1E1B140F26422C2F25F
:1015F00000021168884252D340F2602C451DC2F2AD
:10160000000C40F278009CF80010C2F20000036861
:101610000029156044D0991EB1F5487F016047D17B
:10162000002143E0022D3AD1C9B340F26421C2F255
:1016300000010A68904238BFB0BD40F25C25C2F29A
:1016400000052A6840F2AC03C2F2000333F812200E
:10165000C83008607AB144F24020C0F20F00B0FBFD
:10166000F2F02168C862E06040084863204600212B
:1016700001F0A2FA05E020680121C162E1600021C9
:10168000416328684AF6AB210130CAF6AA21A0FBC3
:101690000112D10801EB4101A0EB81002860B0BD2F
:1016A000991CB1F5AF6F016002D101218CF80010D7
:1016B000006844F24021C0F20F01B1FBF0F0216854
:1016C000C862E060400848632046002101F074FAD7
:1016D000B0BD000070B540F23854C2F200040546B7
:1016E00020460E4601F03EF8701E062888BF70BDE9
:1016F0000DA030F8160044F24021C0F20F01B1FBFA
:10170000F0F02168C862E0604008486307F06CFBB5
:1017100040F26E212844C2F20001088020460021D8
:1017200001F04AFA70BD00BFEE010B024C029402B8
:10173000BA0210037003DC0310B540F2F410C2F2D9
:101740000000017840F2E510C2F200000078084382
:10175000000605D00120002908BF0220FFF732FF54
:1017600040F26E24C2F20004208870B107F03CFB06
:101770002188884238BF10BD0020208040F23850B8
:10178000C2F20000002101F0A9FA10BDFEE700003E
:1017900010B586B000200590CDE90300CDE9010029
:1017A000009043F63000C4F20200016841F20004E8
:1017B00041F0100101600068C4F2020400F0100062
:1017C000009000980120CDE901000220049001A9B9
:1017D000204600F017FA20460121012200F0E6FA27
:1017E00006B010BD80B586B00020059002900120A3
:1017F000019003900220049041F20000C4F2020024
:1018000001A900F0FFF906B080BD000080B586B0E8
:101810000020059003900120CDE9010002200490F2
:1018200041F20000C4F2020001A900F0EBF906B099
:1018300080BD0000B0B541F20004C4F20204FFF71D
:10184000D1FF2046012100F0ABFA98B1002000BF83
:101850000546012005F05AFA2046012100F0A0FAC1
:10186000622D03D8002805F10100F1D1622D84BF5B
:101870000120B0BD2046012100F092FA00281CBFD3
:101880000020B0BD002000BF0546012005F03EFA53
:101890002046012100F084FAEE2D03D8002805F13E
:1018A0000100F1D00020EE2D88BF0120B0BD000066
:1018B00010B5FFF7ABFF41F20004C4F2020420466A
:1018C0000121002200F072FA0A2005F01FFAFFF74A
:1018D00089FF2046012100F063FA0138B0FA80F058
:1018E00044092D2005F012FA204610BDB0B50024A1
:1018F000002500BFFFF7DCFFA0400134082C45EABB
:101900000005F7D1E8B2B0BD10B5FFF77FFF41F297
:101910000004C4F2020420460121002200F046FA2D
:1019200040F2EE2005F0F2F920460121012200F0FC
:101930003DFA0F2005F0EAF910BD000010B507F0E0
:1019400053FA40F2EC11C2F200010A68904264D3EB
:101950003230086007F048FA40F2E814C2F200049E
:10196000216801F57A7188421ED907F03DFA20609E
:1019700005F0D6FE9FED291AB4EE410AF1EE10FAF9
:1019800012DA40F2F010C2F2000080ED000A10EE10
:10199000100A0DF02BFB024640F6F0300B46C2F267
:1019A00000001FA1FEF73AFD07F01EFA40F6F834DA
:1019B00040F25C62C2F20004C2F2000221681268C6
:1019C0001144884298BF10BD07F00EFA40F2782209
:1019D000C2F20002116820604A290DDC40F2F010CA
:1019E000C2F200004B1C0068136048F6F062C2F2BD
:1019F000000242F8210010BD48F6F064C2F2000473
:101A0000211D20464FF49472FEF779FF40F2F0104A
:101A1000C2F200000068C4F8280110BD0000FA42BC
:101A2000252E316600000000F0B581B041F20005BE
:101A30000446C4F20205FFF7E9FE0027284601210B
:101A4000002204F00106640800F0B0F9002E4FF007
:101A500008004FF03A0608BF462008BF022605F0EE
:101A600055F928460121012200F0A0F9304605F081
:101A70004DF9072F07F10107E0D301B0F0BD0000D9
:101A80004EF6FC50CEF20000016841F0807101601A
:101A900041F20000CEF20000016841F00101016056
:101AA00000214160704700007047000070B5044697
:101AB0004D1E00202A1A215CB2FA82F2461C5209FD
:101AC000C0B204F0FDFF012007F07EF9042E30467D
:101AD000F0D170BDEFF3108072B600BFFEE70000DA
:101AE00010B5ADF5007D40F28410C2F20000006830
:101AF000694600220023002407F0AEF918B96846B1
:101B000002F078FD012420460DF5007D10BD000097
:101B100010B582B01FFA80FE1FFA81FC40F6FC303F
:101B20009CB293B2C2F2000071466246009408F083
:101B300093FA02B010BD000070B5866D044600F047
:101B40003BF994F83510022925D105462068216C0F
:101B5000026822F016020260426922F080024261AD
:101B600009B9A16C19B1016821F00801016001688F
:101B700021F00101016000BF20680068C0070ED09D
:101B800000F01AF9401B0628F6D3202060650320D8
:101B900084F835000CE080206065012008E0E06DED
:101BA0003F2101FA00F0B060012084F835000020E8
:101BB000002184F8341070BD90F83510022909D145
:101BC000052180F835100068016821F001010160ED
:101BD000002070478021416501207047B0B5044660
:101BE00000F0EAF8054640F2F000C2F2000000788A
:101BF000611C18BF044400BF00F0DEF8401BA04287
:101C0000FAD3B0BD2DE9F04F83B000F13E4202F1AE
:101C1000FF724FEAB22241F600470192C4F2020776
:101C200008224FF0010E00254FF0000A4FF0000887
:101C3000B84208BF072200920AE000BF08F101087D
:101C40000AF1040AB8F1100F05F1020500F0A480B2
:101C50000C680EFA08FB14EA0B09EFD04C6804F08C
:101C6000030CACF1010EBEF1010F11D803228768FD
:101C700002FA05F6CA68B743AA403A43826042684E
:101C8000C4F3001722EA0B0207FA08F73A4342604E
:101C9000BCF1030F1CD0C26803238E6803FA05F75A
:101CA000BA4306FA05F73A43BCF1020FC2600FD1FE
:101CB0006FF0030202EA580202440AF01C060F23E6
:101CC000176A03FA06F40B69A743B3403B43136258
:101CD000026803234F68AB409A4307F00303AB400D
:101CE0001A4317F4403F4FF0010E0260A6D00022C5
:101CF00043F644030292C4F202031A6843F6004416
:101D000042F480421A601A68C4F2010402F480426C
:101D10000292029A28F003024FF6084B2244CFF6B3
:101D2000FF7B52F80B300AF00C070F26BE4023EA67
:101D3000060C019B009E072B38BF1E4606FA07F7CC
:101D400047EA0C0342F80B30A2684B6842EA0907E5
:101D500043F60C4CDE0258BF22EA0907A760C4F222
:101D6000010CDCF800209E0242EA090758BF22EA73
:101D70000907CCF8007062689E0342EA090758BF61
:101D800022EA090767602268DB0342EA090358BFB9
:101D900022EA0903236051E703B0BDE8F08F000099
:101DA0000069084018BF012070470000002A08BFE2
:101DB000090481617047000048F2C850C2F2000077
:101DC0000068704740F2F00048F2C851C2F20000CB
:101DD000C2F2000100780A681044086070470000F1
:101DE00080B543F60040C4F20200016841F400717E
:101DF0000160016841F480610160016841F4807113
:101E00000160032000F098F80F2000F005F800F0C2
:101E10005BF8002080BD000070B586B0002543F659
:101E200040010195C4F202010A68044642F0200212
:101E30000A60096801A801F0200101910199694631
:101E400000F02EF9049E002E18BF012600F04EF976
:101E50004DF68361B040C4F21B31A0FB01014FF08D
:101E6000FF3000EB914140F2805041F20042C2F25B
:101E70000000C4F2000240F2E733C0E90021C0E9EB
:101E800002530561856100F023FC0546C0B940F2AC
:101E90008050C2F2000000F065FC054680B9372092
:101EA00000F036F80F2C0AD837202146002200F027
:101EB00033F840F2F400C2F20000046000E00125B3
:101EC000284606B070BD000080B582B0002043F601
:101ED00040010190C4F202014A6842F480424A6023
:101EE0004A6802F480420192019A00900868002238
:101EF00040F08050086008680F2100F0805000908A
:101F000000986FF0010000F007F802B080BD0000FB
:101F100080B504F03FFE80BD70B514460D46064600
:101F200004F048FE2946224602F0AAFA014630464D
:101F300004F048FE70BD000080B504F05DFE80BD79
:101F40002DE9F041002800F08B8043F60808C4F228
:101F500002080446D8F8F8030D4600F0070088424E
:101F600007D288F8F853D8F8F80300F00700A84221
:101F700076D12068810717D5410705D5D8F800101C
:101F800041F4E051C8F80010010705D5D8F8001059
:101F900041F46041C8F80010D8F80010A26821F0A0
:101FA000F0011143C8F80010C0073FD1D8F8F8037A
:101FB00000F00700A84207D988F8F853D8F8F803CA
:101FC00000F00700A8424BD12068410707D5D8F898
:101FD0000010E26821F4E0511143C8F80010000736
:101FE00008D5D8F80000216920F4604040EAC1001B
:101FF000C8F8000000F09EF8D8F800104FF23A42FE
:10200000C1F30311C0F60002515C40F26C0220FAE9
:1020100001F140F2F400C2F200000068C2F20002D6
:102020001160FFF7F9FE0020BDE8F0816068811EB5
:10203000022907D258F8081C89015CBF0120BDE8BD
:10204000F08110E0012807D158F8081C89035CBF13
:102050000120BDE8F08106E058F8081C890702D489
:102060000120BDE8F081D8F8001021F003010843F9
:10207000C8F80000FFF7A0FE064641F2883700BF0F
:10208000D8F80000616800F00C00B0EB810F8DD033
:10209000FFF792FE801BB842F2D90320BDE8F08121
:1020A0000F22026043F60802C4F20202136803F032
:1020B00003034360136803F0F0038360136803F4C1
:1020C000E053C360D2F800C04FF4E05303EADC03EE
:1020D0000361D2F8F80300F00700086070470000C1
:1020E00040F26C00C2F200000068704780B5FFF754
:1020F000F7FF43F60801C4F2020109684FF24A42B1
:10210000C1F38221C0F60002515CC84080BD0000CE
:1021100080B5FFF7E5FF43F60801C4F20201096844
:102120004FF24A42C1F34231C0F60002515CC8404E
:1021300080BD000010B543F60404C4F202046068D8
:1021400000F00C0142F200400829C0F2F40007D070
:10215000042918BF10BD41F20020C0F27A0010BD62
:10216000216801F03F02216823684902C3F3881106
:1021700005D4A1FB00010023FEF792F806E041F22E
:102180000020C0F27A004843B0FBF2F0216802223E
:10219000C1F3014102EB4101B0FBF1F010BD0000C1
:1021A0002DE9F04182B0002800F0A28004460078BA
:1021B00043F60006C007C4F2020643D0B06800F040
:1021C0000C00042805D1306880033BD56068C8BB8B
:1021D0008EE0B06800F00C00082802D17068400260
:1021E000F1D46568B5F5A02F0AD0B5F5803F0BD0C6
:1021F000306820F480303060306820F4802006E0C1
:10220000306840F480203060306840F480303060C6
:10221000FFF7D2FD002D054611D000BF30688003C6
:1022200010D4FFF7C9FD401B6428F7D922E100BF95
:10223000FFF7C2FD401B64284FF0030055D83068FB
:102240008003F5D4207880071AD5B06810F00C0F01
:1022500009D0B06800F00C00082840F08A8070684F
:10226000400200F186803068800702D5E0680128CE
:102270003ED13068216920F0F80040EAC1003060AA
:102280002078000738D4207840074CD4A5695DB386
:10229000B06800F00C00082840F09E80012D27D087
:1022A0007068E16900F480028A4221D1216A00F05D
:1022B0003F028A421CD147F6C071626A0140B1EB0D
:1022C000821F15D1A26A0023CFF6FF7303EBC2323F
:1022D00000F440316FF30F02914209D1E16A00F03E
:1022E0007060B0EB016F03D1002002B0BDE8F08157
:1022F000012002B0BDE8F0816069002840F20000D2
:10230000C4F2472057D00121C0F8801EFFF754FDCA
:10231000054600BF706F8007B5D4FFF74DFD401B29
:102320000228F7D9A6E0306C10F080580AD10020BE
:102330000190306C40F080503064306C00F0805080
:102340000190019847F20007C4F200073868C00501
:1023500024D4386840F480703860FFF72DFD0546BE
:102360003868C0051AD4FFF727FD401B0228F7D9AB
:1023700080E0E068002851D00020C4F2472001210D
:102380000160FFF719FD0546306880073FF571AF22
:10239000FFF712FD401B0228F6D96BE0A568052D5A
:1023A00050D0012D52D0306F20F001003067306FD7
:1023B00020F004004DE00021C0F8801EFFF7FCFC77
:1023C000054600BF706F80077FF55DAFFFF7F4FC37
:1023D000401B0228F6D94DE00027C4F24727002011
:1023E0003866FFF7E9FC022D05460BD13068800105
:1023F00058D5FFF7E1FC401B02284FF00300F5D948
:1024000073E700BF306880017FF56EAFFFF7D4FC43
:10241000401B02284FF00300F4D966E70020C4F205
:10242000472000210160FFF7C7FC054630688007A0
:102430007FF526AFFFF7C0FC401B02284FF00300DA
:10244000F4D952E7306F40F004003067306F40F04D
:1024500001003067FFF7B0FC002D054641F28837D8
:1024600014D000BF306F800713D4FFF7A5FC401BCA
:10247000B842F7D9032002B0BDE8F081FFF79CFC19
:10248000401BB8424FF003003FF62FAF306F80077C
:10249000F4D4B8F1000F7FF4F9AE306C20F0805026
:1024A0003064F3E604F11C052FCD08430021CFF67C
:1024B000FF7140EA821001EBC3316FF30F0140EA74
:1024C00005600843706001203866FFF775FC04461C
:1024D000306880013FF508AFFFF76EFC001B022853
:1024E0004FF00300F4D900E770B538B10446406AF4
:1024F00030B10020206104F1140007E0012070BD1C
:102500006068B0F5827F03D004F11C0000210160F7
:102510000026A66294F8510020B9204684F8506045
:1025200000F03CF8022084F8510094E80F0001F418
:102530008271056802F4044225F0400505601144EB
:1025400003F400622369114403F002026369114439
:1025500003F00102A369E569114403F40072114418
:1025600005F03802256A114405F08002A56A11437E
:1025700005F4005211430160626A042101EA13412B
:1025800002F0100211444160C16921F40061C1618F
:102590000120666584F85100304670BD80B586B074
:1025A00043F200010068C4F2010100228842059252
:1025B000CDE903220292019201D006B080BD43F61C
:1025C00030000092C4F20200436943F48053436137
:1025D000436903F480530093009B0092036843F027
:1025E00001030360006800F0010000900098E02003
:1025F00001900220CDE902020320049005200590FD
:1026000001F5504001A9FFF7FDFA06B080BD0000BA
:10261000704700007047000010B590F83C20012A78
:102620004FF0020252D0012380F83C3080F83D2068
:102630000268D2F804E0D2F808C00C682EF07003EB
:10264000234341F2FF74C4F20004A24253600DDC44
:1026500040F2FF73C4F200039A4215DCB2F1804FDE
:1026600029D040F20043C4F2000322E040F2FF33DD
:10267000C4F201039A4212DC41F60003C4F20003E3
:102680009A4218D0002312E040F60003C4F200037F
:102690009A4210D040F60043C4F2000309E044F22D
:1026A0000003C4F201039A4205D040F20043C4F291
:1026B00001039A4204D149682CF0800319439160C8
:1026C0000121002280F83D1080F83C20104610BD0A
:1026D000002804BF0120704710B5044690F83D0063
:1026E00028B9002084F83C00204600F01FF80220A2
:1026F00084F83D002068211D02F09EFC012084F832
:10270000460084F83E0084F83F0084F8400084F8D6
:10271000410084F8420084F8430084F8440084F8BF
:10272000450084F83D00002010BD000081B0006825
:1027300040F20041C4F20001884201D001B070476C
:102740000020009043F64000C4F20200016841F00E
:1027500002010160006800F002000090009801B0E2
:102760007047000090F83D1001291CBF0120704700
:10277000022180F83D10006841F2FF72C168C4F286
:102780000002904241F00101C1600DDC40F2FF7196
:10279000C4F20001884215DCB0F1804F29D040F22C
:1027A0000041C4F2000122E040F2FF31C4F2010115
:1027B000884212DC41F60001C4F20001884218D0C0
:1027C000002112E040F60001C4F20001884210D05E
:1027D00040F60041C4F2000109E044F20001C4F2F5
:1027E0000101884205D040F20041C4F20101884253
:1027F00006D1816801F00701062904BF0020704757
:10280000016841F0010101600020704710B50446E5
:1028100090F83C0001284FF0020008BF10BD0122D3
:1028200084F83C2084F83D0020684FF67773826876
:102830009A4382600A684F2A0FDC1F2A22DD202A71
:1028400023D0302A21D0402A4DD14B68CA6819467E
:1028500002F06EFD206840213BE06F2A17DDB2F5E3
:10286000005F20D0B2F5805F2AD0702A3BD1D1E939
:10287000012CCB68614602F083FC2068816841F03E
:1028800077011AE00AB1102A2DD1114621E0502A11
:1028900018D0602A27D14B68CA68194602F05AFD41
:1028A0002068602115E0D1E9012CCB68614602F077
:1028B00067FC2068816841F48041816000200BE062
:1028C000002009E04B68CA68194602F031FD206813
:1028D000502102F061FC0020012184F83D1000210C
:1028E00084F83C1010BD0120F6E70000704700009E
:1028F00010B5044600680169890744BFC1685FEAF2
:10290000817138D420680169490744BFC1685FEA12
:1029100041713CD420680169090744BFC1685FEA7E
:10292000017141D420680169C90644BFC1685FEAEA
:10293000C16145D420680169C9071CBFC1685FEA4D
:10294000C1714AD120680169090644BFC1685FEAC4
:10295000016149D420680169490644BFC1685FEA42
:10296000416148D420680169890644BFC1685FEAB3
:10297000816147D410BD6FF002010161012121770F
:102980008069800745D02046FFF7B0FF47E06FF031
:102990000401016102212177806910F4407F41D058
:1029A0002046FFF7A3FF43E06FF008010161042117
:1029B0002177C06980073ED02046FFF797FF40E0AF
:1029C0006FF01001016108212177C06910F4407F88
:1029D0003AD02046FFF78AFF3CE06FF00101016129
:1029E000204600F0BDF9ADE76FF08001016120469F
:1029F000FFF70EFEAEE76FF040010161204600F0E8
:102A0000BBF9AFE76FF0200101612046FFF702FE3E
:102A100010BD204600F050F8204600F0CBF8002012
:102A200020776FE7204600F047F8204600F0C2F814
:102A3000002020776EE7204600F03EF8204600F0A8
:102A4000B9F8002020776DE7204600F035F82046E1
:102A500000F0B0F8002020776CE7000080B586B069
:102A600040F200410068C4F2000100228842059251
:102A7000CDE903220292019201D006B080BD43F657
:102A800030000092C4F20200036843F002030360C6
:102A9000006800F0020000900098102001900220D1
:102AA000CDE90202CDE9042001F5003001A9FFF7CC
:102AB000A9F806B080BD000070470000B0B504461C
:102AC00090F83C00012804BF0220B0BD0D464FEA3B
:102AD000B2010120032984F83C0037D8DFE801F077
:102AE000020A12222068294602F05EFB206850F894
:102AF000181F0EE02068294602F088FB206850F875
:102B0000181F16E02068294602F0B6FB206850F82E
:102B10001C1F41F008010160016821F004010160FF
:102B200029690FE02068294602F0DAFB206850F896
:102B30001C1F41F400610160016821F480610160A3
:102B4000296909020268114301600020002184F80C
:102B50003C10B0BD002804BF0120704710B50446EA
:102B600090F83D0028B9002084F83C00204600F091
:102B70001FF8022084F83D002068211D02F05CFA55
:102B8000012084F8460084F83E0084F83F0084F871
:102B9000400084F8410084F8420084F8430084F83F
:102BA000440084F8450084F83D00002010BD00007A
:102BB000704700007047000010B5044641B1082975
:102BC00009D0042914BF04F1410004F13F0004E0DE
:102BD00004F13E0001E004F14000007801281CBF30
:102BE000012010BD022041B1082909D0042914BFD9
:102BF00084F8410084F83F0004E084F83E0001E0DE
:102C000084F840002068012202F0A8FA206841F20E
:102C1000FF71C4F2000188420FDC40F2FF71C4F280
:102C20000001884217DCB0F1804F49D040F20041EA
:102C3000C4F20001884243D049E040F2FF32C4F2BE
:102C40000102904214DC41F60003C4F200039842F2
:102C500036D0002314E040F60001C4F2000188429F
:102C60002ED040F60041C4F20001884228D02EE068
:102C700044F20003C4F20103984221D040F2004321
:102C8000C4F20103984222D1436C884243F40043CA
:102C90004364C2DD904207DC41F60001C4F200014A
:102CA00088420DD0002107E044F20001C4F2010186
:102CB000884205D040F20041C4F20101884206D1A9
:102CC000816801F00701062904BF002010BD0168DA
:102CD00041F001010160002010BD0000B0B50446C4
:102CE000006800220D4602F039FA206840F20042E6
:102CF00040F48061C4F2010291420DD1016A41F2B7
:102D00001112114208D1016A40F24442114203D12A
:102D1000416C21F400414164016A41F211121142F7
:102D200008D1016A40F24442114203D1016821F006
:102D3000010101600120082D09D0042D0BD0002DC8
:102D400014BF84F8410084F83E000020B0BD84F830
:102D500040000020B0BD84F83F000020B0BD00005E
:102D600080B5006841F20041C4F20001884208BF0A
:102D7000FFF728F880BD000070470000B0B582B0B2
:102D8000044690F83E0020280BD100294FF00105A1
:102D900018BF002A06D094F83C00012805D102256E
:102DA00000E00225284602B0B0BD0125204684F887
:102DB0003C50256302F02AFC206B0128F2D1002050
:102DC000019020680168019140680190019800BF5E
:102DD000206850E8030F216840F0100041E803022A
:102DE000002AF5D10025DDE780B501F0C5FE80BDE4
:102DF0007047000010B50446206850E8030F2168B2
:102E000020F4907041E80302002AF5D1206850E8D0
:102E1000050F216820F0010041E80502002AF5D1E4
:102E2000206B01280AD100BF206850E8030F2168F9
:102E300020F0100041E80302002AF5D12068406923
:102E400040060BD400202021E08584F83E1020634A
:102E50002046FFF7CDFF002010BD00BF206850E8DE
:102E6000050F216820F0400041E80502002AF5D155
:102E7000A06B68B145F2ED31C0F600010165FEF7C7
:102E80009BFE0028E7D0A06B016D8847002010BD95
:102E900000202021E08584F83E1020632046FFF7C3
:102EA000A7FF002010BD000070470000B0B582B041
:102EB000036804461868D9685A6900F02F05202D68
:102EC00001F0200505D125B1204602F0CFFA02B06D
:102ED000B0BD5FEA007C1EBF02F0010E01F49072EB
:102EE00012EB0E0248D1226B0840C1063BD5012AE5
:102EF00039D100200190186801905868019001981C
:102F00005869400640D4A08DE18DE28D002A1CBF97
:102F1000401A5FEA004101D102B0B0BD216851E81A
:102F2000031F226821F4907142E80313002BF5D1AE
:102F3000216851E8051F226821F0010142E80513CC
:102F4000002BF5D1202184F83E100021216300BF21
:102F5000216851E8031F226821F0100142E80313A1
:102F6000002BF5D152E0010656D44006D4D52046B8
:102F700002F070FA02B0B0BDC20718BF11F480723F
:102F80004FD1420753D459E0A06B016849688AB217
:102F9000002AC1D0A38D9A42BED2E185C069B0F5A6
:102FA000807F30D0206850E8030F216820F48070C3
:102FB00041E80302002AF5D1206850E8050F216896
:102FC00020F0010041E80502002AF5D1206850E810
:102FD000050F216820F0400041E80502002AF5D1E4
:102FE000202084F83E000020206300BF206850E8C5
:102FF000030F216820F0100041E80302002AF5D1F8
:10300000A06BFEF799FDA08DE18D401A81B220469C
:10301000FFF7EAFE02B0B0BD204602F013FB02B09B
:10302000B0BD226C42F001022264420706D5BEF117
:10303000000F03D0226C42F002022264820706D500
:10304000BEF1000F03D0226C42F004022264BCF1F6
:10305000000F06D55EEA050203D0226C42F008029A
:103060002264226C002A3FF457AF0840800602D544
:10307000204602F0FBF920684069216C00F0400016
:1030800001F00801401827D0204602F0BBF9206863
:10309000406940061BD500BF206850E8050F216835
:1030A00020F0400041E80502002AF5D1A06B70B184
:1030B00045F2DD31C0F600010165FEF77DFD002817
:1030C0003FF42AAFA06B016D884702B0B0BD204627
:1030D000FFF7EAFE02B0B0BD2046FFF7E5FE002094
:1030E000206402B0B0BD0000002804BF012070477A
:1030F00010B5044690F83D0028B9002084F83C0043
:10310000204600F021F8242084F83D002068C168A2
:1031100021F40051C160204602F00AFA20680169DA
:1031200021F490410161416921F02A014161C168A6
:1031300041F40051C16000202021206484F83D103A
:1031400084F83E1010BD000080B586B0006841F2E2
:103150000042C4F2010200219042CDE90411CDE900
:103160000211019130D041F20001C4F20101884204
:103170005BD1002043F630010090C4F202014A699D
:1031800042F010024A614A6902F010020092009A6D
:1031900000900A6842F001020A60096801F001012A
:1031A000009100994FF4C06101910221CDE9021014
:1031B00003200490072005900020C4F2020001A91A
:1031C000FEF720FD06B080BD43F630000091C4F24A
:1031D0000200426942F020024261426902F020028C
:1031E0000092009A0091026842F0040202600068B6
:1031F00000F0040000900098C02001900220CDE96A
:10320000020103200490082005900020C4F202006F
:1032100000F5006001A9FEF7F5FC4720052100221A
:10322000FEF77AFE4720FEF773FE06B080BD000071
:1032300010B590F83E30202B0BD100294FF001043F
:1032400018BF002A01D1204610BD90F83C30012B58
:1032500001D1022010BD0123002480F83C3004631A
:1032600002F0D4F9204610BD704700002DE9F0436C
:1032700081B0044690F83D0020280BD10E4600296D
:103280004FF0010055D01746002A52D094F83C0068
:10329000012803D1022001B0BDE8F083012084F8A9
:1032A0003C004FF0000921201D46C4F8409084F8EE
:1032B0003D00FEF781FDA784E784A1680746B1F5CC
:1032C000805F07D1206900281CBF30464E46B046BB
:1032D000064601E04FF0000884F83C9007E000BF8C
:1032E00016F8010B21684860E08C0138E084E08C1E
:1032F00080B1204680213A462B4602F0CDF980B9B4
:10330000002EEDD138F8020B21686FF35F20486082
:103310000026E9E7204640213A462B4602F0BCF958
:1033200018B1032001B0BDE8F083202084F83D00EF
:10333000002001B0BDE8F08370470000FEE7000008
:1033400010B540F20044C4F2020420464FF400419C
:103350000022FEF72BFD00F02DF920464FF400511E
:103360000022FEF723FD00F025F920464FF400412E
:103370000122FEF71BFD00F01DF920464FF400412D
:103380000022FEF713FD00F015F910BD10B540F254
:103390000044C4F2020420464FF400410022FEF72C
:1033A00005FD00F007F920464FF400510122FEF719
:1033B000FDFC00F0FFF820464FF400410122FEF72B
:1033C000F5FC00F0F7F820464FF400410022FEF72C
:1033D000EDFC00F0EFF810BD70B540F20044C4F20F
:1033E000020420464FF400510122FEF7DFFC0826BC
:1033F000002500BF20464FF400410022013EFEF7A9
:10340000D5FC00F0D7F820464FF400410122FEF72A
:10341000CDFC00F0CFF820464FF40051FEF7C0FC81
:10342000002818BF0120310640EA4505E2D12046B8
:103430004FF400410022FEF7B9FCE8B270BD000075
:1034400070B540F2004405460726C4F2020400BFEE
:1034500020464FF400410022FEF7A8FC00F0AAF835
:10346000E8B2C20920464FF40051FEF79FFC6D0000
:1034700000F0A0F820464FF400410122FEF796FC30
:1034800000F098F83006A6F10106E1D120464FF48D
:1034900000410022FEF78AFC70BD0000B0B540F28A
:1034A0000044C4F2020420464FF400510122FEF70A
:1034B0007DFC20464FF400410122FEF777FC00F02E
:1034C00079F820464FF40051FEF76AFC80B120469F
:1034D0004FF4005100220025FEF768FC00F06AF866
:1034E00020464FF40051FEF75BFC18B12846B0BDF2
:1034F0000020B0BD20464FF400510022FEF756FCDC
:1035000000F058F801252846B0BD000010B540F283
:103510000044C4F2020420464FF400410022FEF7AA
:1035200045FC00F047F820464FF400510022FEF71A
:103530003DFC00F03FF820464FF400410122FEF729
:1035400035FC00F037F820464FF400510122FEF719
:103550002DFC00F02FF810BDB0B540F20044C4F2CD
:10356000020420464FF400410022FEF71FFC00F049
:1035700021F820464FF400510122FEF717FC00F01D
:1035800019F820464FF400410122FEF70FFC00F02D
:1035900011F820464FF40051FEF702FCB0FA80F01B
:1035A000450920464FF400410022FEF7FFFB284664
:1035B000B0BD000081B00A200090009830B100BF7B
:1035C00000980138009000980028F9D101B07047A8
:1035D00080B540F2F510C2F20000007800287AD0E1
:1035E000FEF7ACF900F08AFA40F2F410C2F20000E3
:1035F0000178E9B940F2F011C2F2000191ED000A40
:103600009FED351AB4EE410AF1EE10FA10DA40F2ED
:103610007001C2F20001097801EE101AB8EE411AE9
:10362000B4EE410AF1EE10FA02DD0121017044E02E
:1036300040F2D840C2F20000B0F9003040F2DA4067
:1036400040F2DC4140F2E412C2F20000C2F200019A
:10365000C2F20002B0F90000B1F900E01278A2B3A2
:1036600040F2E51CC2F2000C9CF8001069BB03EBB1
:10367000E33181EAE33100EBE03383EAE03080B20A
:1036800010FA81F00EEBEE3181EAEE3110FA81F0A2
:10369000C2F10A014FF47A725143884215DD49F2B2
:1036A0004810C2F2000001780131CAB2032A017049
:1036B00038BF80BD01208CF8000005F095FB49F271
:1036C0004C11C2F20001086080BD49F24810C2F2FC
:1036D00000000021017080BD0000A04270B594B0D0
:1036E0000446642005F070FB002C00F0F38040F2EB
:1036F0008415C2F20005286840F26C66C2F200062A
:10370000346048B94FF2D842C0F6000208204FF4A6
:10371000007105F0E5FB286040F2AE25C2F200051D
:103720003068AC1C214640F2FD12FFF781FD306885
:10373000FFF760FB3068214640F2FD12FFF71EFBE9
:103740000020A5F8000264A0FCF7CCFF69A04FF4AC
:10375000FA7101F03BFB68A0FCF7C4FF6DA04FF4C9
:103760007A7101F033FB95F80002002800F0B28076
:1037700040F29B70C0F60100FCF7B4FF40F2CD6050
:10378000C0F601004FF4FA7101F020FB40F2267000
:10379000C0F60100FCF7A6FF60A04FF47A7101F0BB
:1037A00015FB61A0FCF79EFF63A04FF4FA7101F0D6
:1037B0000DFB65A0FCF796FF66A04FF4FA7101F0CF
:1037C00005FB67A0FCF78EFF6AA04FF4FA7101F0C9
:1037D000FDFA40F27D7105F20220C0F601010822D7
:1037E000FCF7B2FFF0B140F2A870C0F60100FCF7A0
:1037F00079FF012040F2B86140F27D7240F24F73D0
:103800006C4685F80102C0F60101C0F60102C0F65F
:1038100001032046FCF702FE204642F2107101F03F
:10382000D5FA02E0022085F8010295F8010202288B
:1038300050D340F26970C0F60100FCF753FF40F22C
:10384000F060C0F601004FF4FA7101F0BFFA40F2E7
:10385000B570C0F60100FCF745FF40F2FB60C0F612
:1038600001004FF4FA7101F0B1FA40F23A70C0F67B
:103870000100FCF737FF40F20A7140F25A726C46C1
:10388000C0F60101C0F60102204641F68523FCF78F
:10389000C5FD20464FF4FA6101F098FA40F28E70AF
:1038A000C0F60100FCF71EFF40F2D460C0F6010034
:1038B0004FF4FA7101F08AFA40F28570C0F6010007
:1038C000FCF710FF40F2E360C0F601004FF4FA711C
:1038D00001F07CFA14B070BDCDCBB3F64553503037
:1038E00031C4A3BFE9CDB8B4ABC4A3CABD2E2E2E3C
:1038F000000000002B2B2B00B2E2CAD445535030FD
:1039000031C4A3BFE9CAC7B7F1B4E6D4DA2E2E2E6C
:103910000000000041540D0A0000000041542B47F4
:103920004D520D0A00000000BFAAC6F441502B53AF
:103930005441C4A3CABD000041542B43574D4F44CA
:10394000453D330D0A000000B2E9D1AF535349445D
:103950000000000041542B43575341503F0D0A00D3
:10396000B2E9D1AFB5B1C7B0C1ACBDD3B5C4C8C859
:10397000B5E3000041542B43574A41503F0D0A0024
:1039800070B505F031FA40F25064C2F200042168CB
:1039900001F5FA71884209D340F25460C2F2000086
:1039A0000178C943017005F01FFA206040F25865A4
:1039B000C2F200052E6805F017FA66B3296801F512
:1039C000FA61884229D905F00FFA296841F2883254
:1039D0001144884228D905F007FA296801F5FA51FF
:1039E000884228D940F2F510C2F20000012101708E
:1039F00040F2D410C2F200000022027040F2546083
:103A0000C2F20000027040F6F530C2F200002A60F7
:103A10002260017070BD286070BD40F2D410C2F207
:103A200000000021017070BD40F2D410C2F200000D
:103A30000121017070BD40F2D410C2F200000221D9
:103A4000017070BD10B5A0F1040C4FF0000E00BF66
:103A50006FF00303604600BF50F8042FCC18043306
:103A60000C2B6260F8D10EF1010EBEF1040F0CF1C7
:103A7000100C01F1100108BF10BDE9E72DE9F0417C
:103A8000A1F1040CA2F1040E4FF0000800EB0811A4
:103A90000A1D01F1080401F10C050426774663466E
:103AA00091ED000A93ED011A93ED052A20EE010A2B
:103AB00092ED001A93ED093A21EE021A94ED002AD4
:103AC00093ED0D4A30EE010A22EE031A95ED002A1D
:103AD00030EE010A22EE041A30EE010A043387EDBB
:103AE000010A0437013EDBD108F10108B8F1040FE7
:103AF0000EF1100E08BFBDE8F081C7E7F0B581B048
:103B000005F072F940F2D811C2F200010A68904241
:103B1000C0F0F8803230086000F0F6F805F064F983
:103B200040F2606440F25C62C2F20004C2F2000241
:103B3000216812681144884240F2E48005F054F98B
:103B4000206040F26820C2F2000040F2A834B0F9D0
:103B5000002040F26010C0F60104C2F200002146CD
:103B6000FCF75CFC40F26A20C2F20000B0F90020D1
:103B700040F26A10C2F200002146FCF74FFC40F20E
:103B80006C20C2F20000B0F9002040F27410C2F2C2
:103B900000002146FCF742FC40F2D840C2F200008F
:103BA000B0F9002040F2AC10C2F200002146FCF750
:103BB00035FC40F2DA40C2F20000B0F9002040F2D9
:103BC000B610C2F200002146FCF728FC40F2DC40AF
:103BD000C2F20000B0F9002040F2C010C2F20000B2
:103BE0002146FCF71BFC40F29827C2F20007386818
:103BF0000BF0FCF940F2AB34024640F28810C0F6FC
:103C000001040B46C2F200002146FCF707FC40F21B
:103C10009C26C2F2000630680BF0E8F9024640F23A
:103C200092100B46C2F200002146FCF7F7FB40F26F
:103C3000A025C2F2000528680BF0D8F9024640F230
:103C40009C100B46C2F200002146FCF7E7FB40F255
:103C50007021C2F2000108684A2809DC431C3A6856
:103C60000B6048F69841C2F2000141F820200CE0B8
:103C700048F69844C2F20004211D20464FF4947285
:103C8000FCF73DFE3868C4F8280140F27421C2F206
:103C9000000108684A2809DC431C32680B6048F6BA
:103CA000C451C2F2000141F820200CE048F6C4548F
:103CB000C2F20004211D20464FF49472FCF71FFE4F
:103CC0003068C4F8280140F27C21C2F20001086883
:103CD0004A280ADC431C2A680B6049F21C01C2F224
:103CE000000141F8202001B0F0BD49F21C04C2F2ED
:103CF0000004211D20464FF49472FCF700FE286852
:103D0000C4F8280101B0F0BD2DE9F04381B02DEDDC
:103D10000A8B8CB00DF11E000DF11D0700900DF106
:103D2000260008A903AA0BAB019703F059F9BDF8C7
:103D30001E00C00540F1D1809DED030A9DED041ADF
:103D40009DED052A9DED063A9FED814AB8EEC00A29
:103D500040F2A808B8EEC11A40F6E43920EE040A91
:103D6000C2F2000821EE041AC2F20009B8EEC22A1B
:103D7000B8EEC33A88ED000A89ED001A22EE042A53
:103D800023EE043A31EE011A30EE000A21EE031A56
:103D900020EE020A40F6E83640F6EC3730EE410AF3
:103DA000C2F20006C2F2000710EE100A86ED002AE9
:103DB00087ED003A0BF01AF941EC100B09F090F97D
:103DC00051EC100B9FED600B54EC105B2A46234620
:103DD0000AF048FE0AF0F8FA40F29821C2F2000117
:103DE000086096ED009A98ED001A97ED000A99ED9B
:103DF00000BA39EE09AA31EE011A2AEE000A21EEC4
:103E00000B1A30EE010A10EE100A0BF0EFF8B8EEC4
:103E1000000A2BEE000A2BEE000A29EE0A1A30EEF9
:103E2000410AB7EE001A30EE010A41EC180B10EE11
:103E3000100A0BF0DBF841EC110BB0EE480AF0EE83
:103E4000680A09F069FC51EC100B2A4623460AF077
:103E500009FE0AF0B9FA40F29C21C2F200010860A2
:103E600099ED009A96ED00AA98ED00BA97ED00CA78
:103E700029EE0A0A2BEE0C1A30EE010A30EE000A87
:103E800010EE100A0BF0B2F82BEE0B0A29EE091A0D
:103E900031EE000A2AEE0A1A30EE410A2CEE0C1A14
:103EA00030EE410A41EC180B10EE100A0BF09EF8B0
:103EB00041EC110BB0EE480AF0EE680A09F02CFC58
:103EC00051EC100B2A4623460AF0CCFD0AF07CFA8E
:103ED00040F2A021C2F200010860BDF81E0010F0FF
:103EE000700F14D0BDF8261040F2D842C2F2000282
:103EF0001180BDF8281040F2DA42C2F200021180AF
:103F0000BDF82A1040F2DC42C2F200021180000724
:103F100014D5BDF8200040F26821C2F200010880EB
:103F2000BDF8220040F26A21C2F200010880BDF80B
:103F3000240040F26C21C2F2000108800CB0BDECFC
:103F40000A8B01B0BDE8F0836666666666A64C40E3
:103F50000000803010B504F019F900281CBF0020C3
:103F600010BD43A0FCF7BEFB782004F09DFE10B10D
:103F7000002448A077E040F29050C0F60100FCF722
:103F8000B1FB782004F028F810B100244BA06AE0BF
:103F900040F26D50C0F60100FCF7A4FB322004F0A3
:103FA0003DFE28B140F2AF500024C0F601005AE0B7
:103FB00040F2E140C0F60100FCF794FB03F002F888
:103FC00028B140F2D0500024C0F601004BE040F28E
:103FD0008E40C0F60100FCF785FB03F0B3FF03F051
:103FE000C5F928B140F28B600024C0F601003AE028
:103FF00040F24950C0F60100FCF774FB40F2731028
:1040000002F0B8FE28B140F209600024C0F60100B9
:1040100029E040F2BE40C0F60100FCF763FB32200D
:1040200003F00CF928B140F235600024C0F601001D
:1040300019E040F20550C0F60100FCF753FB05F013
:10404000B1FD012004F0F8FC0146B0FA80F044090B
:1040500040F2606040F22752C0F60100C0F6010253
:10406000002908BF1046FCF73DFB204610BD00BFED
:104070006D707520696E697469616C697A617469C3
:104080006F6E20636F6D706C6574652E2E2E2E2EF4
:104090002E0000006D70755F7365745F73656E73DD
:1040A0006F7220636F6D65206163726F737320653B
:1040B00072726F72202E2E2E2E2E2E006D70755F56
:1040C000636F6E6669677572655F6669666F2063A8
:1040D0006F6D65206163726F7373206572726F72AA
:1040E000202E2E2E2E2E2E0080B544F611704FF26B
:1040F0003852C0F60000C0F60002002104F088FF2C
:1041000040F2DC11C2F20001086044F6BD604FF2DB
:104110001452C0F60000C0F60002002104F078FF3F
:1041200040F2D011C2F20001086044F649704FF22B
:104130005C52C0F60000C0F60002002104F068FFE7
:1041400040F2F811C2F20001086044F699604FF2A3
:10415000F042C0F60000C0F60002002104F058FF53
:1041600040F2A811C2F20001086044F689604FF2E3
:10417000B442C0F60000C0F60002002104F048FF7F
:1041800040F28011C2F20001086080BD2DE9F04FBD
:1041900087B0002743F630000697CDE90477CDE9D4
:1041A00002770197C4F20200016841F2000441F075
:1041B000100101600168C4F2020401F010010191D4
:1041C000019901970168A4F5006941F0800101603F
:1041D0000168002201F080010191019901970168B5
:1041E0004FF4716B41F001010160016801F00101C0
:1041F000019101990197016841F004010160016892
:1042000001F00401019101990197016841F0020157
:10421000016000684FF4716100F0020001900198A4
:104220004846FDF7C3FD20464FF4FE4101224FF002
:10423000010AFDF7BBFD204648F201010022FDF70F
:10424000B5FDA4F5406630464AF2C0410022FDF7B4
:10425000ADFDA4F5805840464FF419410022FDF70A
:10426000A5FD1E2002A902AD81E881042046294651
:10427000FDF7C8FC6020CDE902070220049020462B
:104280002946FDF7BFFC48462946CDE902BACDE9EB
:104290000477FDF7B7FC4FF60170CDE9020A20461E
:1042A0002946CDE90477FDF7ADFC4FF49860CDE9E0
:1042B000020A30462946CDE90477FDF7A3FC4FF406
:1042C000204002901120CDE903073046294605978A
:1042D000FDF798FC4FF41940CDE9020A4046294603
:1042E000CDE90477FDF78EFC07B0BDE8F08F000044
:1042F00080B540F2E04043F20001C2F20000C4F297
:1043000001014FF48272002380E80E0000F11401D5
:104310004FF4007C4FF0100E81E808500A21C0E9EC
:104320000333C0E90833C0E90A31FEF7DDF800289D
:1043300018BFFDF7CFFB80BD10B58EB040F23850EE
:104340000021C2F2000040F2004240F2E7340D9139
:10435000CDE90B11CDE90911CDE90711CDE9051121
:10436000CDE90311CDE90111C4F200025323C0E9E4
:10437000021401618021C0E900238161FEF7A8F9E0
:10438000002818BFFDF7A6FB4FF480500A9040F2BA
:104390003850C2F200000AA9FEF738FA002818BF08
:1043A000FDF798FB40F23850C2F20000FEF7D2FB56
:1043B000002818BFFDF78EFB40F238500024C2F2EF
:1043C000000008A9CDE90844FEF726F9002818BF27
:1043D000FDF780FB6020CDE9010440F23850C2F2C5
:1043E000000001A9002203940594FEF767FB002852
:1043F00018BFFDF76FFB40F23850C2F20000FEF725
:104400002DFB0EB010BD000080B540F2C85041F247
:104410000001C2F20000C4F2010100234FF00C0CB5
:104420004FF4E13280E80E00C0E90333C0E905C370
:10443000C361FEF759FE002818BFFDF74BFB80BD96
:1044400080B540F20C6041F20041C2F20000C4F2BB
:10445000010100234FF00C0C4FF4E13280E80E0014
:10446000C0E90333C0E905C3C361FEF73DFE002880
:1044700018BFFDF72FFB80BDFEE70000FEE7000040
:1044800000F0070080F00703042B28BF04234FF03F
:10449000FF3C03380CFA03F338BF002099438140F6
:1044A0000CFA00F022EA00000843704792ED000A7F
:1044B00092ED011A92ED022A9FED1A3AB8EEC00A67
:1044C000B8EEC11A80EE030A81EE031AB8EEC22AD2
:1044D00082EE032A401A92ED043A04EE100AB8EE76
:1044E000C44A92ED055A33EE043A34EE455A82ED51
:1044F000034A82ED043A82ED054A20EE040A21EED9
:10450000031A30EE010A22EE051A30EE010A01EE1E
:10451000101AB8EEC11A30EE010ABDEEC00A10EE54
:10452000100A704700007A440000000000000000FC
:10453000EFF30980BFF36F8F154B1A681EF0100F51
:1045400008BF20ED108A20E9F04F10602DE9090026
:104550004FF0500080F31188BFF34F8FBFF36F8F80
:1045600007F09CFA4FF0000080F31188BDE80900C5
:1045700019680868B0E8F04F1EF0100F08BFB0ECE3
:10458000108A80F30988BFF36F8F704700BF00BFA8
:104590006C0700209FED152AB5EE401A20EE020AA6
:1045A00031EE023A9FED124AF1EE10FA08BFB0EE7A
:1045B000443A80EE030A20EE821A81EE031A02EEDC
:1045C000101AB8EEC22A30EE020ABDEEC00A10EE92
:1045D000101A00EE102AB8EEC00A31EE000ABDEE45
:1045E000C00A10EE102AC0E9001270470000004413
:1045F00000400044F0B581B000287CD0054600881A
:10460000002878D0AC1C3DA02146FBF7FBFE3EA164
:104610002046FCF787F840F2AE26A042C2F2000620
:1046200024BF012086F8000296F80002002862D01C
:1046300036A120460422FCF7D2F848B996F80102C8
:10464000012805D1022086F8010232A0FCF74AF8C1
:1046500034A120460E22FCF7C2F828B9012086F8C2
:10466000010234A0FCF73EF836A120460D22FCF7EB
:10467000B6F896F80172002808BF022F24D035A1A1
:1046800020461122FCF7ABF8022F08BF00281BD0F0
:1046900035A120460722FCF7A2F8E8B134A1204654
:1046A0000722FCF79CF830BB0A3528462221FCF78C
:1046B0002FF8A8421FD9001BA0F1080206F2022021
:1046C0002946FCF79FF916E0032086F801022AA08C
:1046D000FCF708F801B0F0BD0A3528462221FCF7A6
:1046E00017F8A84207D9001BA0F1080206F216200D
:1046F0002946FCF787F901B0F0BD00BF45535030A3
:10470000312072783A2573004F4B00000D0A4F4B51
:1047100000000000455350303120636F6E6E3A3216
:10472000000000005749464920434F4E4E45435430
:1047300045440000455350303120636F6E6E3A316E
:1047400000000000434F4E4E4543540D0A0D0A4FE2
:104750004B000000414C524541445920434F4E4EBE
:1047600045435445440000002B43575341503A0001
:104770002B43574A41503A00455350303120636F24
:104780006E6E3A33000000002DE9F04F81B02DED40
:10479000068BAAB00DF16808054640460E46B0EEFD
:1047A000418AB0EE609AB0EE40AA05F091FA404618
:1047B0006FF003016FF003026FF0030300F0DCFD04
:1047C000B1EE000A4046F0EE400AB0EE401A00F0AA
:1047D00057FA4046B0EE4A0AF0EE490AB0EE481ADF
:1047E00000F0AAF84046002100220023002400F037
:1047F000C3FD4FF25440C0F6000008380FFA85FAA6
:1048000036B20DF120090AAF00F1080191EC030A5C
:1048100000F10C05404607F08FF9484651463246F4
:10482000FFF7B8FEDDE9081207EBC40047F83410C3
:1048300001F07F01426047F8341002F03F0101347B
:104840004160082C2846DFD1BDF92840BDF92C5025
:10485000BDF93080BDF934902046294642464B468A
:1048600005940495CDF80C80CDF80890FDF750F92B
:10487000BDF93860BDF93C702046294632463B46BA
:1048800001960097FDF744F9BDF94040BDF9445049
:104890002046294642464B4607940695FDF738F9CF
:1048A0002046294632463B46FDF732F9BDF94860BD
:1048B000BDF94C70BDF95080BDF954903046394671
:1048C00042464B46FDF724F9BDF958A0BDF95CB04E
:1048D0003046394652465B46FDF71AF9BDF960404D
:1048E000BDF964502046294642464B46FDF710F973
:1048F0002046294652465B46FDF70AF9DDE90410D9
:1049000032463B46FDF704F9DDE9021042464B46CC
:10491000FDF7FEF8DDE9001052465B46FDF7F8F8BA
:10492000DDE9061022462B46FDF7F2F82AB0BDEC71
:10493000068B01B0BDE8F08F2DE9F0472DED048B1B
:10494000D0B0804610EE100AB0EE418AB0EE609A08
:104950000AF04CFB9FED840B55EC107B3A462B463E
:104960000AF080F89FED820B54EC106B3246234620
:1049700009F010FE09F028FD824619EE100A0AF02F
:1049800035FB3A462B460AF06DF83246234609F0CD
:1049900001FE09F019FD814618EE100A0AF026FB07
:1049A0003A462B460AF05EF83246234609F0F2FDFD
:1049B00009F00AFD05464FF07E54504620940AF057
:1049C00015FB41EC180B0026B0EE480AF0EE680A21
:1049D000CDE92166CDE9236608F09EFF51EC100B6E
:1049E00009F0F2FCB0EE480AF0EE680A259008F0F3
:1049F000F7FF51EC100B09F0E7FCB0EE480A80F02D
:104A00000040F0EE680ACDE92606289608F0E8FF97
:104A100051EC100B09F0D8FCB0EE480AF0EE680A31
:104A2000299008F079FF51EC100B09F0CDFCCDE98D
:104A30002A064846CDE92C66CDE92E640AF0D6FA5E
:104A400041EC180BB0EE480AF0EE680A08F064FF7B
:104A500051EC100B09F0B8FCB0EE480AF0EE680A11
:104A6000CDE9100608F0BCFF51EC100B09F0ACFCCE
:104A7000B0EE480AF0EE680ACDE91206CDE91464FA
:104A8000CDE9166608F0ACFF51EC100B09F09CFC68
:104A9000B0EE480A80F00040F0EE680ACDE9180652
:104AA00008F03AFF51EC100B09F08EFCCDE91A0624
:104AB0002846CDE91C66CDE91E640AF097FA41EC60
:104AC000180BB0EE480AF0EE680A08F025FF51EC2A
:104AD000100B09F079FCB0EE480AF0EE680A00907D
:104AE00008F07EFF51EC100B09F06EFCB0EE480AA6
:104AF00080F00040F0EE680ACDE90106039608F068
:104B00006FFF51EC100B09F05FFCB0EE480AF0EEBD
:104B1000680A049008F000FF51EC100B09F054FCF7
:104B2000CDE909640F9440ACCDE9050620A94046C3
:104B30002246CDE90766CDE90B66CDE90D66FEF7A5
:104B40009DFF30AD10A920462A46FEF797FF694623
:104B500028464246FEF792FF50B0BDEC048BBDE8FC
:104B6000F08700BF00BF00BF4AD8124DFB210940AB
:104B7000000000000080664070B540F26C66C2F232
:104B800000063268824218BF70BD40F2AE2504466E
:104B9000C2F2000569B168180022827040F28410E8
:104BA000C2F200000068298029460022002304F098
:104BB000E7F9002084F83C003068A91C40F2FD129F
:104BC000FEF7DCF870BD00000000000000000000EF
:104BD000074B19680868B0E8F04F80F30988BFF305
:104BE0006F8F4FF0000080F31188704700BF00BF47
:104BF0006C07002080B501F0F7FF80BDB0B54FF421
:104C00007A7004F0E1F802F07FFDFFF7A3F940F2BB
:104C10006464C2F20004010620700ED1002500BFBA
:104C2000FA2004F0D1F8FFF795F9012D207088BF24
:104C3000B0BD000605F10105F2D0B0BD10B540F2DF
:104C4000F510C2F200000078002808BFFEF798FEB9
:104C500040F6F534C2F20004207828B1FA2005218C
:104C6000FCF738FD0020207001F094FEFCF764FD95
:104C700040F25460C2F20000007800F0C3F810BDAA
:104C8000B0B5A0B004460020CDE90100CDE9030095
:104C9000CDE90600CDE90800CDE90B00CDE90D0016
:104CA0004FF07E5010AD0F90694620462A468DED9C
:104CB000000ACDED050A8DED0A1AFEF7DFFE284643
:104CC0002146FEF7BFFE20B0B0BD0000B0B541F2F6
:104CD0000004C4F2020420460221FDF761F8B0FA94
:104CE00080F0450920460421FDF75AF800282046A7
:104CF0004FF0080108BF0235FDF752F800282046A2
:104D00004FF0100108BF0435FDF74AF8002820468F
:104D10004FF0200108BF0835FDF742F80128204672
:104D20004FF0400108BF45F01005FDF739F80128A4
:104D300040F2E310C2F2000008BF45F02005017800
:104D40002A0627D0EAB28A4224D140F2E212C2F205
:104D5000000213780133DCB2022C137020D14FF023
:104D6000FF3252FA85F21F2A1AD8DFE802F021102A
:104D7000192319191926191919191919192919197C
:104D8000191919191919191919191919192C03258A
:104D9000E8B2B0BD40F2E212C2F20002002313708A
:104DA000EAB28A4202D10025E8B2B0BD0570002502
:104DB000E8B2B0BD0425E8B2B0BD0225E8B2B0BD8E
:104DC0000525E8B2B0BD0625E8B2B0BD002808BF91
:104DD000704770B5054640F26C60C2F2000006688C
:104DE00028460C46FBF7DCFC82B2304629464FF6DB
:104DF000FF73FEF73BFA204603F0E6FFBDE8704084
:104E00007047000070B541F200040126C4F20204AC
:104E1000054626EA000220464FF48071FCF7C6FFE3
:104E200026EA550220464FF40071FCF7BFFF26EA40
:104E3000950220464FF48061FCF7B8FF26EAD502C0
:104E400020464FF40061FCF7B1FF26EA1512204618
:104E50004FF48051FCF7AAFF26EA551220464FF482
:104E60000051FCF7A3FF26EA951220464FF480413B
:104E7000FCF79CFFE843C0B2C20920464FF4004152
:104E8000FCF794FF70BD0000FFF7B8FEFEF7A0FB33
:104E9000052003F099FFF9E700F0BEFE40F26464DC
:104EA000C2F20004207818B9012003F08DFFF9E761
:104EB00001F0C2F9012003F087FFF9E711A0FBF729
:104EC000A1FA40F26464C2F2000400BF207818B96D
:104ED000012003F079FFF9E740F2F41440F2E51500
:104EE000C2F20004C2F2000505E000BF01F0B4F90F
:104EF000012003F069FF207829780843F6D001F0FB
:104F0000B5FCF5E7696E206B65795461736B000041
:104F100009A0FBF777FA40F26464C2F2000400BF14
:104F2000207818B9012003F04FFFF9E7FFF786FE5C
:104F3000012003F049FFF9E7696E206D61696E5445
:104F400061736B2100000000FCF7CAFD012003F033
:104F50003BFFF9E780B54EF21000CEF2000000688A
:104F600007F084FA012818BF06F0B2FE80BD0000E9
:104F700070B592B006AC20463021FBF71CFD002531
:104F800043F640000595CDE90355CDE9015500955F
:104F9000C4F202000168022641F0805101600068FD
:104FA00000F080500090009847F200000095C4F295
:104FB0000000016841F4804101600068A82100F40C
:104FC000804000900098012006904FF480300790B8
:104FD0004FF480000D9004200E90119020460C9606
:104FE000CDE90F16FDF7DCF888B90F20CDE90106F1
:104FF0004FF4A05004904FF48050059001A8052173
:105000000395FCF79DFF002804BF12B070BDFCF7AC
:1050100061FD00004EF68850CEF20000016841F4B8
:10502000700101607047000080B540F28050C2F20C
:105030000000FDF75DFC80BD10B540F6FF3E036843
:10504000C4F2000E40F2004C7045C4F2010C0FDCBB
:10505000B0F1804F19D040F20042C4F200029042F9
:1050600013D040F60002C4F2000290420DD010E0CE
:1050700040F60042C4F20002904206D0604504D0DF
:105080000022C4F20102904203D14A6823F0700367
:10509000134341F6FF72C4F2000290420DDC7045EA
:1050A0001FDCB0F1804F41D040F20042C4F2000258
:1050B00090423BD040F6000221E043F6FF72C4F27A
:1050C0000102904220DC42F20002C4F2000290424F
:1050D0002CD00022C4F20102904227D0604525D096
:1050E00028E040F60042C4F2000290421ED041F691
:1050F0000002C4F20002904218D041F60042C4F20D
:105100000002904212D015E044F20002C4F2010203
:1051100090420BD044F60002C4F20102904205D046
:1051200044F20042C4F20102904203D1CA6823F45F
:105130004073134323F080024B69D1F800E08C6880
:105140001A430260C46240F48062C0F828E06245FD
:1051500004BF096901630121416110BD80B501F0FF
:105160001F014FF0010CD0F820E00CFA01F32EEAF9
:1051700003030362036A02FA01F11943016280BD6D
:10518000D0F808C011432CF47F4C41EA032141EAD6
:105190000C01816070470000826822F070021143A8
:1051A00041F0070181607047B0B5026A40F20045E6
:1051B00022F001020262026AD0F804E0D0F818C0BE
:1051C0008C6822F0020240F48063C4F20105AB4215
:1051D00042EA040205D1CC6822F00C0224F0040457
:1051E00022430C68AB4207D1D1E905532EF4407E2F
:1051F00045EA0E0545EA030E2CF073032343C0F87D
:1052000004E08361496841630262B0BD70B5026A1F
:1052100040F2004422F010020262026AD0F804E078
:10522000D0F818C08D6822F0200240F48063C4F2E8
:105230000104A34242EA051207D1CD686FF040068F
:1052400022F0C00206EA05152A430D68A34207D1E1
:10525000D1E905642EF4406343EA860343EA840EF1
:105260002CF4E64343EA0523C0F804E0836149686F
:105270008163026270BD000070B5026A40F20044B2
:1052800022F480720262026AD0F804E0D0F81CC0F6
:105290008D6822F4007240F48063C4F20104A342DA
:1052A00042EA052207D1CD6840F2FF462D0222F4E2
:1052B0004062B5432A430D68A34207D1D1E9056492
:1052C0002EF4405343EA061343EA041E2CF0730302
:1052D0002B43C0F804E0C3614968C163026270BD3A
:1052E00070B5026A40F2004622F480520262026AFD
:1052F0004368D0F81CE00C68D1F808C040F4806521
:10530000C4F20106B54204D14D6923F4804343EA57
:1053100085132EF4E64646EA04264360C66122F46D
:105320000052496842EA0C320164026270BD00001A
:10533000D0F820C0036A23F001030362836923F0DD
:10534000F00343EA02122CF00A031943826101625E
:1053500070470000036A23F0100303628369D0F8EA
:1053600020C023F4704343EA02322CF0A00343EA46
:105370000111826101627047B0B5A0B000EE101A51
:10538000B8EEC00A8DED0C0A00EE102A04464FF06C
:105390007E500025B8EEC00ACDE90155CDE9035590
:1053A000CDE90505CDE90755CDE909500B958DED02
:1053B0000D0A00EE103A10AD0090B8EEC00A0F9042
:1053C000694620462A468DED0E0AFEF757FB284611
:1053D0002146FEF737FB20B0B0BD000080B5806BE2
:1053E0000021C185C184FDF75FFD80BD80B5806B64
:1053F00000212022C18580F83E200163FDF7F8FCE2
:1054000080BD0000016851E8031F026821F490711B
:1054100042E80313002BF5D1016851E8051F02682B
:1054200021F0010142E80513002BF5D1016B0129A0
:105430000AD100BF016851E8031F026821F0100182
:1054400042E80313002BF5D1202180F83E10002103
:105450000163704780B50168CA6822F04002CA60E3
:10546000202180F83D10FDF767FF80BD80B582B038
:1054700090F83E1022291ED18268B2F5805F02D1D9
:105480000169002948D0816AB2F5805F07D00AB966
:10549000026922B10268526802F07F0201E00268EC
:1054A00052680A700121826A11448162C18D0139FA
:1054B0000A04C18501D002B080BD0168CA6822F02B
:1054C0002002CA60CA6822F48072CA604A6922F067
:1054D00001024A61202180F83E10016B012923D18D
:1054E00000210163016851E8031F026821F01001E7
:1054F00042E80313002BF5D101680A68D20606D5ED
:10550000002201920A680192496801910199818DF6
:10551000FDF76AFC02B080BD0168826A49686FF3DA
:105520005F2111800221BEE7FDF79EFE02B080BD23
:1055300010B504460068D4E902C22369016921F468
:10554000405111430161626943EA0C01E36911436F
:10555000C268194349F20C639A431143C16041691F
:10556000A26921F4407141F20043114340F480628A
:10557000C4F201039A42416102D1FCF7C9FD01E086
:10558000FCF7B4FDE16963681922B1F5004FA0FB97
:1055900002011CD15A00DB0FFAF782FE48F21F51BC
:1055A000C5F2EB11A0FB01235A096FF0630302FB64
:1055B0000300322303EBC000A0FB01014FF4F8709D
:1055C00000EA111000EB0210C1F342111AE09A0038
:1055D0009B0FFAF765FE48F21F51C5F2EB11A0FBD5
:1055E00001235A096FF0630302FB0300322303EB2C
:1055F0000010A0FB0101F02000EA511000EB0210A6
:10560000C1F3431122680843906010BD8162828516
:10561000C28500212222016480F83E20026980F8C0
:105620003C1022B10168CA6842F48072CA60016805
:10563000486940F001004861C86840F0200200203D
:10564000CA60704790F83D10212923D18168B1F5D7
:10565000805F01D1016931B1016A02684B1C0362AC
:105660000978516007E0016A036831F8022B6FF393
:105670005F225A600162C18C01390A04C18418BFDB
:1056800070470068C16821F08001C160C16841F0C5
:105690004001C160704700002DE9F04104460068F8
:1056A00000680840884202D10020BDE8F0811D4614
:1056B0000E4690465F1C04E0206800683040B0420F
:1056C000F2D0002FF8D02DB1FCF776FBA0EB08004C
:1056D000A842F1D9206850E8030F216820F4D07067
:1056E00041E80302002AF5D1206850E8050F21683F
:1056F00020F0010041E80502002AF5D1202084F8BD
:105700003D0084F83E00002084F83C000320BDE802
:10571000F0810000B0B584B040F2E010C2F20000A9
:10572000007801286DD0002840F0968040F6FC34C7
:10573000C2F2000440F60401C0F60101204604F064
:105740006FFE4CA3204634210A2204F001FE40F2F1
:10575000AE25C2F2000505F216232046342112229E
:1057600004F0F6FD45A3204634211A2204F0F0FD92
:1057700048A320463421222204F0EAFD40F6B62157
:10578000C0F60101204604F04BFE45A3204634211B
:105790002C2204F0DDFD43A3204646212C2204F0F8
:1057A000D7FD41F20D31C0F60101204604F038FE6C
:1057B00095F8010240F2ED3140F2F033C0F60101FC
:1057C000C0F60103032808BF0B46204634213822C7
:1057D00004F0BEFD40F2AC20C2F20000007840F2BE
:1057E000074140F21E43C0F60101C0F60103002844
:1057F00008BF0B4620465221382204F0A9FD04B010
:10580000B0BD40F6FC34C2F2000440F67F61C0F641
:105810000101204604F004FE10A3204634210A2290
:1058200004F096FD40F29420C2F20000026840F2BB
:10583000A8310DF10105C0F601012846FAF7EEFD89
:105840002046342117222B4604F082FD06A3204671
:105850003421232204F07CFD04B0B0BD53454E44F6
:105860005F425954453A0000524543455F425954FE
:10587000453A0000535349443A00000049503A2049
:105880002020203139322E3136382E34332E333326
:1058900000000000504F52543A202038363836006D
:1058A00041503A006D617274696E7800F0B581B054
:1058B0002DED068B40F2E010C2F2000000780428C3
:1058C00000F27E81DFE810F005007400C2000F01D5
:1058D0005B0140F6FC34C2F20004CCA32046342124
:1058E0000C2204F035FD40F6F033C2F200032046EE
:1058F00055210C2204F022FD40F2F633C0F60103DC
:1059000020466E210C2204F023FD40F270069FED2C
:10591000C18A9FEDB59A0025C2F20006B3EE09AA2E
:10592000307805F1350100EE100AB8EE400A3AEE83
:10593000400A20EE080A30EE090ABDEEC00A10EE59
:10594000102A89B22046032304F0DCFAA81DC5B250
:105950004B2DE5D340F27825C2F2000528680128D6
:10596000C0F22E8148F6F060C2F2000040F6FC342E
:10597000061F0027C2F2000496ED010A07F1350068
:105980003AEE400A20EE080A30EE090ABDEEC00ADF
:1059900010EE102A81B2204604F0B2FB492F00F22B
:1059A0000F8128680137B84206F10406E4DC07E1FC
:1059B00040F6FC34C2F2000491A3204634210C22AC
:1059C00004F0C6FC40F28813C2F2000320465D21B9
:1059D0000C2204F0B3FC204635211E224B2304F098
:1059E00091FA40F27025C2F2000528680128C0F241
:1059F000E78048F69840C2F200009FED7F8A9FED55
:105A00007F9A9FED79AA40F6FC34061F0027C2F268
:105A1000000400BF96ED010A07F1350038EE400A98
:105A200020EE090A30EE0A0ABDEEC00A10EE102A76
:105A300081B2204604F064FB492F00F2C18028683F
:105A40000137B84206F10406E4DCB9E040F6FC3464
:105A5000C2F2000465A3204634210C2204F078FC35
:105A600040F29213C2F2000320465D210C2204F0A2
:105A700065FC204635211E224B2304F043FA40F2F8
:105A80007425C2F2000528680128C0F2998048F602
:105A9000C450C2F200009FED588A9FED589A9FEDC6
:105AA00052AA40F6FC34061F0027C2F2000400BFD1
:105AB00096ED010A07F1350038EE400A20EE090A9A
:105AC00030EE0A0ABDEEC00A10EE102A81B220465E
:105AD00004F016FB492F73D828680137B84206F145
