:020000040800F2
:100000007890002059020008313E0008F5300008C1
:100010002D3E000871150008D152000800000000B4
:10002000000000000000000000000000B13E0008D9
:10003000651A000800000000413E00087D410008EC
:1000400073020008730200087302000873020008BC
:1000500073020008730200087302000873020008AC
:10006000730200087302000873020008730200089C
:10007000730200087302000873020008730200088C
:10008000730200087302000873020008730200087C
:10009000730200087302000873020008730200086C
:1000A000730200087302000873020008730200085C
:1000B000730200087302000873020008730200084C
:1000C000730200087302000873020008730200083C
:1000D000730200087302000873020008730200082C
:1000E000730200087302000873020008730200081C
:1000F000730200087302000873020008730200080C
:1001000073020008730200087302000873020008FB
:1001100073020008730200087302000861420008BD
:1001200073020008730200087302000873020008DB
:1001300073020008730200087302000873020008CB
:1001400073020008730200087302000873020008BB
:1001500073020008730200087302000873020008AB
:10016000730200087302000873020008730200089B
:100170007302000873020008730200080000000008
:10018000730200087302000800F002F800F055F84E
:100190000AA090E8000C82448344AAF10107DA45E2
:1001A00001D100F04AF8AFF2090EBAE80F0013F0DF
:1001B000010F18BFFB1A43F0010318475C730500D9
:1001C0007C730500103A24BF78C878C1FAD852076A
:1001D00024BF30C830C144BF04680C6070470000C1
:1001E0000023002400250026103A28BF78C1FBD840
:1001F000520728BF30C148BF0B60704766290DF019
:100200007C8665290DF0798667290DF0768661294F
:100210000DF07586642900F03981002070471FB504
:100220000DF059FE00F060FF0400002000210CF0EA
:10023000C5FFE0601FBD10B510BD01F05DF81146AF
:10024000FFF7EDFF06F026FB01F07BF803B4FFF7A4
:10025000F2FF03BC01F0BEF8094880470948004797
:10026000FEE7FEE7FEE7FEE7FEE7FEE7FEE7FEE766
:10027000FEE7FEE704480549054A064B70470000C3
:100280004D42000889010008788A002078900020FB
:10029000788C0020788C002053EA020C00F06980F2
:1002A0002DE9F04B4FF00006002B1FBFB3FA83F58A
:1002B00003FA05F424FA05F65E4012BF1643B2FABB
:1002C00082F502FA05F4C5F120051EBF22FA05FCED
:1002D00044EA0C04203556EA044C4FEA144418BF93
:1002E000641C4FF000084FF00009904271EB030CC2
:1002F00039D3002919BFB1FA81F701FA07F6B0FA2C
:1003000080F700FA07F6C7F120071EBF20FA07FCA6
:1003100046EA0C062037B6FBF4FCA7EB0507103FB6
:1003200007F01F0BCBF120062CFA06F60CFA0BFB9C
:1003300044BFB3460026202FA4BF5E464FF0000BFB
:100340005BEA060C08BF4FF0010B19EB0B0948EBF9
:100350000608ABFB027C06FB02CC0BFB03CCC01BEC
:1003600071EB0C01C1E70B46024641464846BDE829
:10037000F08B13B5084318BF4FF0FF300146AFF3C1
:100380000080BDE81C40704753EA020C23D010B532
:100390004C1084EA530404D54042C1F1000138BF37
:1003A000491E1B4204D55242C3F1000338BF5B1EF5
:1003B000FFF772FF14F0804F04D04042C1F10001FA
:1003C00038BF491E14F0004F04D05242C3F100035D
:1003D00038BF5B1E10BD13B540424FF0000070EBFC
:1003E0000104B8BF012001F0004100281CBF6FF0DC
:1003F00000414FF0FF30AFF300801CBD0FB4044943
:1004000010B503AA029800F02BFE10BC5DF814FB97
:100410002C0300200FB41CB5074B06AA7B44694689
:100420000090059800F003FE0020694600F012FEDF
:100430001CBC5DF814FB0000350C000070B50446D0
:1004400085690068C10601D5302600E02026C00776
:1004500007D070BDD4E9012130469047206A401C86
:1004600020626D1EF6D570BD70B5044685690078B2
:10047000C00707D170BDD4E9012120209047206A30
:10048000401C20626D1EF6D570BD00002DE9F041C4
:100490000646002410687529314616A510D0AFF322
:1004A0000080002802DA404213A507E031688A077D
:1004B00001D512A502E0490704D511A5012401E0E8
:1004C000AFF3008000210A2206F1240709E0B0FB07
:1004D000F2FCB0FBF2F302FB1C00303078541846FB
:1004E000491C0028F3D123462A463046BDE8F04196
:1004F00000F0B2B9000000002D0000002B00000049
:10050000200000002DE9F05F894604464FF0000A04
:10051000DFF874B1FB44C0F820A02046E1688847AA
:10052000002874D0252806D0D4E901219047206AFC
:10053000401C2062F1E700265F462046E1688847BC
:100540002028054607DB312D05D2781910F8200C3C
:1005500008B10643F1E7B00701D526F00406C4F858
:100560001CA00027C4F818A02A2D09D028460CF09A
:10057000D3FD38B304EB8708303DC8F8185019E0B4
:1005800059F8041B204604EB87029161E168884713
:10059000012F054618D1E069002820DA26F0200650
:1005A0001DE0D8F8180000EB800005EB4000303863
:1005B000C8F818002046E168884705460CF0ACFDF5
:1005C0000028EED1012F0AD02E2D08D12046E16857
:1005D00088477F1C0546022F46F02006C4DBA06931
:1005E000002803DA404246F00106A061F00701D07E
:1005F00026F010066C2D0BD0682D09D04C2D39D06B
:100600006A2D35D0742D35D07A2D33D016E038E0F0
:10061000E1682F4620468847B842054609D16C2F2D
:1006200026D04FF48060E16806432046884705469F
:1006300004E06C2F1AD04FF4807006430DB3A5F17F
:100640004100192802D8203546F400664A4629465A
:10065000204626604E46FFF7D1FD80B101280BD021
:10066000F61D26F0070000F1080956E74020E4E7F0
:100670008020D8E70020D6E706F104094DE7284698
:1006800052E7206ABDE8F09FEAD9000010B50446A1
:1006900003E005F08DFC401C09D014F8010B05495E
:1006A0000028F6D1BDE810400A2005F081BC4FF0CB
:1006B000FF3010BD2C03002040EA010310B59B075A
:1006C0000FD1042A0DD310C808C9121F9C42F8D0BC
:1006D00020BA19BA884201D9012010BD4FF0FF306D
:1006E00010BD1AB1D30703D0521C07E0002010BD83
:1006F00010F8013B11F8014B1B1B07D110F8013B0F
:1007000011F8014B1B1B01D1921EF1D1184610BDEF
:10071000032A40F2308010F0030C00F0158011F82D
:10072000013BBCF1020F624498BF11F801CB00F805
:10073000013B38BF11F8013BA2F1040298BF00F859
:1007400001CB38BF00F8013B11F0030300F09A849D
:10075000083AC0F0088051F8043B083A51F804CB3D
:10076000A0E80810F5E7121D5CBF51F8043B40F803
:10077000043BAFF30080D20724BF11F8013B11F80E
:1007800001CB48BF11F8012B24BF00F8013B00F852
:1007900001CB48BF00F8012B704702F0FF0343EA8A
:1007A000032242EA024200F024B84FF0000204297A
:1007B000C0F0128010F0030C00F01B80CCF1040C90
:1007C000BCF1020F18BF00F8012BA8BF20F8022BC4
:1007D000A1EB0C0100F00DB85FEAC17C24BF00F86A
:1007E000012B00F8012B48BF00F8012B70474FF098
:1007F000000200B5134694469646203922BFA0E871
:100800000C50A0E80C50B1F12001BFF4F7AF09077C
:1008100028BFA0E80C5048BF0CC05DF804EB89006D
:1008200028BF40F8042B08BF704748BF20F8022BB0
:1008300011F0804F18BF00F8012B704770477047C8
:10084000704710B500F054FC006810BD10B50446A8
:1008500000F04EFC046010BD2DE9F0470D469946AE
:100860009246044600F124080168880604D5E06930
:1008700021F01001216000E00120A84201DD471BAA
:1008800000E00027A1697A1902EB0900081AA061AB
:100890002078C00602D42046FFF7D0FD002608E0ED
:1008A000D4E901211AF806009047206A401C761C02
:1008B00020624E45F4DB2078C0060AD52046FFF7BB
:1008C000BDFD06E0D4E9012130209047206A401C9C
:1008D0002062381EA7F10107F4DC07E0D4E901210A
:1008E00018F805009047206A401C2062281EA5F1D8
:1008F0000105F3DC2046FFF7B7FD2078000602D59E
:100900000220BDE8F0870120FBE72DE9FF4F0C46F0
:100910001E464FF0FF378BB0D2E90001DDF8608052
:100920000A908A46C1F30A5505B93D46002108469A
:100930004FF00000BAF1000F00F4400005DA00EBC0
:1009400080004FF4400101EA50004FEA9059B9F19C
:10095000010F00DDB9460A9850EA4A000ED044F66D
:100960001050A5F2FF3545432F14B8F1000F1ED0EB
:100970007542291E1EDDC9F100021CE0B8F1010F0D
:100980004FF0000001D0302103E0F24305E0215494
:10099000401CB042FBDB30460022002121540B9961
:1009A000C1F80880C1E900200FB0BDE8F08FBD1B81
:1009B0006D1CDEE74A4600DA694206A800F022FC18
:1009C00006AB93E8070003AB83E8070050460A999B
:1009D0000BF0F4FA8DE80700A0F500501F380090E6
:1009E0000398002D0ADD42F21F014A460844002305
:1009F00003A9039068460BF05DFD09E0A0F50050E7
:100A00004A461F38002303A9039068460BF067FD90
:100A10008DE807000004000C03D04FF0FF304108C0
:100A200000E01046B8F1000F03D0002200921546F6
:100A30001EE0751E05D400F05FFB303262556D1E5E
:100A4000F9D5B3460122084302D000227F1C04E0FE
:100A50002078302801D100227F1E002A099784D0F7
:100A60001DE0112D07DA00F047FB303262556D1C96
:100A700050EA0102F5D1084302D00098C8B10EE057
:100A80000021681E05E0235C625C63542254401E12
:100A9000491C8142F7DBAB46A81B401E0990002091
:100AA00004F80B000B98099AC0F80880C0E9002BE5
:100AB0007AE711264FF0000857E72DE9F04F8846F6
:100AC0000446D21D22F0070191B0D1E90001CDE921
:100AD0000A010BF03BFE02460B98C00F01D02D20FF
:100AE00007E02068810701D52B2002E0202101EAE0
:100AF000C000032A099001D0072A05DB03464146BE
:100B0000204600F03FFB0BE12078800601D5E0692C
:100B100000E00620B8F1650F814606D0B8F1660FF7
:100B200018D0B8F1670F70D131E00020B9F1110F82
:100B3000009001DB112301E009F101030AAA01A9D8
:100B40000CA8FFF7E2FEDDE90C70002609F10105B3
:100B5000834647E001204B4600904FF000470AAA29
:100B600001A90CA8FFF7D1FEDDE90DB00C995D4697
:100B7000002610B909F101000D18B9EB050003D4E6
:100B8000C0F1FF3609F10105A5EB09002BE0B9F131
:100B9000010F01DA4FF001090020B9F1110F0090A7
:100BA000484601DD112300E003460AAA01A90CA86A
:100BB000FFF7ABFEDDE90C704D460026834620783A
:100BC00000070AD4AB4500DA5D4601A8012D04DD1B
:100BD000411911F8011C302907D04F4502DA17F1ED
:100BE000040F04DA012082460FE06D1EEEE7002FAD
:100BF00002DCED1B3E4403E0781CA84200DD7D1CB6
:100C0000B81B00F1010A4FF000472078000703D419
:100C1000AA4501DB4FF0FF3A0021B7F1004F0DF17B
:100C200043088DF8431024D002202B23002F01DA33
:100C30007F422D230A21021EA0F1010000DC5FB1DA
:100C400097FBF1FC97FBF1F201FB1C7C17460CF1C2
:100C5000300C08F801CDEEE7A8F1010003702188FF
:100C6000090501D5452100E06521A0F1010800F842
:100C7000011C09980FA9A1EB0807FF1D00B1012075
:100C8000411901EBEA70A1693844081A401EA061BD
:100C90002078C00602D42046FFF7D0FB099828B17F
:100CA000D4E901219047206A401C20622078C006C8
:100CB00022D52046FFF7C2FB1EE0002E04DBB34521
:100CC00002DD01A8805D00E03020D4E901219047D9
:100CD000206A401C2062761CAAF101005FEA000A2B
:100CE0000AD100F001FAC0680168405CD4E9012132
:100CF0009047206A401C2062281EA5F10105DCDC1B
:100D000007E0D4E9012118F8010B9047206A401C44
:100D10002062381EA7F10107F3DC2046FFF7A4FB91
:100D2000032011B041E600002DE9F04F04460D46C6
:100D3000D21D22F0070089B0D0E900974846394615
:100D40000BF004FD0246F80F01D02D2307E02068C8
:100D5000810701D52B2302E0202101EAC0038DF891
:100D600020300BB1012000E00020032A824601D090
:100D7000072A04DB2946204600F004FA3FE12078E8
:100D8000800601D40D2500E0E569C7F30A560D2D54
:100D900049DA00214FEA175B08464FF00000002FA8
:100DA00000F4400007DA00EB80004FF4400100EB54
:100DB000D07001EA60008115012901DD4FF0FF319B
:100DC00000224FEA850CBCF1180F06D31346ACF194
:100DD00018004FF08052C24003E04FF4801323FA12
:100DE0000CF30CF10C0CBCF1200F04D3ACF1200C73
:100DF00009FA0CF001E007FA0CF000294FF0004866
:100E000001DD18B90FE00ED140450CD319EB0209F2
:100E10005F4121B9404502D19F4329EA0209BBEB5A
:100E2000175F00D0761C2088000502D57B487844E7
:100E300002E07A487844193808AA302302F80A30C8
:100E4000037C0AF10101002E0AF1020A53546A469A
:100E500002DC4FF0300101E04FF031014FF00108AA
:100E60008DF8001002D0A6F2FF3603E059EA4701E0
:100E700000D06B4E002D02DC2178090704D54FF01D
:100E800002082E218DF80110C44600210BE0C7F3A3
:100E900003433F01C35C491C6D1E02F8083005295D
:100EA00008F1010801DA002DF1DC00210CE000EB73
:100EB0001973491C1B786D1E082902F808304FEA87
:100EC000091908F1010801DA002DF0DC21688B0610
:100ED00002D516E0A8F10108E04505DD02EB0803A4
:100EE00013F8013C302BF5D0B8F1000F09DD02EB0F
:100EF000080313F8013C2E2B03D1090701D4A8F1F4
:100F00000108002D05DD3E2102F808106D1E08F1D4
:100F10000108407C002E02F8080008F1010804DAFC
:100F20002D20764202F8080002E02B2002F808008B
:100F30000A214FF47A70864208F101080BDB96FB18
:100F4000F0F3303302F8083096FBF0F308F10108B3
:100F500000FB136601E0642E0CDB642096FBF0F3CB
:100F6000303302F8083096FBF0F308F1010800FB7B
:100F7000136601E00A2E06DB96FBF1F0303002F832
:100F8000080008F1010896FBF1F001FB1060303019
:100F900002F80800A16908F1010808EB050202EB5C
:100FA0000A00081AA0612078C00602D42046FFF784
:100FB00045FA216A08AE01EB0A00206204E0D4E998
:100FC000012116F8010B9047BAF1010AF7D22078F7
:100FD000C00602D52046FFF731FA6E4609E016F842
:100FE000010B3E280FD0D4E901219047206A401C14
:100FF0002062B8F10108F2D22046FFF735FA09B0B5
:101000000320BDE8F08F206A2844206203E0D4E981
:101010000121302090476D1EEBD3F8E749D1000045
:1010200002FCFFFF01694A1C02610878704700B5A5
:101030008FB0CDE901310021059105497944CDE911
:10104000031011466846FFF75DFA0FB000BD0000BF
:10105000E5FFFFFF0A6802F8010B0A607047000015
:10106000074B70B50D467B44FFF7E1FF0446284669
:1010700000F03AF910B14FF0FF3070BD204670BD5E
:10108000474F000010B5203AC0F00B80B1E818506F
:10109000A0E81850B1E81850A0E81850203ABFF462
:1010A000F5AF5FEA027C24BFB1E81850A0E8185001
:1010B00044BF18C918C0BDE810405FEA827C24BF55
:1010C00051F8043B40F8043B08BF7047D20728BFE3
:1010D00031F8023B48BF11F8012B28BF20F8023B32
:1010E00048BF00F8012B70470048704710010020EE
:1010F00000487047F000002030B5B0F10A0271F1ED
:1011000000034FEA900E4EEA817EB0EB0E0061EBD9
:1011100091014FEA101E4EEA017E10EB0E0041EBEA
:1011200011114FEA102E4EEA016E10EB0E0041EB4A
:1011300011214FEA104E4EEA014E10EB0E0041EB2A
:101140001141401841F100014FEAD00040EA4170DE
:101150004FEAD1014FEA810444EA907410EB800514
:1011600044EB01046D1944EB0404521BA3414FF0FE
:10117000000348BF0A3200D530BD401C41F10001D8
:1011800030BD00002DE9F0411F46044603260168EA
:10119000072A01F4006004DB08B116A505E016A5D6
:1011A00003E008B115A500E015A521F010002060AE
:1011B000A069C01EA0610FB1401EA0612046FFF7CC
:1011C0003DF94FB1D4E9012138469047206A401CCF
:1011D0002062C01C206206E0206AFAE7D4E90121FF
:1011E00015F8010B9047761EF8D22046FFF73CF920
:1011F000BDE8F0814E414E006E616E00494E4600E2
:10120000696E66002DE9F047814616468AB035487A
:1012100078440DC88DE80D0032487844801C03AC3A
:101220000DC884E80D0041F69B300844372190FB3F
:10123000F1F290FBF1F5A5F1800501FB12041B3CD6
:1012400002D56442012000E00020DFF898A080462B
:101250000027FA44AAF1BE0A0EE0E0070AD032469F
:10126000684607EB470101230AEB81010BF037F9D0
:101270008DE8070064107F1C002CEED1194F7F44CD
:10128000AE3F19E0E80715D007EB04100DF1180A7E
:1012900090E80E008AE80E00C068F04201D198196B
:1012A00008903246012306A903A80BF018F903ABF6
:1012B00083E807006D10641C002DE3D14FF001039B
:1012C00032466946B8F1000F03A802D00BF0F2F8DD
:1012D00001E00BF004F9C9E90001C9F808200AB0DF
:1012E000BDE8F08798CE0000007B00F080007047DA
:1012F00000487047F00000207546FFF7F9FFAE4642
:1013000005006946534620F00700854618B020B511
:10131000FEF7B0FFBDE820404FF000064FF0000799
:101320004FF000084FF0000BAC46ACE8C009ACE849
:10133000C009ACE8C009ACE8C00921F007018D463E
:10134000704710B50446AFF300802046BDE810405A
:10135000FEF77CBF0000000030B44FF0013C50F8B5
:10136000042B51F8043BCCFA52F4D51A20D1FCB925
:1013700050F8042B51F8043BCCFA52F4D51A17D18B
:10138000B4B950F8042B51F8043BCCFA52F4D51AF6
:101390000ED16CB950F8042B51F8043BCCFA52F43E
:1013A000D51A05D1002CDAD030BC4FF000007047C0
:1013B00029BAB1FA81F111F01801D1F1200084406D
:1013C000F2D1CA40CB4012F0FF0213F0FF0330BC51
:1013D000D01A704701491820ABBEFEE72600020074
:1013E0007047000070B540F28834C2F20004054630
:1013F00020460E4601F0C4F8701E062888BF70BD56
:101400000DA030F8160044F24021C0F20F01B1FBEC
:10141000F0F02168C862E0604008486306F0E4FD2F
:1014200040F29C234219C2F2000320460021DA80D8
:10143000BDE8704001F0C8BBEE010B024C02940203
:10144000BA0210037003DC0370B540F22830C2F218
:101450000000067840F29C25C2F2000536B940F241
:10146000BC20C2F20000007800286AD040F2883424
:10147000C2F20004204601F083F806F0B5FD2969A8
:10148000A6B188425DD340F208016B78C2F2000138
:10149000421D08682A613BB30238B0F5487F0860F6
:1014A0002BD14FF44870002126E000BF884248D37A
:1014B000696940F20802C2F2000202EB410292881E
:1014C000C830286152B344F24020C0F20F00B0FB94
:1014D000F2F02168C862E0604008486320460021BD
:1014E00001F072FB69691FE00230B0F5AF6F086070
:1014F00003D14FF4AF600121697044F24021C0F282
:101500000F01B1FBF0F02168C862E0604008486359
:101510002046002101F058FB13E000BF20680122A3
:10152000C262E26000224263481C4AF6AB21CAF65E
:10153000AA21A0FB0112D10801EB4101A0EB81001F
:101540006861E888002808BF70BD06F04DFDE98895
:10155000884201D270BD00BF002240F28830C2F242
:1015600000000021EA80BDE8704001F0B7BB000038
:10157000FEE700002DE9F04387B041F200090020AA
:101580000121C4F202090590CDE901100220039166
:10159000049001A9484600F081FA4846012100F074
:1015A00051FBE8B341F2040540F2B8064DF68367FB
:1015B0000020CEF20005C2F20006C4F21B3700BFC5
:1015C00031680446A1FB0712910C0191296806912C
:1015D00028680699019A401A904211D22868069903
:1015E000019A401A90420BD228680699019A401A33
:1015F000904205D228680699019A401A9042E7D392
:101600004846012100F01EFB18B1632C04F10100D3
:10161000D6D3622C04D9012007B0BDE8F08300BF07
:101620004846012100F00EFB20B1002007B0BDE8C4
:10163000F08300BF41F2040540F2B8084DF683671D
:101640000020CEF20005C2F20008C4F21B3700BF32
:10165000D8F800100646A1FB0712910C01912968E9
:10166000069100BF28680699019A401A904211D24B
:1016700028680699019A401A90420BD22868069968
:10168000019A401A904205D228680699019A401A98
:101690009042E7D34846012100F0D4FA18B9EF2E62
:1016A00006F10100D4D30020EE2E88BF012007B040
:1016B000BDE8F0832DE9F04F87B041F2040641F216
:1016C00000044DF6836BCEF20006C4F2020400273C
:1016D00001250DF10408C4F21B3B4FF0000A4FF046
:1016E00000090CE00138B0FA80F0400900FA0AF075
:1016F0000AF1010ABAF1080F49EA00096AD002208A
:101700000490204641460597CDE90155039700F026
:10171000C5F920460121002200F09AFA40F2B800F3
:10172000C2F200000068A0FB0B01880C00EB8000F7
:10173000400001903068069030680699019A401A7E
:10174000904211D230680699019A401A90420BD209
:1017500030680699019A401A904205D2306806997D
:10176000019A401A9042E7D3022004902046414655
:101770000597CDE90157039500F090F92046012126
:1017800000F060FA40F2B801C2F200010968A1FB62
:101790000B12910C2D22514301913168069100BF2B
:1017A0003168069A019B891A99429BD23168069A40
:1017B000019B891A994295D23168069A019B891A30
:1017C00099428FD23168069A019B891A9942E7D3D0
:1017D00088E700BF5FFA89F007B0BDE8F08F00002E
:1017E000F0B587B041F200040020C4F20204059075
:1017F00001210390022041F20405CDE9011104907A
:1018000001A92046CEF2000500F048F9204601214A
:10181000002200F01DFA40F2B806C2F2000630685D
:101820004DF68367C4F21B37A0FB0701880C40F21A
:10183000EE21484301902868069000BF2868069969
:10184000019A401A904211D228680699019A401ACA
:1018500090420BD228680699019A401A904205D20C
:1018600028680699019A401A9042E7D32046012140
:10187000012200F0EDF93068A0FB0701880C00019F
:10188000A0EB914001902868069000BF2868069957
:10189000019A401A904211D228680699019A401A7A
:1018A00090420BD228680699019A401A904205D2BC
:1018B00028680699019A401A9042E7D307B0F0BD14
:1018C0002DE9F04F87B0044641F200080120C4F230
:1018D0000208CDE90100022041F20406002704902D
:1018E00001A94046CEF200060597039700F0D6F80E
:1018F00040F2B8094DF68365C2F20009C4F21B3507
:101900006FF0070A4FF03A0B06E000BF6408072F9C
:1019100007F1010780F0A28040460121002200F07B
:1019200097F9E0074CD1D9F80000A0FB0501880C1D
:101930004621484301903068069000BF3068069900
:10194000019A401A904211D230680699019A401AC1
:1019500090420BD230680699019A401A904205D203
:1019600030680699019A401A9042E7D34046012117
:10197000012200F06DF9D9F80000A0FB05016FF01D
:10198000010000EA514001903068069030680699E5
:10199000019A401A9042B9D230680699019A401AC9
:1019A0009042B3D230680699019A401A9042ADD263
:1019B00030680699019A401A9042E7D3A6E700BF23
:1019C000D9F80000A0FB05010AEAD1300190306887
:1019D000069000BF30680699019A401A904211D2D1
:1019E00030680699019A401A90420BD230680699E5
:1019F000019A401A904205D230680699019A401A1D
:101A00009042E7D340460121012200F021F9D9F8A4
:101A10000000A0FB0501880C00FB0BF00190306872
:101A2000069000BF30680699019A401A9042BFF4B0
:101A30006DAF30680699019A401A9042BFF466AFC4
:101A400030680699019A401A9042BFF45FAF30683F
:101A50000699019A401A9042E4D357E707B0BDE8CF
:101A6000F08F000070470000EFF3108072B600BFE7
:101A7000FEE70000B0B5044600F0F0F8054640F27D
:101A80000000C2F200000078611C18BF044400BFCF
:101A900000F0E4F8401BA042FAD3B0BD2DE9F04FAE
:101AA00082B000F13E4241F6004502F1FF77C4F2F8
:101AB0000205082243F6004E4FEAB726A84208BFA7
:101AC0000722C4F2010E072E38BF4FEAB7220125C4
:101AD000002600274FF00008009208E008F10108F6
:101AE0000437B8F1100F06F1020600F0A7800C6869
:101AF00005FA08F914EA090FF0D0D1F804B003226E
:101B00000BF0030CACF10104B240012C6FEA020AA5
:101B100010D88268CC6802EA0A02B440224382608C
:101B20004268CBF3001422EA090204FA08F42243C3
:101B3000426005E0BCF1030F02D14FF0030C20E03E
:101B4000C2688C6802EA0A02B4402243BCF1020F68
:101B5000C26016D16FF0030202EA58020244D2F8C2
:101B600020C007F01C050F230C69AB402CEA0303CF
:101B700004FA05F52B431362D1F804B001250BF0EC
:101B8000030C02680CFA06F302EA0A021A431BF479
:101B9000403F0260A2D0002243F644030192C4F207
:101BA00002031A684FF6084C42F480421A601A6821
:101BB000CFF6FF7C02F480420192019A28F00302E2
:101BC000724452F80C3007F00C050F24AC40A343CC
:101BD000009C04FA05F52B4342F80C30DEF808208F
:101BE0004B6842EA090543F60C4CDC0258BF22EA76
:101BF0000905CEF80850C4F2010CDCF800209C0264
:101C000042EA090558BF22EA0905CCF80050DEF87F
:101C100004209C0342EA090558BF22EA0905CEF8D0
:101C20000450DEF80020DB0342EA090558BF22EA2F
:101C30000905CEF80050012550E700BF02B0BDE80D
:101C4000F08F00000069084018BF012070470000B5
:101C5000002A08BF090481617047000048F27C3007
:101C6000C2F200000068704740F2000048F27C3188
:101C7000C2F20000C2F2000100780A681044086055
:101C80007047000080B543F60040C4F202000168CE
:101C900041F400710160016841F4806101600168F4
:101CA00041F480710160032000F0C8F80F2000F0BB
:101CB00005F800F061F8002080BD000070B586B026
:101CC000002543F640010195C4F202010A6804466A
:101CD00042F020020A60096801A801F02001019188
:101CE0000199694600F06AF9049E002E18BF01268A
:101CF00000F084F94DF68361B040C4F21B31A0FBC3
:101D000001014FF0FF3000EB914140F2D03041F241
:101D10000042C2F20000C4F2000240F2E733C0E920
:101D20000021C0E902530561856100F0DFFB054633
:101D300010B1284606B070BD40F2D030C2F20000AB
:101D400000F01EFC05460028F3D1372000F036F8DD
:101D50000F2C0DD8372021460022002500F042F834
:101D600040F20400C2F200000460284606B070BDD4
:101D70000125284606B070BD82B0002043F6400120
:101D80000190C4F202014A6842F480424A604A6803
:101D900002F480420192019A00900868002240F00B
:101DA0008050086008680F2100F080500090009873
:101DB0006FF0010002B000F015B80000002848BF25
:101DC0007047C1B200F01F00012202FA00F04EF28B
:101DD0000012CEF2000242EAD10121F003010860B4
:101DE0007047000010B54EF60C5CCEF2000CDCF82B
:101DF0000030C3F3022E8EF00704042C28BF042405
:101E0000BEF103034FF0FF3E0EFA04F438BF002387
:101E1000A14399400EFA03F39A43114300F00F02D5
:101E200000F160430901043A03F564436244002869
:101E300048BF02F10C03197010BD00004EF60C51A2
:101E4000CEF200010A684FF6FF031A4060F30A223F
:101E500042F0806040F0FD70086070472DE9F0416D
:101E6000002800F08B8043F60808C4F202080446FC
:101E7000D8F8F8030D4600F00700884207D288F82A
:101E8000F853D8F8F80300F00700A84276D120688C
:101E9000810717D5410705D5D8F8001041F4E05166
:101EA000C8F80010010705D5D8F8001041F46041CA
:101EB000C8F80010D8F80010A26821F0F001114312
:101EC000C8F80010C0073FD1D8F8F80300F00700A9
:101ED000A84207D988F8F853D8F8F80300F00700AB
:101EE000A8424BD12068410707D5D8F80010E26816
:101EF00021F4E0511143C8F80010000708D5D8F8C4
:101F00000000216920F4604040EAC100C8F80000E8
:101F100000F09CF8D8F800104EF2CA02C1F3031189
:101F2000C0F60002515C40F2B80220FA01F140F222
:101F30000400C2F200000068C2F200021160FFF764
:101F4000BDFE0020BDE8F0816068811E022907D235
:101F500058F8081C89015CBF0120BDE8F08111E040
:101F6000012807D158F8081C89035CBF0120BDE88F
:101F7000F08107E058F8081C890703D40120BDE868
:101F8000F08100BFD8F8001021F003010843C8F821
:101F90000000FFF763FE064641F28837D8F80000DC
:101FA000616800F00C00B0EB810F8DD0FFF756FE9A
:101FB000801BB842F2D90320BDE8F0810F220260F5
:101FC00043F60802C4F20202136803F003034360FD
:101FD000136803F0F0038360136803F4E053C360F5
:101FE000D2F800C04FF4E05303EADC030361D2F8F7
:101FF000F80300F0070008607047000040F2B800E6
:1020000043F60801C2F20000C4F202010068096848
:102010004EF2DA02C1F38221C0F60002515CC840E0
:102020007047000040F2B80043F60801C2F2000019
:10203000C4F20201006809684EF2DA02C1F34231CB
:10204000C0F60002515CC8407047000010B543F66E
:102050000404C4F20204606800F00C0142F2004083
:102060000829C0F2F40007D0042918BF10BD41F2BE
:102070000020C0F27A0010BD216801F03F02216803
:1020800023684902C3F3881106D4A1FB0001002391
:10209000FEF702F907E000BF41F20020C0F27A002B
:1020A0004843B0FBF2F021680222C1F3014102EB88
:1020B0004101B0FBF1F010BD2DE9F04182B00028E4
:1020C00068D00446007843F60006C007C4F2020652
:1020D0000BD0B06800F00C00042840F09F803068FE
:1020E000800302D56068002854D0207880071AD574
:1020F000B06810F00C0F09D0B06800F00C00082890
:1021000040F0A6807068400200F1A280306880072D
:1021100002D5E06801283DD13068216920F0F8003F
:1021200040EAC10030602078000737D420784007AB
:102130004CD4A56955B3B06800F00C00082840F0F5
:10214000BB80012D26D07068E16900F480028A42CC
:1021500020D1216A00F03F028A421BD147F6C071AC
:10216000626A0140B1EB821F14D1A16A4FF6FF737E
:10217000C903994300F44032A1F580318A4209D164
:10218000E16A00F07060B0EB016F03D1002002B093
:10219000BDE8F081012002B0BDE8F081606900284F
:1021A00040F20000C4F2472076D00121C0F8801E22
:1021B000FFF754FD054600BF706F8007B6D4FFF7E8
:1021C0004DFD401B0228F7D9DDE000BF306C10F058
:1021D00080580AD100200190306C40F0805030646B
:1021E000306C00F080500190019847F20007C4F273
:1021F00000073868C00541D4386840F48070386002
:10220000FFF72CFD054600BF3868C00536D4FFF740
:1022100025FD401B0228F7D9B5E000BFB06800F0EB
:102220000C00082803D1706840023FF558AF606881
:10223000B0F5803F07D0B0F5A02F40F08D8030681A
:1022400040F480203060306840F4803030608DE0B1
:10225000E068002852D00020C4F24720012101602C
:10226000FFF7FCFC054600BF306880073FF554AF20
:10227000FFF7F4FC401B0228F6D984E0A06801288F
:1022800005D005284ED1306F40F004003067306F24
:1022900040F0010030674FE00021C0F8801EFFF7DA
:1022A000DDFC0546706F80077FF540AFFFF7D6FC79
:1022B000401B0228F6D966E00027C4F24727002019
:1022C0003866FFF7CBFC022D05460BD13068800144
:1022D0005ED5FFF7C3FC401B02284FF00300F5D981
:1022E00055E700BF306880017FF550AFFFF7B6FCBF
:1022F000401B02284FF00300F4D948E70020C4F245
:10230000472000210160FFF7A9FC054630688007DF
:102310007FF509AFFFF7A2FC401B02284FF0030036
:10232000F4D934E7316F002821F001013167316FB2
:1023300021F0040131674DD0FFF790FC054641F2D2
:10234000883700BF306F800756D4FFF787FC401BEB
:10235000B842F7D917E000BF3168002821F4803176
:102360003160316821F4802131604FD0FFF776FC75
:10237000054600BF306880033FF5B7AEFFF76EFC3F
:10238000401B6428F6D9032002B0BDE8F08100BFED
:1023900004F11C052FCD084340EA8210D9034FF603
:1023A000FF729143A1F5803140EA056008437060F7
:1023B00001203866FFF752FC044600BF30688001F8
:1023C0003FF5E4AEFFF74AFC001B02284FF0030084
:1023D000F4D9DCE6FFF742FC054641F2883700BF3E
:1023E000306F800708D5FFF739FC401BB8424FF02B
:1023F0000300F5D9CBE600BFB8F1000F7FF499AE2A
:10240000306C20F08050306493E600BFFFF726FC6C
:10241000054600BF306880037FF567AEFFF71EFCFE
:10242000401B64284FF00300F4D9B0E67047000069
:102430007047000010B590F83C20012A4FF00202CE
:1024400051D080F83D200268D2F804E0D2F808C0EC
:102450000C682EF07003234341F2FF74C4F20004B1
:10246000A24253600EDC40F2FF73C4F200039A42B2
:1024700016DCB2F1804F2BD040F20043C4F20003CF
:1024800024E000BF40F2FF33C4F201039A4213DCA0
:1024900041F60003C4F200039A4219D0002313E06E
:1024A00040F60003C4F200039A4211D040F6004304
:1024B000C4F200030AE000BF44F20003C4F20103C7
:1024C0009A4205D040F20043C4F201039A4204D17B
:1024D00049682CF08003194391600121002280F8A3
:1024E0003D1080F83C20104610BD0000002804BFBD
:1024F0000120704710B5044690F83D0028B900202F
:1025000084F83C00204600F01FF8022084F83D00CB
:102510002068211D01F0AAFE012084F8460084F8FD
:102520003E0084F83F0084F8400084F8410084F8BD
:10253000420084F8430084F8440084F8450084F89D
:102540003D00002010BD000081B0006840F2004155
:10255000C4F20001884201D001B070470020009011
:1025600043F64000C4F20200016841F0020101603C
:10257000006800F002000090009801B07047000071
:1025800090F83D1001291CBF01207047022180F8FE
:102590003D10006841F2FF72C168C4F2000290422F
:1025A00041F00101C1600DDC40F2FF71C4F2000195
:1025B000884215DCB0F1804F2AD040F20041C4F2CD
:1025C000000123E040F2FF31C4F20101884213DC34
:1025D00041F60001C4F20001884219D0002113E045
:1025E00040F60001C4F20001884211D040F60041DB
:1025F000C4F200010AE000BF44F20001C4F201018C
:10260000884205D040F20041C4F20101884206D15F
:10261000816801F00701062904BF002070470168A6
:1026200041F00101016000207047000080B590F882
:102630003C20012A4FF0020200F0C28080F83D20C9
:10264000D0F800C04FF67772DCF8083023EA0202B7
:10265000CCF808200B684F2B28DC1F2B44DD202BE7
:1026600045D0302B43D0402B40F0AC80D1F804E073
:10267000C968DCF82030DCF8202022F00102CCF818
:102680002020DCF8182022F0F00242EA011123F0A9
:102690000A0242EA0E02CCF81810CCF82020DCF82E
:1026A000081041F0470121F0300180E06F2B27DD59
:1026B000B3F5005F48D0B3F5805F7AD0702B40F05F
:1026C0008180D1E901E3C968DCF8082043EA0E0300
:1026D00022F47F4243EA01211143CCF80810DCF8D0
:1026E000081041F0770162E00BB1102B6AD1DCF8E1
:1026F000081021F07001194341F0070157E000BFB5
:10270000502B35D0602B5DD1D1F804E0C968DCF8DE
:10271000203023F01003CCF82030DCF81830DCF83F
:10272000202023F4704322F0A00243EA013142EA60
:102730000E12CCF81810CCF82020DCF8081041F06C
:10274000670121F0100132E0D1E901E3C968DCF84A
:10275000082043EA0E0322F47F4243EA0121114399
:10276000CCF80810DCF8081041F480411FE000BFED
:10277000D1F804E0C968DCF82030DCF8202022F031
:102780000102CCF82020DCF8182022F0F00242EA06
:10279000011123F00A0242EA0E02CCF81810CCF81C
:1027A0002020DCF8081041F0570121F02001CCF87E
:1027B00008100022012180F83D10002180F83C1013
:1027C000104680BD0122F5E77047000010B5016892
:1027D00004460869800744BFC8685FEA807039D43E
:1027E0000869400744BFC8685FEA40703ED4086982
:1027F000000744BFC8685FEA007045D40869C00696
:1028000044BFC8685FEAC0604AD40869C0071CBFFB
:10281000C8685FEAC07051D10869000644BFC86843
:102820005FEA006052D40869400644BFC8685FEAA6
:10283000406053D40869800646BFC8685FEA80607C
:1028400010BD6FF0200220460A61BDE81040FFF77E
:10285000EFBD00BF6FF0020008610120207788699A
:10286000800743D02046FFF7AFFF45E06FF004003C
:10287000086102202077886910F4407F40D020460C
:10288000FFF7A2FF42E000BF6FF0080008610420DC
:102890002077C86980073DD02046FFF795FF3FE0CD
:1028A0006FF01000086108202077C86910F4407F9D
:1028B0003AD02046FFF788FF3CE000BF6FF00100F0
:1028C0000861204600F060FA2168A5E76FF08000FB
:1028D00008612046FFF7AAFD2168A4E76FF04000D9
:1028E0000861204600F05AFA2168A3E7204600F06C
:1028F00025F8204600F066F92168002020776FE770
:10290000204600F01BF8204600F05CF9216800200A
:1029100020776CE7204600F011F8204600F052F9CD
:1029200021680020207769E7204600F007F820465C
:1029300000F048F921680020207766E77047000022
:102940002DE9F04390F83C30012B04BF0220BDE894
:10295000F0834FEAB202032A00F2FC80DFE802F0C3
:10296000023E7EBE036840F200471A6A43F4806567
:1029700022F001021A621C6A1A46D3F804E052F8E7
:1029800018CF8E6824F00204C4F20107BD4244EA65
:10299000060405D1CE6824F00C0426F00406344366
:1029A0000E68BD4207D1D1E905572EF4407E45EAB5
:1029B0000E0545EA070E2CF073073743C3F804E011
:1029C0009F614F6809695F631C629F6947F0080750
:1029D0009F619F6927F004079F61B1E0036840F29F
:1029E00000481A6A43F4806522F010021A621C6AD9
:1029F0001A46D3F804C052F818EF8F6824F0200468
:102A0000C4F20108454544EA071407D1CF686FF0C6
:102A1000400624F0C00406EA07163443D1F80090BB
:102A2000454506D1D1E905562CF440672E4347EAC7
:102A3000860C2EF4E64747EA0927C3F804C09F61D5
:102A40004F6809699F631C629F6947F400679F6133
:102A50009F6927F480679F6171E000BF036840F2BF
:102A600000481A6A43F4806522F480721A621C6A74
:102A70001A46D3F804C052F81CEF8F6824F400748F
:102A8000C4F20108454544EA072408D1CF6840F262
:102A9000FF463F0224F4406427EA06063443D1F897
:102AA0000090454506D1D1E905562CF440572E43F8
:102AB00047EA061C2EF0730747EA0907C3F804C06B
:102AC000DF614F680969DF631C62DF6947F008074F
:102AD000DF61DF6927F00407DF6131E0036840F25E
:102AE00000451A6A43F4806722F480521A621A463B
:102AF000D3F820C05C6852F81CEFD1F800808E68D3
:102B0000C4F20105AF4204D14D6924F4804444EA83
:102B100085142CF4005747EA06372EF4E64646EAB9
:102B200008265C60DE614E6809691E641F62DF6909
:102B300047F40067DF61DF6927F48067DF6109021E
:102B40001368194311600021002280F83C200846D8
:102B5000BDE8F0830121002280F83C200846BDE852
:102B6000F0830000002804BF0120704710B5044620
:102B700090F83D0028B9002084F83C00204600F081
:102B80001FF8022084F83D002068211D01F06EFB33
:102B9000012084F8460084F83E0084F83F0084F861
:102BA000400084F8410084F8420084F8430084F82F
:102BB000440084F8450084F83D00002010BD00006A
:102BC000704700007047000041B1082910D0042967
:102BD00014BF00F1410200F13F020BE090F83E20EB
:102BE000012A1CBF01207047022280F83E2013E01A
:102BF00000F140021278012A1CBF01207047022216
:102C0000082907D0042914BF80F8412080F83F200C
:102C100002E000BF80F84020006801F01F0101229F
:102C2000036A02FA01F123EA01020262026A114315
:102C300041F2FF72C4F20002904201620CDC40F2E9
:102C4000FF71C4F20001884214DCB0F1804F37D02C
:102C500040F2004116E000BF40F2FF31C4F2010132
:102C6000884215DC41F60001C4F20001884227D0F9
:102C7000002115E040F60001C4F2000188421FD097
:102C800040F60041C4F20001884219D01FE000BFA5
:102C900044F20001C4F20101884211D040F2004127
:102CA000C4F20101884212D1416C40F2004340F469
:102CB0008062C4F2010341F400419A42416406D1AA
:102CC000816801F00701062904BF002070470168F0
:102CD00041F00101016000207047000010B502685A
:102CE00001F01F0E4FF0010C146A0CFA0EF324EAE7
:102CF0000303136240F20043D2F820C042F4806420
:102D0000C4F201039C42C2F820C009D1136A41F207
:102D10001114234204D1136A40F2444423420FD0D9
:102D2000136A41F21114234213D1136A40F244444E
:102D300023420ED1136823F00103136009E000BFA2
:102D4000536C23F400435364136A41F21114234279
:102D5000EBD008290CD0042910D000294FF0010134
:102D600014BF80F8411080F83E10002010BD00BF55
:102D7000012180F84010002010BD00BF012180F823
:102D80003F10002010BD0000006841F20041C4F275
:102D90000001884218BF7047FEF766BF7047000009
:102DA000002804BF0120704710B5044690F83D008C
:102DB00028B9002084F83C00204600F021F82420A7
:102DC00084F83D002068C16821F40051C1602046AC
:102DD00001F0EAFA2068016921F49041016141693A
:102DE00021F02A014161C16841F40051C160002015
:102DF0002021206484F83D1084F83E1010BD0000AE
:102E000080B586B0016841F20000C4F20100814241
:102E100002D006B080BD00BF002143F63002019110
:102E2000C4F20202536900F5704043F0100353618D
:102E3000536903F010030193019B0191136843F060
:102E400001031360126802F001020192019A4FF42B
:102E5000C06201920222CDE90221032104910721DF
:102E6000059101A9FEF71AFE06B080BD2DE9F043D9
:102E700081B0044690F83D0020280DD10F4600296E
:102E80004FF0010000F0DD801646002A00F0D980E6
:102E900094F83C00012803D1022001B0BDE8F08382
:102EA000012084F83C000020206421201D4684F885
:102EB0003D00FEF7D3FEA684E684A1680646B1F580
:102EC000805F03D12069002800F01081B8460027F8
:102ED000002084F83C00E18C2068002900F09080FC
:102EE00005F101090DE000BFB8F1000F28D018F876
:102EF000011B4160E18C0139E184E18C002900F083
:102F00007F8001680906EFD4B9F1000F0AD0FDB146
:102F1000FEF7A4FE801BA8421AD8206801680906A3
:102F2000F6D5E1E701680906DED4016809065CBF51
:102F300001685FEA0161D7D401680906F2D5D3E7D9
:102F400037F8021B4FF000086FF35F21D1E700BF95
:102F5000206850E8030F216820F4D07041E8030294
:102F6000BAB3206850E8030F216820F4D07041E81C
:102F7000030272B3206850E8030F216820F4D07078
:102F800041E803022AB3206850E8030F216820F4C7
:102F9000D07041E80302002ADAD11AE0206850E834
:102FA000050F216820F0010041E80502DAB1206830
:102FB00050E8050F216820F0010041E8050292B1B8
:102FC000206850E8050F216820F0010041E8050263
:102FD0004AB1206850E8050F216820F0010041E85F
:102FE0000502002ADAD1202084F83D0084F83E0052
:102FF000002084F83C00032001B0BDE8F08300BF4E
:103000000168490619D4FDB1691C0DD10168490652
:1030100013D4016849065CBF01685FEA41610CD4C2
:1030200001684906F2D508E0FEF718FE801BA842A9
:103030000AD8206800684006F6D5202084F83D00B4
:10304000002001B0BDE8F083206850E8030F21683C
:1030500020F4D07041E80302E2B3206850E8030F87
:10306000216820F4D07041E803029AB3206850E848
:10307000030F216820F4D07041E8030252B32068A6
:1030800050E8030F216820F4D07041E80302002AC1
:10309000DAD11FE0206850E8050F216820F0010018
:1030A00041E80502002A9ED0206850E8050F2168FB
:1030B00020F0010041E80502002A3FF494AF2068A7
:1030C00050E8050F216820F0010041E80502002AC0
:1030D0003FF489AF206850E8050F216820F0010017
:1030E00041E80502002AD5D17DE700BF4FF0000876
:1030F000EEE60000FEE70000F0B583B040F20044C9
:103100000546C4F2020407260A2704E06D003006D3
:10311000A6F1010662D020464FF400410022FEF7DE
:1031200097FD00970098A0B1009801380090009892
:1031300078B1009801380090009850B1009801389B
:103140000090009828B1009801380090009800285D
:10315000EAD1E8B2C20920464FF40051FEF778FDEB
:1031600001970198A8B100BF01980138019001981A
:1031700078B1019801380190019850B10198013857
:103180000190019828B10198013801900198002818
:10319000EAD120464FF400410122FEF759FD029783
:1031A00002980028B2D000BF02980138029002981D
:1031B0000028ABD002980138029002980028A5D0D0
:1031C000029801380290029800289FD00298013896
:1031D000029002980028E7D198E700BF20464FF4FC
:1031E0000041002203B0BDE8F040FEF731BD000011
:1031F00010B584B040F20044C4F2020420464FF4FB
:1032000000510122FEF724FD20464FF40041012227
:10321000FEF71EFD0A2001900198A0B10198013827
:103220000190019878B1019801380190019850B14E
:10323000019801380190019828B101980138019056
:1032400001980028EAD120464FF40051FEF7FAFC1D
:1032500028B320464FF400510022FEF7F9FC0A2063
:1032600002900298A8B100BF02980138029002981B
:1032700078B1029801380290029850B10298013852
:103280000290029828B10298013802900298002812
:10329000EAD120464FF40051FEF7D4FC10B10020D3
:1032A00004B010BD20464FF400510022FEF7D0FCC0
:1032B0000A2003900398A0B1039801380390039863
:1032C00078B1039801380390039850B103980138FE
:1032D0000390039828B103980138039003980028BD
:1032E000EAD1012004B010BDB0B582B040F2004474
:1032F000C4F2020420464FF400410022FEF7A8FC6D
:103300000A2501950198A0B1019801380190019812
:1033100078B1019801380190019850B101980138B5
:103320000190019828B10198013801900198002876
:10333000EAD120464FF400510022FEF789FC0195A6
:103340000198A0B1019801380190019878B10198D5
:1033500001380190019850B101980138019001980D
:1033600028B101980138019001980028EAD120463F
:103370004FF400410122FEF76BFC0A2501950198EC
:10338000A8B100BF019801380190019878B1019867
:1033900001380190019850B10198013801900198CD
:1033A00028B101980138019001980028EAD12046FF
:1033B0004FF400510122FEF74BFC01950198A0B19A
:1033C000019801380190019878B101980138019075
:1033D000019850B1019801380190019828B10198E5
:1033E0000138019001980028EAD102B0B0BD000078
:1033F000B0B584B040F20044C4F2020420464FF459
:1034000000410022FEF724FC0A2501950198A0B195
:10341000019801380190019878B101980138019024
:10342000019850B1019801380190019828B1019894
:103430000138019001980028EAD120464FF400514C
:103440000122FEF705FC02950298A0B1029801380E
:103450000290029878B1029801380290029850B117
:10346000029801380290029828B10298013802901F
:1034700002980028EAD120464FF400410122FEF7CD
:10348000E7FB0A2003900398A8B100BF0398013816
:103490000390039878B1039801380390039850B1D2
:1034A000039801380390039828B1039801380390DA
:1034B00003980028EAD120464FF40051FEF7C2FBE2
:1034C000B0FA80F0450920464FF400410022FEF793
:1034D000BFFB284604B0B0BDB0B540F2B820C2F280
:1034E00000000078002800F0878004F07DFD40F2A5
:1034F0009C24C2F20004A16840F224358842C2F242
:10350000000516D300F57A70A06002F011FD10EEF0
:10351000100A85ED000A0AF043FC02460B4640F211
:10352000D8204EF6E851C2F20000C0F60001FCF7C8
:1035300071FF00F0A7F840F22400C2F2000000780A
:1035400095ED000A01EE100AB8EE411AB4EE410AF8
:10355000F1EE10FA0CDD9FED291AB4EE410AF1EEFE
:1035600010FA05DA40F22830C2F200000178D9B32F
:1035700040F25020C2F20000008840F25222C2F213
:10358000000201B2128880EAE130A0EBE13011B212
:1035900082EAE132A2EBE13140F25422C2F20002AF
:1035A000128889B211FA80F011B282EAE132A2EBFC
:1035B000E13140F22502C2F20002127810FA81F0E5
:1035C000C2F10A014FF47A725143884212DD40F28F
:1035D000BC20C2F20000017861B921780131CAB281
:1035E000032A217038BFB0BD0121017004F0FCFC3A
:1035F000E060B0BD00202070B0BD00BF0000A04260
:10360000B0B504F0F1FC40F2B824C2F20004E16964
:1036100001F5FA71884205D36079C043607104F006
:10362000E3FCE061A56904F0DFFCEDB1A16901F5FF
:10363000FA6188421AD904F0D7FCA16941F28832B4
:103640001144884216D904F0CFFCA16901F5FA5162
:10365000884213D9012020804FF48070A4F805001F
:103660000020C4E90600B0BDA061B0BD00206070BC
:10367000B0BD00BF01206070B0BD00BF022060700F
:10368000B0BD000010B504F0AFFC40F22031C2F232
:1036900000010A68904238BF10BD40F25C42C2F29D
:1036A000000212783230002A086018BF00F054F887
:1036B00040F25620C2F200004EF6E554B0F9002068
:1036C00040F2DD20C0F60004C2F200002146FCF703
:1036D000A1FE40F25820C2F20000B0F9002040F2F2
:1036E000E720C2F200002146FCF794FE40F25A2087
:1036F000C2F20000B0F9002040F2F120C2F2000056
:103700002146FCF787FE40F25020C2F20000B0F9DB
:10371000002040F2FB20C2F200002146FCF77AFEB6
:1037200040F25220C2F20000B0F9002040F2053011
:10373000C2F200002146FCF76DFE40F25420C2F2B6
:103740000000B0F9002040F20F30C2F20000214624
:10375000BDE81040FCF75EBEF0B581B02DED0A8BE0
:103760008CB00DF11E000DF11D0700900DF126002B
:1037700008A903AA0BAB019702F092F8BDF81E004E
:1037800040F25026C105C2F2000640F1BB809DED1B
:10379000030A9DED041A9DED052A9DED063A9FED65
:1037A0006A4AB8EEC00A40F2BC07B8EEC11A20EE71
:1037B000040AC2F2000721EE041AB8EEC22AB8EEDB
:1037C000C33AB8EE009A87ED000A22EE042A23EEEF
:1037D000043A86ED031A21EE091A30EE000A20EEB3
:1037E000020A21EE031A31EE000A10EE100A86EDED
:1037F000042A86ED053A0AF0D3FA41EC100B08F0E2
:10380000BFFF51EC100B9FED4E0B54EC105B2A46A2
:1038100023460AF001F809F0F3FCB06196ED04BA12
:1038200097ED001A96ED03AA96ED050A3BEE0BCA3A
:1038300031EE011A21EE0A1A2CEE000A30EE010ACE
:1038400010EE100A0AF0ACFA2AEE090A2BEE0C1A56
:1038500020EE0A0A30EE410AB7EE001A30EE010AF5
:1038600041EC180B10EE100A0AF09AFA41EC110B19
:10387000B0EE480AF0EE680A09F09EFA51EC100B1F
:103880002A46234609F0C8FF09F0BAFCF06197ED1B
:10389000009A96ED03AA96ED05BA96ED04CA29EEB4
:1038A0000B0A2AEE0C1A31EE000A30EE000A10EE76
:1038B000100A0AF075FA2AEE0A0A29EE091A31EE00
:1038C000000A2CEE0C1A30EE410A2BEE0B1A30EEE9
:1038D000410A41EC180B10EE100A0AF061FA41ECB3
:1038E000110BB0EE480AF0EE680A09F065FA51ECE7
:1038F000100B2A46234609F08FFF09F081FC306245
:10390000BDF81E0010F0700F08D0BDF826103180F1
:10391000BDF828107180BDF82A10B180000708D5C5
:10392000BDF82000F080BDF822003081BDF82400F1
:1039300070810CB0BDEC0A8B01B0F0BD00BF00BFC0
:103940006666666666A64C400000803010B503F0DF
:1039500061F800281CBF002010BD4EA0FCF796FEA9
:10396000782004F08BFA28B1002453A0FCF78EFED7
:10397000204610BD4EF6B070C0F60000FCF786FE83
:10398000782002F099FF28B1002455A0FCF77EFEB4
:10399000204610BD4EF68D70C0F60000FCF776FE96
:1039A000322004F0C9F948B14EF6CF700024C0F6B9
:1039B0000000FCF76BFE204610BD00BF4EF6017004
:1039C000C0F60000FCF762FE01F05EFF40B14EF66B
:1039D000F0700024C0F60000FCF758FE204610BD31
:1039E0004EF6AE60C0F60000FCF750FE02F050FF4D
:1039F00002F048F940B14FF2AB000024C0F60000DD
:103A0000FCF744FE204610BD4EF66970C0F600007B
:103A1000FCF73CFE40F2731001F0E6FD40B14FF2BE
:103A200029000024C0F60000FCF730FE204610BD3F
:103A30004EF6DE60C0F60000FCF728FE322002F0F1
:103A400079F848B14FF255000024C0F60000FCF7A9
:103A50001DFE204610BD00BF4EF62570C0F60000CA
:103A6000FCF714FE05F0BCF8012004F0A7F80146AD
:103A7000B0FA80F044094FF280004EF64772C0F66B
:103A80000000C0F60002002908BF1046FCF7FEFD4A
:103A9000204610BD6D707520696E697469616C692E
:103AA0007A6174696F6E20636F6D706C6574652EDA
:103AB0002E2E2E2E2E0000006D70755F7365745FC4
:103AC00073656E736F7220636F6D65206163726FD3
:103AD0007373206572726F72202E2E2E2E2E2E0082
:103AE0006D70755F636F6E6669677572655F666935
:103AF000666F20636F6D65206163726F73732065FD
:103B000072726F72202E2E2E2E2E2E0010B544F2C1
:103B100051104EF25012C0F60000C0F60002002113
:103B200004F09CFA40F25014C2F20004206044F207
:103B30000D104EF22C12C0F60000C0F6000200215B
:103B400004F08CFA606044F275104EF27412C0F604
:103B50000000C0F60002002104F080FAA06044F2E8
:103B6000E5004EF20812C0F60000C0F60002002187
:103B700004F074FAE06044F2D5004EF2E402C0F6BC
:103B80000000C0F60002002104F068FA206110BDB8
:103B90002DE9F04F87B0002543F63000CDE90555FB
:103BA0000195C4F20200016841F2000741F01001E2
:103BB00001600168C4F2020701F01001019101994E
:103BC00001950168012241F08001016001684FF018
:103BD000010A01F08001019101990195016841F00C
:103BE00002010160016801F0020101910199019552
:103BF000016841F004010160016801F004010191D4
:103C000001990195016841F00101016000684FF4DC
:103C1000FE4100F00100019001983846FEF718F8C7
:103C2000384648F201010022FEF712F8A7F5406677
:103C300030464AF2C0410022FEF70AF8A7F50069B3
:103C400048464FF4706100224FF4706BFEF700F8A5
:103C5000A7F5805840464FF419410022FDF7F8FFC0
:103C60001E2002A902AC81E8210438462146FDF756
:103C700015FF6020CDE90205022004903846214658
:103C8000FDF70CFF4FF60170CDE9020A38462146D8
:103C9000CDE90455FDF702FF4FF49860CDE9020A23
:103CA00030462146CDE90455FDF7F8FE4FF420409B
:103CB00002901120CDE90305304621460595FDF718
:103CC000EDFE48462146CDE902BACDE90455FDF79F
:103CD000E5FE4FF41940CDE9020A40462146CDE900
:103CE0000455FDF7DBFE07B0BDE8F08FB0B594B02A
:103CF00040F2883040F200450021C2F2000040F25C
:103D0000E733C4F200050E91CDE90C110991CDE91C
:103D10000711CDE90511CDE90311CDE901115322B8
:103D2000C0E9021301618021C0E900528161FEF700
:103D3000DDFB002818BFFDF797FE4FF480500B9075
:103D400040F28830C2F200000BA9FEF76FFC002899
:103D500018BFFDF789FE40F28830C2F20000FEF77E
:103D600001FF002818BFFDF77FFE40F288300024D5
:103D7000C2F2000008A9CDE90844FEF75BFB002869
:103D800018BFFDF771FE6020CDE90104039405948E
:103D900040F28834C2F2000401A920460022FEF756
:103DA000CFFD002818BFFDF75FFE2068A84201D0B4
:103DB00014B0B0BD002043F630010F90C4F20201F0
:103DC0000A6842F002020A60096801F002010F91DC
:103DD0000F9910210F910221CDE91010CDE91201A8
:103DE00005F500300FA9FDF759FE14B0B0BD000075
:103DF00080B540F2184041F20001C2F20000C4F266
:103E0000010100234FF00C0C4FF4E13280E80E006A
:103E1000C0E90333C0E905C3C361FEF7C1FF002851
:103E200008BF80BDBDE88040FDF71EBEFEE7000074
:103E3000FEE700000000000000000000000000009D
:103E4000EFF30980BFF36F8F154B1A681EF0100F48
:103E500008BF20ED108A20E9F04F10602DE909001D
:103E60004FF0500080F31188BFF34F8FBFF36F8F77
:103E700007F062FA4FF0000080F31188BDE80900F6
:103E800019680868B0E8F04F1EF0100F08BFB0ECDA
:103E9000108A80F30988BFF36F8F704700BF00BF9F
:103EA000640100200000000000000000000000008D
:103EB000074B19680868B0E8F04F80F30988BFF332
:103EC0006F8F4FF0000080F31188704700BF00BF74
:103ED0006401002010B54FF47A7004F075F801F019
:103EE000EBFFFFF733FD40F25C44C2F20004010631
:103EF000207001D010BD00BFFA2004F065F8FFF774
:103F000025FD01062070F5D1FA2004F05DF8FFF7D9
:103F10001DFD0106207018BF10BDFA2004F054F8F2
:103F2000FFF714FD207010BD10B540F2B824C2F2A6
:103F300000042078002808BFFFF762FBA07928B1B1
:103F4000FA200521FDF74EFA0020A07101F0C2F918
:103F5000FDF77AFA6079BDE8104000F073B8000010
:103F6000B0B541F20004C4F2020420460221FDF77C
:103F700069FEB0FA80F0450920460421FDF762FE93
:103F8000002820464FF0080108BF0235FDF75AFE11
:103F9000002820464FF0100108BF0435FDF752FEFF
:103FA000002820464FF0200108BF0835FDF74AFEE3
:103FB000012820464FF0400108BF45F01005FDF7ED
:103FC00041FE40F29C21C2F20001012808BF45F0E9
:103FD00020050A79280623D0E8B2904220D14879FA
:103FE0000130C3B2022B48711CD14FF0FF3050FAA0
:103FF00085F31F2B16D80120DFE803F01B10141CDB
:104000001414141E1414141414141420141414145A
:104010001414141414141414141414220320B0BD12
:1040200000204871E8B2904204BF0020B0BD0020DB
:104030000D71B0BD0420B0BD0220B0BD0520B0BDE3
:104040000620B0BDF0B581B041F200040127C4F2F2
:104050000204054646B227EA000220464FF480716A
:10406000FDF7F6FD27EA550220464FF40071FDF7F3
:10407000EFFD27EA950220464FF48061FDF7E8FD49
:1040800027EAD50220464FF40061FDF7E1FD27EA5B
:10409000151220464FF48051FDF7DAFD27EA55123C
:1040A00020464FF40051FDF7D3FD27EA9512204634
:1040B0004FF48041FDF7CCFD0022B6F1FF3FC8BFB1
:1040C000012220464FF4004101B0BDE8F040FDF769
:1040D000BFBD0000FFF7FEFEFFF7FEF9052003F06D
:1040E00073FFF9E700F04EFA40F25C44C2F20004BC
:1040F000207828B9012003F067FF20780028F9D044
:1041000000F070FD012003F05FFFF9E740F25C442E
:10411000C2F20004207828B9012003F055FF20786E
:104120000028F9D040F2283440F2BC25C2F2000445
:10413000C2F2000505E000BF00F062FD012003F0BF
:1041400043FF207829780843F6D001F043F8F5E7DB
:1041500040F25C44C2F20004207828B9012003F048
:1041600033FF20780028F9D0FFF7DEFE012003F0AE
:104170002BFFF9E7012003F027FFFBE780B54EF2A4
:104180001000CEF20000006807F024FD012808BFEF
:1041900080BDBDE8804007F0EFB90000B0B592B037
:1041A000002443F64000CDE90A44CDE908440594D3
:1041B000CDE90344CDE901440094C4F20200016852
:1041C000022541F080510160006800F080500090AD
:1041D000009847F200000094C4F20000016841F426
:1041E000804101600068A82100F4804000900098A0
:1041F000012006904FF4803007904FF480000D901E
:1042000004200E90119006A80C95CDE90F15FDF72E
:1042100053FF28B1EFF3108072B600BFFEE700BF76
:104220000F20CDE901054FF4A05004904FF48050C9
:10423000059001A805210394FDF710FE20B1EFF3CE
:10424000108072B6FEE700BF12B0B0BD4EF68850C7
:10425000CEF20000016841F4700101607047000077
:1042600040F2D030C2F20000FEF7B0BA10B540F60E
:10427000FF3E0368C4F2000E40F2004C7045C4F2E9
:10428000010C27DCB0F1804F31D040F20042C4F283
:10429000000290422BD040F60002C4F2000290428D
:1042A00025D041F6FF72C4F20002904229DC70452D
:1042B0003CDCB0F1804F5FD040F20042C4F200021B
:1042C000904259D040F60002C4F20002904253D00E
:1042D00056E000BF40F60042C4F20002904206D011
:1042E000604504D00022C4F201029042D9D14A684C
:1042F00023F07003134341F6FF72C4F200029042B0
:10430000D5DD43F6FF72C4F20102904222DC42F294
:104310000002C4F2000290422ED00022C4F2010238
:10432000904229D0604527D02AE000BF40F60042E5
:10433000C4F2000290421FD041F60002C4F2000213
:10434000904219D041F60042C4F20002904213D0CC
:1043500016E000BF44F20002C4F2010290420BD00A
:1043600044F60002C4F20102904205D044F2004239
:10437000C4F20102904203D1CA6823F4407313438C
:1043800023F080024B69D1F800E08C681A43026088
:10439000C46240F48062C0F828E0624504BF096945
:1043A00001630121416110BD10B504460068D4E9E4
:1043B00002C22369016921F440511143016162691C
:1043C00043EA0C01E3691143C268194349F20C63E3
:1043D0009A431143C1604169A26921F4407141F2DD
:1043E0000043114340F48062C4F201039A424161E8
:1043F00002D1FDF717FE01E0FDF700FEE1696368F9
:104400001922B1F5004FA0FB020123D15A00DB0FA6
:10441000FBF742FF48F21F51C5F2EB11A0FB01234D
:104420005A094FF69C73C0F6FF7303F1805302FBE9
:104430000300322303EBC000A0FB01014FF4F8702E
:1044400000EA111000EB0210C1F342110844216888
:10445000886010BD9A009B0FFBF71EFF48F21F51AA
:10446000C5F2EB11A0FB01235A094FF69C73C0F66D
:10447000FF7302FB0300322303EB0010A0FB0101DA
:10448000F02000EA511000EB0210C1F34311084480
:104490002168886010BD0000B0B540F2B825C2F2B6
:1044A0000005A878042888BFB0BDDFE800F0031F2E
:1044B0002B37430040F6B414C2F200042FA3204669
:1044C00034210C2204F0E8FF05F120032046552199
:1044D0000C2204F0D9FF4EF62A63C0F600032046F2
:1044E0006E210C22BDE8B04004F0D6BF40F6B410F7
:1044F000C2F200001EA334210C22BDE8B04004F03B
:10450000CBBF00BF40F6B410C2F2000015A33421A7
:104510000C22BDE8B04004F0BFBF00BF40F6B410AD
:10452000C2F200000CA334210C22BDE8B04004F01C
:10453000B3BF00BF40F6B410C2F2000003A33421A1
:104540000C22BDE8B04004F0A7BF00BF3344E7AB86
:104550008BE4BD93E59BBE00E888AAE59091E8A7AF
:10456000923A0000E6A8AAE6BB9AE8A7923A0000B1
:10457000E4BFAFE4BBB0E8A7923A0000E6B8A9E513
:10458000BAA63A0080B540F6B410C2F2000004F0BA
:1045900095FB40F2B820C2F200004FF03C11816060
:1045A00080BD000070B582B040F2B825C2F20005AF
:1045B000A878022866D0012832D0002840F0B381C4
:1045C00040F6B414C2F20004DEA3204634210D22CA
:1045D00004F062FF05F1200320465A211C2204F05A
:1045E00053FF4EF62A63C0F60003204673211C22B7
:1045F00004F052FFD7A3204634212B2204F04CFFB5
:1046000028795A21002840F6B410C2F2000014BFE5
:10461000D4A3D5A33A2202B0BDE8704004F03CBF59
:1046200040F6B414C2F200044FF60866C2A3204656
:104630003C210A22CFF6FF7604F02EFF05F1250378
:10464000204650210A2204F01FFF40F25620C2F2F9
:104650000000B0F90020B0F90010B2F5FC7F45DD94
:1046600001EB8110C11700EB5140C0F3CF3340F68E
:10467000B4100624C2F200003C210D22009404F084
:1046800045FB49E040F6B414C2F200044FF6086658
:10469000A6A320463C210A22CFF6FF7604F0FCFEBA
:1046A00005F14303204650210A2204F0EDFE40F2BA
:1046B0005020C2F20000B0F90020B0F90010B2F5AD
:1046C000FC7F40F3A38001EB8110C11700EB514048
:1046D000C0F3CF3340F6B4100624C2F200003C21F0
:1046E0000D22009404F012FBA6E000BFB14213DAE1
:1046F000B0F90000062400EB80104042C11700EB27
:104700005140C0F3CF3340F6B410C2F200003C2158
:104710000D22009404F0C0FB40F6B414C2F2000471
:1047200086A320463C211E2204F0B6FE05F12F038D
:10473000204650211E2204F0A7FE40F25820C2F26B
:104740000000B0F90020B0F90010B2F5FC7F11DDD7
:1047500001EB8110C11700EB5140C0F3CF3340F69D
:10476000B4100624C2F200003C212122009404F07F
:10477000CDFA15E0B14213DAB0F90000062400EBDF
:1047800080104042C11700EB5140C0F3CF3340F6D8
:10479000B410C2F200003C212122009404F07CFB02
:1047A00040F6B414C2F2000465A320463C21322234
:1047B00004F072FE05F1390320465021322204F044
:1047C00063FE40F25A20C2F20000B0F90020B0F9B6
:1047D0000010B2F5FC7F00F38F80B14280F2A3801D
:1047E000B0F90000062600EB80104042C11700EB34
:1047F0005140C0F3CF3340F6B410C2F200003C2168
:104800003522009604F048FB02B070BDB14213DAC5
:10481000B0F90000062400EB80104042C11700EB05
:104820005140C0F3CF3340F6B410C2F200003C2137
:104830000D22009404F030FB40F6B414C2F20004E0
:104840003BA320463C211E2204F026FE05F14D0329
:10485000204650211E2204F017FE40F25220C2F2E0
:104860000000B0F90020B0F90010B2F5FC7F11DDB6
:1048700001EB8110C11700EB5140C0F3CF3340F67C
:10488000B4100624C2F200003C212122009404F05E
:104890003DFA15E0B14213DAB0F90000062400EB4E
:1048A00080104042C11700EB5140C0F3CF3340F6B7
:1048B000B410C2F200003C212122009404F0ECFA72
:1048C00040F6B414C2F200041AA320463C2132225E
:1048D00004F0E2FD05F1570320465021322204F096
:1048E000D3FD40F25420C2F20000B0F90020B0F92C
:1048F0000010B2F5FC7F13DD01EB8110C11700EB56
:104900005140C0F3CF3340F6B4100626C2F2000087
:104910003C213522009604F0F9F902B070BD00BFC9
:10492000B142FFF65DAF02B070BD00BF47583A001C
:1049300047593A00475A3A0041583A0041593A001B
:10494000415A3A00E5BD93E5898DE6B8A9E5BAA6D6
:104950003A000000E99C87E58AA8E68AA5E8ADA6AA
:104960003A000000E69C8900E697A0002DE9F0419E
:104970002DED028B88B040F29808C2F2000840F694
:10498000B414D8F80030C2F20004204634210D22BD
:1049900004F082FDD8F80830204634211C2204F0AF
:1049A0007BFDD8F81030204634212B2204F074FD12
:1049B000D8F81830204634213A2204F06DFD40F238
:1049C0002407C2F200074EF6E5553A78C0F6000516
:1049D0000DF11B0630462946FBF71CFD20466821D9
:1049E0000D22334604F050FD4EF62A63C0F6000354
:1049F000204675210D2204F04FFD7A780DF1160640
:104A000030462946FBF706FD204676211C22334618
:104A100004F03AFDBA780DF1110630462946FBF74D
:104A2000F9FC20466C212B22334604F02DFD4EF676
:104A30002865C0F6000520467A212B222B4604F07B
:104A40002BFD97ED028A18EE100A09F0A9F9B2EED3
:104A5000040A02460B465EA05FA1B4EE408A0DF147
:104A60000B06F1EE10FAB8BF01463046FBF7D2FC58
:104A7000204668213A22334604F006FD20467A217A
:104A80003A222B4604F008FD97ED090A97ED0A1A21
:104A900097ED0B2A9FED523AB8EEC00AB8EEC11A54
:104AA00081EE031A80EE030AB8EEC22A82EE032AD0
:104AB00040F2B825C2F20005E878B5F91220C0EB43
:104AC000001102312982891A97ED0D4A05EE101A5C
:104AD000B8EEC55A97ED0E6A34EE054A35EE466AD1
:104AE00021EE041A20EE050A30EE010A22EE061A23
:104AF00031EE000A01EE102AB8EEC11A30EE010ABA
:104B0000BDEEC00A10EE101A97ED0F0A97ED101ABD
:104B100097ED112AB8EEC00AB8EEC11A81EE031A59
:104B200080EE030AB8EEC22A82EE032A08EBC00028
:104B300000796982B5F91610C0F18000A882401A88
:104B400087ED0D4A03EE100A97ED134A87ED0C5AD4
:104B500087ED0E5AB8EEC33A97ED145A34EE034A75
:104B600033EE455A21EE041A20EE030A30EE010A14
:104B700022EE051A31EE000A01EE101AB8EEC11A43
:104B800030EE010ABDEEC00A10EE100AE88220469F
:104B9000022187ED123A87ED134A87ED143A04F0AB
:104BA0008FFDE878E98A08EBC0006A8A03790E2055
:104BB000002700902046019704F004FB20460121C5
:104BC00004F07EFD08B0BDEC028BBDE8F08100BFB3
:104BD000252E316600000000252E30660000000002
:104BE00000007A4440F2B820C2F2000000780028A9
:104BF00018BF00F0F3B900F037B900000000000062
:104C000070B5FFF7ADF9013805286BD8DFE800F083
:104C1000041424344C6000BF40F2B820C2F20000FB
:104C200001780022002982705CD0012940F0828046
:104C30000421017070BD00BF40F2B820C2F2000034
:104C400001780022002982704CD0042940F076803F
:104C50000121017070BD00BF40F2B820C2F2000017
:104C6000017811F0FB0F3FD08278002A00F07280AB
:104C7000511E817070BD00BF40F2B820C2F200002A
:104C8000017811F0FB0F43D040F22402C2F200027F
:104C900002EBC10191F851208178013A8A4240F338
:104CA00079800131817070BD40F2B820C2F20000FD
:104CB0000178042946D0002918BF70BD0121018068
:104CC0004FF48071A0F805100021C0E9061170BDF5
:104CD00040F2B820C2F20000017800291EBF002176
:104CE0000170817070BD00BF0429FBD1C07803281A
:104CF000F8D8DFE800F0033B475300BF40F2240040
:104D0000C2F2000001785A2918D10021017070BD4B
:104D10000429E7D1C0780328E4D8DFE800F0035B7A
:104D2000677100BF40F22400C2F200000178002940
:104D300000F08C800139017070BD00BF013101703D
:104D400070BD00BFC17803290CBF00210131C170C3
:104D500070BD00BF40F22402C2F2000202EBC101AA
:104D600091F851100139817070BD00BF40F22400EC
:104D7000C2F20000417809290CBF002101314170C5
:104D800070BD00BF40F22400C2F2000081783C29CF
:104D90007FF487AF0021817070BD00BF40F2240412
:104DA000C2F2000494ED020AB2EE041AB4EE410A13
:104DB000F1EE10FA3ADA10EE100A08F0F1FF9FED6A
:104DC000260B53EC102B08F04DFA08F019FAA060EE
:104DD00070BD00BF40F22400C2F2000041780029FB
:104DE0000CBF09210139417070BD00BF40F22400A1
:104DF000C2F2000081780029B4D13C21817070BDDD
:104E000040F22406C2F20006B06808F0C9FF9FED28
:104E1000120B044653EC102B0D4609F001F848B96B
:104E20000020C4F22010B06070BD00BF0020A06060
:104E300070BD00BF9FED0A0B204653EC102B294696
:104E400008F010FA08F0DCF9B06070BD5A2101706A
:104E500070BD00BF00BF00BF9A9999999999B93F59
:104E60009A9999999999B9BF70B582B040F6B414DE
:104E7000C2F200044CF2CE01C0F60201204604F05A
:104E800025FC204603F036FF40F2B820C2F20000B5
:104E9000407802281AD001283ED0002858D140F688
:104EA000B414C2F200043FA320461F210F2204F0D5
:104EB000F3FA40A320461721232204F0EDFA41A380
:104EC00020460721372204F0E7FA41E047F2581064
:104ED00040F6B414C0F60500C2F200043C2601906E
:104EE0002046022100223C23009604F019FB3F25B6
:104EF00020463F2100223F23009504F0D9F847F2D5
:104F00003835C0F605052046412100223C23009695
:104F1000019504F005FB1BE040F6B414C2F2000456
:104F200010A3204600210F2204F0B6FA12A3204657
:104F300037211E2204F0B0FA12A3204600212D22B0
:104F400004F0AAFA14A3204637213C2204F0A4FA64
:104F500040F6B410C2F2000002B0BDE8704004F0A8
:104F6000A5BB00BFE68890E5919831EFBC9AE78E2B
:104F70008BE5AD90E8B1AA003231303431343238AB
:104F800000000000E68890E5919832EFBC9AE69D1B
:104F9000A8E4BDB3E7BFB00032313034313433322E
:104FA00000000000E4B893E4B89AE5AE9EE8B7B517
:104FB00000000000E7BBBCE59088E8AEBEE8AEA10B
:104FC000E285A100E998B2E781ABE998B2E79B9747
:104FD000E79B91E6B58BE599A800000070B582B01B
:104FE00040F6B414C2F200044FF20C11C0F60001F6
:104FF000204604F06BFB204603F07CFE40F22405C3
:10500000C2F200056B6D204602210C2204F044FA26
:10501000EB6D204602211C2204F03EFA6B6E204606
:1050200002212C2204F038FAEB6E204602213C22A9
:1050300004F032FA95ED030A95ED041A95ED052A70
:105040009FED343AB8EEC00AB8EEC11A81EE031AE9
:1050500080EE030AB8EEC22A82EE032A40F2B82696
:10506000C2F2000630786FF00F0101EB0010B6F9C4
:105070000E10B081401A95ED073A04EE100AB8EE12
:10508000C44A95ED085A33EE043A34EE455A21EEFF
:10509000031A20EE040A30EE010A22EE051A31EE60
:1050A000000A01EE101AB8EEC11A30EE010ABDEE88
:1050B000C00A10EE100AF0812046022185ED064A52
:1050C00085ED073A85ED084A04F0FAFAF289AB88D3
:1050D000102620460021009603F018FE20460121EC
:1050E00004F0EEFA3F25204600210022002300951F
:1050F00003F0DEFF2046322100223223009503F028
:10510000D7FF00F009F8204602B0BDE8704004F077
:10511000CDBA00BF00007A4410B582B040F6B4109A
:105120004FF20C11C2F20000C0F6000104F0CEFAFA
:1051300040F2B824C2F200042078042806D00228E5
:1051400008D0012808D1FFF72DFA05E0FFF70EFC83
:1051500002E000BFFFF7A0F940F224012278C2F27A
:10516000000101EBC20191F85110A0784B22B2FB73
:10517000F1F3013981421ABF342110FB031083F08F
:105180007F00208104206189009040F6B4104FF028
:10519000000CC2F200003C22CDF804C004F0ECF890
:1051A000B4F90810B4F90A00884205DA0A1A012194
:1051B000052AC8BF0A2108E009DD421A6FF009017B
:1051C0000931052AC8BF6FF009010844608102B0A7
:1051D00010BD000010B502F007FF40F29C24C2F29F
:1051E0000004A169884201D210BD00BFA17800F57A
:1051F000FA70A06151B300F037F868B3E07801307D
:10520000C1B20629E07038BF10BD40F2283000223C
:10521000C2F20000027040F2BC20C2F20000027034
:1052200040F20800C2F200004FF44871016040F201
:105230008830E270C4E90422C2F200000021A4F820
:105240000120BDE81040FDF749BD00BF00F00CF89B
:1052500030B10120A07010BD0020608010BD00BFE3
:10526000A0780128C0D1C6E710B541F20004C4F20D
:10527000020420460221FCF7E5FC28BB204604215D
:10528000FCF7E0FC00BB20460821FCF7DBFCD8B9AA
:1052900020461021FCF7D6FCB0B90A20FCF7EAFB47
:1052A00020460221FCF7CEFC70B920460421FCF711
:1052B000C9FC48B920460821FCF7C4FC20B92046A7
:1052C0001021FCF7BFFC08B1002010BD012010BD6B
:1052D000FEE70000F0B581B040F2283540F2BC2670
:1052E000C2F20005C2F200062878317840F25D442F
:1052F0000843C2F2000453D002F076FE40F29C2133
:1053000040F22603C2F20001C2F20003CA681B7811
:105310004FF47A7713FB0727B84247D202F064FEB6
:1053200041F25971381ACDF2B711A0FB0112510B9D
:105330004CF6CD42CCF6CC42A1FB023C44F6D35312
:10534000C1F26203A0FB0336B309A3FB026E48F26D
:105350001F56C5F2EB16A0FB06677F09A7FB026587
:10536000A0FB0206F608A6FB02024FEADC0000EBF7
:105370008000A1EB40004FEADE0101EB8101A3EBCD
:1053800041016170E90801EB8101A7EB4101A170C6
:10539000D10801EB8101A6EB41012070E1701AE018
:1053A0004FF020302060202015E000BF002030703A
:1053B0002870C1E9040040F20802487040F28830C9
:1053C000C2F200024FF44873C2F2000000211360E1
:1053D000FDF784FC2078C1B20020002200F01EF806
:1053E000012002F0F1FD61780120012200F016F8A1
:1053F000012002F0E9FDA1780220002200F00EF861
:10540000012002F0E1FDE1780320002200F006F81F
:10541000012001B0BDE8F04002F0D6BD2DE9F04119
:105420000024C4F2020416460F468046002A204695
:105430004FF480514FF0000218BF0126FCF708FC22
:1054400007F00F0064A1085C4FF4006140EAC61544
:10545000204600220F2F88BF0025EEB2FCF7F8FB94
:10546000F20904F5006630464FF48071FCF7F0FB5A
:1054700020464FF400610122FCF7EAFB20464FF47E
:1054800000610022FCF7E4FBC5F3801230464FF4C4
:105490008071FCF7DDFB20464FF400610122FCF730
:1054A000D7FB20464FF400610022FCF7D1FBC5F387
:1054B000401230464FF48071FCF7CAFB20464FF48F
:1054C00000610122FCF7C4FB20464FF4006100227A
:1054D000FCF7BEFBC5F3001230464FF48071FCF7B9
:1054E000B7FB20464FF400610122FCF7B1FB2046D8
:1054F0004FF400610022FCF7ABFBC5F3C00230465D
:105500004FF48071FCF7A4FB20464FF400610122A8
:10551000FCF79EFB20464FF400610022FCF798FB4D
:10552000C5F3800230464FF48071FCF791FB2046B2
:105530004FF400610122FCF78BFB20464FF4006121
:105540000022FCF785FBC5F3400230464FF4807122
:10555000FCF77EFB20464FF40061012205F00107B5
:10556000FCF776FB20464FF400610022FCF770FB4D
:1055700030464FF480713A46FCF76AFB20464FF400
:1055800000610122FCF764FB20464FF48071002289
:10559000FCF75EFB20464FF480710122FCF758FBBC
:1055A00008F0010220464FF40041FCF751FBC8F31C
:1055B000400230464FF48061FCF74AFB30464FF41E
:1055C00000610022FCF744FB20464FF48051012289
:1055D000BDE8F041FCF73CBB3F065B4F666D7D07C5
:1055E0007F6F777C395E79712DE9F04186B0044692
:1055F0004CF60220C0F6E3100DF10205CDF80200D2
:10560000682004212A4602F0ADFCA3206FF03F0180
:105610008DF8020014F0400608BF6FF05C016FF0D7
:1056200037026FF03D0308BF6FF05C0208BF6FF0F8
:105630005C038DF803106FF03B018DF804208DF8AA
:10564000053014F4C07708BF6FF05C016FF03302CF
:105650006FF0390308BF6FF05C0208BF6FF05C03A6
:105660008DF806104AF2A3318DF80720ADF8091025
:105670008DF80B0040F6A7200A212A468DF8083045
:1056800002F070FC202014F0030808BF6FF0270020
:105690008DF8020040F6B62001212A4602F062FC95
:1056A000A0060BD4C720059048F6B000CCF2C3503A
:1056B00004904AF6B820CAF6AA200AE05D200590B8
:1056C00049F6B400C3F20D5004904AF6B820C8F66B
:1056D000B350039003AA4FF49760092102F042FCF3
:1056E0002FB36FF04D016FF0740214F4807008BF97
:1056F0006FF04F0108BF6FF07F026FF049036FF04A
:10570000640508BF6FF04B03002808BF6FF06F05FA
:105710008DF802108DF803200DF1020240F6A22050
:1057200004218DF804308DF8055002F01BFCE007D1
:1057300008D1D8208DF802000DF102024FF40B6061
:10574000012150E0F8208DF802000DF102024FF423
:105750000B60012102F006FC0720FA2100F006FB95
:105760003F208DF80C0003AA4FF4A470012102F031
:10577000F9FB00208DF80C0003AA40F24F10012124
:1057800002F0F0FB4FF4A050ADF80C0003AA4FF468
:10579000EF70022102F0E6FB4FF4C840ADF80C00B8
:1057A00003AA4FF4ED70022102F0DCFB48F6006022
:1057B000C9F2F900039003AA4FF4AE70042102F07D
:1057C000D1FB4FF40060ADF80C0003AA4FF4AD70AC
:1057D000022102F0C7FB4FF40070ADF80C0003AAE1
:1057E0004FF4AC70022102F0BDFBA0076FF0260061
:1057F00058BF6FF027008DF802000DF1020240F251
:105800003D70012102F0AEFB600752BF4FF08B30BC
:105810004CF2C020CCF2C460039003AA40F698205A
:10582000042102F09FFB01F009FCE00652BF4FF09B
:10583000A33042F62000C3F63000039003AA40F6DE
:105840009E20042102F08EFB01F0F8FB40F240257F
:1058500044F00800C2F20005A88001F0EFFB002E22
:1058600018BF0626002F18BF063614F0140F18BFF5
:1058700046F01006B8F1000F18BF043600202E7055
:1058800006B0BDE8F08100004EF29811C0F60001AC
:1058900040F6F6304FF48062C82301F0BDB9000035
:1058A0002DE9F04F89B01746DDE912920E4600212E
:1058B00040F24028A9F80010C2F2000898F8001041
:1058C0000DF1040B82460846594601F057FB28B1FA
:1058D0004FF0FF3009B0BDE8F08F00BFB8F804C04A
:1058E0001CF0140F4ED09DF805209DF80410BDF853
:1058F000064012049DF8095042EA016122BA41EAC9
:1059000012429DF808303A602A04BDF80A5042EA73
:1059100003622BBA42EA13437B609DF80D309DF879
:105920000C50BDF80E401B0443EA056325BA43EA58
:105930001545BD609DF811509DF8104011FB31F1E7
:105940002D0412FB321145EA046513FB3311BDF837
:10595000120015FB35116FF0885211444FF6FE729C
:1059600000BACFF6FF5245EA10409142F86071D874
:1059700001F064FB0020A9F800004FF0FF3009B0EF
:10598000BDE8F08F00215FEA4C6026D541F00102AE
:105990001BF801001BF8022041F0030342EA00203B
:1059A00041F002021BF802201BF80330308043EA6A
:1059B000022041F0040241F005031BF802201BF80D
:1059C0000330708043EA0220B080B9F8000041F053
:1059D000060140F00800A9F800001CF4C07F18D0B0
:1059E0003BF801000BEB010200BA5388000CAAF847
:1059F000000018BA9288000CAAF8020010BA000C35
:105A0000AAF80400B9F80000063140F07000A9F8C7
:105A100000005FEA8C7029D00BEB01056878EC7808
:105A2000C10709D0D8F8082032B104F00700411CA2
:105A3000C4F3C2009047687800074FF0000005D516
:105A4000D8F80C1011B1A0098847002009B0BDE8B2
:105A5000F08F00BFB9F80000102140F48070A9F861
:105A600000005FEA4C6091D4B7E700BF002009B0A6
:105A7000BDE8F08F10B584B004460DF1020000F0CF
:105A80008FFF40F28030C2F200000088BDF802C0F3
:105A900000F00302430754F822204FF00C0348BFE4
:105AA000524203EA50038106E358C0F3811148BF14
:105AB0005B4254F82110C00548BF49424FEACC3040
:105AC00080FB02C480FB03E280FB01014FEA9C7370
:105AD000800F43EA840C4FEA9E7340EA810EA00DCA
