:020000040800F2
:1000000008A9002059020008094C0008FD3A000820
:10001000054C0008F9150008AD7500080000000047
:100020000000000000000000000000003154000843
:100030005D1A000800000000114C0008695C00080F
:1000400073020008730200087302000873020008BC
:1000500073020008730200087302000873020008AC
:10006000730200087302000873020008730200089C
:10007000730200087302000873020008730200088C
:10008000730200087302000873020008730200087C
:10009000730200087302000873020008730200086C
:1000A000730200087302000873020008730200085C
:1000B000730200087302000873020008730200084C
:1000C000730200087302000873020008730200083C
:1000D000730200087302000873020008730200082C
:1000E000730200087302000873020008730200081C
:1000F000730200087302000873020008730200080C
:1001000073020008730200087302000873020008FB
:100110007302000873020008730200084D5D0008B6
:1001200073020008730200087302000873020008DB
:1001300073020008730200087302000873020008CB
:1001400073020008730200087302000873020008BB
:100150007302000873020008730200087D7400082F
:10016000730200087302000873020008730200089B
:100170007302000873020008730200080000000008
:10018000730200087302000800F002F800F055F84E
:100190000AA090E8000C82448344AAF10107DA45E2
:1001A00001D100F04AF8AFF2090EBAE80F0013F0DF
:1001B000010F18BFFB1A43F001031847E4AC050018
:1001C00004AD0500103A24BF78C878C1FAD85207A8
:1001D00024BF30C830C144BF04680C6070470000C1
:1001E0000023002400250026103A28BF78C1FBD840
:1001F000520728BF30C148BF0B607047662910F016
:10020000D883642900F06A81732900F09A8600205F
:1002100070471FB510F0BBFB00F0EEFE040000209D
:1002200000210FF0E5FC401C6060002000210FF071
:10023000C9FCE0601FBD10B510BD01F02DF81146DE
:10024000FFF7E7FF08F0D4FE01F059F803B4FFF719
:10025000F2FF03BC01F09AF80948804709480047BB
:10026000FEE7FEE7FEE7FEE7FEE7FEE7FEE7FEE766
:10027000FEE7FEE704480549054A064B70470000C3
:10028000395D00088901000808A3002008A90020A2
:1002900008A5002008A5002053EA020C00F06980A0
:1002A0002DE9F04B4FF00006002B1FBFB3FA83F58A
:1002B00003FA05F424FA05F65E4012BF1643B2FABB
:1002C00082F502FA05F4C5F120051EBF22FA05FCED
:1002D00044EA0C04203556EA044C4FEA144418BF93
:1002E000641C4FF000084FF00009904271EB030CC2
:1002F00039D3002919BFB1FA81F701FA07F6B0FA2C
:1003000080F700FA07F6C7F120071EBF20FA07FCA6
:1003100046EA0C062037B6FBF4FCA7EB0507103FB6
:1003200007F01F0BCBF120062CFA06F60CFA0BFB9C
:1003300044BFB3460026202FA4BF5E464FF0000BFB
:100340005BEA060C08BF4FF0010B19EB0B0948EBF9
:100350000608ABFB027C06FB02CC0BFB03CCC01BEC
:1003600071EB0C01C1E70B46024641464846BDE829
:10037000F08B13B5084318BF4FF0FF300146AFF3C1
:100380000080BDE81C40704753EA020C23D010B532
:100390004C1084EA530404D54042C1F1000138BF37
:1003A000491E1B4204D55242C3F1000338BF5B1EF5
:1003B000FFF772FF14F0804F04D04042C1F10001FA
:1003C00038BF491E14F0004F04D05242C3F100035D
:1003D00038BF5B1E10BD13B540424FF0000070EBFC
:1003E0000104B8BF012001F0004100281CBF6FF0DC
:1003F00000414FF0FF30AFF300801CBD0FB4044943
:1004000010B503AA029800F0A1FD10BC5DF814FB22
:10041000181200200FB41CB5074B06AA7B4469468E
:100420000090059800F063FD0020694600F072FD21
:100430001CBC5DF814FB0000F50A000070B5044612
:1004400085690068C10601D5302600E02026C00776
:1004500007D070BDD4E9012130469047206A401C86
:1004600020626D1EF6D570BD70B5044685690078B2
:10047000C00707D170BDD4E9012120209047206A30
:10048000401C20626D1EF6D570BD70B50C46054649
:10049000012A05D02878800600D5EA69002302E009
:1004A000012305E05B1C934202D2E05C0028F9D1F5
:1004B000A869E618C01AA861286A18442862284664
:1004C000FFF7BCFF04E0D5E9012114F8010B9047C8
:1004D000B442F8D32846FFF7C7FF70BD2DE9F041BD
:1004E0000646002410687529314616A510D0AFF3D2
:1004F0000080002802DA404213A507E031688A072D
:1005000001D512A502E0490704D511A5012401E097
:10051000AFF3008000210A2206F1240709E0B0FBB6
:10052000F2FCB0FBF2F302FB1C00303078541846AA
:10053000491C0028F3D123462A463046BDE8F04145
:1005400000F069BA000000002D0000002B00000040
:10055000200000002DE9F0474FF0000A89460446CC
:10056000C0F820A02046E1688847002876D02528DA
:1005700006D0D4E901219047206A401C2062F1E7AF
:10058000E168204600258847C4F81CA006460027DD
:10059000C4F818A02A2E09D030460FF0C1FA38B39B
:1005A00004EB8708303EC8F8186019E059F8041BBE
:1005B000204604EB87029161E1688847012F0646D7
:1005C00018D1E069002820DA25F020051DE0D8F8D0
:1005D000180000EB800006EB40003038C8F8180027
:1005E0002046E168884706460FF09AFA0028EED1C7
:1005F000012F0AD02E2E08D12046E16888477F1CA3
:100600000646022F45F02005C4DBA069002803DA66
:10061000404245F00105A061E80701D025F0100532
:10062000B6B1A6F14100192802D8203645F400657C
:100630004A463146204625604D46FFF7DFFD58B15A
:10064000012806D0ED1D25F0070000F1080989E713
:1006500004E005F1040985E730468AE7206ABDE831
:10066000F08770B5064600F0C7F9046805463046C5
:100670000A22002100F07CFC2C6070BD10B50446FD
:1006800003E008F0F1F8401C09D014F8010B05490B
:100690000028F6D1BDE810400A2008F0E5B84FF078
:1006A000FF3010BD18120020401ECAB210F8011F02
:1006B0008A4202D00029F9D10020704730B50546A2
:1006C0000B462A4613F8014B12F8010B08B1A04261
:1006D000F8D01CB1002802D06D1CF1E7284630BDCF
:1006E00040EA010310B59B070FD1042A0DD310C8AF
:1006F00008C9121F9C42F8D020BA19BA884201D901
:10070000012010BD4FF0FF3010BD1AB1D30703D048
:10071000521C07E0002010BD10F8013B11F8014BFE
:100720001B1B07D110F8013B11F8014B1B1B01D11A
:10073000921EF1D1184610BD10B5431C02E010F80E
:10074000011B71B18107FAD14FF0013202C88C1A36
:100750008C4314EAC211F9D0C01A0A0603D0C01E95
:1007600010BDC01A10BD0A0401D0801E10BD0902C0
:10077000FCD0401E10BD40EA010370B59B072ED18E
:100780004FF00136042A2AD308C810C99D1B9D4387
:10079000121F15EAC61517D0D8B2E1B2401A50EAB6
:1007A000056110D198B2A1B2401A50EA05410AD1B0
:1007B00023F07F4024F07F41401A50EA052102D106
:1007C000180EA0EB146070BDA342DBD018BA21BA9A
:1007D000884201D9012070BD4FF0FF3070BD0AB9C9
:1007E000002070BD10F8013B11F8014B63B1A3422A
:1007F0000AD1521E08D010F8013B11F8014B1BB171
:10080000A34201D1521EEDD1181B70BD032A40F244
:10081000308010F0030C00F0158011F8013BBCF1A2
:10082000020F624498BF11F801CB00F8013B38BFBA
:1008300011F8013BA2F1040298BF00F801CB38BFC8
:1008400000F8013B11F0030300F02580083AC0F0E6
:10085000088051F8043B083A51F804CBA0E808108E
:10086000F5E7121D5CBF51F8043B40F8043BAFF3C1
:100870000080D20724BF11F8013B11F801CB48BF1B
:1008800011F8012B24BF00F8013B00F801CB48BF51
:1008900000F8012B704710B5203AC0F00B80B1E88A
:1008A0001850A0E81850B1E81850A0E81850203AA5
:1008B000BFF4F5AF5FEA027C24BFB1E81850A0E8AE
:1008C000185044BF18C918C0BDE810405FEA827CC8
:1008D00024BF51F8043B40F8043B08BF7047D207DF
:1008E00028BF31F8023B48BF11F8012B28BF20F880
:1008F000023B48BF00F8012B704702F0FF0343EAB8
:10090000032242EA024200F024B84FF00002042918
:10091000C0F0128010F0030C00F01B80CCF1040C2E
:10092000BCF1020F18BF00F8012BA8BF20F8022B62
:10093000A1EB0C0100F00DB85FEAC17C24BF00F808
:10094000012B00F8012B48BF00F8012B70474FF036
:10095000000200B5134694469646203922BFA0E80F
:100960000C50A0E80C50B1F12001BFF4F7AF09071B
:1009700028BFA0E80C5048BF0CC05DF804EB89000C
:1009800028BF40F8042B08BF704748BF20F8022B4F
:1009900011F0804F18BF00F8012B704710B50446C6
:1009A00010F0030F08BF11F0030F40F015804FF057
:1009B000013E121FC0F20E8051F8043BA3EB0E0C57
:1009C0002CEA030C1CEACE1C08BF40F8043BF0D014
:1009D000A1F1040102F10402521E08DB11F8013BEF
:1009E00000F8013B002BF7D11146FFF78EFF2046A0
:1009F00010BD70477047704700487047F8000020EE
:100A000010B5FFF7F9FF006810BD10B50446FFF7F9
:100A1000F3FF046010BD2DE9F0470D46994692465C
:100A2000044600F124080168880604D5E06921F035
:100A30001001216000E00120A84201DD471B00E019
:100A40000027A1697A1902EB0900081AA061207831
:100A5000C00602D42046FFF7F1FC002608E0D4E9E6
:100A600001211AF806009047206A401C761C20627B
:100A70004E45F4DB2078C0060AD52046FFF7DEFCA1
:100A800006E0D4E9012130209047206A401C206212
:100A9000381EA7F10107F4DC07E0D4E9012118F8BA
:100AA00005009047206A401C2062281EA5F1010520
:100AB000F3DC2046FFF7D8FC2078000602D50220A0
:100AC000BDE8F0870120FBE72DE9FF4F0C461E46ED
:100AD0004FF0FF378BB0D2E90001DDF860800A905B
:100AE0008A46C1F30A5505B93D46002108464FF034
:100AF0000000BAF1000F00F4400005DA00EB8000BE
:100B00004FF4400101EA50004FEA9059B9F1010F4A
:100B100000DDB9460A9850EA4A000ED044F610505B
:100B2000A5F2FF3545432F14B8F1000F1ED07542D2
:100B3000291E1EDDC9F100021CE0B8F1010F4FF0C3
:100B4000000001D0302103E0F24305E02154401CB5
:100B5000B042FBDB30460022002121540B99C1F842
:100B60000880C1E900200FB0BDE8F08FBD1B6D1CEF
:100B7000DEE74A4600DA694206A800F017FB06AB3A
:100B800093E8070003AB83E8070050460A990DF08D
:100B9000E7FA8DE80700A0F500501F380090039891
:100BA000002D0ADD42F21F014A460844002303A932
:100BB000039068460DF050FD09E0A0F500504A464C
:100BC0001F38002303A9039068460DF05AFD8DE8F5
:100BD00007000004000C03D04FF0FF30410800E094
:100BE0001046B8F1000F03D00022009215461EE017
:100BF000751E05D400F004FA303262556D1EF9D529
:100C0000B3460122084302D000227F1C04E0207872
:100C1000302801D100227F1E002A099784D01DE0D0
:100C2000112D07DA00F0ECF9303262556D1C50EAF4
:100C30000102F5D1084302D00098C8B10EE00021AE
:100C4000681E05E0235C625C63542254401E491C0C
:100C50008142F7DBAB46A81B401E0990002004F838
:100C60000B000B98099AC0F80880C0E9002B7AE7BE
:100C700011264FF0000857E72DE9F04F884604464B
:100C8000D21D22F0070191B0D1E90001CDE90A019E
:100C90000DF02EFE02460B98C00F01D02D2007E06C
:100CA0002068810701D52B2002E0202101EAC00045
:100CB000032A099001D0072A05DB03464146204656
:100CC00000F0E4F90BE12078800601D5E06900E04E
:100CD0000620B8F1650F814606D0B8F1660F18D02E
:100CE000B8F1670F70D131E00020B9F1110F009019
:100CF00001DB112301E009F101030AAA01A90CA8F3
:100D0000FFF7E2FEDDE90C70002609F101058346DC
:100D100047E001204B4600904FF000470AAA01A986
:100D20000CA8FFF7D1FEDDE90DB00C995D46002659
:100D300010B909F101000D18B9EB050003D4C0F199
:100D4000FF3609F10105A5EB09002BE0B9F1010F10
:100D500001DA4FF001090020B9F1110F0090484667
:100D600001DD112300E003460AAA01A90CA8FFF740
:100D7000ABFEDDE90C704D46002683462078000767
:100D80000AD4AB4500DA5D4601A8012D04DD411906
:100D900011F8011C302907D04F4502DA17F1040F72
:100DA00004DA012082460FE06D1EEEE7002F02DC20
:100DB000ED1B3E4403E0781CA84200DD7D1CB81BFF
:100DC00000F1010A4FF000472078000703D4AA453C
:100DD00001DB4FF0FF3A0021B7F1004F0DF143085E
:100DE0008DF8431024D002202B23002F01DA7F42FC
:100DF0002D230A21021EA0F1010000DC5FB197FB48
:100E0000F1FC97FBF1F201FB1C7C17460CF1300C56
:100E100008F801CDEEE7A8F101000370218809056B
:100E200001D5452100E06521A0F1010800F8011C71
:100E300009980FA9A1EB0807FF1D00B10120411976
:100E400001EBEA70A1693844081A401EA0612078BD
:100E5000C00602D42046FFF7F1FA099828B1D4E978
:100E600001219047206A401C20622078C00622D5CC
:100E70002046FFF7E3FA1EE0002E04DBB34502DD57
:100E800001A8805D00E03020D4E901219047206A6C
:100E9000401C2062761CAAF101005FEA000A0AD118
:100EA00000F0AAF8C0680168405CD4E901219047CD
:100EB000206A401C2062281EA5F10105DCDC07E049
:100EC000D4E9012118F8010B9047206A401C2062E8
:100ED000381EA7F10107F3DC2046FFF7C5FA03200F
:100EE00011B041E601694A1C02610878704700B5FB
:100EF0008FB0CDE901310021059105497944CDE953
:100F0000031011466846FFF725FB0FB000BD000037
:100F1000E5FFFFFF0A6802F8010B0A60704710B591
:100F2000436913B1AFF3008001E0FFF7AEFA01208F
:100F300010BD127800F124010A7000224A700122CB
:100F4000EDE711684FF0FF32E9E70000074B70B59D
:100F50000D467B44FFF7CBFF0446284600F098F986
:100F600010B14FF0FF3070BD204670BD1379000006
:100F70002DE9F04791460F4680460446002614F8B6
:100F8000015B2DB100F030F80068405DC007F6D17C
:100F90002B2D02D02D2D18D0641E4A4639462046EE
:100FA00000F0B4F827B13968A14201D1C7F8008038
:100FB0004FF0020471050BD54042002803DDFFF716
:100FC0001BFD0460A007BDE8F08746F48066E4E7F7
:100FD0000028F8DAFFF710FD04606FF00040F2E738
:100FE00000487047F800002010B500F005F8001D1B
:100FF00010BD00BFFDEB0000004870471801002045
:1010000030B5B0F10A0271F100034FEA900E4EEADA
:10101000817EB0EB0E0061EB91014FEA101E4EEAAB
:10102000017E10EB0E0041EB11114FEA102E4EEA3B
:10103000016E10EB0E0041EB11214FEA104E4EEA0B
:10104000014E10EB0E0041EB1141401841F100013F
:101050004FEAD00040EA41704FEAD1014FEA8104E3
:1010600044EA907410EB800544EB01046D1944EBE5
:101070000404521BA3414FF0000348BF0A3200D5BD
:1010800030BD401C41F1000130BD00002DE9F041B0
:101090001F46044603260168072A01F4006004DBAA
:1010A00008B116A505E016A503E008B115A500E0F6
:1010B00015A521F010002060A069C01EA0610FB12D
:1010C000401EA0612046FFF7B9F94FB1D4E90121D4
:1010D00038469047206A401C2062C01C206206E00F
:1010E000206AFAE7D4E9012115F8010B9047761E32
:1010F000F8D22046FFF7B8F9BDE8F0814E414E0026
:101100006E616E00494E4600696E66002DE9F05F23
:10111000824615468B4600270AF10104B94600783D
:10112000302801D09DB113E014F8010B0127782875
:1011300003D0582801D045B10AE00DB1102D07D1D8
:10114000002714F8010B102502E0082500E00A250D
:101150000026B0460EE005FB080005FB06F101275E
:101160001FFA80F801EB1046B6F5803F00D3B94670
:1011700014F8010B294600F0B4F80028EBDABBF1B3
:10118000000F05D00FB1641E00E05446CBF80040BC
:10119000B9F1000F06D0FFF72FFC02210160C81E35
:1011A000BDE8F09F48EA0640FAE700002DE9F04765
:1011B000814616468AB0354878440DC88DE80D0042
:1011C00032487844801C03AC0DC884E80D0041F619
:1011D0009B300844372190FBF1F290FBF1F5A5F12B
:1011E000800501FB12041B3C02D56442012000E093
:1011F0000020DFF898A080460027FA44AAF1BE0A32
:101200000EE0E0070AD03246684607EB47010123AB
:101210000AEB81010DF035FA8DE8070064107F1CA0
:10122000002CEED1194F7F44AE3F19E0E80715D0EE
:1012300007EB04100DF1180A90E80E008AE80E0082
:10124000C068F04201D1981908903246012306A9DE
:1012500003A80DF016FA03AB83E807006D10641CB9
:10126000002DE3D14FF0010332466946B8F1000F7B
:1012700003A802D00DF0F0F901E00DF002FAC9E97F
:101280000001C9F808200AB0BDE8F08790FA000014
:10129000007B00F0800070477546FFF7A1FEAE4668
:1012A00005006946534620F00700854618B020B572
:1012B000FEF7E0FFBDE820404FF000064FF00007CA
:1012C0004FF000084FF0000BAC46ACE8C009ACE8AA
:1012D000C009ACE8C009ACE8C00921F007018D469F
:1012E00070473A2800D2303820F02002412A01D33A
:1012F000A2F13700884201D34FF0FF30704710B59C
:101300000446AFF300802046BDE81040FEF79EBFC4
:1013100030B44FF0013C50F8042B51F8043BCCFAA8
:1013200052F4D51A20D1FCB950F8042B51F8043BE3
:10133000CCFA52F4D51A17D1B4B950F8042B51F89D
:10134000043BCCFA52F4D51A0ED16CB950F8042BE8
:1013500051F8043BCCFA52F4D51A05D1002CDAD05E
:1013600030BC4FF00000704729BAB1FA81F111F09A
:101370001801D1F120008440F2D1CA40CB4012F0D4
:10138000FF0213F0FF0330BCD01A70470149182048
:10139000ABBEFEE72600020070470000B0B541F288
:1013A0004C54C2F200040546204601F0B7FB08F099
:1013B0008DFF40F2E001C2F200018978012D1DD1BC
:1013C000E1B141F27422C2F200021168884252D3A4
:1013D00041F2702CC2F2000C40F27001451D9CF8E5
:1013E0000000C2F200010B680028156044D0981E6E
:1013F000B0F5487F086047D1002243E0022D3AD182
:10140000C9B341F27421C2F200010A68904238BFA8
:10141000B0BD41F26C25C2F200052A6840F29C037F
:10142000C2F2000333F81220C83008607AB144F2E7
:101430004020C0F20F00B0FBF2F02168C862E0600B
:10144000400848632046002101F082FE05E0206844
:101450000121C162E1600021416328684AF6AB21A5
:101460000130CAF6AA21A0FB0112D10801EB41010B
:10147000A0EB81002860B0BD981CB0F5AF6F08608C
:1014800002D101228CF80020086844F24021C0F209
:101490000F01B1FBF0F022684308D062E060204603
:1014A00000215363BDE8B04001F052BE70B541F277
:1014B0004C54C2F20004054620460E4601F02EFBB5
:1014C000701E062888BF70BD0DA030F8160044F2CB
:1014D0004021C0F20F01B1FBF0F02168C862E0606A
:1014E0004008486308F0F2FE41F27E234219C2F23E
:1014F0000003204600211A80BDE8704001F028BE9C
:10150000EE010B024C029402BA0210037003DC03DA
:10151000B0B540F2FC10C2F20000007830B940F2E1
:10152000EB11C2F20001097800294CD018B101205A
:10153000FFF734FF47E041F24C54C2F2000420466A
:1015400001F0ECFA08F0C2FE40F2E001C2F2000144
:101550008978C1B341F27421C2F200010A68904255
:1015600031D341F26C25C2F200052A6840F29C0397
:10157000C2F2000333F81220C83008607AB144F296
:101580004020C0F20F00B0FBF2F02168C862E060BA
:10159000400848632046002101F0DAFD05E020689C
:1015A0000121C162E1600021416328684AF6AB2154
:1015B0000130CAF6AA21A0FB0112D10801EB4101BA
:1015C000A0EB8100286041F27E24C2F20004208852
:1015D000002808BFB0BD08F079FE2188884200D2FB
:1015E000B0BD002241F24C50C2F200000021228026
:1015F000BDE8B04001F044BEFEE700002DE9F04335
:1016000087B0002041F20009059002900120C4F249
:101610000209019003900220049001A9484600F0BD
:101620008FFB4846012100F05BFC50B341F20405FA
:1016300040F268064DF683670020CEF20005C2F244
:101640000006C4F21B3700BF31680446A1FB071235
:10165000910C01912968069128680699019A401A0F
:101660009042F9D34846012100F03AFC18B1632CAE
:1016700004F10100E8D3622C03D9012007B0BDE8D2
:10168000F0834846012100F02BFC18B1002007B080
:10169000BDE8F08341F2040540F268084DF6836727
:1016A0000020CEF20005C2F20008C4F21B3700BFD2
:1016B000D8F800100646A1FB0712910C0191296889
:1016C000069100BF28680699019A401A9042F9D302
:1016D0004846012100F004FC18B9EF2E06F1010084
:1016E000E6D30020EE2E88BF012007B0BDE8F083CE
:1016F0002DE9F04F87B041F2040641F200044DF6A7
:10170000836BCEF20006C4F20204002701250DF11E
:101710000408C4F21B3B4FF0000A4FF0000900BF61
:10172000022005970490204641460397CDE90155D4
:1017300000F006FB20460121002200F0D7FB40F21A
:101740006800C2F200000068A0FB0B01880C00EBEF
:101750008000400001903068069000BF3068069914
:10176000019A401A9042F9D302200597049020462E
:101770004146CDE90157039500F0E2FA20460121E8
:1017800000F0AEFB40F26801C2F200010968A1FB63
:101790000B12910C2D22514301913168069100BF2B
:1017A0003168069A019B891A9942F9D30138B0FA37
:1017B00080F0400900FA0AF00AF1010ABAF1080FB4
:1017C00049EA0009ACD15FFA89F007B0BDE8F08FB3
:1017D000F0B587B0002041F200040590039001208D
:1017E000C4F20204CDE90100022041F20405049094
:1017F00001A92046CEF2000500F0A2FA2046012100
:10180000002200F073FB40F26806C2F20006306866
:101810004DF68367C4F21B37A0FB0701880C40F22A
:10182000EE21484301902868069000BF2868069979
:10183000019A401A9042F9D320460121012200F07A
:1018400055FB3068A0FB0701880C0001A0EB91401C
:1018500001902868069000BF28680699019A401AEE
:101860009042F9D307B0F0BD10B508F02FFD40F25B
:10187000F411C2F200010A68904264D33230086069
:1018800008F024FD40F2F014C2F20004216801F5D2
:101890007A7188421ED908F019FD206006F0A8FF71
:1018A0009FED291AB4EE410AF1EE10FA12DA40F275
:1018B000F810C2F2000080ED000A10EE100A0EF0DF
:1018C000CBFF024641F604400B46C2F200001FA1C6
:1018D000FEF7A0FD08F0FAFC41F60C4441F27062FC
:1018E000C2F20004C2F20002216812681144884268
:1018F00098BF10BD08F0EAFC41F28822C2F2000253
:10190000116820604A290DDC40F2F810C2F2000094
:101910004B1C0068136049F69C72C2F2000242F848
:10192000210010BD49F69C74C2F20004211D20461E
:101930004FF49472FEF7AFFF40F2F810C2F20000CD
:101940000068C4F8280110BD0000FA42252E316657
:10195000000000002DE9F04F87B0044641F2000876
:1019600000270120C4F2020805970397CDE9010082
:10197000022041F20406049001A94046CEF200067E
:1019800000F0DEF940F268094DF68365C2F2000905
:10199000C4F21B356FF0070A4FF03A0B05E000BFA9
:1019A0006408072F07F1010755D2404601210022A4
:1019B00000F09CFAE00727D1D9F80000A0FB050150
:1019C000880C46214843019030680690306806999B
:1019D000019A401A9042F9D340460121012200F0B9
:1019E00085FAD9F80000A0FB05016FF0010000EABC
:1019F000514001903068069030680699019A401A6B
:101A00009042F9D3CCE700BFD9F80000A0FB050154
:101A10000AEAD13001903068069000BF306806991C
:101A2000019A401A9042F9D340460121012200F068
:101A30005DFAD9F80000A0FB0501880C00FB0BF053
:101A400001903068069000BF30680699019A401AEC
:101A50009042F9D3A4E707B0BDE8F08F70470000CB
:101A60002DE9F04F81B02DED088B9AB041F2C020E6
:101A7000C2F200000078002800F0C28008F026FCC6
:101A800049F2DC54C2F200042168884240F2B88076
:101A900008F01CFC40F2E006C2F2000696ED01AA36
:101AA0009FED5A1A00EE100A40F2F810B8EE400A04
:101AB0002AEE011AC2F2000031EE000A0068BCEE04
:101AC000C00A84ED000A0EF0C7FECDE9181041F2FD
:101AD0007820C2F20000B0F90000169041F27A209E
:101AE000C2F20000B0F90000159041F27C20C2F271
:101AF0000000B0F9005041F2EC40C2F20000B0F931
:101B0000007041F2EE40C2F20000B0F9008041F2F4
:101B1000F040C2F20000B0F90000179041F2AC2092
:101B2000C2F2000000680EF097FE41EC180B41F283
:101B3000B020C2F2000000680EF08EFE41EC190BDE
:101B400041F2B420C2F2000000680EF085FE41ECC4
:101B50001B0B40F2FC10C2F2000090F8009040F223
:101B6000EB10C2F2000090F800A096F800B0747874
:101B7000B6781AEE100A0EF06FFE41EC100B0CA8AE
:101B80008DED120B80E8000ECDE90F468DED068B32
:101B90008DED089B8DED0ABB169801A90090159854
:101BA00049F2E05681E8A101C2F2000641F6F811BF
:101BB000199ADDE91773C0F6010130460597FEF763
:101BC00029FC3046FEF7B8FD41F2A822C2F200021D
:101BD00041F2A3211368C2F200010F781844002FCC
:101BE000106004BF0120087049F2E050C2F200000A
:101BF0001AB0BDEC088B01B0BDE8F04F03F00ABE8F
:101C00001AB0BDEC088B01B0BDE8F08F00007A443B
:101C1000EFF3108072B600BFFEE7000010B5ADF51F
:101C2000007D40F27C10C2F200000068694600228C
:101C30000023002408F084FB18B9684603F04AF832
:101C4000012420460DF5007D10BD000010B582B0C6
:101C50001FFA80FE1FFA81FC41F610409CB293B23D
:101C6000C2F2000071466246009409F005FC02B021
:101C700010BD000070B5866D044600F03DF994F883
:101C80003510022925D105462068216C026822F012
:101C900016020260426922F08002426109B9A16C19
:101CA00019B1016821F008010160016821F001010A
:101CB000016000BF20680068C0070ED000F01CF96A
:101CC000401B0628F6D320206065032084F83500E9
:101CD0000CE080206065012008E0E06D3F2101FA02
:101CE00000F0B060012084F835000020002184F865
:101CF000341070BD90F83510022909D1052180F803
:101D000035100068016821F0010101600020704772
:101D10008021416501207047B0B5044600F0ECF821
:101D2000054640F2E800C2F200000078611C18BFCE
:101D3000044400BF00F0E0F8401BA042FAD3B0BD5D
:101D40002DE9F04F82B000F13E4241F6004502F12C
:101D5000FF77C4F2020508224FEAB726A84208BF5F
:101D60000722072E38BF4FEAB7224FF0010A00249E
:101D700000274FF00009009209E000BF09F10109B6
:101D80000237B9F1100F04F1040400F0A6800A68CC
:101D90000AFA09FC12EA0C08F0D0D1F804B00BF0F2
:101DA000030AAAF10102012A12D882680323CE682D
:101DB00003FA07FE22EA0E02BE4032438260426806
:101DC000CBF3001622EA0C0206FA09F6324342600F
:101DD000BAF1030F1DD0C26803238D6803FA07F61A
:101DE000B24305FA07F63243BAF1020FC26010D1CE
:101DF0006FF0030202EA59020244D2F820C004F054
:101E00001C050F230E69AB402CEA0303AE4033439D
:101E10001362026803234E68BB409A4306F0030333
:101E2000BB401A4316F4403F4FF0010A0260A5D0B0
:101E3000002243F644030192C4F202031A6843F6F7
:101E4000004E42F480421A601A68C4F2010E02F495
:101E500080420192019A29F003024FF6084C724425
:101E6000CFF6FF7C52F80C3004F00C060F25B5407D
:101E7000AB43009D05FA06F6334342F80C30DEF81A
:101E800008204B6842EA080643F60C4CDD0258BFB6
:101E900022EA0806CEF80860C4F2010CDCF8002043
:101EA0009D0242EA080658BF22EA0806CCF8006004
:101EB000DEF804209D0342EA080658BF22EA08061D
:101EC000CEF80460DEF80020DB0342EA080658BFC3
:101ED00022EA0806CEF8006050E702B0BDE8F08FB5
:101EE0000069084018BF012070470000002A08BFA1
:101EF000090481617047000049F27460C2F2000079
:101F00000068704740F2E80049F27461C2F20000D4
:101F1000C2F2000100780A681044086070470000AF
:101F200080B543F60040C4F20200016841F400713C
:101F30000160016841F480610160016841F48071D1
:101F40000160032000F0BEF80F2000F005F800F05B
:101F50005BF8002080BD000070B586B0002543F618
:101F600040010195C4F202010A68044642F02002D1
:101F70000A60096801A801F02001019101996946F0
:101F800000F060F9049E002E18BF012600F07AF9D7
:101F90004DF68361B040C4F21B31A0FB01014FF04C
:101FA000FF3000EB914141F2945041F20042C2F205
:101FB0000000C4F2000240F2E733C0E90021C0E9AA
:101FC00002530561856100F05FFD0546C0B941F22D
:101FD0009450C2F2000000F0A1FD054680B9372000
:101FE00000F034F80F2C0AD837202146002200F0E8
:101FF0003DF840F2EC00C2F20000046000E0012570
:10200000284606B070BD000082B0002043F64001B3
:102010000190C4F202014A6842F480424A604A6870
:1020200002F480420192019A00900868002240F078
:102030008050086008680F2100F0805000900098E0
:102040006FF0010002B000F011B80000002848BF96
:10205000704700F01F01012202FA01F14EF2001256
:102060004009CEF2000242F82010704710B54EF63B
:102070000C5CCEF2000CDCF80030C3F3022E8EF0C4
:102080000704042C28BF0424BEF103034FF0FF3ED5
:102090000EFA04F438BF0023A14399400EFA03F36B
:1020A0009A43114300F1604200F00F03090102F569
:1020B0006442043B6344002848BF03F10C021170E2
:1020C00010BD00004EF60C51CEF200010A684FF62A
:1020D000FF031A4060F30A2242F0806040F0FD7076
:1020E000086070472DE9F041002800F08B8043F62E
:1020F0000808C4F202080446D8F8F8030D4600F0B8
:102100000700884207D288F8F853D8F8F80300F09F
:102110000700A84276D12068810717D5410705D569
:10212000D8F8001041F4E051C8F80010010705D5B7
:10213000D8F8001041F46041C8F80010D8F8001039
:10214000A26821F0F0011143C8F80010C0073FD188
:10215000D8F8F80300F00700A84207D988F8F85328
:10216000D8F8F80300F00700A8424BD120684107D7
:1021700007D5D8F80010E26821F4E0511143C8F8FF
:102180000010000708D5D8F80000216920F460404D
:1021900040EAC100C8F8000000F09CF8D8F8001030
:1021A00040F66A42C1F30311C0F60102515C40F2ED
:1021B000680220FA01F140F2EC00C2F2000000686F
:1021C000C2F200021160FFF7C7FE0020BDE8F081F7
:1021D0006068811E022907D258F8081C89015CBF7B
:1021E0000120BDE8F08110E0012807D158F8081C53
:1021F00089035CBF0120BDE8F08106E058F8081CA7
:10220000890702D40120BDE8F081D8F8001021F040
:1022100003010843C8F80000FFF76EFE064641F2CE
:10222000883700BFD8F80000616800F00C00B0EB00
:10223000810F8DD0FFF760FE801BB842F2D90320DA
:10224000BDE8F0810F22026043F60802C4F20202E8
:10225000136803F003034360136803F0F003836023
:10226000136803F4E053C360D2F800C04FF4E053A6
:1022700003EADC030361D2F8F80300F0070008600A
:102280007047000040F2680043F60801C2F2000007
:10229000C4F202010068096840F67A42C1F3822163
:1022A000C0F60102515CC8407047000040F268006F
:1022B00043F60801C2F20000C4F202010068096896
:1022C00040F67A42C1F34231C0F60102515CC84087
:1022D0007047000010B543F60404C4F202046068BD
:1022E00000F00C0142F200400829C0F2F40007D0CF
:1022F000042918BF10BD41F20020C0F27A0010BDC1
:10230000216801F03F02216823684902C3F3881164
:1023100005D4A1FB00010023FDF7BEFF06E041F25A
:102320000020C0F27A004843B0FBF2F0216802229C
:10233000C1F3014102EB4101B0FBF1F010BD00001F
:102340002DE9F04182B0002800F0A1800446007819
:1023500043F60006C007C4F2020643D0B06800F09E
:102360000C00042805D1306880033BD56068C8BBE9
:102370008DE0B06800F00C00082802D170684002BF
:10238000F1D46568B5F5A02F0AD0B5F5803F0BD024
:10239000306820F480303060306820F4802006E01F
:1023A000306840F480203060306840F48030306025
:1023B000FFF7A2FD002D054611D000BF3068800355
:1023C00010D4FFF799FD401B6428F7D920E100BF26
:1023D000FFF792FD401B64284FF0030054D830688B
:1023E0008003F5D4207880071AD5B06810F00C0F60
:1023F00009D0B06800F00C00082840F088807068B0
:10240000400200F184803068800702D5E06801282E
:102410003DD13068216920F0F80040EAC100306009
:102420002078000737D4207840074AD4A56955B3EF
:10243000B06800F00C00082840F09C80012D26D0E8
:102440007068E16900F480028A4220D1216A00F0BC
:102450003F028A421BD147F6C071626A0140B1EB6C
:10246000821F14D1A16A4FF6FF73C903994300F488
:102470004032A1F580318A4209D1E16A00F07060F2
:10248000B0EB016F03D1002002B0BDE8F081012064
:1024900002B0BDE8F0816069002840F20000C4F29B
:1024A000472056D00121C0F8801EFFF725FD0546C4
:1024B000706F8007B7D4FFF71FFD401B0228F7D9C4
:1024C000A6E0306C10F080580AD100200190306CEA
:1024D00040F080503064306C00F0805001900198E2
:1024E00047F20007C4F200073868C00524D43868F2
:1024F00040F480703860FFF7FFFC05463868C0057F
:102500001AD4FFF7F9FC401B0228F7D980E0E068F5
:10251000002851D00020C4F2472001210160FFF7BC
:10252000EBFC0546306880073FF573AFFFF7E4FC2E
:10253000401B0228F6D96BE0A568052D50D0012D6F
:1025400052D0306F20F001003067306F20F004006F
:102550004DE00021C0F8801EFFF7CEFC054600BF0D
:10256000706F80077FF55FAFFFF7C6FC401B022846
:10257000F6D94DE00027C4F2472700203866FFF760
:10258000BBFC022D05460BD13068800158D5FFF702
:10259000B3FC401B02284FF00300F5D974E700BFDD
:1025A000306880017FF56FAFFFF7A6FC401B022863
:1025B0004FF00300F4D967E70020C4F24720002160
:1025C0000160FFF799FC0546306880077FF528AF6A
:1025D000FFF792FC401B02284FF00300F4D953E7A9
:1025E000306F40F004003067306F40F0010030671A
:1025F000FFF782FC002D054641F2883714D000BF5A
:10260000306F800713D4FFF777FC401BB842F7D92F
:10261000032002B0BDE8F081FFF76EFC401BB8421A
:102620004FF003003FF630AF306F8007F4D4B8F1BD
:10263000000F7FF4FBAE306C20F080503064F5E684
:1026400004F11C052FCD084340EA8210D9034FF650
:10265000FF729143A1F5803140EA05600843706044
:1026600001203866FFF748FC044600BF306880014F
:102670003FF509AFFFF740FC001B02284FF00300B5
:10268000F4D901E770B538B10446406A30B1002092
:10269000206104F1140007E0012070BD6068B0F50E
:1026A000827F03D004F11C00002101600026A66295
:1026B00094F8510020B9204684F8506000F03CF8AE
:1026C000022084F8510094E80F0001F4827105683B
:1026D00002F4044225F040050560114403F4006251
:1026E0002369114403F002026369114403F00102FB
:1026F000A369E569114403F40072114405F038023E
:10270000256A114405F08002A56A114305F40052C0
:1027100011430160626A042101EA134102F01002D0
:1027200011444160C16921F40061C1610120666505
:1027300084F85100304670BD80B586B043F2000188
:102740000068C4F20101002288420592CDE903220B
:102750000292019201D006B080BD43F63000009293
:10276000C4F20200436943F480534361436903F4B4
:1027700080530093009B0092036843F001030360C1
:10278000006800F0010000900098E0200190022015
:10279000CDE90202032004900520059001F5504088
:1027A00001A9FFF7CDFA06B080BD00002DE9F04386
:1027B00083B0044690F85000012803D1022003B0F2
:1027C000BDE8F08301201E4615460F4684F85000F0
:1027D000FFF792FB94F85110814601290AD06068F6
:1027E000B0F5827F70D1A06800284FF0020008BFCA
:1027F00004296AD1002F4FF0010018BF002D64D0CA
:10280000002E62D094F85100002104281CBF05203E
:1028100084F851006165A563E687A6872763E6868D
:102820002068A686216461640168490603D40168B2
:1028300041F0400101606168731EE268B1FA81F104
:10284000B3FA83F3DDF8288049095B09B2F5006F1C
:1028500041EA030142D131B137F8021BC16027635D
:10286000E08E0138E086012608F10105E08E10B9FE
:10287000E08F00286ED02068816889070CD5E18E32
:1028800051B1012E08D1216B002631F8022BC26014
:102890002163E18E0139E1868168C9070AD0E18FA1
:1028A00041B1C068A16B012621F8020BA163E08F42
:1028B0000138E087FFF720FB002DD7D0A0EB0900FF
:1028C0004045D3D3032000E00220012184F85110B9
:1028D000002184F8501003B0BDE8F08339B1397895
:1028E0000173206B01302063E08E0138E086012601
:1028F00008F10105E08E08B9E08F58B320688168BF
:1029000089070DD5E18E59B1012E09D1216B002621
:1029100009780173206B01302063E08E0138E08676
:1029200020688168C9070BD0E18F49B1C068A16BED
:1029300001260870A06B0130A063E08F0138E087AA
:10294000FFF7DAFA002DD5D0A0EB09004045D1D32E
:102950000320BAE740F26800C2F20000006849F6BE
:102960008171C1F25E61A0FB0101480D4FF47A71E3
:10297000484302906068B0F5827F0ED120468021E6
:1029800042464B4602F0E8FC80B1606D40F020000A
:10299000606520206065012097E7029830B10298B9
:1029A00001380290206880680006F6D4A0680028EC
:1029B0004FF000007FF489AF01902168CA6801924E
:1029C00089680191019980E7704700007047000015
:1029D00010B590F83C20012A4FF0020252D001239A
:1029E00080F83C3080F83D200268D2F804E0D2F84C
:1029F00008C00C682EF07003234341F2FF74C4F248
:102A00000004A24253600DDC40F2FF73C4F20003E5
:102A10009A4215DCB2F1804F29D040F20043C4F253
:102A2000000322E040F2FF33C4F201039A4212DCB9
:102A300041F60003C4F200039A4218D0002312E0CA
:102A400040F60003C4F200039A4210D040F600435F
:102A5000C4F2000309E044F20003C4F201039A4205
:102A600005D040F20043C4F201039A4204D1496800
:102A70002CF08003194391600121002280F83D1061
:102A800080F83C20104610BD002804BF012070478C
:102A900010B5044690F83D0028B9002084F83C00A9
:102AA000204600F01FF8022084F83D002068211D18
:102AB00003F052F9012084F8460084F83E0084F8BF
:102AC0003F0084F8400084F8410084F8420084F814
:102AD000430084F8440084F8450084F83D00002059
:102AE00010BD000081B0006840F20041C4F2000156
:102AF000884201D001B070470020009043F64000AA
:102B0000C4F20200016841F002010160006800F0B7
:102B100002000090009801B07047000090F83D104E
:102B200001291CBF01207047022180F83D10006878
:102B300041F2FF72C168C4F20002904241F001010B
:102B4000C1600DDC40F2FF71C4F20001884215DC67
:102B5000B0F1804F29D040F20041C4F2000122E0E0
:102B600040F2FF31C4F20101884212DC41F600015B
:102B7000C4F20001884218D0002112E040F60001A2
:102B8000C4F20001884210D040F60041C4F20001B6
:102B900009E044F20001C4F20101884205D040F28C
:102BA0000041C4F20101884206D1816801F00701A9
:102BB000062904BF00207047016841F0010101604F
:102BC0000020704780B590F83C20012A4FF00202A7
:102BD00000F0C280012380F83C3080F83D20D0F81E
:102BE00000C04FF67772DCF8083023EA0202CCF816
:102BF00008200B684F2B28DC1F2B43DD202B44D0F3
:102C0000302B42D0402B40F0A980D1F804E0C968B5
:102C1000DCF82030DCF8202022F00102CCF8202063
:102C2000DCF8182022F0F00242EA011123F00A0237
:102C300042EA0E02CCF81810CCF82020DCF808107C
:102C400041F0470121F030017DE06F2B25DDB3F528
:102C5000005F46D0B3F5805F77D0702B7ED1D1E98D
:102C600001E3C968DCF8082043EA0E0322F47F423E
:102C700043EA01211143CCF80810DCF8081041F0B8
:102C8000770160E00BB1102B68D1DCF8081021F05F
:102C90007001194341F0070155E0502B34D0602BEF
:102CA0005CD1D1F804E0C968DCF8203023F01003CF
:102CB000CCF82030DCF81830DCF8202023F4704306
:102CC00022F0A00243EA013142EA0E12CCF81810B9
:102CD000CCF82020DCF8081041F0670121F0100149
:102CE00031E0D1E901E3C968DCF8082043EA0E03CA
:102CF00022F47F4243EA01211143CCF80810DCF8AA
:102D0000081041F480411EE0D1F804E0C968DCF805
:102D10002030DCF8202022F00102CCF82020DCF862
:102D2000182022F0F00242EA011123F00A0242EADE
:102D30000E02CCF81810CCF82020DCF8081041F076
:102D4000570121F02001CCF808100022012180F861
:102D50003D10002180F83C10104680BD0122F5E7AF
:102D60007047000010B5044600680169890744BF38
:102D7000C1685FEA81713FD420680169490744BF97
:102D8000C1685FEA417143D420680169090744BF03
:102D9000C1685FEA017148D420680169C90644BF6F
:102DA000C1685FEAC1614CD420680169C9071CBFD2
:102DB000C1685FEAC17151D120680169090644BF49
:102DC000C1685FEA016150D420680169490644BFC7
:102DD000C1685FEA41614FD421680869800646BF37
:102DE000C8685FEA806010BD6FF0200220460A616B
:102DF000BDE81040FFF7EABD6FF00201016101215B
:102E00002177806980073ED02046FFF7A9FF40E088
:102E10006FF00401016102212177806910F4407F85
:102E20003AD02046FFF79CFF3CE06FF008010161BB
:102E300004212177C069800737D02046FFF790FF33
:102E400039E06FF01001016108212177C06910F4A9
:102E5000407F33D02046FFF783FF35E06FF001015C
:102E60000161204600F05AFAA6E76FF08001016187
:102E70002046FFF7A9FDA7E76FF04001016120465A
:102E800000F056FAA8E7204600F022F8204600F0AD
:102E90005DF9002020776FE7204600F019F8204602
:102EA00000F054F9002020776EE7204600F010F87B
:102EB000204600F04BF9002020776DE7204600F017
:102EC00007F8204600F042F9002020776CE7000068
:102ED000704700002DE9F04390F83C30012B04BF0F
:102EE0000220BDE8F0834FEAB2020123032A80F8F2
:102EF0003C3000F2F580DFE802F0023E7DBD036861
:102F000040F200471A6A43F4806522F001021A6217
:102F10001C6A1A46D3F804E052F818CF8E6824F0E1
:102F20000204C4F20107BD4244EA060405D1CE689A
:102F300024F00C0426F0040634430E68BD4207D189
:102F4000D1E905572EF4407E45EA0E0545EA070E05
:102F50002CF073073743C3F804E09F614F68096999
:102F60005F631C629F6947F008079F619F6927F0B4
:102F700004079F61B0E0036840F200481A6A43F416
:102F8000806522F010021A621C6A1A46D3F804C047
:102F900052F818EF8F6824F02004C4F20108454568
:102FA00044EA071407D1CF686FF0400624F0C0044C
:102FB00006EA07163443D1F80090454506D1D1E919
:102FC00005562CF440672E4347EA860C2EF4E6475C
:102FD00047EA0927C3F804C09F614F6809699F63E6
:102FE0001C629F6947F400679F619F6927F48067AF
:102FF0009F6170E0036840F200481A6A43F48065FC
:1030000022F480721A621C6A1A46D3F804C052F87D
:103010001CEF8F6824F40074C4F20108454544EAAB
:10302000072408D1CF6840F2FF463F0224F44064F1
:1030300027EA06063443D1F80090454506D1D1E988
:1030400005562CF440572E4347EA061C2EF0730712
:1030500047EA0907C3F804C0DF614F680969DF6305
:103060001C62DF6947F00807DF61DF6927F00407AA
:10307000DF6131E0036840F200451A6A43F480677B
:1030800022F480521A621A46D3F820C05C6852F8C3
:103090001CEFD1F800808E68C4F20105AF4204D164
:1030A0004D6924F4804444EA85142CF4005747EA1F
:1030B00006372EF4E64646EA08265C60DE614E6876
:1030C00009691E641F62DF6947F40067DF61DF6919
:1030D00027F48067DF610902136819430023116038
:1030E000002180F83C101846BDE8F083002804BF9A
:1030F0000120704710B5044690F83D0028B9002023
:1031000084F83C00204600F01FF8022084F83D00BF
:103110002068211D02F020FE012084F8460084F87A
:103120003E0084F83F0084F8400084F8410084F8B1
:10313000420084F8430084F8440084F8450084F891
:103140003D00002010BD00007047000070470000E7
:1031500041B1082909D0042914BF00F1410200F14E
:103160003F0204E000F13E0201E000F1400212786B
:10317000012A1CBF01207047022241B1082909D051
:10318000042914BF80F8412080F83F2004E080F833
:103190003E2001E080F84020006801F01F0101227C
:1031A000036A02FA01F123EA01020262026A0A4397
:1031B00041F2FF71C4F20001884202620FDC40F26A
:1031C000FF71C4F20001884217DCB0F1804F49D092
:1031D00040F20041C4F20001884243D049E040F28D
:1031E000FF32C4F20102904214DC41F60003C4F243
:1031F0000003984236D0002314E040F60001C4F2E8
:10320000000188422ED040F60041C4F200018842FD
:1032100028D02EE044F20003C4F20103984221D0EA
:1032200040F20043C4F20103984222D1436C884229
:1032300043F400434364C2DD904207DC41F60001E1
:10324000C4F2000188420DD0002107E044F20001E1
:10325000C4F20101884205D040F20041C4F20101EC
:10326000884206D1816801F00701062904BF0020C9
:103270007047016841F001010160002070470000C3
:1032800010B5026801F01F0E4FF0010C146A0CFA21
:103290000EF324EA0303136240F20043D2F820C085
:1032A00042F48064C4F201039C42C2F820C00DD1F4
:1032B000136A41F21114234208D1136A40F24444C4
:1032C000234203D1536C23F400435364136A41F245
:1032D0001114234204D1136A40F24444234212D011
:1032E000082916D0042909D000294FF0010114BF84
:1032F00080F8411080F83E10002010BD012180F8B8
:103300003F10002010BD136823F00103136008294B
:10331000E8D1012180F84010002010BD006841F282
:103320000041C4F20001884218BF7047FEF7EABDB1
:103330007047000081B090F83E30202B0BD100295F
:103340004FF0010318BF002A06D090F83C30012B43
:1033500005D1022300E00223184601B07047012383
:10336000036381628285C28500212222016480F884
:103370003E20026980F83C1022B10168CA6842F41C
:103380008072CA6001684A6942F001024A61CA68F3
:1033900042F02002CA60026B012A13D1002200927F
:1033A0000A68009249680091009900BF016851E8DD
:1033B000031F026841F0100142E80313002BF5D10E
:1033C0000023C9E70123C7E770B541F28066C2F266
:1033D00000063268824218BF70BD41F2C225044621
:1033E000C2F2000569B168180022827040F27C10B8
:1033F000C2F200000068298029460022002307F05D
:1034000033F800233068A91C40F2FD1284F83C30E8
:10341000BDE87040FFF78EBF7047000010B504464E
:10342000206850E8030F216820F4907041E80302FF
:10343000002AF5D1206850E8050F216820F001002E
:1034400041E80502002AF5D1206B01280AD100BF0E
:10345000206850E8030F216820F0100041E80302C3
:10346000002AF5D12068406940060BD400202021B5
:10347000E08584F83E1020632046FFF7CDFF002052
:1034800010BD00BF206850E8050F216820F0400003
:1034900041E80502002AF5D1A06B68B145F67571C7
:1034A000C0F600010165FEF725FC0028E7D0A06BFF
:1034B000016D8847002010BD00202021E08584F8A0
:1034C0003E1020632046FFF7A7FF002010BD00003C
:1034D00070470000B0B582B0044600680168C36858
:1034E000426901F02F05202D03F0200506D12DB1F2
:1034F000204602B0BDE8B04002F046BD5FEA017C64
:103500001EBF02F0010E03F4907212EB0E0253D1B3
:10351000226B012A05D111F0100218BF13F010021E
:1035200036D10A0622D513F080021FD094F83D1040
:1035300021293FD1A168B1F5805F03D1216900291C
:1035400000F03F81216A4A1C226209784160E18CC7
:1035500001390A04E1842DD1C16821F08001C160E4
:10356000C16841F04001C16002B0B0BD490621D53B
:1035700013F040011ED0C16821F04001C16020213C
:10358000204684F83D1002B0BDE8B04000F0B4BA67
:1035900000210191016801914168019101994069FF
:1035A000400611D4A08DE18DE28D002A18BF88421B
:1035B00040F0DB8002B0B0BDC80718BF13F48070C4
:1035C00045D1480749D44FE0A06B016849688AB2E9
:1035D000002AEFD0A38D9A42ECD2E185C069B0F504
:1035E000807F30D0206850E8030F216820F480707D
:1035F00041E80302002AF5D1206850E8050F216850
:1036000020F0010041E80502002AF5D1206850E8C9
:10361000050F216820F0400041E80502002AF5D19D
:10362000202084F83E000020206300BF206850E87E
:10363000030F216820F0100041E80302002AF5D1B1
:10364000A06BFEF717FBA08DE18D401AB2E0206C55
:1036500040F001002064480706D5BEF1000F03D0FA
:10366000206C40F002002064880706D5BEF1000FF0
:1036700003D0206C40F004002064BCF1000F09D599
:1036800045EA0E00B0FA80F0400903D1206C40F00A
:1036900008002064206C00283FF48CAF11F020005B
:1036A00018BF002D02D0204602F06EFC2068406951
:1036B000216C00F0400001F00801401848D000BF24
:1036C000206850E8030F216820F4907041E803025D
:1036D000002AF5D1206850E8050F216820F001008C
:1036E00041E80502002AF5D1206B01280AD100BF6C
:1036F000206850E8030F216820F0100041E8030221
:10370000002AF5D1202084F83E00002020632068A4
:103710004069400623D500BF206850E8050F2168A6
:1037200020F0400041E80502002AF5D1A06BB0B1BD
:1037300045F66971C0F600010165FEF7DBFA002865
:103740003FF438AFA06B016D02B0BDE8B040084750
:103750002046FFF7BDFE0020206402B0B0BD204629
:1037600002B0BDE8B040FFF7B3BE401A216851E88F
:10377000031F226821F4907142E80313002BF5D156
:10378000216851E8051F226821F0010142E8051374
:10379000002BF5D1202184F83E100021216300BFC9
:1037A000216851E8031F226821F0100142E8031349
:1037B000002BF5D181B2204602B0BDE8B040FFF742
:1037C00003BE216A31F8022B6FF35F22426021624F
:1037D000BDE60000002804BF0120704710B5044674
:1037E00090F83D0028B9002084F83C00204600F005
:1037F00021F8242084F83D002068C16821F400519C
:10380000C160204602F020FC2068016921F490414B
:103810000161416921F02A014161C16841F400510F
:10382000C16000202021206484F83D1084F83E10FF
:1038300010BD000080B586B0006841F20042C4F2BD
:10384000010200219042CDE90411CDE9021101915C
:1038500030D041F20001C4F2010188425BD1002066
:1038600043F630010090C4F202014A6942F01002AE
:103870004A614A6902F010020092009A00900A68B8
:1038800042F001020A60096801F00101009100990B
:103890004FF4C06101910221CDE902100320049090
:1038A000072005900020C4F2020001A9FEF748FAA3
:1038B00006B080BD43F630000091C4F202004269B8
:1038C00042F020024261426902F020020092009A16
:1038D0000091026842F004020260006800F00400F7
:1038E00000900098C02001900220CDE90201032041
:1038F0000490082005900020C4F2020000F500604A
:1039000001A9FEF71DFA472005210022FEF7AEFBB4
:103910004720FEF79BFB06B080BD000090F83E30CC
:10392000202B0BD100294FF0010318BF002A01D131
:103930001846704790F83C30012B01D102207047A7
:1039400000230363816222218285C285036480F89B
:103950003E10016980F83C3021B10168CA6842F428
:103960008072CA6000680023416941F00101416131
:10397000C16841F02001C1601846704770470000DF
:103980002DE9F04381B0044690F83D0020280DD188
:103990000D4600294FF0010000F0AB801646002ACA
:1039A00000F0A78094F83C00012803D1022001B068
:1039B000BDE8F083012084F83C0000202064212031
:1039C000984684F83D00FEF797FAA684E684A1683D
:1039D0008146B1F5805F01D1206910B12F460025E5
:1039E00000E00027002084F83C00E08C002842D052
:1039F00008F101060AE000BF97B117F8010B216832
:103A00004860E08C0138E084E08CA0B32068006856
:103A10000006F1D4BEB1B8F1000F0ED116E000BF20
:103A200035F8020B21686FF35F2048600027E8E754
:103A300001680906E0D4002EFAD0FEF75DFAA0EB8B
:103A40000900404502D82068F2E700BF206850E82E
:103A5000030F216820F4D07041E80302002AF5D159
:103A6000206850E8050F216820F0010041E80502B8
:103A7000002AF5D10AE020680068400635D4B8F184
:103A8000000F1DD018F101050CD012E0202084F8A1
:103A90003D0084F83E00002084F83C00032001B083
:103AA000BDE8F083206800BF016849061DD4002DE1
:103AB000FAD0FEF721FAA0EB09004045F2D900BF89
:103AC000206850E8030F216820F4D07041E8030219
:103AD000002AF5D1206850E8050F216820F0010088
:103AE00041E80502002AF5D1D0E7202084F83D0006
:103AF000002001B0BDE8F08370470000FEE7000041
:103B0000F0B583B040F200440546C4F20204072633
:103B10000A2704E06D003006A6F1010629D02046F0
:103B20004FF400410022FEF7E1F90097009818B128
:103B3000009801380090F9E7E8B2C20920464FF436
:103B40000051FEF7D3F90197019818B10198013897
:103B50000190F9E720464FF400410122FEF7C6F933
:103B6000029700BF02980028D4D002980138029032
:103B7000F8E720464FF40041002203B0BDE8F040D2
:103B8000FEF7B4B910B584B040F20044C4F20204A8
:103B900020464FF400510122FEF7A8F920464FF4C9
:103BA00000410122FEF7A2F90A2000BF019001980E
:103BB00010B101980138F9E720464FF40051FEF7A3
:103BC0008FF998B120464FF400510022FEF78EF98C
:103BD0000A2000BF0290029810B102980138F9E75C
:103BE00020464FF40051FEF77BF910B1002004B0DD
:103BF00010BD20464FF400510022FEF777F90A204D
:103C00000390039810B103980138F9E7012004B03C
:103C100010BD0000B0B582B040F20044C4F202040E
:103C200020464FF400410022FEF760F90A25019575
:103C3000019818B1019801380190F9E720464FF436
:103C400000510022FEF752F9019500BF019818B10A
:103C5000019801380190F9E720464FF40041012214
:103C6000FEF744F90A250195019818B10198013829
:103C70000190F9E720464FF400510122FEF736F992
:103C80000195019830B100BF019801380190019869
:103C90000028F9D102B0B0BDB0B584B040F2004404
:103CA000C4F2020420464FF400410022FEF71EF940
:103CB0000A250195019818B1019801380190F9E79A
:103CC00020464FF400510122FEF710F9029500BF83
:103CD000029818B1029801380290F9E720464FF493
:103CE00000410122FEF702F90A200390039828B14F
:103CF00003980138039003980028F9D120464FF427
:103D00000051FEF7EDF8B0FA80F0450920464FF477
:103D100000410022FEF7EAF8284604B0B0BD0000DA
:103D200080B540F2FD10C2F200000078002874D087
:103D3000FDF79AFD00F082FA40F2E000C2F20000C6
:103D400040F2F8110278C2F2000191ED000A01EE92
:103D5000102AB8EE411AB4EE410AF1EE10FA0FDD66
:103D60009FED2E1AB4EE410AF1EE10FA08DA40F295
:103D7000FC11C2F200010A7812B9012008703EE07D
:103D800041F2EC41C2F20001098841F2EE43C2F275
:103D900000030AB21B8881EAE231A1EBE2311AB2D8
:103DA00083EAE233A3EBE23241F2F043C2F20003D2
:103DB0001B8892B212FA81F219B283EAE133A3EBC3
:103DC000E133417812FA83F0C1F10A024FF47A73B9
:103DD0005A4390421BDD40F2EB10C2F20000027821
:103DE000AAB9A1B14AF2F411C2F200010A78013273
:103DF000D3B2032B0A7038BF80BD0121017006F0D9
:103E000065FA4AF2F811C2F20001086080BD4AF278
:103E1000F410C2F200000021017080BD0000A04239
:103E2000F0B595B00446642006F040FA002C00F08E
:103E3000528140F27C15C2F20005286841F280668A
:103E4000C2F20006346048B940F60852C0F60102DA
:103E500008204FF4007106F0B7FA286041F2C2273B
:103E6000C2F200073068BC1C214640F2FD12FFF789
:103E700055FD3068FFF7D2FA3068214640F2FD1256
:103E8000FFF758FA0020A7F8000294A0FCF7F6FB11
:103E900030689CA103224FF6FF73FFF771FD4FF4CA
:103EA000FA7006F003FA98A0FCF7E8FB3068A2A1CC
:103EB00004224FF6FF73FFF763FD4FF47A7006F0AC
:103EC000F5F997F80002002800F0058141F6D86066
:103ED000C0F60100FCF7D2FB306841F69151C0F604
:103EE000010106224FF6FF73FFF74AFD4FF4FA7007
:103EF00006F0DCF941F6FE50C0F60100FCF7BEFB0F
:103F0000306841F6B451C0F6010108224FF6FF7344
:103F1000FFF736FD4FF47A7006F0C8F941F62670C7
:103F2000C0F60100FCF7AAFB306885A10D224FF610
:103F3000FF73FFF725FD4FF4FA7006F0B7F984A080
:103F4000FCF79CFB306886A10B224FF6FF73FFF74E
:103F500017FD4FF4FA7006F0A9F941F6A060C0F61B
:103F60000100FCF78BFB306880A10B224FF6FF733A
:103F7000FFF706FD4FF4FA7006F098F941F6636119
:103F800007F20220C0F601010A22FCF7A9FB40B3A8
:103F900041F68760C0F60100FCF770FB012041F696
:103FA0007C5141F6636241F6F35301AC87F801029C
:103FB000C0F60101C0F60102C0F601032046FCF77D
:103FC00029FA35682046FCF7B7FB82B2284621461D
:103FD0004FF6FF73FFF7D4FC42F2107006F066F95B
:103FE00002E0022087F8010297F80102022872D34A
:103FF00041F66D60C0F60100FCF740FB306841F609
:10400000BD51C0F601010A224FF6FF73FFF7B8FC5D
:104010004FF4FA7006F04AF941F6F260C0F601007A
:10402000FCF72CFB306841F6C851C0F601010E22A6
:104030004FF6FF73FFF7A4FC4FF4FA7006F036F961
:1040400041F61B60C0F60100FCF718FB41F6D751A2
:1040500041F6486201ACC0F60101C0F601022046FB
:1040600042F2EE13FCF7D6F935682046FCF764FB04
:1040700082B2284621464FF6FF73FFF781FC4FF4CA
:10408000FA6006F013F941F63D70C0F60100FCF746
:10409000F5FA306841F69851C0F601010E224FF64C
:1040A000FF73FFF76DFC4FF4FA7006F0FFF841F66E
:1040B000C760C0F60100FCF7E1FA306841F6A7518D
:1040C000C0F601010C224FF6FF73FFF759FC4FF4C5
:1040D000FA7006F0EBF815B0F0BD00BFEFBFBDCB36
:1040E000B3EFBFBD4553503031C4A3EFBFBDEFBFE9
:1040F000BDCDB8EFBFBDEFBFBDC4A3CABD2E2E2E30
:10410000000000002B2B2B00EFBFBDEFBFBDEFBFAA
:10411000BDEFBFBD4553503031C4A3EFBFBDEFBFAE
:10412000BDEFBFBDC7B7EFBFBDEFBFBDEFBFBDEFB9
:10413000BFBD2E2E2E00000041540D0A00000000CD
:1041400041542B43574D4F44453D330D0A00000069
:10415000EFBFBDEFBFBDD1AF5353494400000000D6
:1041600041542B43575341503F0D0A0041542B43B8
:10417000574A41503F0D0A0070B506F0A7F841F2CA
:104180006464C2F20004216801F5FA71884209D31F
:1041900041F26860C2F200000178C943017006F084
:1041A00095F8206041F26C65C2F200052E6806F0B9
:1041B0008DF866B3296801F5FA61884229D906F0BD
:1041C00085F8296841F288321144884228D906F0DE
:1041D0007DF8296801F5FA51884228D940F2FD108E
:1041E000C2F200000121017040F2CC10C2F20000C6
:1041F0000022027041F26860C2F20000027041F6D3
:104200000940C2F200002A602260017070BD28607F
:1042100070BD40F2CC10C2F200000021017070BDF0
:1042200040F2CC10C2F200000121017070BD40F2DA
:10423000CC10C2F200000221017070BDF0B581B057
:1042400006F044F840F2D011C2F200010A68904230
:10425000C0F0F8803230086000F0F6F806F036F86A
:1042600041F2746441F27062C2F20004C2F20002D0
:10427000216812681144884240F2E48006F026F872
:10428000206041F27820C2F2000041F66424B0F9C7
:10429000002040F25810C0F60104C2F2000021468E
:1042A000FCF7B8F841F27A20C2F20000B0F9002021
:1042B00040F26210C2F200002146FCF7ABF841F276
:1042C0007C20C2F20000B0F9002040F26C10C2F273
:1042D00000002146FCF79EF841F2EC40C2F20000DB
:1042E000B0F9002040F2A410C2F200002146FCF711
:1042F00091F841F2EE40C2F20000B0F9002040F225
:10430000AE10C2F200002146FCF784F841F2F04002
:10431000C2F20000B0F9002040F2B810C2F2000072
:104320002146FCF777F841F2AC27C2F20007386863
:104330000CF092FA41F66724024640F28010C0F673
:1043400001040B46C2F200002146FCF763F841F27B
:10435000B026C2F2000630680CF07EFA024640F247
:104360008A100B46C2F200002146FCF753F841F2D6
:10437000B425C2F2000528680CF06EFA024640F23D
:1043800094100B46C2F200002146FCF743F841F2BC
:104390008021C2F2000108684A2809DC431C3A68FF
:1043A0000B6049F64451C2F2000141F820200CE0B4
:1043B00049F64454C2F20004211D20464FF4947281
:1043C000FCF769FA3868C4F8280141F28421C2F286
:1043D000000108684A2809DC431C32680B6049F672
:1043E0007061C2F2000141F820200CE049F67064CF
:1043F000C2F20004211D20464FF49472FCF74BFAE0
:104400003068C4F8280141F28C21C2F2000108682A
:104410004A280ADC431C2A680B604AF2C801C2F22F
:10442000000141F8202001B0F0BD4AF2C804C2F2F8
:104430000004211D20464FF49472FCF72CFA2868E2
:10444000C4F8280101B0F0BD2DE9F04381B02DED95
:104450000A8B8CB00DF11E000DF11D0700900DF1BF
:10446000260008A903AA0BAB019703F061FEBDF873
:104470001E00C00540F1D1809DED030A9DED041A98
:104480009DED052A9DED063A9FED814AB8EEC00AE2
:1044900040F29808B8EEC11A41F6F83920EE040A45
:1044A000C2F2000821EE041AC2F20009B8EEC22AD4
:1044B000B8EEC33AB8EE009A88ED000A89ED001A0A
:1044C00022EE042A23EE043A21EE091A30EE000A05
:1044D00020EE020A21EE031A41F6FC3641F60047AF
:1044E00031EE000AC2F20006C2F2000710EE100A16
:1044F00086ED002A87ED003A0CF0AEF941EC100B86
:104500000AF00EFA51EC100B9FED5F0B54EC105BB0
:104510002A4623460BF0DCFE0BF08CFB41F2AC216B
:10452000C2F20001086096ED00AA98ED001A97ED1E
:10453000000A99ED00CA3AEE0ABA31EE011A21EEEC
:104540000C1A2BEE000A30EE010A10EE100A0CF0E5
:1045500083F92CEE090A2AEE0B1A20EE0C0A30EE33
:10456000410AB7EE001A30EE010A41EC180B10EECA
:10457000100A0CF071F941EC110BB0EE480AF0EEA4
:10458000680A0AF0E9FC51EC100B2A4623460BF0AE
:104590009FFE0BF04FFB41F2B021C2F20001086018
:1045A00099ED009A98ED00AA97ED00BA96ED00CA31
:1045B0002AEE0B0A29EE0C1A31EE000A30EE000A40
:1045C00010EE100A0CF048F929EE090A2AEE0A1A30
:1045D00031EE000A2CEE0C1A30EE410A2BEE0B1ACB
:1045E00030EE410A41EC180B10EE100A0CF034F9D1
:1045F00041EC110BB0EE480AF0EE680A0AF0ACFC90
:1046000051EC100B2A4623460BF062FE0BF012FB16
:1046100041F2B421C2F200010860BDF81E0010F0A2
:10462000700F14D0BDF8261041F2EC42C2F2000225
:104630001180BDF8281041F2EE42C2F20002118052
:10464000BDF82A1041F2F042C2F2000211800007C8
:1046500014D5BDF8200041F27821C2F20001088093
:10466000BDF8220041F27A21C2F200010880BDF8B3
:10467000240041F27C21C2F2000108800CB0BDECA4
:104680000A8B01B0BDE8F0836666666666A64C409C
:104690000000803010B504F061FD00281CBF002030
:1046A00010BD43A0FBF7EAFF782005F051FD10B1E3
:1046B000002448A077E041F65440C0F60100FBF723
:1046C000DDFF782004F0AAFC10B100244BA06AE0C2
:1046D00041F63140C0F60100FBF7D0FF322005F073
:1046E000C9FC28B141F673400024C0F601005AE02D
:1046F00041F6A530C0F60100FBF7C0FF03F00CFD4A
:1047000028B141F694400024C0F601004BE041F688
:104710005230C0F60100FBF7B1FF04F067FC03F074
:10472000FBFE28B141F64F500024C0F601003AE0EC
:1047300041F60D40C0F60100FBF7A0FF40F27310F8
:1047400003F092FB28B141F6CD400024C0F60100F1
:1047500029E041F68230C0F60100FBF78FFF3220DE
:1047600003F032FE28B141F6F9400024C0F6010002
:1047700019E041F6C930C0F60100FBF77FFF06F0F3
:10478000A3FB012005F0CEFB0146B0FA80F04409FE
:1047900041F6245041F6EB32C0F60100C0F60102AA
:1047A000002908BF1046FBF769FF204610BD00BF77
:1047B0006D707520696E697469616C697A6174697C
:1047C0006F6E20636F6D706C6574652E2E2E2E2EAD
:1047D0002E0000006D70755F7365745F73656E7396
:1047E0006F7220636F6D65206163726F73732065F4
:1047F00072726F72202E2E2E2E2E2E006D70755F0F
:10480000636F6E6669677572655F6669666F206360
:104810006F6D65206163726F7373206572726F7262
:10482000202E2E2E2E2E2E0080B545F6591040F645
:104830006852C0F60000C0F60102002105F05CFEDF
:1048400040F2D411C2F20001086045F6051040F6AE
:104850004452C0F60000C0F60102002105F04CFEF3
:1048600040F2C811C2F20001086045F6911040F60E
:104870008C52C0F60000C0F60102002105F03CFE9B
:1048800040F20821C2F20001086045F6E10040F65E
:104890002052C0F60000C0F60102002105F02CFEF7
:1048A00040F2A011C2F20001086045F6D10040F6C6
:1048B000E442C0F60000C0F60102002105F01CFE33
:1048C00040F27811C2F20001086080BD2DE9F04F7E
:1048D00087B0002743F630000697CDE90477CDE98D
:1048E00002770197C4F20200016841F2000441F02E
:1048F000100101600168C4F2020401F0100101918D
:10490000019901970168A4F5006941F080010160F7
:104910000168002201F0800101910199019701686D
:104920004FF4716B41F001010160016801F0010178
:10493000019101990197016841F00401016001684A
:1049400001F00401019101990197016841F0020110
:10495000016000684FF4716100F00200019001985D
:104960004846FDF7C3FA20464FF4FE4101224FF0BE
:10497000010AFDF7BBFA204648F201010022FDF7CB
:10498000B5FAA4F5406630464AF2C0410022FDF770
:10499000ADFAA4F5805840464FF419410022FDF7C6
:1049A000A5FA1E2002A902AD81E88104204629460D
:1049B000FDF7C6F96020CDE90207022004902046E9
:1049C0002946FDF7BDF948462946CDE902BACDE9A9
:1049D0000477FDF7B5F94FF60170CDE9020A2046DC
:1049E0002946CDE90477FDF7ABF94FF49860CDE99E
:1049F000020A30462946CDE90477FDF7A1F94FF4C4
:104A0000204002901120CDE9030730462946059742
:104A1000FDF796F94FF41940CDE9020A40462946C0
:104A2000CDE90477FDF78CF907B0BDE8F08F000001
:104A300080B541F2F44043F20001C2F20000C4F23A
:104A400001014FF48272002380E80E0000F114018E
:104A50004FF4007C4FF0100E81E808500A21C0E9A5
:104A60000333C0E90833C0E90A31FDF70BFE002823
:104A700008BF80BDBDE88040FDF7CAB8B0B594B0AE
:104A800041F24C5040F200450021C2F2000040F2D9
:104A9000E733C4F200050D91CDE90B11CDE9091101
:104AA000CDE90711CDE90511CDE90311CDE90111DA
:104AB0005322C0E9021301618021C0E900528161E3
:104AC000FDF7E2FF002818BFFDF7A2F84FF4805071
:104AD0000A9041F24C50C2F200000AA9FEF772F8A7
:104AE000002818BFFDF794F841F24C50C2F20000C4
:104AF000FEF7FCFA002818BFFDF78AF841F24C5087
:104B00000024C2F2000008A9CDE90844FDF760FFC7
:104B1000002818BFFDF77CF86020CDE9010403945C
:104B2000059441F24C54C2F2000401A9204600222F
:104B3000FEF7D0F9002818BFFDF76AF821680020B9
:104B4000A9421390CDE9110010900F9001D014B03C
:104B5000B0BD43F630010E90C4F202010A6842F083
:104B600002020A60096801F002010E910E991021FB
:104B70000F910221CDE91010CDE9120105F50030A9
:104B80000FA9FDF7DDF814B0B0BD000080B541F20B
:104B9000DC5041F20001C2F20000C4F20101002326
:104BA0004FF00C0C4FF4E13280E80E00C0E9033303
:104BB000C0E905C3C361FEF70DFE002808BF80BD34
:104BC000BDE88040FDF724B880B541F2206041F295
:104BD0000041C2F20000C4F2010100234FF00C0CAE
:104BE0004FF4E13280E80E00C0E90333C0E905C3A9
:104BF000C361FEF7EFFD002808BF80BDBDE880401F
:104C0000FDF706B8FEE70000FEE700000000000028
:104C1000EFF30980BFF36F8F154B1A681EF0100F6A
:104C200008BF20ED108A20E9F04F10602DE909003F
:104C30004FF0500080F31188BFF34F8FBFF36F8F99
:104C400008F042FA4FF0000080F31188BDE8090037
:104C500019680868B0E8F04F1EF0100F08BFB0ECFC
:104C6000108A80F30988BFF36F8F704700BF00BFC1
:104C7000801700209FED152AB5EE401A20EE020A9B
:104C800031EE023A9FED124AF1EE10FA08BFB0EE93
:104C9000443A80EE030A20EE821A81EE031A02EEF5
:104CA000101AB8EEC22A30EE020ABDEEC00A10EEAB
:104CB000101A00EE102AB8EEC00A31EE000ABDEE5E
:104CC000C00A10EE102AC0E900127047000000442C
:104CD00000400044F0B581B0002800F08180054616
:104CE000008800287CD0AC1C3EA02146FBF786FB48
:104CF0003FA12046FBF7E2FC41F2C226A042C2F2ED
:104D0000000624BF012086F8000296F80002002861
:104D100066D038A120460422FBF72DFD48B996F84D
:104D20000102012805D1022086F8010233A0FBF719
:104D3000A5FC36A120460E22FBF71DFD28B9012057
:104D400086F8010235A0FBF799FC38A120460D2218
:104D5000FBF711FD96F80172002808BF022F21D041
:104D600036A120461122FBF706FD002808BF022FBE
:104D700018D037A120460722FBF7FDFCF0B136A181
:104D800020460722FBF7F7FC50BB0A3528462221B4
:104D9000FBF78AFCA84223D9001BA0F1080206F207
:104DA000022017E0032141F65660C0F6010086F8A4
:104DB000011201B0BDE8F040FBF760BC0A3528469F
:104DC0002221FBF771FCA8420AD9001BA0F10802BE
:104DD00006F21620294601B0BDE8F040FBF7DEBD23
:104DE00001B0F0BD45535030312072783A25730040
:104DF0004F4B00000D0A4F4B000000004553503050
:104E00003120636F6E6E3A32000000005749464908
:104E100020434F4E4E4543544544000045535030C7
:104E20003120636F6E6E3A3100000000434F4E4EEA
:104E30004543540D0A0D0A4F4B000000414C5245AA
:104E400041445920434F4E4E4543544544000000D1
:104E50002B43575341503A002B43574A41503A0095
:104E60002DE9F04F81B02DED068BAAB00DF1680849
:104E7000054640460E46B0EE418AB0EE609AB0EE6E
:104E800040AA06F08BF840466FF003016FF0030272
:104E90006FF0030300F0F2FFB1EE000A4046F0EEBF
:104EA000400AB0EE401A00F0CFFB4046B0EE4A0A8E
:104EB000F0EE490AB0EE481A00F0AEF84046002184
:104EC00000220023002400F0D9FF40F68440C0F601
:104ED000010008380AAF0FFA85FA0FFA86FB0DF1C8
:104EE000200900BF00F1080191EC030A00F10C0554
:104EF000404608F037F9484651465A4607EBC40683
:104F0000FFF7B8FEDDE9080147F8340000F07F0044
:104F100047F8340001F03F00013471607060082CE4
:104F20002846DFD1BDF92840BDF92C50BDF93080AD
:104F3000BDF934902046294642464B4605940495D7
:104F4000CDF80C80CDF80890FCF780FEBDF93860F4
:104F5000BDF93C702046294632463B4601960097F3
:104F6000FCF774FEBDF94040BDF944502046294687
:104F700042464B4607940695FCF768FE20462946B4
:104F800032463B46FCF762FEBDF94860BDF94C7005
:104F9000BDF95080BDF954903046394642464B46E3
:104FA000FCF754FEBDF958A0BDF95CB03046394657
:104FB00052465B46FCF74AFEBDF96040BDF96450BD
:104FC0002046294642464B46FCF740FE20462946ED
:104FD00052465B46FCF73AFEDDE9041032463B469A
:104FE000FCF734FEDDE9021042464B46FCF72EFE8C
:104FF000DDE9001052465B46FCF728FEDDE90610AD
:1050000022462B46FCF722FE2AB0BDEC068B01B0EF
:10501000BDE8F08F000000002DE9F0472DED048B76
:10502000D0B0044610EE100AB0EE418AB0EE609A9D
:105030000BF012FC9FEDC40B5AEC107B3A46534622
:105040000BF046F99FEDC20B56EC105B2A46334637
:105050000AF0D6FE0AF0EEFD814619EE100A0BF0BA
:10506000FBFB3A4653460BF033F92A4633460AF027
:10507000C7FE0AF0DFFD804618EE100A0BF0ECFBCD
:105080003A4653460BF024F92A4633460AF0B8FE56
:105090000AF0D0FD05464FF07E57484620970BF0AA
:1050A000DBFB41EC180B0026B0EE480AF0EE680A74
:1050B000CDE92166CDE923660AF04EF851EC100BDC
:1050C0000AF0B8FDB0EE480AF0EE680A25900AF042
:1050D000A7F851EC100B0AF0ADFDB0EE480A80F0D5
:1050E0000040F0EE680ACDE9260628960AF098F806
:1050F00051EC100B0AF09EFDB0EE480AF0EE680A83
:1051000029900AF029F851EC100B0AF093FDCDE933
:105110002A064046CDE92C66CDE92E670BF09CFBB4
:1051200041EC180BB0EE480AF0EE680A0AF014F8E9
:1051300051EC100B0AF07EFDB0EE480AF0EE680A62
:10514000CDE910060AF06CF851EC100B0AF072FD74
:10515000B0EE480AF0EE680ACDE91206CDE9146710
:10516000CDE916660AF05CF851EC100B0AF062FD0E
:10517000B0EE480A80F00040F0EE680ACDE918066B
:1051800009F0EAFF51EC100B0AF054FDCDE91A06C4
:105190002846CDE91C66CDE91E670BF05DFB41ECAE
:1051A000180BB0EE480AF0EE680A09F0D5FF51EC92
:1051B000100B0AF03FFDB0EE480AF0EE680A0090CE
:1051C0000AF02EF851EC100B0AF034FDB0EE480A4C
:1051D00080F00040F0EE680ACDE9010603960AF07F
:1051E0001FF851EC100B0AF025FDB0EE480AF0EE66
:1051F000680A049009F0B0FF51EC100B0AF01AFD98
:10520000CDE9050640A820A90246CDE90766CDE90B
:105210000967CDE90B66CDE90D660F9704EB061320
:1052200093ED000A93ED011A93ED022A93ED033AF0
:10523000002300BFCF1897ED044A97ED005A97ED71
:10524000086A21EE044A20EE055A35EE044A22EEA1
:10525000065A97ED0C6A35EE044A23EE065AD71823
:10526000043335EE044A102B87ED004AE2D10136B3
:10527000042E02F11002D1D130AF002210AB39461A
:1052800000EB021696ED000A96ED011A96ED022A41
:1052900096ED033A002600BF9D1995ED044A95ED61
:1052A000005A95ED086A21EE044A20EE055A35EEC3
:1052B000044A22EE065A95ED0C6A35EE044A23EEB6
:1052C000065A8D19043635EE044A102E85ED004A33
:1052D000E2D10132042A01F11001D1D100206A4645
:1052E00007EB001191ED000A91ED011A91ED022AF0
:1052F00091ED033A002100BF531893ED044A93ED5A
:10530000005A93ED086A21EE044A20EE055A35EE64
:10531000044A22EE065A93ED0C6A35EE044A23EE57
:10532000065A6318043135EE044A102983ED004A09
:10533000E2D10130042804F11004D1D150B0BDEC09
:10534000048BBDE8F08700BF4AD8124DFB2109400D
:1053500000000000008066402DE9F04381B01E4649
:1053600090460D468146FCF7C7FD301A00EB080752
:10537000FCF7C2FD40F26801C2F200010968C1F306
:10538000CB3179430091D9F8001089682940A942AE
:1053900019D1064608F1010406E000BFD9F8000063
:1053A00080682840A8420ED1002CF7D0FCF7A4FD5D
:1053B000801BB8420BD200980099002808BF07460E
:1053C000481E0090EAE7002001B0BDE8F083D9E96B
:1053D00000014268B1F5827F22F0E00242600BD109
:1053E000D9F80810B1F5004F02D0B1F5806F03D1A4
:1053F000016821F040010160D9F82810B1F5005F83
:1054000007D1016821F400510160016841F40051A5
:105410000160012089F85100002089F85000032024
:1054200001B0BDE8F08300000000000000000000B3
:10543000074B19680868B0E8F04F80F30988BFF39C
:105440006F8F4FF0000080F31188704700BF00BFDE
:1054500080170020000000002DE9F0412DED028BA7
:1054600082B04FF47A7004F021FF03F081F902F06A
:105470007DF940F2E014C2F2000420460021082227
:1054800002F09CF920785A2832D8607809282FD861
:10549000A0783C282CD894ED018A18EE100A0BF065
:1054A000DBF99FED250B53EC102B0BF023FAF8B929
:1054B000B2EE040AB4EE408AF1EE10FA18DC40F2C3
:1054C000E005C2F20005686895F800806E78AF7854
:1054D0000BF0C2F941EC100B19A0414632463B4695
:1054E0008DED000BFAF78AFFD4E90001C5E9000150
:1054F000FFF7D0F841F27864C2F200040106207090
:105500000AD041F22060C2F2000002B0BDEC028B72
:10551000BDE8F041FEF784BC002500BFFA2004F08E
:10552000C5FEFFF7B7F8012D2070EAD8000605F197
:105530000105F3D0E5E700BF9A9999999999B93F88
:105540004C6F61643A202564E284832C2025642C0E
:10555000202564E7A7922C20252E3166E6AFABE725
:10556000A7920000F0B585B040F2FD10C2F2000035
:105570000078002808BFFEF7FFFD41F60944C2F29B
:105580000004207828B1FA200521FBF78FFF0020C6
:10559000207002F061FBFBF7BBFF40F2E817C2F29C
:1055A0000007387801283BD041F2C220C2F2000047
:1055B00090F80102032833D140F2E000C2F200006B
:1055C00004784578867840680BF046F9009649F2F1
:1055D000E05641EC100BC2F2000614A13046224600
:1055E0002B468DED020BFAF715FF3046FBF7A4F8BA
:1055F00041F2A822C2F2000241F2A3211368C2F2D2
:1056000000010E781844002E106004BF01200870BD
:1056100049F2E050C2F2000000F0FCF801203870BE
:1056200005B0BDE8F040FCF71BBA00BF70617261C5
:105630006D3A2536642C2536642C2536642C2536A7
:105640002E31660A000000002DE9F047A0B04FF0AF
:10565000000C4FF07E5110AAEE468DED000ACDE908
:1056600001CCCDE903CCCDED050ACDE906CCCDE9E1
:1056700008CC8DED0A1ACDE90BCCCDE90DCC0F91FC
:1056800000EB0C1191ED000A91ED011A91ED022A47
:1056900091ED033A002100BF0EEB010393ED044AA4
:1056A00093ED005A93ED086A21EE044A20EE055A64
:1056B00035EE044A22EE065A93ED0C6A35EE044AA2
:1056C00023EE065A5318043135EE044A102983EDAF
:1056D000004AE1D10CF1010CBCF1040F02F11002FF
:1056E000CED10DF1400E9EE80E500DF1540A9AE80D
:1056F000F00780E80E5000F1140170C11CAE4ECED0
:1057000000F1200C30308CE880074EC020B0BDE89E
:10571000F0870000B0B541F20004C4F20204204654
:105720000221FCF7DDFBB0FA80F045092046042198
:10573000FCF7D6FB002820464FF0080108BF0235D1
:10574000FCF7CEFB002820464FF0100108BF0435BF
:10575000FCF7C6FB002820464FF0200108BF0835A3
:10576000FCF7BEFB012820464FF0400108BF45F082
:105770001005FCF7B5FB012840F2EA10C2F2000068
:1057800008BF45F0200501782A0627D0EAB28A42F0
:1057900024D140F2E912C2F2000213780133DCB2E4
:1057A000022C137020D14FF0FF3252FA85F21F2ADB
:1057B0001AD8DFE802F0211019231919192619192E
:1057C0001919191919291919191919191919191939
:1057D00019191919192C0325E8B2B0BD40F2E912C4
:1057E000C2F2000200231370EAB28A4202D10025FD
:1057F000E8B2B0BD05700025E8B2B0BD0425E8B23E
:10580000B0BD0225E8B2B0BD0525E8B2B0BD0625A1
:10581000E8B2B0BD002808BF7047B0B5044641F2F9
:105820008060C2F2000005682046FAF785FF82B268
:10583000284621464FF6FF73BDE8B040FEF7A0B8FA
:10584000F0B581B041F200040127C4F2020405461C
:1058500046B227EA000220464FF48071FCF746FB6F
:1058600027EA550220464FF40071FCF73FFB27EA78
:10587000950220464FF48061FCF738FB27EAD502F9
:1058800020464FF40061FCF731FB27EA1512204651
:105890004FF48051FCF72AFB27EA551220464FF4BB
:1058A0000051FCF723FB27EA951220464FF4804174
:1058B000FCF71CFB0022B6F1FF3FC8BF01222046C7
:1058C0004FF4004101B0BDE8F040FCF70FBB000011
:1058D000FFF7C2FDFEF724FA052004F0E7FCF9E724
:1058E00000F0C4FE41F27864C2F20004207818B9D6
:1058F000012004F0DBFCF9E701F00CFA012004F0D0
:10590000D5FCF9E711A0FAF779FD41F27864C2F20B
:10591000000400BF207818B9012004F0C7FCF9E7A3
:1059200040F2FC1440F2EB15C2F20004C2F2000592
:1059300005E000BF01F0FCF9012004F0B7FC20787D
:1059400029780843F6D001F09FFDF5E7696E206BDA
:1059500065795461736B000009A0FAF74FFD41F2BD
:105960007864C2F2000400BF207818B9012004F066
:105970009DFCF9E7FFF7F6FD012004F097FCF9E73D
:10598000696E206D61696E5461736B2100000000C7
:105990008AB041F2C22041F2A32841F2686A40F283
:1059A000EC1940F2FD17C2F2000041F2A42B9FED6A
:1059B0009D8A9FED939BC2F20008C2F2000AFF2469
:1059C000C2F200090025C2F20007C2F2000B023049
:1059D000B2EE04AA099008E041F2C0210120C2F20F
:1059E00000010870012004F061FC98F80000012813
:1059F0000FD199F800008AF800400130C1B20A299D
:105A000089F8000022BF8AF8005088F8005089F811
:105A100000509AF80000FFF713FFFCF7FFF800288A
:105A2000E0D038780028DDD0012088F8000041F26D
:105A3000C220C2F200000088DBF8001000280144F8
:105A400089F80050CBF80010CCD041F2C220C2F24D
:105A50000000D0F8020045F25501C4F64F618842BB
:105A6000BAD0099E68A130460522FAF739FE00280F
:105A700000F08B80304666A10722FAF731FE00283D
:105A800000F08980304664A10922FAF729FE002837
:105A9000A8D141F2C220C2F2000000F10B0630464C
:105AA000FAF7DFFD089030462C21FAF7FDFD099941
:105AB000884297D9471C3846FAF7D3FD0646384640
:105AC00040F2FD172C21C2F20007FAF7EDFD09990B
:105AD00088427FF687AF471C3846FAF7C2FD079029
