:020000040800F2
:10000000689500205902000851400008F9310008A5
:100010004D4000087115000829610008000000002B
:100020000000000000000000000000002147000860
:10003000411B00080000000061400008794A0008E8
:1000400073020008730200087302000873020008BC
:1000500073020008730200087302000873020008AC
:10006000730200087302000873020008730200089C
:10007000730200087302000873020008730200088C
:10008000730200087302000873020008730200087C
:10009000730200087302000873020008730200086C
:1000A000730200087302000873020008730200085C
:1000B000730200087302000873020008730200084C
:1000C000730200087302000873020008730200083C
:1000D000730200087302000873020008730200082C
:1000E000730200087302000873020008730200081C
:1000F000730200087302000873020008730200080C
:1001000073020008730200087302000873020008FB
:100110007302000873020008730200085D4B0008B8
:1001200073020008730200087302000873020008DB
:1001300073020008730200087302000873020008CB
:1001400073020008730200087302000873020008BB
:1001500073020008730200087302000873020008AB
:10016000730200087302000873020008730200089B
:100170007302000873020008730200080000000008
:10018000730200087302000800F002F800F055F84E
:100190000AA090E8000C82448344AAF10107DA45E2
:1001A00001D100F04AF8AFF2090EBAE80F0013F0DF
:1001B000010F18BFFB1A43F001031847708C0500AC
:1001C000908C0500103A24BF78C878C1FAD852073D
:1001D00024BF30C830C144BF04680C6070470000C1
:1001E0000023002400250026103A28BF78C1FBD840
:1001F000520728BF30C148BF0B60704766290FF017
:10020000728265290FF06F8267290FF06C82612975
:100210000FF06B82642900F03981002070471FB510
:100220000FF04FFA00F060FF0400002000210EF0F4
:1002300079FBE0601FBD10B510BD01F05DF81146FF
:10024000FFF7EDFF07F052FA01F07BF803B4FFF778
:10025000F2FF03BC01F0BEF8094880470948004797
:10026000FEE7FEE7FEE7FEE7FEE7FEE7FEE7FEE766
:10027000FEE7FEE704480549054A064B70470000C3
:10028000494B000889010008688F0020689500200C
:10029000689100206891002053EA020C00F0698008
:1002A0002DE9F04B4FF00006002B1FBFB3FA83F58A
:1002B00003FA05F424FA05F65E4012BF1643B2FABB
:1002C00082F502FA05F4C5F120051EBF22FA05FCED
:1002D00044EA0C04203556EA044C4FEA144418BF93
:1002E000641C4FF000084FF00009904271EB030CC2
:1002F00039D3002919BFB1FA81F701FA07F6B0FA2C
:1003000080F700FA07F6C7F120071EBF20FA07FCA6
:1003100046EA0C062037B6FBF4FCA7EB0507103FB6
:1003200007F01F0BCBF120062CFA06F60CFA0BFB9C
:1003300044BFB3460026202FA4BF5E464FF0000BFB
:100340005BEA060C08BF4FF0010B19EB0B0948EBF9
:100350000608ABFB027C06FB02CC0BFB03CCC01BEC
:1003600071EB0C01C1E70B46024641464846BDE829
:10037000F08B13B5084318BF4FF0FF300146AFF3C1
:100380000080BDE81C40704753EA020C23D010B532
:100390004C1084EA530404D54042C1F1000138BF37
:1003A000491E1B4204D55242C3F1000338BF5B1EF5
:1003B000FFF772FF14F0804F04D04042C1F10001FA
:1003C00038BF491E14F0004F04D05242C3F100035D
:1003D00038BF5B1E10BD13B540424FF0000070EBFC
:1003E0000104B8BF012001F0004100281CBF6FF0DC
:1003F00000414FF0FF30AFF300801CBD0FB4044943
:1004000010B503AA029800F05DFE10BC5DF814FB65
:10041000680300200FB41CB5074B06AA7B4469464D
:100420000090059800F035FE0020694600F044FE7B
:100430001CBC5DF814FB0000990C000070B504466C
:1004400085690068C10601D5302600E02026C00776
:1004500007D070BDD4E9012130469047206A401C86
:1004600020626D1EF6D570BD70B5044685690078B2
:10047000C00707D170BDD4E9012120209047206A30
:10048000401C20626D1EF6D570BD00002DE9F041C4
:100490000646002410687529314616A510D0AFF322
:1004A0000080002802DA404213A507E031688A077D
:1004B00001D512A502E0490704D511A5012401E0E8
:1004C000AFF3008000210A2206F1240709E0B0FB07
:1004D000F2FCB0FBF2F302FB1C00303078541846FB
:1004E000491C0028F3D123462A463046BDE8F04196
:1004F00000F0E4B9000000002D0000002B00000017
:10050000200000002DE9F05F894604464FF0000A04
:10051000DFF874B1FB44C0F820A02046E1688847AA
:10052000002874D0252806D0D4E901219047206AFC
:10053000401C2062F1E700265F462046E1688847BC
:100540002028054607DB312D05D2781910F8200C3C
:1005500008B10643F1E7B00701D526F00406C4F858
:100560001CA00027C4F818A02A2D09D028460EF098
:1005700087F938B304EB8708303DC8F8185019E004
:1005800059F8041B204604EB87029161E168884713
:10059000012F054618D1E069002820DA26F0200650
:1005A0001DE0D8F8180000EB800005EB4000303863
:1005B000C8F818002046E168884705460EF060F943
:1005C0000028EED1012F0AD02E2D08D12046E16857
:1005D00088477F1C0546022F46F02006C4DBA06931
:1005E000002803DA404246F00106A061F00701D07E
:1005F00026F010066C2D0BD0682D09D04C2D39D06B
:100600006A2D35D0742D35D07A2D33D016E038E0F0
:10061000E1682F4620468847B842054609D16C2F2D
:1006200026D04FF48060E16806432046884705469F
:1006300004E06C2F1AD04FF4807006430DB3A5F17F
:100640004100192802D8203546F400664A4629465A
:10065000204626604E46FFF7D1FD80B101280BD021
:10066000F61D26F0070000F1080956E74020E4E7F0
:100670008020D8E70020D6E706F104094DE7284698
:1006800052E7206ABDE8F09FD6F1000010B504469D
:1006900003E006F0B9FB401C09D014F8010B054932
:1006A0000028F6D1BDE810400A2006F0ADBB4FF09F
:1006B000FF3010BD6803002040EA010310B59B071E
:1006C0000FD1042A0DD310C808C9121F9C42F8D0BC
:1006D00020BA19BA884201D9012010BD4FF0FF306D
:1006E00010BD1AB1D30703D0521C07E0002010BD83
:1006F00010F8013B11F8014B1B1B07D110F8013B0F
:1007000011F8014B1B1B01D1921EF1D1184610BDEF
:10071000032A40F2308010F0030C00F0158011F82D
:10072000013BBCF1020F624498BF11F801CB00F805
:10073000013B38BF11F8013BA2F1040298BF00F859
:1007400001CB38BF00F8013B11F0030300F0258016
:10075000083AC0F0088051F8043B083A51F804CB3D
:10076000A0E80810F5E7121D5CBF51F8043B40F803
:10077000043BAFF30080D20724BF11F8013B11F80E
:1007800001CB48BF11F8012B24BF00F8013B00F852
:1007900001CB48BF00F8012B704710B5203AC0F0DC
:1007A0000B80B1E81850A0E81850B1E81850A0E844
:1007B0001850203ABFF4F5AF5FEA027C24BFB1E8DD
:1007C0001850A0E8185044BF18C918C0BDE8104020
:1007D0005FEA827C24BF51F8043B40F8043B08BF29
:1007E0007047D20728BF31F8023B48BF11F8012BF0
:1007F00028BF20F8023B48BF00F8012B704702F0E9
:10080000FF0343EA032242EA024200F024B84FF019
:1008100000020429C0F0128010F0030C00F01B80CD
:10082000CCF1040CBCF1020F18BF00F8012BA8BFDB
:1008300020F8022BA1EB0C0100F00DB85FEAC17C9F
:1008400024BF00F8012B00F8012B48BF00F8012B52
:1008500070474FF0000200B5134694469646203983
:1008600022BFA0E80C50A0E80C50B1F12001BFF469
:10087000F7AF090728BFA0E80C5048BF0CC05DF8CF
:1008800004EB890028BF40F8042B08BF704748BF1D
:1008900020F8022B11F0804F18BF00F8012B704791
:1008A00070477047704710B500F022FC006810BD1B
:1008B00010B5044600F01CFC046010BD2DE9F047A3
:1008C0000D4699469246044600F1240801688806C0
:1008D00004D5E06921F01001216000E00120A84268
:1008E00001DD471B00E00027A1697A1902EB09002E
:1008F000081AA0612078C00602D42046FFF79EFDAA
:10090000002608E0D4E901211AF806009047206A81
:10091000401C761C20624E45F4DB2078C0060AD5C8
:100920002046FFF78BFD06E0D4E9012130209047F7
:10093000206A401C2062381EA7F10107F4DC07E0A2
:10094000D4E9012118F805009047206A401C206274
:10095000281EA5F10105F3DC2046FFF785FD207870
:10096000000602D50220BDE8F0870120FBE72DE953
:10097000FF4F0C461E464FF0FF378BB0D2E9000107
:10098000DDF860800A908A46C1F30A5505B93D46F4
:10099000002108464FF00000BAF1000F00F44000BB
:1009A00005DA00EB80004FF4400101EA50004FEA05
:1009B0009059B9F1010F00DDB9460A9850EA4A0092
:1009C0000ED044F61050A5F2FF3545432F14B8F170
:1009D000000F1ED07542291E1EDDC9F100021CE069
:1009E000B8F1010F4FF0000001D0302103E0F243D5
:1009F00005E02154401CB042FBDB304600220021C0
:100A000021540B99C1F80880C1E900200FB0BDE85E
:100A1000F08FBD1B6D1CDEE74A4600DA694206A86E
:100A200000F0F0FB06AB93E8070003AB83E8070098
:100A300050460A990CF044FA8DE80700A0F50050E2
:100A40001F3800900398002D0ADD42F21F014A462C
:100A50000844002303A9039068460CF0ADFC09E0AC
:100A6000A0F500504A461F38002303A903906846AA
:100A70000CF0B7FC8DE807000004000C03D04FF029
:100A8000FF30410800E01046B8F1000F03D000220B
:100A9000009215461EE0751E05D400F02DFB303285
:100AA00062556D1EF9D5B3460122084302D00022DB
:100AB0007F1C04E02078302801D100227F1E002A0C
:100AC000099784D01DE0112D07DA00F015FB3032B4
:100AD00062556D1C50EA0102F5D1084302D000981E
:100AE000C8B10EE00021681E05E0235C625C63541F
:100AF0002254401E491C8142F7DBAB46A81B401E16
:100B00000990002004F80B000B98099AC0F808809F
:100B1000C0E9002B7AE711264FF0000857E72DE9CE
:100B2000F04F88460446D21D22F0070191B0D1E96A
:100B30000001CDE90A010CF08BFD02460B98C00FB5
:100B400001D02D2007E02068810701D52B2002E08D
:100B5000202101EAC000032A099001D0072A05DB01
:100B600003464146204600F00DFB0BE1207880064D
:100B700001D5E06900E00620B8F1650F814606D096
:100B8000B8F1660F18D0B8F1670F70D131E00020CE
:100B9000B9F1110F009001DB112301E009F101030C
:100BA0000AAA01A90CA8FFF7E2FEDDE90C700026F5
:100BB00009F10105834647E001204B4600904FF0C4
:100BC00000470AAA01A90CA8FFF7D1FEDDE90DB084
:100BD0000C995D46002610B909F101000D18B9EB1A
:100BE000050003D4C0F1FF3609F10105A5EB0900AA
:100BF0002BE0B9F1010F01DA4FF001090020B9F142
:100C0000110F0090484601DD112300E003460AAAB7
:100C100001A90CA8FFF7ABFEDDE90C704D460026DC
:100C20008346207800070AD4AB4500DA5D4601A868
:100C3000012D04DD411911F8011C302907D04F4561
:100C400002DA17F1040F04DA012082460FE06D1E6C
:100C5000EEE7002F02DCED1B3E4403E0781CA842C7
:100C600000DD7D1CB81B00F1010A4FF00047207821
:100C7000000703D4AA4501DB4FF0FF3A0021B7F18A
:100C8000004F0DF143088DF8431024D002202B2390
:100C9000002F01DA7F422D230A21021EA0F101005C
:100CA00000DC5FB197FBF1FC97FBF1F201FB1C7CD0
:100CB00017460CF1300C08F801CDEEE7A8F1010061
:100CC00003702188090501D5452100E06521A0F1C7
:100CD000010800F8011C09980FA9A1EB0807FF1DE6
:100CE00000B10120411901EBEA70A1693844081AEA
:100CF000401EA0612078C00602D42046FFF79EFB6C
:100D0000099828B1D4E901219047206A401C20624B
:100D10002078C00622D52046FFF790FB1EE0002E6B
:100D200004DBB34502DD01A8805D00E03020D4E99A
:100D300001219047206A401C2062761CAAF1010024
:100D40005FEA000A0AD100F0CFF9C0680168405C90
:100D5000D4E901219047206A401C2062281EA5F199
:100D60000105DCDC07E0D4E9012118F8010B90470C
:100D7000206A401C2062381EA7F10107F3DC2046E0
:100D8000FFF772FB032011B041E600002DE9F04FA0
:100D900004460D46D21D22F0070089B0D0E9009725
:100DA000484639460CF054FC0246F80F01D02D237A
:100DB00007E02068810701D52B2302E0202101EA0A
:100DC000C0038DF820300BB1012000E00020032A81
:100DD000824601D0072A04DB2946204600F0D2F9DA
:100DE0003FE12078800601D40D2500E0E569C7F3D6
:100DF0000A560D2D49DA00214FEA175B08464FF0DD
:100E00000000002F00F4400007DA00EB80004FF4F0
:100E1000400100EBD07001EA60008115012901DD7D
:100E20004FF0FF3100224FEA850CBCF1180F06D3BA
:100E30001346ACF118004FF08052C24003E04FF46B
:100E4000801323FA0CF30CF10C0CBCF1200F04D32B
:100E5000ACF1200C09FA0CF001E007FA0CF00029C3
:100E60004FF0004801DD18B90FE00ED140450CD31A
:100E700019EB02095F4121B9404502D19F4329EA9C
:100E80000209BBEB175F00D0761C2088000502D555
:100E90007B48784402E07A487844193808AA30231D
:100EA00002F80A30037C0AF10101002E0AF1020A5D
:100EB00053546A4602DC4FF0300101E04FF031013B
:100EC0004FF001088DF8001002D0A6F2FF3603E0C3
:100ED00059EA470100D06B4E002D02DC217809074A
:100EE00004D54FF002082E218DF80110C4460021D0
:100EF0000BE0C7F303433F01C35C491C6D1E02F8BE
:100F00000830052908F1010801DA002DF1DC002183
:100F10000CE000EB1973491C1B786D1E082902F8C0
:100F200008304FEA091908F1010801DA002DF0DC58
:100F300021688B0602D516E0A8F10108E04505DD21
:100F400002EB080313F8013C302BF5D0B8F1000F89
:100F500009DD02EB080313F8013C2E2B03D109072E
:100F600001D4A8F10108002D05DD3E2102F808108A
:100F70006D1E08F10108407C002E02F8080008F1FF
:100F8000010804DA2D20764202F8080002E02B2046
:100F900002F808000A214FF47A70864208F101082D
:100FA0000BDB96FBF0F3303302F8083096FBF0F3DE
:100FB00008F1010800FB136601E0642E0CDB6420DD
:100FC00096FBF0F3303302F8083096FBF0F308F1AB
:100FD000010800FB136601E00A2E06DB96FBF1F028
:100FE000303002F8080008F1010896FBF1F001FB2F
:100FF0001060303002F80800A16908F1010808EB20
:10100000050202EB0A00081AA0612078C00602D48B
:101010002046FFF713FA216A08AE01EB0A002062AE
:1010200004E0D4E9012116F8010B9047BAF1010A56
:10103000F7D22078C00602D52046FFF7FFF96E46AA
:1010400009E016F8010B3E280FD0D4E901219047A2
:10105000206A401C2062B8F10108F2D22046FFF756
:1010600003FA09B00320BDE8F08F206A284420620B
:1010700003E0D4E90121302090476D1EEBD3F8E75F
:10108000CDE8000002FCFFFF01694A1C02610878FC
:10109000704700B58FB0CDE90131002105910549B8
:1010A0007944CDE9031011466846FFF72BFA0FB0DB
:1010B00000BD0000E5FFFFFF0A6802F8010B0A60AF
:1010C00070470000074B70B50D467B44FFF7E1FF0A
:1010D0000446284600F008F910B14FF0FF3070BD0B
:1010E000204670BD3B5D00000048704710010020A5
:1010F00000487047F000002030B5B0F10A0271F1ED
:1011000000034FEA900E4EEA817EB0EB0E0061EBD9
:1011100091014FEA101E4EEA017E10EB0E0041EBEA
:1011200011114FEA102E4EEA016E10EB0E0041EB4A
:1011300011214FEA104E4EEA014E10EB0E0041EB2A
:101140001141401841F100014FEAD00040EA4170DE
:101150004FEAD1014FEA810444EA907410EB800514
:1011600044EB01046D1944EB0404521BA3414FF0FE
:10117000000348BF0A3200D530BD401C41F10001D8
:1011800030BD00002DE9F0411F46044603260168EA
:10119000072A01F4006004DB08B116A505E016A5D6
:1011A00003E008B115A500E015A521F010002060AE
:1011B000A069C01EA0610FB1401EA0612046FFF7CC
:1011C0003DF94FB1D4E9012138469047206A401CCF
:1011D0002062C01C206206E0206AFAE7D4E90121FF
:1011E00015F8010B9047761EF8D22046FFF73CF920
:1011F000BDE8F0814E414E006E616E00494E4600E2
:10120000696E66002DE9F047814616468AB035487A
:1012100078440DC88DE80D0032487844801C03AC3A
:101220000DC884E80D0041F69B300844372190FB3F
:10123000F1F290FBF1F5A5F1800501FB12041B3CD6
:1012400002D56442012000E00020DFF898A080462B
:101250000027FA44AAF1BE0A0EE0E0070AD032469F
:10126000684607EB470101230AEB81010CF0B9F84E
:101270008DE8070064107F1C002CEED1194F7F44CD
:10128000AE3F19E0E80715D007EB04100DF1180A7E
:1012900090E80E008AE80E00C068F04201D198196B
:1012A00008903246012306A903A80CF09AF803AB74
:1012B00083E807006D10641C002DE3D14FF001039B
:1012C00032466946B8F1000F03A802D00CF074F85A
:1012D00001E00CF086F8C9E90001C9F808200AB05D
:1012E000BDE8F087A8E70000007B00F080007047B1
:1012F00000487047F00000207546FFF7F9FFAE4642
:1013000005006946534620F00700854618B020B511
:10131000FEF7B0FFBDE820404FF000064FF0000799
:101320004FF000084FF0000BAC46ACE8C009ACE849
:10133000C009ACE8C009ACE8C00921F007018D463E
:10134000704710B50446AFF300802046BDE810405A
:10135000FEF77CBF0000000030B44FF0013C50F8B5
:10136000042B51F8043BCCFA52F4D51A20D1FCB925
:1013700050F8042B51F8043BCCFA52F4D51A17D18B
:10138000B4B950F8042B51F8043BCCFA52F4D51AF6
:101390000ED16CB950F8042B51F8043BCCFA52F43E
:1013A000D51A05D1002CDAD030BC4FF000007047C0
:1013B00029BAB1FA81F111F01801D1F1200084406D
:1013C000F2D1CA40CB4012F0FF0213F0FF0330BC51
:1013D000D01A704701491820ABBEFEE72600020074
:1013E0007047000070B540F2C434C2F200040546F4
:1013F00020460E4601F046F9701E062888BF70BDD3
:101400000DA030F8160044F24021C0F20F01B1FBEC
:10141000F0F02168C862E0604008486307F010FD02
:1014200040F29C234219C2F2000320460021DA80D8
:10143000BDE8704001F04ABCEE010B024C02940280
:10144000BA0210037003DC0370B540F26430C2F2DC
:101450000000067840F29C25C2F2000536B940F241
:10146000CC20C2F20000007800286AD040F2C434D8
:10147000C2F20004204601F005F907F0E1FC6969B9
:10148000A6B188425DD340F208016B78C2F2000138
:10149000421D08686A613BB30238B0F5487F0860B6
:1014A0002BD14FF44870002126E000BF884248D37A
:1014B000A96940F20802C2F2000202EB41029288DE
:1014C000C830686152B344F24020C0F20F00B0FB54
:1014D000F2F02168C862E0604008486320460021BD
:1014E00001F0F4FBA9691FE00230B0F5AF6F0860AE
:1014F00003D14FF4AF600121697044F24021C0F282
:101500000F01B1FBF0F02168C862E0604008486359
:101510002046002101F0DAFB13E000BF2068012221
:10152000C262E26000224263481C4AF6AB21CAF65E
:10153000AA21A0FB0112D10801EB4101A0EB81001F
:10154000A861E888002808BF70BD07F079FCE98829
:10155000884201D270BD00BF002240F2C430C2F206
:1015600000000021EA80BDE8704001F039BC0000B5
:10157000FEE700002DE9F04387B041F200090020AA
:101580000121C4F202090590CDE901100220039166
:10159000049001A9484600F003FB4846012100F0F1
:1015A000D3FBE8B341F2040540F2B8064DF6836779
:1015B0000020CEF20005C2F20006C4F21B3700BFC5
:1015C00031680446A1FB0712910C0191296806912C
:1015D00028680699019A401A904211D22868069903
:1015E000019A401A90420BD228680699019A401A33
:1015F000904205D228680699019A401A9042E7D392
:101600004846012100F0A0FB18B1632C04F1010051
:10161000D6D3622C04D9012007B0BDE8F08300BF07
:101620004846012100F090FB20B1002007B0BDE842
:10163000F08300BF41F2040540F2B8084DF683671D
:101640000020CEF20005C2F20008C4F21B3700BF32
:10165000D8F800100646A1FB0712910C01912968E9
:10166000069100BF28680699019A401A904211D24B
:1016700028680699019A401A90420BD22868069968
:10168000019A401A904205D228680699019A401A98
:101690009042E7D34846012100F056FB18B9EF2EDF
:1016A00006F10100D4D30020EE2E88BF012007B040
:1016B000BDE8F0832DE9F04F87B041F2040641F216
:1016C00000044DF6836BCEF20006C4F2020400273C
:1016D00001250DF10408C4F21B3B4FF0000A4FF046
:1016E00000090CE00138B0FA80F0400900FA0AF075
:1016F0000AF1010ABAF1080F49EA00096AD002208A
:101700000490204641460597CDE90155039700F026
:1017100047FA20460121002200F01CFB40F2B800ED
:10172000C2F200000068A0FB0B01880C00EB8000F7
:10173000400001903068069030680699019A401A7E
:10174000904211D230680699019A401A90420BD209
:1017500030680699019A401A904205D2306806997D
:10176000019A401A9042E7D3022004902046414655
:101770000597CDE90157039500F012FA20460121A3
:1017800000F0E2FA40F2B801C2F200010968A1FBE0
:101790000B12910C2D22514301913168069100BF2B
:1017A0003168069A019B891A99429BD23168069A40
:1017B000019B891A994295D23168069A019B891A30
:1017C00099428FD23168069A019B891A9942E7D3D0
:1017D00088E700BF5FFA89F007B0BDE8F08F00002E
:1017E000F0B587B041F200040020C4F20204059075
:1017F00001210390022041F20405CDE9011104907A
:1018000001A92046CEF2000500F0CAF920460121C8
:10181000002200F09FFA40F2B806C2F200063068DB
:101820004DF68367C4F21B37A0FB0701880C40F21A
:10183000EE21484301902868069000BF2868069969
:10184000019A401A904211D228680699019A401ACA
:1018500090420BD228680699019A401A904205D20C
:1018600028680699019A401A9042E7D32046012140
:10187000012200F06FFA3068A0FB0701880C00011C
:10188000A0EB914001902868069000BF2868069957
:10189000019A401A904211D228680699019A401A7A
:1018A00090420BD228680699019A401A904205D2BC
:1018B00028680699019A401A9042E7D307B0F0BD14
:1018C00010B507F0BDFA40F29C24C2F20004A168F2
:1018D00088425CD33230A06007F0B2FA616A01F549
:1018E0007A7188421ED907F0ABFA606205F04CFAB3
:1018F0009FED271AB4EE410AF1EE10FA12DA40F227
:101900006030C2F2000080ED000A10EE100A0DF007
:101910003DFE024640F2FC200B46C2F200001DA133
:10192000FEF778FD07F08CFA40F2E822C2F20002DE
:10193000E16912681144884298BF10BD07F080FA2F
:1019400040F2EC22C2F200021168E0614A290DDC8B
:1019500040F26030C2F200004B1C0068136048F691
:10196000CC42C2F2000242F8210010BD48F6CC443D
:10197000C2F20004211D20464FF49472FEF70DFFC1
:1019800040F26030C2F200000068C4F8280110BDC7
:101990000000FA42252E3166000000002DE9F04FCC
:1019A00087B0044641F200080120C4F20208CDE9E4
:1019B0000100022041F204060027049001A94046DC
:1019C000CEF200060597039700F0EAF840F2B80956
:1019D0004DF68365C2F20009C4F21B356FF0070AA9
:1019E0004FF03A0B06E000BF6408072F07F101072C
:1019F00080F0A28040460121002200F0ABF9E00710
:101A00004CD1D9F80000A0FB0501880C46214843C1
:101A100001903068069000BF30680699019A401A1C
:101A2000904211D230680699019A401A90420BD226
:101A300030680699019A401A904205D2306806999A
:101A4000019A401A9042E7D340460121012200F05A
:101A500081F9D9F80000A0FB05016FF0010000EA50
:101A6000514001903068069030680699019A401AFA
:101A70009042B9D230680699019A401A9042B3D286
:101A800030680699019A401A9042ADD230680699A2
:101A9000019A401A9042E7D3A6E700BFD9F80000A8
:101AA000A0FB05010AEAD13001903068069000BF22
:101AB00030680699019A401A904211D2306806990E
:101AC000019A401A90420BD230680699019A401A46
:101AD000904205D230680699019A401A9042E7D3A5
:101AE00040460121012200F035F9D9F80000A0FBA1
:101AF0000501880C00FB0BF001903068069000BFD8
:101B000030680699019A401A9042BFF46DAF306870
:101B10000699019A401A9042BFF466AF3068069960
:101B2000019A401A9042BFF45FAF30680699019A5B
:101B3000401A9042E4D357E707B0BDE8F08F0000A9
:101B400070470000EFF3108072B600BFFEE70000A0
:101B500010B582B01FFA80FE1FFA81FC40F6F0102B
:101B60009CB293B2C2F2000071466246009408F043
:101B7000DFF902B010BD0000B0B5044600F0F0F887
:101B8000054640F20000C2F200000078611C18BF58
:101B9000044400BF00F0E4F8401BA042FAD3B0BDFB
:101BA0002DE9F04F82B000F13E4241F6004502F1CE
:101BB000FF77C4F20205082243F6004E4FEAB7262B
:101BC000A84208BF0722C4F2010E072E38BF4FEA11
:101BD000B7220125002600274FF00008009208E0F8
:101BE00008F101080437B8F1100F06F1020600F001
:101BF000A7800C6805FA08F914EA090FF0D0D1F8AB
:101C000004B003220BF0030CACF10104B240012C30
:101C10006FEA020A10D88268CC6802EA0A02B4406D
:101C2000224382604268CBF3001422EA090204FADC
:101C300008F42243426005E0BCF1030F02D14FF0EB
:101C4000030C20E0C2688C6802EA0A02B440224316
:101C5000BCF1020FC26016D16FF0030202EA580213
:101C60000244D2F820C007F01C050F230C69AB40DA
:101C70002CEA030304FA05F52B431362D1F804B0F0
:101C800001250BF0030C02680CFA06F302EA0A02C3
:101C90001A431BF4403F0260A2D0002243F64403E3
:101CA0000192C4F202031A684FF6084C42F48042D3
:101CB0001A601A68CFF6FF7C02F480420192019A02
:101CC00028F00302724452F80C3007F00C050F2480
:101CD000AC40A343009C04FA05F52B4342F80C30BA
:101CE000DEF808204B6842EA090543F60C4CDC029A
:101CF00058BF22EA0905CEF80850C4F2010CDCF8FE
:101D000000209C0242EA090558BF22EA0905CCF8E6
:101D10000050DEF804209C0342EA090558BF22EA7D
:101D20000905CEF80450DEF80020DB0342EA09057D
:101D300058BF22EA0905CEF80050012550E700BF40
:101D400002B0BDE8F08F00000069084018BF012014
:101D500070470000002A08BF090481617047000035
:101D600048F2B830C2F200000068704740F200004C
:101D700048F2B831C2F20000C2F2000100780A68ED
:101D8000104408607047000080B543F60040C4F27C
:101D90000200016841F400710160016841F4806152
:101DA0000160016841F480710160032000F0C8F80F
:101DB0000F2000F005F800F061F8002080BD000061
:101DC00070B586B0002543F640010195C4F20201CA
:101DD0000A68044642F020020A60096801A801F07E
:101DE000200101910199694600F06AF9049E002ED4
:101DF00018BF012600F084F94DF68361B040C4F2AB
:101E00001B31A0FB01014FF0FF3000EB914140F28C
:101E10000C4041F20042C2F20000C4F2000240F263
:101E2000E733C0E90021C0E902530561856100F094
:101E3000DFFB054610B1284606B070BD40F20C40ED
:101E4000C2F2000000F01EFC05460028F3D1372046
:101E500000F036F80F2C0DD837202146002200253F
:101E600000F042F840F20400C2F20000046028468C
:101E700006B070BD0125284606B070BD82B00020B6
:101E800043F640010190C4F202014A6842F48042E4
:101E90004A604A6802F480420192019A0090086800
:101EA000002240F08050086008680F2100F0805048
:101EB000009000986FF0010002B000F015B800002B
:101EC000002848BF7047C1B200F01F00012202FA8B
:101ED00000F04EF20012CEF2000242EAD10121F0EF
:101EE000030108607047000010B54EF60C5CCEF29E
:101EF000000CDCF80030C3F3022E8EF00704042C33
:101F000028BF0424BEF103034FF0FF3E0EFA04F491
:101F100038BF0023A14399400EFA03F39A431143BB
:101F200000F00F0200F160430901043A03F5644335
:101F30006244002848BF02F10C03197010BD000074
:101F40004EF60C51CEF200010A684FF6FF031A401C
:101F500060F30A2242F0806040F0FD700860704734
:101F60002DE9F041002800F08B8043F60808C4F208
:101F700002080446D8F8F8030D4600F0070088422E
:101F800007D288F8F853D8F8F80300F00700A84201
:101F900076D12068810717D5410705D5D8F80010FC
:101FA00041F4E051C8F80010010705D5D8F8001039
:101FB00041F46041C8F80010D8F80010A26821F080
:101FC000F0011143C8F80010C0073FD1D8F8F8035A
:101FD00000F00700A84207D988F8F853D8F8F803AA
:101FE00000F00700A8424BD12068410707D5D8F878
:101FF0000010E26821F4E0511143C8F80010000716
:1020000008D5D8F80000216920F4604040EAC100FA
:10201000C8F8000000F09CF8D8F800104FF6DA126B
:10202000C1F30311C0F60002515C40F2B80220FA7D
:1020300001F140F20400C2F200000068C2F20002A6
:102040001160FFF7BDFE0020BDE8F0816068811ED1
:10205000022907D258F8081C89015CBF0120BDE89D
:10206000F08111E0012807D158F8081C89035CBFF2
:102070000120BDE8F08107E058F8081C890703D467
:102080000120BDE8F08100BFD8F8001021F0030165
:102090000843C8F80000FFF763FE064641F28837A0
:1020A000D8F80000616800F00C00B0EB810F8DD013
:1020B000FFF756FE801BB842F2D90320BDE8F0813D
:1020C0000F22026043F60802C4F20202136803F012
:1020D00003034360136803F0F0038360136803F4A1
:1020E000E053C360D2F800C04FF4E05303EADC03CE
:1020F0000361D2F8F80300F00700086070470000A1
:1021000040F2B80043F60801C2F20000C4F2020136
:10211000006809684FF6EA12C1F38221C0F6000296
:10212000515CC8407047000040F2B80043F6080117
:10213000C2F20000C4F20201006809684FF6EA1218
:10214000C1F34231C0F60002515CC8407047000044
:1021500010B543F60404C4F20204606800F00C01F8
:1021600042F200400829C0F2F40007D0042918BF49
:1021700010BD41F20020C0F27A0010BD216801F0CC
:102180003F02216823684902C3F3881106D4A1FBEA
:1021900000010023FEF780F807E000BF41F20020B5
:1021A000C0F27A004843B0FBF2F021680222C1F38A
:1021B000014102EB4101B0FBF1F010BD2DE9F0410E
:1021C00082B0002868D00446007843F60006C007B5
:1021D000C4F202060BD0B06800F00C00042840F0F6
:1021E0009F803068800302D56068002854D0207832
:1021F00080071AD5B06810F00C0F09D0B06800F055
:102200000C00082840F0A6807068400200F1A2800F
:102210003068800702D5E06801283DD13068216927
:1022200020F0F80040EAC10030602078000737D481
:10223000207840074CD4A56955B3B06800F00C0075
:10224000082840F0BB80012D26D07068E16900F4B9
:1022500080028A4220D1216A00F03F028A421BD1CB
:1022600047F6C071626A0140B1EB821F14D1A16AC6
:102270004FF6FF73C903994300F44032A1F5803152
:102280008A4209D1E16A00F07060B0EB016F03D1BE
:10229000002002B0BDE8F081012002B0BDE8F0816D
:1022A0006069002840F20000C4F2472076D0012186
:1022B000C0F8801EFFF754FD054600BF706F800711
:1022C000B6D4FFF74DFD401B0228F7D9DDE000BF73
:1022D000306C10F080580AD100200190306C40F032
:1022E00080503064306C00F080500190019847F2CB
:1022F0000007C4F200073868C00541D4386840F4CC
:1023000080703860FFF72CFD054600BF3868C005B7
:1023100036D4FFF725FD401B0228F7D9B5E000BFF2
:10232000B06800F00C00082803D1706840023FF547
:1023300058AF6068B0F5803F07D0B0F5A02F40F0EF
:102340008D80306840F480203060306840F4803008
:1023500030608DE0E068002852D00020C4F24720B1
:1023600001210160FFF7FCFC054600BF30688007D3
:102370003FF554AFFFF7F4FC401B0228F6D984E088
:10238000A068012805D005284ED1306F40F0040028
:102390003067306F40F0010030674FE00021C0F837
:1023A000801EFFF7DDFC0546706F80077FF540AFAC
:1023B000FFF7D6FC401B0228F6D966E00027C4F2DE
:1023C000472700203866FFF7CBFC022D05460BD1CE
:1023D000306880015ED5FFF7C3FC401B02284FF038
:1023E0000300F5D955E700BF306880017FF550AF95
:1023F000FFF7B6FC401B02284FF00300F4D948E772
:102400000020C4F2472000210160FFF7A9FC054627
:10241000306880077FF509AFFFF7A2FC401B022858
:102420004FF00300F4D934E7316F002821F00101A7
:102430003167316F21F0040131674DD0FFF790FC17
:10244000054641F2883700BF306F800756D4FFF74A
:1024500087FC401BB842F7D917E000BF316800285D
:1024600021F480313160316821F4802131604FD016
:10247000FFF776FC054600BF306880033FF5B7AE36
:10248000FFF76EFC401B6428F6D9032002B0BDE8BC
:10249000F08100BF04F11C052FCD084340EA8210F3
:1024A000D9034FF6FF729143A1F5803140EA0560F0
:1024B0000843706001203866FFF752FC044600BFF5
:1024C000306880013FF5E4AEFFF74AFC001B0228AC
:1024D0004FF00300F4D9DCE6FFF742FC054641F279
:1024E000883700BF306F800708D5FFF739FC401BE5
:1024F000B8424FF00300F5D9CBE600BFB8F1000FAA
:102500007FF499AE306C20F08050306493E600BFC9
:10251000FFF726FC054600BF306880037FF567AEF5
:10252000FFF71EFC401B64284FF00300F4D9B0E60F
:10253000704700007047000010B590F83C20012A59
:102540004FF0020251D080F83D200268D2F804E03A
:10255000D2F808C00C682EF07003234341F2FF74D8
:10256000C4F20004A24253600EDC40F2FF73C4F2D6
:1025700000039A4216DCB2F1804F2BD040F20043A8
:10258000C4F2000324E000BF40F2FF33C4F20103B1
:102590009A4213DC41F60003C4F200039A4219D0B8
:1025A000002313E040F60003C4F200039A4211D066
:1025B00040F60043C4F200030AE000BF44F2000307
:1025C000C4F201039A4205D040F20043C4F2010371
:1025D0009A4204D149682CF080031943916001218B
:1025E000002280F83D1080F83C20104610BD00000D
:1025F000002804BF0120704710B5044690F83D0044
:1026000028B9002084F83C00204600F01FF8022082
:1026100084F83D002068211D02F0A6FA012084F80C
:10262000460084F83E0084F83F0084F8400084F8B7
:10263000410084F8420084F8430084F8440084F8A0
:10264000450084F83D00002010BD000081B0006806
:1026500040F20041C4F20001884201D001B070474D
:102660000020009043F64000C4F20200016841F0EF
:1026700002010160006800F002000090009801B0C3
:102680007047000090F83D1001291CBF01207047E1
:10269000022180F83D10006841F2FF72C168C4F267
:1026A0000002904241F00101C1600DDC40F2FF7177
:1026B000C4F20001884215DCB0F1804F2AD040F20C
:1026C0000041C4F2000123E040F2FF31C4F20101F5
:1026D000884213DC41F60001C4F20001884219D09F
:1026E000002113E040F60001C4F20001884211D03D
:1026F00040F60041C4F200010AE000BF44F20001CC
:10270000C4F20101884205D040F20041C4F2010147
:10271000884206D1816801F00701062904BF002024
:102720007047016841F0010101600020704700001E
:1027300080B590F83C20012A4FF0020200F0C280E0
:1027400080F83D20D0F800C04FF67772DCF80830F2
:1027500023EA0202CCF808200B684F2B28DC1F2B41
:1027600044DD202B45D0302B43D0402B40F0AC80B3
:10277000D1F804E0C968DCF82030DCF8202022F031
:102780000102CCF82020DCF8182022F0F00242EA06
:10279000011123F00A0242EA0E02CCF81810CCF81C
:1027A0002020DCF8081041F0470121F0300180E0E2
:1027B0006F2B27DDB3F5005F48D0B3F5805F7AD08B
:1027C000702B40F08180D1E901E3C968DCF8082072
:1027D00043EA0E0322F47F4243EA01211143CCF87D
:1027E0000810DCF8081041F0770162E00BB1102B03
:1027F0006AD1DCF8081021F07001194341F007019B
:1028000057E000BF502B35D0602B5DD1D1F804E0EC
:10281000C968DCF8203023F01003CCF82030DCF855
:102820001830DCF8202023F4704322F0A00243EAA1
:10283000013142EA0E12CCF81810CCF82020DCF856
:10284000081041F0670121F0100132E0D1E901E305
:10285000C968DCF8082043EA0E0322F47F4243EA09
:1028600001211143CCF80810DCF8081041F4804134
:102870001FE000BFD1F804E0C968DCF82030DCF8C4
:10288000202022F00102CCF82020DCF8182022F0D1
:10289000F00242EA011123F00A0242EA0E02CCF8E9
:1028A0001810CCF82020DCF8081041F0570121F076
:1028B0002001CCF808100022012180F83D100021F1
:1028C00080F83C10104680BD0122F5E770470000FB
:1028D00010B5016804460869800744BFC8685FEA0C
:1028E000807039D40869400744BFC8685FEA407007
:1028F0003ED40869000744BFC8685FEA007045D449
:102900000869C00644BFC8685FEAC0604AD4086965
:10291000C0071CBFC8685FEAC07051D108690006D3
:1029200044BFC8685FEA006052D40869400644BFEB
:10293000C8685FEA406053D40869800646BFC8682B
:102940005FEA806010BD6FF0200220460A61BDE89A
:102950001040FFF7EFBD00BF6FF0020008610120DB
:1029600020778869800743D02046FFF7AFFF45E016
:102970006FF00400086102202077886910F4407F1E
:1029800040D02046FFF7A2FF42E000BF6FF00800F2
:10299000086104202077C86980073DD02046FFF7F2
:1029A00095FF3FE06FF01000086108202077C869AC
:1029B00010F4407F3AD02046FFF788FF3CE000BF8C
:1029C0006FF001000861204600F060FA2168A5E779
:1029D0006FF0800008612046FFF7AAFD2168A4E798
:1029E0006FF040000861204600F05AFA2168A3E722
:1029F000204600F025F8204600F066F92168002006
:102A000020776FE7204600F01BF8204600F05CF9C5
:102A10002168002020776CE7204600F011F820465E
:102A200000F052F921680020207769E7204600F085
:102A300007F8204600F048F921680020207766E773
:102A4000704700002DE9F04390F83C30012B04BFA3
:102A50000220BDE8F0834FEAB202032A00F2FC80B4
:102A6000DFE802F0023E7EBE036840F200471A6AC9
:102A700043F4806522F001021A621C6A1A46D3F8F8
:102A800004E052F818CF8E6824F00204C4F2010763
:102A9000BD4244EA060405D1CE6824F00C0426F0B9
:102AA000040634430E68BD4207D1D1E905572EF420
:102AB000407E45EA0E0545EA070E2CF073073743C2
:102AC000C3F804E09F614F6809695F631C629F69F6
:102AD00047F008079F619F6927F004079F61B1E0F5
:102AE000036840F200481A6A43F4806522F010023D
:102AF0001A621C6A1A46D3F804C052F818EF8F689D
:102B000024F02004C4F20108454544EA071407D123
:102B1000CF686FF0400624F0C00406EA071634437D
:102B2000D1F80090454506D1D1E905562CF440670F
:102B30002E4347EA860C2EF4E64747EA0927C3F8F6
:102B400004C09F614F6809699F631C629F6947F4D5
:102B500000679F619F6927F480679F6171E000BFF4
:102B6000036840F200481A6A43F4806522F48072D8
:102B70001A621C6A1A46D3F804C052F81CEF8F6818
:102B800024F40074C4F20108454544EA072408D13E
:102B9000CF6840F2FF463F0224F4406427EA06066D
:102BA0003443D1F80090454506D1D1E905562CF4BF
:102BB00040572E4347EA061C2EF0730747EA0907E1
:102BC000C3F804C0DF614F680969DF631C62DF6915
:102BD00047F00807DF61DF6927F00407DF6131E0B4
:102BE000036840F200451A6A43F4806722F4805279
:102BF0001A621A46D3F820C05C6852F81CEFD1F86C
:102C000000808E68C4F20105AF4204D14D6924F4FE
:102C1000804444EA85142CF4005747EA06372EF422
:102C2000E64646EA08265C60DE614E6809691E6475
:102C30001F62DF6947F40067DF61DF6927F480679F
:102C4000DF6109021368194311600021002280F836
:102C50003C200846BDE8F0830121002280F83C209A
:102C60000846BDE8F0830000002804BF012070473B
:102C700010B5044690F83D0028B9002084F83C00C7
:102C8000204600F01FF8022084F83D002068211D36
:102C900001F06AFF012084F8460084F83E0084F8C1
:102CA0003F0084F8400084F8410084F8420084F832
:102CB000430084F8440084F8450084F83D00002077
:102CC00010BD0000704700007047000041B10829A6
:102CD00010D0042914BF00F1410200F13F020BE0C3
:102CE00090F83E20012A1CBF01207047022280F884
:102CF0003E2013E000F140021278012A1CBF01209F
:102D000070470222082907D0042914BF80F8412007
:102D100080F83F2002E000BF80F84020006801F00A
:102D20001F010122036A02FA01F123EA0102026291
:102D3000026A114341F2FF72C4F200029042016242
:102D40000CDC40F2FF71C4F20001884214DCB0F1E7
:102D5000804F37D040F2004116E000BF40F2FF3113
:102D6000C4F20101884215DC41F60001C4F2000101
:102D7000884227D0002115E040F60001C4F200018E
:102D800088421FD040F60041C4F20001884219D0A9
:102D90001FE000BF44F20001C4F20101884211D0DB
:102DA00040F20041C4F20101884212D1416C40F26C
:102DB000004340F48062C4F2010341F400419A42AE
:102DC000416406D1816801F00701062904BF002093
:102DD0007047016841F00101016000207047000068
:102DE00010B5026801F01F0E4FF0010C146A0CFAC6
:102DF0000EF324EA0303136240F20043D2F820C02A
:102E000042F48064C4F201039C42C2F820C009D19C
:102E1000136A41F21114234204D1136A40F244446C
:102E200023420FD0136A41F21114234213D1136AC3
:102E300040F2444423420ED1136823F0010313608F
:102E400009E000BF536C23F400435364136A41F25A
:102E500011142342EBD008290CD0042910D00029EA
:102E60004FF0010114BF80F8411080F83E1000209F
:102E700010BD00BF012180F84010002010BD00BF30
:102E8000012180F83F10002010BD0000006841F2D1
:102E90000041C4F20001884218BF7047FEF766BFC8
:102EA00070470000002804BF0120704710B5044699
:102EB00090F83D0028B9002084F83C00204600F03E
:102EC00021F8242084F83D002068C16821F40051D5
:102ED000C160204601F05CFF2068016921F4904147
:102EE0000161416921F02A014161C16841F4005149
:102EF000C16000202021206484F83D1084F83E1039
:102F000010BD000080B586B0016841F20000C4F237
:102F10000100814202D006B080BD00BF002143F60F
:102F200030020191C4F20202536900F5704043F08F
:102F300010035361536903F010030193019B019146
:102F4000136843F001031360126802F0010201925A
:102F5000019A4FF4C06201920222CDE902210321BD
:102F600004910721059101A9FEF71AFE06B080BD64
:102F70002DE9F04381B0044690F83D0020280DD1A2
:102F80000F4600294FF0010000F0DD801646002AB0
:102F900000F0D98094F83C00012803D1022001B050
:102FA000BDE8F083012084F83C000020206421204B
:102FB0001D4684F83D00FEF7D3FEA684E684A16892
:102FC0000646B1F5805F03D12069002800F010812A
:102FD000B8460027002084F83C00E18C20680029D6
:102FE00000F0908005F101090DE000BFB8F1000F7D
:102FF00028D018F8011B4160E18C0139E184E18C93
:10300000002900F07F8001680906EFD4B9F1000FB4
:103010000AD0FDB1FEF7A4FE801BA8421AD8206892
:1030200001680906F6D5E1E701680906DED4016802
:1030300009065CBF01685FEA0161D7D4016809062F
:10304000F2D5D3E737F8021B4FF000086FF35F218A
:10305000D1E700BF206850E8030F216820F4D0704A
:1030600041E80302BAB3206850E8030F216820F456
:10307000D07041E8030272B3206850E8030F216862
:1030800020F4D07041E803022AB3206850E8030F0F
:10309000216820F4D07041E80302002ADAD11AE056
:1030A000206850E8050F216820F0010041E8050282
:1030B000DAB1206850E8050F216820F0010041E8EE
:1030C000050292B1206850E8050F216820F0010048
:1030D00041E805024AB1206850E8050F216820F058
:1030E000010041E80502002ADAD1202084F83D00E1
:1030F00084F83E00002084F83C00032001B0BDE8C5
:10310000F08300BF0168490619D4FDB1691C0DD1D7
:103110000168490613D4016849065CBF01685FEA8B
:1031200041610CD401684906F2D508E0FEF718FEAB
:10313000801BA8420AD8206800684006F6D52020E7
:1031400084F83D00002001B0BDE8F083206850E81D
:10315000030F216820F4D07041E80302E2B3206835
:1031600050E8030F216820F4D07041E803029AB3BD
:10317000206850E8030F216820F4D07041E8030272
:1031800052B3206850E8030F216820F4D07041E862
:103190000302002ADAD11FE0206850E8050F2168F9
:1031A00020F0010041E80502002A9ED0206850E886
:1031B000050F216820F0010041E80502002A3FF4D4
:1031C00094AF206850E8050F216820F0010041E825
:1031D0000502002A3FF489AF206850E8050F2168F6
:1031E00020F0010041E80502002AD5D17DE700BFAB
:1031F0004FF00008EEE60000FEE70000F0B583B0F7
:1032000040F200440546C4F2020407260A2704E0FF
:103210006D003006A6F1010662D020464FF4004151
:103220000022FEF797FD00970098A0B100980138A2
:103230000090009878B1009801380090009850B143
:10324000009801380090009828B10098013800904B
:1032500000980028EAD1E8B2C20920464FF4005194
:10326000FEF778FD01970198A8B100BF01980138D9
:103270000190019878B1019801380190019850B1FE
:10328000019801380190019828B101980138019006
:1032900001980028EAD120464FF400410122FEF7B0
:1032A00059FD029702980028B2D000BF0298013859
:1032B000029002980028ABD0029801380290029840
:1032C0000028A5D0029801380290029800289FD0CB
:1032D00002980138029002980028E7D198E700BFD1
:1032E00020464FF40041002203B0BDE8F040FEF755
:1032F00031BD000010B584B040F20044C4F20204B5
:1033000020464FF400510122FEF724FD20464FF4E1
:1033100000410122FEF71EFD0A2001900198A0B194
:10332000019801380190019878B101980138019015
:10333000019850B1019801380190019828B1019885
:103340000138019001980028EAD120464FF400513D
:10335000FEF7FAFC28B320464FF400510022FEF796
:10336000F9FC0A2002900298A8B100BF0298013827
:103370000290029878B1029801380290029850B1F8
:10338000029801380290029828B102980138029000
:1033900002980028EAD120464FF40051FEF7D4FCF1
:1033A00010B1002004B010BD20464FF4005100229F
:1033B000FEF7D0FC0A2003900398A0B103980138CF
:1033C0000390039878B1039801380390039850B1A3
:1033D000039801380390039828B1039801380390AB
:1033E00003980028EAD1012004B010BDB0B582B026
:1033F00040F20044C4F2020420464FF4004100228F
:10340000FEF7A8FC0A2501950198A0B101980138A2
:103410000190019878B1019801380190019850B15C
:10342000019801380190019828B101980138019064
:1034300001980028EAD120464FF400510022FEF7FF
:1034400089FC01950198A0B101980138019001987B
:1034500078B1019801380190019850B10198013874
:103460000190019828B10198013801900198002835
:10347000EAD120464FF400410122FEF76BFC0A25F9
:1034800001950198A8B100BF0198013801900198F9
:1034900078B1019801380190019850B10198013834
:1034A0000190019828B101980138019001980028F5
:1034B000EAD120464FF400510122FEF74BFC019562
:1034C0000198A0B1019801380190019878B1019854
:1034D00001380190019850B101980138019001988C
:1034E00028B101980138019001980028EAD102B072
:1034F000B0BD0000B0B584B040F20044C4F2020494
:1035000020464FF400410022FEF724FC0A250195D5
:103510000198A0B1019801380190019878B1019803
:1035200001380190019850B101980138019001983B
:1035300028B101980138019001980028EAD120466D
:103540004FF400510122FEF705FC02950298A0B14C
:10355000029801380290029878B1029801380290DE
:10356000029850B1029801380290029828B102984E
:103570000138029002980028EAD120464FF4004119
:103580000122FEF7E7FB0A2003900398A8B100BFD1
:10359000039801380390039878B103980138039099
:1035A000039850B1039801380390039828B1039809
:1035B0000138039003980028EAD120464FF40051C7
:1035C000FEF7C2FBB0FA80F0450920464FF40041F7
:1035D0000022FEF7BFFB284604B0B0BD10B540F294
:1035E000C820C2F20000007800287BD0FEF768F9FE
:1035F00000F0BEF840F22401C2F2000140F2603057
:103600000978C2F2000090ED000A01EE101AB8EE3F
:10361000411AB4EE410AF1EE10FA17DD9FED321AAD
:10362000B4EE410AF1EE10FA10DA40F26430C2F260
:103630000000017851B90121017005F001FC40F250
:103640009C21C2F20001086110BD00BF40F2502071
:10365000C2F20000008840F25222C2F2000201B21F
:10366000128880EAE130A0EBE13011B282EAE13267
:10367000A2EBE13140F25422C2F20002128889B278
:1036800011FA80F011B282EAE132A2EBE13140F2AC
:103690002502C2F20002127810FA81F0C2F10A018A
:1036A0004FF47A725143884216DD40F2CC20C2F2C8
:1036B0000000017881B940F29C24C2F20004217814
:1036C0000131CAB2032A217038BF10BD0121017037
:1036D00005F0B6FB206110BD40F29C20C2F2000054
:1036E0000021017010BD00BF0000A042B0B505F080
:1036F000A7FB40F2C824C2F20004E16901F5FA71A7
:10370000884205D36079C043607105F099FBE061A0
:10371000A56905F095FBEDB1A16901F5FA61884253
:103720001AD905F08DFBA16941F288321144884213
:1037300016D905F085FBA16901F5FA51884213D924
:10374000012020804FF48070A4F805000020C4E917
:103750000600B0BDA061B0BD00206070B0BD00BF6C
:1037600001206070B0BD00BF02206070B0BD0000DD
:10377000F0B581B005F064FB40F29C24C2F2000475
:10378000E1688842C0F0F5803230E06000F0F4F883
:1037900005F056FB40F2E822C2F20002216A1268EC
:1037A0001144884240F2E58005F04AFB206240F275
:1037B0005620C2F2000040F2F564B0F9002040F259
:1037C0000130C0F60104C2F200002146FCF722FEDF
:1037D00040F25820C2F20000B0F9002040F20B3055
:1037E000C2F200002146FCF715FE40F25A20C2F258
:1037F0000000B0F9002040F21530C2F2000021466E
:10380000FCF708FE40F25020C2F20000B0F90020A0
:1038100040F21F30C2F200002146FCF7FBFD40F2EF
:103820005220C2F20000B0F9002040F22930C2F26A
:1038300000002146FCF7EEFD40F25420C2F20000E9
:10384000B0F9002040F23330C2F200002146FCF70C
:10385000E1FD40F26827C2F2000738680BF096FEDF
:1038600040F2F864024640F23D30C0F601040B46D7
:10387000C2F200002146FCF7CDFD40F26C26C2F2F8
:10388000000630680BF082FE024640F247300B46DD
:10389000C2F200002146FCF7BDFD40F27025C2F2E5
:1038A000000528680BF072FE024640F251300B46CC
:1038B000C2F200002146FCF7ADFD40F2F021C2F259
:1038C000000108684A2809DC431C3A680B6048F686
:1038D0007421C2F2000141F820200CE048F6742463
:1038E000C2F20004211D20464FF49472FCF755FFEC
:1038F0003868C4F8280140F2F421C2F200010868D7
:103900004A2809DC431C32680B6048F6A031C2F239
:10391000000141F820200CE048F6A034C2F2000477
:10392000211D20464FF49472FCF737FF3068C4F82D
:10393000280140F2F821C2F2000108684A280BDC95
:10394000431C2A680B6048F6F851C2F2000141F8A6
:10395000202001B0F0BD00BF48F6F854C2F20004C8
:10396000211D20464FF49472FCF717FF2868C4F815
:10397000280101B0F0BD0000F0B581B02DED0A8B3B
:103980008CB00DF11E000DF11D0700900DF1260009
:1039900008A903AA0BAB019702F0AEFEBDF81E000A
:1039A00040F25026C105C2F2000640F1BB809DEDF9
:1039B000030A9DED041A9DED052A9DED063A9FED43
:1039C0006A4AB8EEC00A40F2BC07B8EEC11A20EE4F
:1039D000040AC2F2000721EE041AB8EEC22AB8EEB9
:1039E000C33AB8EE009A87ED000A22EE042A23EECD
:1039F000043A86ED031A21EE091A30EE000A20EE91
:103A0000020A21EE031A31EE000A10EE100A86EDCA
:103A1000042A86ED053A0BF0B9FD41EC100B09F0D4
:103A20002FFE51EC100B9FED4E0B54EC105B2A4611
:103A300023460BF0E7FA0AF097FFB06196ED04BA5F
:103A400097ED001A96ED03AA96ED050A3BEE0BCA18
:103A500031EE011A21EE0A1A2CEE000A30EE010AAC
:103A600010EE100A0BF092FD2AEE090A2BEE0C1A4A
:103A700020EE0A0A30EE410AB7EE001A30EE010AD3
:103A800041EC180B10EE100A0BF080FD41EC110B0D
:103A9000B0EE480AF0EE680A0AF00EF951EC100B8D
:103AA0002A4623460BF0AEFA0AF05EFFF06197ED6E
:103AB000009A96ED03AA96ED05BA96ED04CA29EE92
:103AC0000B0A2AEE0C1A31EE000A30EE000A10EE54
:103AD000100A0BF05BFD2AEE0A0A29EE091A31EEF4
:103AE000000A2CEE0C1A30EE410A2BEE0B1A30EEC7
:103AF000410A41EC180B10EE100A0BF047FD41ECA7
:103B0000110BB0EE480AF0EE680A0AF0D5F851EC55
:103B1000100B2A4623460BF075FA0AF025FF306297
:103B2000BDF81E0010F0700F08D0BDF826103180CF
:103B3000BDF828107180BDF82A10B180000708D5A3
:103B4000BDF82000F080BDF822003081BDF82400CF
:103B500070810CB0BDEC0A8B01B0F0BD00BF00BF9E
:103B60006666666666A64C400000803010B503F0BD
:103B70007DFE00281CBF002010BD4EA0FCF786FD76
:103B8000782005F0A7F828B1002453A0FCF77EFDAB
:103B9000204610BD40F6C200C0F60100FCF776FDDD
:103BA000782003F0B5FD28B1002455A0FCF76EFD88
:103BB000204610BD40F69F00C0F60100FCF766FDF0
:103BC000322004F0E5FF48B140F6E1000024C0F6E1
:103BD0000100FCF75BFD204610BD00BF40F613005E
:103BE000C0F60100FCF752FD02F07AFD40B140F64C
:103BF00002100024C0F60100FCF748FD204610BD6D
:103C000040F2C070C0F60100FCF740FD03F06CFD0F
:103C100002F064FF40B140F6BD100024C0F6010080
:103C2000FCF734FD204610BD40F67B00C0F60100D5
:103C3000FCF72CFD40F2731002F002FC40B140F69C
:103C40003B100024C0F60100FCF720FD204610BD0B
:103C500040F2F070C0F60100FCF718FD322002F0CF
:103C600095FE48B140F667100024C0F60100FCF74D
:103C70000DFD204610BD00BF40F63700C0F6010024
:103C8000FCF704FD05F0D8FE012004F0C3FE014658
:103C9000B0FA80F0440940F6921040F65902C0F69E
:103CA0000100C0F60102002908BF1046FCF7EEFC37
:103CB000204610BD6D707520696E697469616C690C
:103CC0007A6174696F6E20636F6D706C6574652EB8
:103CD0002E2E2E2E2E0000006D70755F7365745FA2
:103CE00073656E736F7220636F6D65206163726FB1
:103CF0007373206572726F72202E2E2E2E2E2E0060
:103D00006D70755F636F6E6669677572655F666912
:103D1000666F20636F6D65206163726F73732065DA
:103D200072726F72202E2E2E2E2E2E0010B544F69B
:103D30004D204FF66022C0F60000C0F600020021C0
:103D400005F0B8F840F25014C2F20004206044F6C6
:103D500009204FF63C22C0F60000C0F60002002108
:103D600005F0A8F8606044F671204FF68422C0F692
:103D70000000C0F60002002105F09CF8A06044F6A7
:103D8000E1104FF61822C0F60000C0F60002002134
:103D900005F090F8E06044F6D1104FF6F412C0F64A
:103DA0000000C0F60002002105F084F8206110BD7B
:103DB0002DE9F04F87B0002543F63000CDE90555D9
:103DC0000195C4F20200016841F2000741F01001C0
:103DD00001600168C4F2020701F01001019101992C
:103DE00001950168012241F08001016001684FF0F6
:103DF000010A01F08001019101990195016841F0EA
:103E000002010160016801F002010191019901952F
:103E1000016841F004010160016801F004010191B1
:103E200001990195016841F00101016000684FF4BA
:103E3000FE4100F00100019001983846FDF78AFF2D
:103E4000384648F201010022FDF784FFA7F54066DD
:103E500030464AF2C0410022FDF77CFFA7F5006919
:103E600048464FF4706100224FF4706BFDF772FF0B
:103E7000A7F5805840464FF419410022FDF76AFF2C
:103E80001E2002A902AC81E8210438462146FDF734
:103E900087FE6020CDE902050220049038462146C5
:103EA000FDF77EFE4FF60170CDE9020A3846214645
:103EB000CDE90455FDF774FE4FF49860CDE9020A90
:103EC00030462146CDE90455FDF76AFE4FF4204007
:103ED00002901120CDE90305304621460595FDF7F6
:103EE0005FFE48462146CDE902BACDE90455FDF70B
:103EF00057FE4FF41940CDE9020A40462146CDE96C
:103F00000455FDF74DFE07B0BDE8F08FB0B594B095
:103F100040F2C43040F200450021C2F2000040F2FD
:103F2000E733C4F200050E91CDE90C110991CDE9FA
:103F30000711CDE90511CDE90311CDE90111532296
:103F4000C0E9021301618021C0E900528161FEF7DE
:103F50004FFB002818BFFDF7F5FD4FF480500B9084
:103F600040F2C430C2F200000BA9FEF7E1FB0028CA
:103F700018BFFDF7E7FD40F2C430C2F20000FEF7C3
:103F800073FE002818BFFDF7DDFD40F2C4300024A9
:103F9000C2F2000008A9CDE90844FEF7CDFA0028D6
:103FA00018BFFDF7CFFD6020CDE90104039405940F
:103FB00040F2C434C2F2000401A920460022FEF7F8
:103FC00041FD002818BFFDF7BDFD2068A84201D0C3
:103FD00014B0B0BD002043F630010F90C4F20201CE
:103FE0000A6842F002020A60096801F002010F91BA
:103FF0000F9910210F910221CDE91010CDE9120186
:1040000005F500300FA9FDF7CBFD14B0B0BD0000E1
:1040100080B540F2544041F20001C2F20000C4F207
:10402000010100234FF00C0C4FF4E13280E80E0048
:10403000C0E90333C0E905C3C361FEF733FF0028BD
:1040400008BF80BDBDE88040FDF77CBDFEE70000F5
:10405000FEE700000000000000000000000000007B
:10406000EFF30980BFF36F8F154B1A681EF0100F26
:1040700008BF20ED108A20E9F04F10602DE90900FB
:104080004FF0500080F31188BFF34F8FBFF36F8F55
:1040900008F092F84FF0000080F31188BDE80900A5
:1040A00019680868B0E8F04F1EF0100F08BFB0ECB8
:1040B000108A80F30988BFF36F8F704700BF00BF7D
:1040C000640100209FED152AB5EE401A20EE020A89
:1040D00031EE023A9FED124AF1EE10FA08BFB0EE4F
:1040E000443A80EE030A20EE821A81EE031A02EEB1
:1040F000101AB8EEC22A30EE020ABDEEC00A10EE67
:10410000101A00EE102AB8EEC00A31EE000ABDEE19
:10411000C00A10EE102AC0E90012704700000044E7
:10412000004000442DE9F04F81B02DED068BA2B088
:1041300012AE054630460C46B0EE418AB0EE609AAB
:10414000B0EE40AA05F0E6FC30466FF003016FF0D8
:1041500003026FF0030300F0A5FDB1EE000A304644
:10416000F0EE400AB0EE401A00F032FB3046B0EEFE
:104170004A0AF0EE490AB0EE481A00F025F9304636
:1041800000210022002300F08DFD9FED8E9A304625
:10419000B0EE490AF0EE490AB0EE491A08F06AF8A2
:1041A0000FFA85F90FFA84FA10AD284649465246AF
:1041B000FFF788FFDDE91001B2EE008A00F07F0012
:1041C0000F9001F03F000E90B0EE480AF0EE490A61
:1041D000B0EE491A304608F04DF828464946524696
:1041E000FFF770FFDDE91001B0EE490A00F07F072C
:1041F000F0EE480AB0EE491A304601F03F0408F0EC
:1042000039F8284649465246FFF75CFFDDE91001C0
:10421000B0EE480A00F07F0801F03F000D90F0EE8C
:10422000480AB0EE491A304608F024F828464946B4
:104230005246FFF747FFDDE91001B0EE009A00F0AB
:104240007F000C90B0EE490AF0EE490AB0EE481A31
:10425000304601F03F0B08F00DF82846494652461B
:10426000FFF730FFDDE91001B1EE08AA00F07F0092
:104270000B9001F03F000A90B0EE4A0AF0EE490AB6
:10428000B0EE481A304607F0F5FF28464946524638
:10429000FFF718FFDDE91001B0EE490A00F07F00DA
:1042A000099001F03F000890F0EE4A0AB0EE481A7B
:1042B000304607F0DFFF284649465246FFF702FF27
:1042C000DDE91001B0EE4A0A00F07F00079001F02E
:1042D0003F000690F0EE4A0AB0EE481A304607F06A
:1042E000C9FF284649465246FFF7ECFEDDE91001BA
:1042F0000F9D00F07F000E9E019001F03F000090A6
:10430000284631463A46234604970394FDF720FC9D
:1043100031460D9E284642463346CDF80880FDF7CB
:1043200017FC0C9D594628463A462346CDF814B052
:10433000FDF70EFC2846594642463346FDF708FC79
:10434000DDF82CB00A9F099D089E584639462A463A
:104350003346FDF7FDFB079CDDF8189058463946BB
:1043600022464B46FDF7F4FBDDF80480DDF800A0A3
:10437000404651462A463346FDF7EAFB4046514641
:1043800022464B46FDF7E4FBDDE90E105A463B465C
:10439000FDF7DEFBDDE903102A463346FDF7D8FBC7
:1043A00002980D9922464B46FDF7D2FB0C980599D1
:1043B00042465346FDF7CCFB22B0BDEC068B01B064
:1043C000BDE8F08F000000002DE9F0472DED108BC7
:1043D000044610EE100AB0EE418AB0EE609A0BF07F
:1043E000D5F89FEDCB0B59EC107B3A464B460AF0C3
:1043F00009FE9FEDC90B56EC105B2A4633460AF0C6
:1044000099FB0AF0B1FA824619EE100A0BF0BEF8D9
:104410003A464B460AF0F6FD2A4633460AF08AFB36
:104420000AF0A2FA804618EE100A0BF0AFF83A46EE
:104430004B460AF0E7FD2A4633460AF07BFB0AF0BA
:1044400093FA054650460BF0A1F841EC180BB0EE7C
:10445000480AF0EE680A09F02FFD51EC100B0AF043
:1044600083FAB0EE480AF0EE680A09EE100A09F085
:1044700087FD51EC100B0AF077FAB0EE480AF0EE27
:10448000680A0AEE100A09F07BFD51EC100B0AF0E5
:104490006BFAB0EE480AF0EE680A0BEE100A09F06B
:1044A0000BFD51EC100B0AF05FFA0CEE100A4046BF
:1044B0000BF06CF841EC180BB0EE480AF0EE680A0D
:1044C00009F0FAFC51EC100B0AF04EFAB0EE480A73
:1044D000F0EE680A0DEE100A09F052FD51EC100BD7
:1044E0000AF042FAB0EE480AF0EE680A0EEE100A40
:1044F00009F046FD51EC100B0AF036FAB0EE480A0E
:10450000F0EE680A0FEE100A09F0D6FC51EC100B21
:104510000AF02AFA0AEE900A28460BF037F841EC26
:10452000180BB0EE480AF0EE680A09F0C5FC51EC31
:10453000100B0AF019FAB0EE480AF0EE680A09EE1C
:10454000900A09F01DFD51EC100B0AF00DFAB0EEC7
:10455000480AF0EE680A0BEE900A09F011FD51ECE2
:10456000100B0AF001FAB0EE480AF0EE680A0CEE01
:10457000900A09F0A1FC51EC100B0AF0F5F994ED4A
:10458000010A94ED021A20EE092A21EE0B3A20EEE0
:104590000A0A21EE0C1A33EE022A31EE400A94ED9B
:1045A000051A94ED063A21EE094A23EE0B5A21EE44
:1045B0000A1A23EE0C3A35EE044A33EE411A94ED12
:1045C000093A94ED0A5A23EE096A25EE0B7A23EE96
:1045D0000A3A25EE0C5A37EE066A35EE433A94ED68
:1045E0000D5A94ED0E7A65EE090A67EE0B1A71EE1C
:1045F000A00AD4ED001A25EE0A5A27EE0C7A37EEFF
:10460000455A21EE8D7A60EE0F2A37EE627AD4EDAC
:10461000042A61EE8E1A20EE2A0A30EE210A62EE9A
:104620008D1A61EE0F3A71EEE31AD4ED083A62EE9C
:104630008E2A21EE2A1A31EE221A63EE8D2A63EEBB
:104640000F4A72EEE42AD4ED0C4A63EE8E3A23EE62
:104650002A3A33EE233A64EE8D3A65EE0F5A64EE51
:104660008E4A25EE2A5A73EEE53A35EE245A62EE6A
:104670002C4A67EE295A75EEA44A05EE900A22EEFE
:10468000252A27EE2B7A32EE472A84ED012A84ED83
:10469000020A24EE2C0A21EEA92A32EE000A24EEA8
:1046A000252A21EEAB4A32EE442A84ED040A84ED39
:1046B000061A26EE2C0A22EEA91A84ED052A31EEFE
:1046C000000A26EE251A22EEAB2A31EE421A84EDBC
:1046D000080A84ED091A20EEAC0A23EEA91A31EE7D
:1046E000000A20EEA51A23EEAB2A31EE421AC4EDE1
:1046F000004A84ED0A3A84ED0C0A84ED0D1A84ED2B
:104700000E5ABDEC108BBDE8F08700BF00BF00BFA4
:104710004AD8124DFB21094000000000008066408D
:10472000074B19680868B0E8F04F80F30988BFF3B9
:104730006F8F4FF0000080F31188704700BF00BFFB
:104740006401002010B54FF47A7004F069FB02F0A8
:10475000DFFAFFF70BFA40F29844C2F200040106B8
:10476000207001D010BD00BFFA2004F059FBFFF704
:10477000FDF901062070F5D1FA2004F051FBFFF796
:10478000F5F90106207018BF10BDFA2004F048FBAF
:10479000FFF7ECF9207010BD10B540F2C824C2F24A
:1047A00000042078002808BFFEF7A0FFA07928B1F8
:1047B000FA200521FCF716FE0020A07101F0B6FCDE
:1047C000FCF742FE6079BDE8104000F0B9B8000087
:1047D00090ED002A90ED045AD0ED081AD0ED0C4A65
:1047E00090ED013A90ED024A90ED056A90ED067A5F
:1047F00022EE002A25EE005AD0ED092AD0ED0A3A21
:1048000061EE801A24EE800AD0ED0D4A23EE203AA4
:1048100024EE014A26EE206A27EE017A62EEA02AF3
:1048200064EEA00AD0ED0E4A63EE813A80ED002AD4
:1048300080ED013A80ED024A80ED045A80ED056A70
:1048400080ED067AC0ED081AC0ED092AC0ED0A3ADB
:10485000303024EE811A80EC030A7047B0B541F283
:104860000004C4F2020420460221FDF76DFAB0FAFA
:1048700080F0450920460421FDF766FA002820460D
:104880004FF0080108BF0235FDF75EFA0028204608
:104890004FF0100108BF0435FDF756FA00282046F6
:1048A0004FF0200108BF0835FDF74EFA01282046D9
:1048B0004FF0400108BF45F01005FDF745FA40F202
:1048C0009C21C2F20001012808BF45F020050A79A9
:1048D000280623D0E8B2904220D148790130C3B2F3
:1048E000022B48711CD14FF0FF3050FA85F31F2B7B
:1048F00016D80120DFE803F01B10141C1414141E3A
:10490000141414141414142014141414141414145B
:1049100014141414141414220320B0BD0020487180
:10492000E8B2904204BF0020B0BD00200D71B0BDC0
:104930000420B0BD0220B0BD0520B0BD0620B0BD32
:10494000F0B581B041F200040127C4F2020405462B
:1049500046B227EA000220464FF48071FDF7FAF9CB
:1049600027EA550220464FF40071FDF7F3F927EAD4
:10497000950220464FF48061FDF7ECF927EAD50255
:1049800020464FF40061FDF7E5F927EA15122046AD
:104990004FF48051FDF7DEF927EA551220464FF417
:1049A0000051FDF7D7F927EA951220464FF48041D0
:1049B000FDF7D0F90022B6F1FF3FC8BF0122204623
:1049C0004FF4004101B0BDE8F040FDF7C3B900006D
:1049D000FFF7B8FEFEF702FE052004F021FAF9E722
:1049E00000F0E0FC40F29844C2F20004207828B9BC
:1049F000012004F015FA20780028F9D001F002F81F
:104A0000012004F00DFAF9E740F29844C2F20004E4
:104A1000207828B9012004F003FA20780028F9D082
:104A200040F2643440F2CC25C2F20004C2F2000528
:104A300005E000BF00F0F4FF012004F0F1F9207858
:104A400029780843F6D001F0F1FAF5E740F29844EE
:104A5000C2F20004207828B9012004F0E1F920789E
:104A60000028F9D0FFF798FE012004F0D9F9F9E702
:104A7000012004F0D5F9FBE780B54EF21000CEF22C
:104A80000000006808F028F8012808BF80BDBDE8D4
:104A9000804007F0F3BC0000B0B592B0002443F6AC
:104AA0004000CDE90A44CDE908440594CDE903442A
:104AB000CDE901440094C4F202000168022541F0EE
:104AC00080510160006800F080500090009847F22B
:104AD00000000094C4F20000016841F480410160CC
:104AE0000068A82100F48040009000980120069002
:104AF0004FF4803007904FF480000D9004200E900A
:104B0000119006A80C95CDE90F15FDF757FB28B1BC
:104B1000EFF3108072B600BFFEE700BF0F20CDE9B3
:104B200001054FF4A05004904FF48050059001A867
:104B300005210394FDF714FA20B1EFF3108072B64B
:104B4000FEE700BF12B0B0BD4EF68850CEF20000B6
:104B5000016841F4700101607047000040F20C40B0
:104B6000C2F20000FDF7B4BE10B540F6FF3E036888
:104B7000C4F2000E40F2004C7045C4F2010C27DC78
:104B8000B0F1804F31D040F20042C4F200029042B6
:104B90002BD040F60002C4F20002904225D041F62C
:104BA000FF72C4F20002904229DC70453CDCB0F197
:104BB000804F5FD040F20042C4F20002904259D0D0
:104BC00040F60002C4F20002904253D056E000BF0B
:104BD00040F60042C4F20002904206D0604504D084
:104BE0000022C4F201029042D9D14A6823F0700336
:104BF000134341F6FF72C4F200029042D5DD43F642
:104C0000FF72C4F20102904222DC42F20002C4F2BE
:104C1000000290422ED00022C4F20102904229D01C
:104C2000604527D02AE000BF40F60042C4F20002EF
:104C300090421FD041F60002C4F20002904219D007
:104C400041F60042C4F20002904213D016E000BFC9
:104C500044F20002C4F2010290420BD044F600027A
:104C6000C4F20102904205D044F20042C4F20102B3
:104C7000904203D1CA6823F44073134323F08002A7
:104C80004B69D1F800E08C681A430260C46240F4BA
:104C90008062C0F828E0624504BF09690163012110
:104CA000416110BD00EE101A90ED036AB8EEC00A23
:104CB00001EE102A02EE103A90ED003AB8EEC11A59
:104CC000B8EEC22A90ED025AD0ED072A66EE003AFD
:104CD00090ED047A33EE833A66EE013A26EE026AEC
:104CE00090ED014AD0ED050A36EE055A22EE806AB3
:104CF000D0ED061A36EE076A22EE817A33EE844A48
:104D000037EE207A62EE820AD0ED0B3A70EEA10AFD
:104D1000D0ED081AD0ED092A63EE805AD0ED0A4A88
:104D200075EEA11A63EE815A75EEA22AD0ED0F5AE4
:104D300063EE823A73EEA43AD0ED0C4A25EE800A77
:104D400030EE240AD0ED0D4A25EE811A31EE241AF8
:104D5000D0ED0E4A25EE822A32EE242A80ED003A6A
:104D600080ED014A80ED025A80ED046A80ED057AFB
:104D7000C0ED060AC0ED081AC0ED092AC0ED0A3AD6
:104D800080ED0C0A80ED0D1A80ED0E2A70470000B0
:104D900010B504460068D4E902C22369016921F410
:104DA000405111430161626943EA0C01E369114317
:104DB000C268194349F20C639A431143C1604169C7
:104DC000A26921F4407141F20043114340F4806232
:104DD000C4F201039A42416102D1FDF7A5F901E055
:104DE000FDF78EF9E16963681922B1F5004FA0FB68
:104DF000020123D15A00DB0FFBF74EFA48F21F5194
:104E0000C5F2EB11A0FB01235A094FF69C73C0F6C3
:104E1000FF7303F1805302FB0300322303EBC00056
:104E2000A0FB01014FF4F87000EA111000EB021032
:104E3000C1F3421108442168886010BD9A009B0F9D
:104E4000FBF72AFA48F21F51C5F2EB11A0FB012330
:104E50005A094FF69C73C0F6FF7302FB030032231E
:104E600003EB0010A0FB0101F02000EA511000EB61
:104E70000210C1F3431108442168886010BD00008E
:104E8000F0B581B02DED068B40F2C825C2F20005C9
:104E9000A878042800F23682DFE810F006005A01F4
:104EA000A201EC01380200BF40F6F014C2F2000487
:104EB0000FF2E843204634210C2205F02DFA05F1CB
:104EC0003403204655210C2205F01EFA40F23C73B3
:104ED000C0F6010320466E210C2205F01DFA40F2B7
:104EE0002406C2F200063078B3EE098A00EE100AFA
:104EF000B8EE400A38EE400AB1EE009A9FEDDCAA07
:104F000020EE090A30EE0A0ABDEEC00A10EE102AA1
:104F100020463521032304F049FF30783B2100EE81
:104F2000100AB8EE400A38EE400A20EE090A30EEC8
:104F30000A0ABDEEC00A10EE102A2046032304F030
:104F400035FF3078412100EE100AB8EE400A38EE05
:104F5000400A20EE090A30EE0A0ABDEEC00A10EE41
:104F6000102A2046032304F021FF3078472100EE69
:104F7000100AB8EE400A38EE400A20EE090A30EE78
:104F80000A0ABDEEC00A10EE102A2046032304F0E0
:104F90000DFF30784D2100EE100AB8EE400A38EED1
:104FA000400A20EE090A30EE0A0ABDEEC00A10EEF1
:104FB000102A2046032304F0F9FE3078532100EE36
:104FC000100AB8EE400A38EE400A20EE090A30EE28
:104FD0000A0ABDEEC00A10EE102A2046032304F090
:104FE000E5FE3078592100EE100AB8EE400A38EE9E
:104FF000400A20EE090A30EE0A0ABDEEC00A10EEA1
:10500000102A2046032304F0D1FE30785F2100EE01
:10501000100AB8EE400A38EE400A20EE090A30EED7
:105020000A0ABDEEC00A10EE102A2046032304F03F
:10503000BDFE3078652100EE100AB8EE400A38EE69
:10504000400A20EE090A30EE0A0ABDEEC00A10EE50
:10505000102A2046032304F0A9FE30786B2100EECD
:10506000100AB8EE400A38EE400A20EE090A30EE87
:105070000A0ABDEEC00A10EE102A2046032304F0EF
:1050800095FE3078712100EE100AB8EE400A38EE35
:10509000400A20EE090A30EE0A0ABDEEC00A10EE00
:1050A000102A2046032304F081FE3078772100EE99
:1050B000100AB8EE400A38EE400A20EE090A30EE37
:1050C0000A0ABDEEC00A10EE102A2046032304F09F
:1050D0006DFE30787D2100EE100AB8EE400A38EE01
:1050E000400A20EE090A30EE0A0ABDEEC00A10EEB0
:1050F000102A2046032304F059FE686A0128C0F2F2
:10510000018148F6CC40C2F2000040F6F014061FC0
:105110000027C2F2000400BF96ED010A07F1350036
:1051200038EE400A20EE090A30EE0A0ABDEEC00A47
:1051300010EE102A81B2204604F05CFF492F00F2E5
:10514000E180686A0137B84206F10406E4DCD9E080
:1051500040F6F014C2F200048DA3204634210C2244
:1051600005F0DAF805F1750320465D210C2205F003
:10517000CBF82046352120224B2304F017FEA86AE5
:105180000128C0F2BF8048F67420C2F200009FEDF3
:105190007E8A9FED7E9A9FED78AA40F6F014061F56
:1051A0000027C2F2000400BF96ED010A07F13500A6
:1051B00038EE400A20EE090A30EE0A0ABDEEC00AB7
:1051C00010EE102A81B2204604F014FF492F00F29D
:1051D0009980A86A0137B84206F10406E4DC91E040
:1051E00040F6F014C2F2000464A3204634210C22DD
:1051F00005F092F840F24733C2F2000320465D21E9
:105200000C2205F081F82046352120224B2304F0A2
:10521000CDFDE86A012875DB48F6A030C2F2000037
:105220009FED598A9FED599A9FED53AA40F6F014CD
:10523000061F0027C2F2000496ED010A07F13500AF
:1052400038EE400A20EE090A30EE0A0ABDEEC00A26
:1052500010EE102A81B2204604F0CCFE492F51D81E
:10526000E86A0137B84206F10406E5DC4AE000BF0F
:105270000000504240F6F014C2F2000439A3204668
:1052800034210C2205F048F840F24730C2F2000009
:1052900000F10A0320465D210C2205F035F8204676
:1052A000352120224B2304F081FD286B012829DBC6
:1052B00048F6F850C2F200009FED2D8A9FED2D9A1E
:1052C0009FED2DAA40F6F014061F0027C2F200043D
:1052D00096ED010A07F1350038EE400A20EE090A82
:1052E00030EE0A0ABDEEC00A10EE102A81B2204646
:1052F00004F080FE492F05D8286B0137B84206F12B
:105300000406E5DCBDEC068B01B0F0BD40F6F01004
:10531000C2F2000010A334210C2204F0FDFF40F281
:105320006C20C2F2000090ED000A40F26820C2F248
:10533000000090ED001A40F27020C2F20000F1EE81
:10534000410A90ED001A5A202421BDEC068B01B0D1
:10535000BDE8F040FEF7E6BE3344E7AB8BE4BD9317
:10536000E59BBE00E888AAE59091E8A7923A000084
:10537000000034C3398EE33D00005042E6A8AAE69F
:10538000BB9AE8A7923A00000000B4C2398E633E8F
:10539000E4BFAFE4BBB0E8A7923A0000E6B8A9E5E5
:1053A000BAA63A0080B540F6F010C2F2000004F050
:1053B000C5FB40F2C820C2F200004FF03C118160F2
:1053C00080BD000070B582B040F2C825C2F2000571
:1053D000A878022866D0012832D0002840F0B38196
:1053E00040F6F014C2F20004DEA3204634210D2260
:1053F00004F092FF05F1340320465A211C2204F0E8
:1054000083FF40F23C73C0F60103204673211C2247
:1054100004F082FFD7A3204634212B2204F07CFF26
:1054200028795A21002840F6F010C2F2000014BF7B
:10543000D4A3D5A33A2202B0BDE8704004F06CBFFB
:1054400040F6F014C2F200044FF60866C2A32046EC
:105450003C210A22CFF6FF7604F05EFF05F1390306
:10546000204650210A2204F04FFF40F25620C2F29B
:105470000000B0F90020B0F90010B2F5FC7F45DD66
:1054800001EB8110C11700EB5140C0F3CF3340F660
:10549000F0100624C2F200003C210D22009404F01A
:1054A00075FB49E040F6F014C2F200044FF60866BE
:1054B000A6A320463C210A22CFF6FF7604F02CFF5B
:1054C00005F15703204650210A2204F01DFF40F247
:1054D0005020C2F20000B0F90020B0F90010B2F57F
:1054E000FC7F40F3A38001EB8110C11700EB51401A
:1054F000C0F3CF3340F6F0100624C2F200003C2186
:105500000D22009404F042FBA6E000BFB14213DA82
:10551000B0F90000062400EB80104042C11700EBF8
:105520005140C0F3CF3340F6F010C2F200003C21EE
:105530000D22009404F0F0FB40F6F014C2F20004D7
:1055400086A320463C211E2204F0E6FE05F143031B
:10555000204650211E2204F0D7FE40F25820C2F20D
:105560000000B0F90020B0F90010B2F5FC7F11DDA9
:1055700001EB8110C11700EB5140C0F3CF3340F66F
:10558000F0100624C2F200003C212122009404F015
:10559000FDFA15E0B14213DAB0F90000062400EB81
:1055A00080104042C11700EB5140C0F3CF3340F6AA
:1055B000F010C2F200003C212122009404F0ACFB68
:1055C00040F6F014C2F2000465A320463C213222CA
:1055D00004F0A2FE05F14D0320465021322204F0D2
:1055E00093FE40F25A20C2F20000B0F90020B0F958
:1055F0000010B2F5FC7F00F38F80B14280F2A380EF
:10560000B0F90000062600EB80104042C11700EB05
:105610005140C0F3CF3340F6F010C2F200003C21FD
:105620003522009604F078FB02B070BDB14213DA67
:10563000B0F90000062400EB80104042C11700EBD7
:105640005140C0F3CF3340F6F010C2F200003C21CD
:105650000D22009404F060FB40F6F014C2F2000446
:105660003BA320463C211E2204F056FE05F16103B7
:10567000204650211E2204F047FE40F25220C2F282
:105680000000B0F90020B0F90010B2F5FC7F11DD88
:1056900001EB8110C11700EB5140C0F3CF3340F64E
:1056A000F0100624C2F200003C212122009404F0F4
:1056B0006DFA15E0B14213DAB0F90000062400EBF0
:1056C00080104042C11700EB5140C0F3CF3340F689
:1056D000F010C2F200003C212122009404F01CFBD7
:1056E00040F6F014C2F200041AA320463C213222F4
:1056F00004F012FE05F16B0320465021322204F023
:1057000003FE40F25420C2F20000B0F90020B0F9CC
:105710000010B2F5FC7F13DD01EB8110C11700EB27
:105720005140C0F3CF3340F6F0100626C2F200001D
:105730003C213522009604F029FA02B070BD00BF6A
:10574000B142FFF65DAF02B070BD00BF47583A00EE
:1057500047593A00475A3A0041583A0041593A00ED
:10576000415A3A00E5BD93E5898DE6B8A9E5BAA6A8
:105770003A000000E99C87E58AA8E68AA5E8ADA67C
:105780003A000000E69C8900E697A0002DE9F04170
:105790002DED028B88B040F29808C2F2000840F666
:1057A000F014D8F80030C2F20004204634210D2253
:1057B00004F0B2FDD8F80830204634211C2204F051
:1057C000ABFDD8F81030204634212B2204F0A4FD84
:1057D000D8F81830204634213A2204F09DFD40F2DA
:1057E0002407C2F2000740F2F5653A78C0F60105D9
:1057F0000DF11B0630462946FAF70CFE20466821BB
:105800000D22334604F080FD40F23C73C0F60103E4
:10581000204675210D2204F07FFD7A780DF11606E1
:1058200030462946FAF7F6FD204676211C223346FB
:1058300004F06AFDBA780DF1110630462946FAF7F0
:10584000E9FD20466C212B22334604F05DFD40F239
:105850003A75C0F6010520467A212B222B4604F02A
:105860005BFD97ED028A18EE100A09F08FFEB2EE8A
:10587000040A02460B465EA05FA1B4EE408A0DF119
:105880000B06F1EE10FAB8BF01463046FAF7C2FD3A
:10589000204668213A22334604F036FD20467A211C
:1058A0003A222B4604F038FD97ED090A97ED0A1AC3
:1058B00097ED0B2A9FED523AB8EEC00AB8EEC11A26
:1058C00081EE031A80EE030AB8EEC22A82EE032AA2
:1058D00040F2C825C2F20005E878B5F91220C0EB05
:1058E000001102312982891A97ED0D4A05EE101A2E
:1058F000B8EEC55A97ED0E6A34EE054A35EE466AA3
:1059000021EE041A20EE050A30EE010A22EE061AF4
:1059100031EE000A01EE102AB8EEC11A30EE010A8B
:10592000BDEEC00A10EE101A97ED0F0A97ED101A8F
:1059300097ED112AB8EEC00AB8EEC11A81EE031A2B
:1059400080EE030AB8EEC22A82EE032A08EBC000FA
:1059500000796982B5F91610C0F18000A882401A5A
:1059600087ED0D4A03EE100A97ED134A87ED0C5AA6
:1059700087ED0E5AB8EEC33A97ED145A34EE034A47
:1059800033EE455A21EE041A20EE030A30EE010AE6
:1059900022EE051A31EE000A01EE101AB8EEC11A15
:1059A00030EE010ABDEEC00A10EE100AE882204671
:1059B000022187ED123A87ED134A87ED143A04F07D
:1059C000BFFDE878E98A08EBC0006A8A03790E20F7
:1059D000002700902046019704F034FB2046012167
:1059E00004F0AEFD08B0BDEC028BBDE8F08100BF55
:1059F000252E316600000000252E306600000000D4
:105A000000007A4440F2C820C2F20000007800286A
:105A100018BF00F0FBB900F03FB900000000000023
:105A200070B5FEF71BFF013805286DD8DFE800F0E0
:105A3000041424344C6200BF40F2C820C2F20000BB
:105A400001780022002982705ED0012940F0848014
:105A50000421017070BD00BF40F2C820C2F20000F6
:105A600001780022002982704ED0042940F078800D
:105A70000121017070BD00BF40F2C820C2F20000D9
:105A8000017811F0FB0F41D08278002A00F07C8071
:105A9000511E817070BD00BF40F2C820C2F20000EC
:105AA000017811F0FB0F45D040F22402C2F200024F
:105AB00002EBC10191F851208178013A8A4240F30A
:105AC00083800131817070BD40F2C820C2F20000B5
:105AD0000178042948D002294ED0002918BF70BD92
