:020000040800F2
:100000004898002061020008DD550008453F0008BF
:10001000D95500086D170008B179000800000000EC
:10002000000000000000000000000000215D00084A
:10003000611C000800000000E1550008AD600008E8
:100040007B0200087B0200087B0200087B0200089C
:100050007B0200087B0200087B0200087B0200088C
:100060007B0200087B0200087B0200087B0200087C
:100070007B0200087B0200087B0200087B0200086C
:100080007B0200087B0200087B0200087B0200085C
:100090007B0200087B0200087B0200087B0200084C
:1000A0007B0200087B0200087B0200087B0200083C
:1000B0007B0200087B0200087B0200087B0200082C
:1000C0007B0200087B0200087B0200087B0200081C
:1000D0007B0200087B0200087B0200087B0200080C
:1000E0007B0200087B0200087B0200087B020008FC
:1000F0007B0200087B0200087B0200087B020008EC
:100100007B0200087B0200087B0200087B020008DB
:100110007B0200087B0200087B0200089161000856
:100120007B0200087B0200087B0200087B020008BB
:100130007B0200087B0200087B0200087B020008AB
:100140007B0200087B0200087B0200087B0200089B
:100150007B0200087B0200087B020008A9780008E7
:100160007B0200087B0200087B0200087B0200087B
:100170007B0200087B0200087B02000800000000F0
:100180007B0200087B02000800F002F800F058F83B
:100190000AA090E8000C82448344AAF10107DA45E2
:1001A00001D100F04DF8AFF2090EBAE80F0013F0DC
:1001B000010F18BFFB1A43F00103184718B40500DC
:1001C00038B40500103A24BF78C878C1FAD852076D
:1001D00024BF30C830C144BF04680C6070470000C1
:1001E0000023002400250026103A28BF78C1FBD840
:1001F000520728BF30C148BF0B607047662911F015
:10020000C680652911F0C380672911F0C08061297B
:1002100011F0BF80642900F06581732901F03F80EF
:10022000002070471FB511F0A0F801F04FF804004E
:100230000020002110F0CAF9E0601FBD10B510BD0C
:1002400001F04CF91146FFF7EDFF08F0A5FF01F0B2
:100250006AF903B4FFF7F2FF03BC01F0ABF9000049
:100260000948804709480047FEE7FEE7FEE7FEE74A
:10027000FEE7FEE7FEE7FEE7FEE7FEE70448054986
:10028000054A064B704700007D610008890100089F
:10029000489200204898002048940020489400206C
:1002A00053EA020C00F069802DE9F04B4FF0000694
:1002B000002B1FBFB3FA83F503FA05F424FA05F601
:1002C0005E4012BF1643B2FA82F502FA05F4C5F198
:1002D00020051EBF22FA05FC44EA0C04203556EA2C
:1002E000044C4FEA144418BF641C4FF000084FF050
:1002F0000009904271EB030C39D3002919BFB1FA00
:1003000081F701FA07F6B0FA80F700FA07F6C7F1AD
:1003100020071EBF20FA07FC46EA0C062037B6FB72
:10032000F4FCA7EB0507103F07F01F0BCBF12006ED
:100330002CFA06F60CFA0BFB44BFB3460026202F1E
:10034000A4BF5E464FF0000B5BEA060C08BF4FF0FF
:10035000010B19EB0B0948EB0608ABFB027C06FB13
:1003600002CC0BFB03CCC01B71EB0C01C1E70B46AD
:10037000024641464846BDE8F08B13B5084318BF16
:100380004FF0FF300146AFF30080BDE81C407047DE
:1003900053EA020C23D010B54C1084EA530404D560
:1003A0004042C1F1000138BF491E1B4204D55242F0
:1003B000C3F1000338BF5B1EFFF772FF14F0804FDC
:1003C00004D04042C1F1000138BF491E14F0004F73
:1003D00004D05242C3F1000338BF5B1E10BD13B5F9
:1003E00040424FF0000070EB0104B8BF012001F063
:1003F000004100281CBF6FF000414FF0FF30AFF309
:1004000000801CBD0FB4044910B503AA029800F087
:100410004BFF10BC5DF814FB780300200FB41CB533
:10042000074B06AA7B4469460090059800F00DFF33
:100430000020694600F01CFF1CBC5DF814FB0000A6
:10044000490E000070B5044685690068C10601D5F3
:10045000302600E02026C00707D070BDD4E9012176
:1004600030469047206A401C20626D1EF6D570BD54
:1004700070B5044685690078C00707D170BDD4E91E
:10048000012120209047206A401C20626D1EF6D575
:1004900070BD70B50C460546012A05D02878800647
:1004A00000D5EA69002302E0012305E05B1C9342CA
:1004B00002D2E05C0028F9D1A869E618C01AA86148
:1004C000286A184428622846FFF7BCFF04E0D5E9F3
:1004D000012114F8010B9047B442F8D32846FFF7E6
:1004E000C7FF70BD2DE9F04106460024106875294C
:1004F000314616A510D0AFF30080002802DA404242
:1005000013A507E031688A0701D512A502E0490763
:1005100004D511A5012401E0AFF3008000210A22D7
:1005200006F1240709E0B0FBF2FCB0FBF2F302FB9A
:100530001C00303078541846491C0028F3D123465B
:100540002A463046BDE8F04100F095BA00000000B0
:100550002D0000002B000000200000002DE9F05FBE
:10056000894604464FF0000ADFF874B1FB44C0F836
:1005700020A02046E1688847002874D0252806D0AE
:10058000D4E901219047206A401C2062F1E700264F
:100590005F462046E16888472028054607DB312D65
:1005A00005D2781910F8200C08B10643F1E7B0071E
:1005B00001D526F00406C4F81CA00027C4F818A032
:1005C0002A2D09D028460FF0AFFF38B304EB870877
:1005D000303DC8F8185019E059F8041B204604EBC8
:1005E00087029161E1688847012F054618D1E069CB
:1005F000002820DA26F020061DE0D8F8180000EBCD
:10060000800005EB40003038C8F818002046E1684B
:10061000884705460FF088FF0028EED1012F0AD049
:100620002E2D08D12046E16888477F1C0546022F01
:1006300046F02006C4DBA069002803DA404246F0F9
:100640000106A061F00701D026F010066C2D0BD03A
:10065000682D09D04C2D39D06A2D35D0742D35D068
:100660007A2D33D016E038E0E1682F4620468847DF
:10067000B842054609D16C2F26D04FF48060E1685E
:10068000064320468847054604E06C2F1AD04FF4F5
:10069000807006430DB3A5F14100192802D820351A
:1006A00046F400664A462946204626604E46FFF735
:1006B000A5FD80B101280BD0F61D26F0070000F142
:1006C000080956E74020E4E78020D8E70020D6E775
:1006D00006F104094DE7284652E7206ABDE8F09F7D
:1006E000260E010010B5044603E008F0E9F8401CAE
:1006F00009D014F8010B05490028F6D1BDE81040D7
:100700000A2008F0DDB84FF0FF3010BD780300205C
:10071000401ECAB210F8011F8A4202D00029F9D146
:100720000020704730B505460B462A4613F8014BAA
:1007300012F8010B08B1A042F8D01CB1002802D079
:100740006D1CF1E7284630BD40EA010310B59B0758
:100750000FD1042A0DD310C808C9121F9C42F8D02B
:1007600020BA19BA884201D9012010BD4FF0FF30DC
:1007700010BD1AB1D30703D0521C07E0002010BDF2
:1007800010F8013B11F8014B1B1B07D110F8013B7E
:1007900011F8014B1B1B01D1921EF1D1184610BD5F
:1007A00010B5431C02E010F8011B71B18107FAD1AA
:1007B0004FF0013202C88C1A8C4314EAC211F9D0EE
:1007C000C01A0A0603D0C01E10BDC01A10BD0A040C
:1007D00001D0801E10BD0902FCD0401E10BD40EAB1
:1007E000010370B59B072ED14FF00136042A2AD39E
:1007F00008C810C99D1B9D43121F15EAC61517D0C6
:10080000D8B2E1B2401A50EA056110D198B2A1B253
:10081000401A50EA05410AD123F07F4024F07F417D
:10082000401A50EA052102D1180EA0EB146070BDE9
:10083000A342DBD018BA21BA884201D9012070BD89
:100840004FF0FF3070BD0AB9002070BD10F8013BB9
:1008500011F8014B63B1A3420AD1521E08D010F81F
:10086000013B11F8014B1BB1A34201D1521EEDD146
:10087000181B70BD032A40F2308010F0030C00F00A
:10088000158011F8013BBCF1020F624498BF11F8CA
:1008900001CB00F8013B38BF11F8013BA2F1040283
:1008A00098BF00F801CB38BF00F8013B11F00303FB
:1008B00000F02580083AC0F0088051F8043B083A5F
:1008C00051F804CBA0E80810F5E7121D5CBF51F801
:1008D000043B40F8043BAFF30080D20724BF11F87B
:1008E000013B11F801CB48BF11F8012B24BF00F8E0
:1008F000013B00F801CB48BF00F8012B704710B551
:10090000203AC0F00B80B1E81850A0E81850B1E8C8
:100910001850A0E81850203ABFF4F5AF5FEA027C07
:1009200024BFB1E81850A0E8185044BF18C918C037
:10093000BDE810405FEA827C24BF51F8043B40F8D8
:10094000043B08BF7047D20728BF31F8023B48BFBD
:1009500011F8012B28BF20F8023B48BF00F8012BFB
:10096000704702F0FF0343EA032242EA024200F02A
:1009700024B84FF000020429C0F0128010F0030CDC
:1009800000F01B80CCF1040CBCF1020F18BF00F882
:10099000012BA8BF20F8022BA1EB0C0100F00DB831
:1009A0005FEAC17C24BF00F8012B00F8012B48BF8F
:1009B00000F8012B70474FF0000200B51346944633
:1009C0009646203922BFA0E80C50A0E80C50B1F1A7
:1009D0002001BFF4F7AF090728BFA0E80C5048BFBB
:1009E0000CC05DF804EB890028BF40F8042B08BF59
:1009F000704748BF20F8022B11F0804F18BF00F855
:100A0000012B704710B5044610F0030F08BF11F01A
:100A1000030F40F015804FF0013E121FC0F20E8010
:100A200051F8043BA3EB0E0C2CEA030C1CEACE1C81
:100A300008BF40F8043BF0D0A1F1040102F1040228
:100A4000521E08DB11F8013B00F8013B002BF7D1E7
:100A50001146FFF78EFF204610BD70477047704764
:100A600010B500F037FC006810BD10B5044600F06A
:100A700031FC046010BD2DE9F0470D4699469246C1
:100A8000044600F124080168880604D5E06921F0D5
:100A90001001216000E00120A84201DD471B00E0B9
:100AA0000027A1697A1902EB0900081AA0612078D1
:100AB000C00602D42046FFF7C5FC002608E0D4E9B2
:100AC00001211AF806009047206A401C761C20621B
:100AD0004E45F4DB2078C0060AD52046FFF7B2FC6D
:100AE00006E0D4E9012130209047206A401C2062B2
:100AF000381EA7F10107F4DC07E0D4E9012118F85A
:100B000005009047206A401C2062281EA5F10105BF
:100B1000F3DC2046FFF7ACFC2078000602D502206B
:100B2000BDE8F0870120FBE72DE9FF4F0C461E468C
:100B30004FF0FF378BB0D2E90001DDF860800A90FA
:100B40008A46C1F30A5505B93D46002108464FF0D3
:100B50000000BAF1000F00F4400005DA00EB80005D
:100B60004FF4400101EA50004FEA9059B9F1010FEA
:100B700000DDB9460A9850EA4A000ED044F61050FB
:100B8000A5F2FF3545432F14B8F1000F1ED0754272
:100B9000291E1EDDC9F100021CE0B8F1010F4FF063
:100BA000000001D0302103E0F24305E02154401C55
:100BB000B042FBDB30460022002121540B99C1F8E2
:100BC0000880C1E900200FB0BDE8F08FBD1B6D1C8F
:100BD000DEE74A4600DA694206A800F005FC06ABEB
:100BE00093E8070003AB83E8070050460A990DF02D
:100BF000B9FF8DE80700A0F500501F38009003985A
:100C0000002D0ADD42F21F014A460844002303A9D1
:100C1000039068460EF022FA09E0A0F500504A461B
:100C20001F38002303A9039068460EF02CFA8DE8C4
:100C300007000004000C03D04FF0FF30410800E033
:100C40001046B8F1000F03D00022009215461EE0B6
:100C5000751E05D400F042FB303262556D1EF9D589
:100C6000B3460122084302D000227F1C04E0207812
:100C7000302801D100227F1E002A099784D01DE070
:100C8000112D07DA00F02AFB303262556D1C50EA54
:100C90000102F5D1084302D00098C8B10EE000214E
:100CA000681E05E0235C625C63542254401E491CAC
:100CB0008142F7DBAB46A81B401E0990002004F8D8
:100CC0000B000B98099AC0F80880C0E9002B7AE75E
:100CD00011264FF0000857E72DE9F04F88460446EB
:100CE000D21D22F0070191B0D1E90001CDE90A013E
:100CF0000EF000FB02460B98C00F01D02D2007E03C
:100D00002068810701D52B2002E0202101EAC000E4
:100D1000032A099001D0072A05DB034641462046F5
:100D200000F022FB0BE12078800601D5E06900E0AD
:100D30000620B8F1650F814606D0B8F1660F18D0CD
:100D4000B8F1670F70D131E00020B9F1110F0090B8
:100D500001DB112301E009F101030AAA01A90CA892
:100D6000FFF7E2FEDDE90C70002609F1010583467C
:100D700047E001204B4600904FF000470AAA01A926
:100D80000CA8FFF7D1FEDDE90DB00C995D460026F9
:100D900010B909F101000D18B9EB050003D4C0F139
:100DA000FF3609F10105A5EB09002BE0B9F1010FB0
:100DB00001DA4FF001090020B9F1110F0090484607
:100DC00001DD112300E003460AAA01A90CA8FFF7E0
:100DD000ABFEDDE90C704D46002683462078000707
:100DE0000AD4AB4500DA5D4601A8012D04DD4119A6
:100DF00011F8011C302907D04F4502DA17F1040F12
:100E000004DA012082460FE06D1EEEE7002F02DCBF
:100E1000ED1B3E4403E0781CA84200DD7D1CB81B9E
:100E200000F1010A4FF000472078000703D4AA45DB
:100E300001DB4FF0FF3A0021B7F1004F0DF14308FD
:100E40008DF8431024D002202B23002F01DA7F429B
:100E50002D230A21021EA0F1010000DC5FB197FBE7
:100E6000F1FC97FBF1F201FB1C7C17460CF1300CF6
:100E700008F801CDEEE7A8F101000370218809050B
:100E800001D5452100E06521A0F1010800F8011C11
:100E900009980FA9A1EB0807FF1D00B10120411916
:100EA00001EBEA70A1693844081A401EA06120785D
:100EB000C00602D42046FFF7C5FA099828B1D4E944
:100EC00001219047206A401C20622078C00622D56C
:100ED0002046FFF7B7FA1EE0002E04DBB34502DD23
:100EE00001A8805D00E03020D4E901219047206A0C
:100EF000401C2062761CAAF101005FEA000A0AD1B8
:100F000000F0E4F9C0680168405CD4E90121904731
:100F1000206A401C2062281EA5F10105DCDC07E0E8
:100F2000D4E9012118F8010B9047206A401C206287
:100F3000381EA7F10107F3DC2046FFF799FA0320DA
:100F400011B041E62DE9F04F04460D46D21D22F0C6
:100F5000070089B0D0E90097484639460EF0CAF933
:100F60000246F80F01D02D2307E02068810701D544
:100F70002B2302E0202101EAC0038DF820300BB1C1
:100F8000012000E00020032A824601D0072A04DB6A
:100F90002946204600F0E8F93FE12078800601D498
:100FA0000D2500E0E569C7F30A560D2D49DA002149
:100FB0004FEA175B08464FF00000002F00F4400096
:100FC00007DA00EB80004FF4400100EBD07001EA3B
:100FD00060008115012901DD4FF0FF3100224FEA49
:100FE000850CBCF1180F06D31346ACF118004FF076
:100FF0008052C24003E04FF4801323FA0CF30CF14B
:101000000C0CBCF1200F04D3ACF1200C09FA0CF04D
:1010100001E007FA0CF000294FF0004801DD18B993
:101020000FE00ED140450CD319EB02095F4121B905
:10103000404502D19F4329EA0209BBEB175F00D06C
:10104000761C2088000502D57B48784402E07A4867
:101050007844193808AA302302F80A30037C0AF1D0
:101060000101002E0AF1020A53546A4602DC4FF0D5
:10107000300101E04FF031014FF001088DF8001010
:1010800002D0A6F2FF3603E059EA470100D06B4ECA
:10109000002D02DC2178090704D54FF002082E212B
:1010A0008DF80110C44600210BE0C7F303433F0154
:1010B000C35C491C6D1E02F80830052908F10108BF
:1010C00001DA002DF1DC00210CE000EB1973491C62
:1010D0001B786D1E082902F808304FEA091908F13B
:1010E000010801DA002DF0DC21688B0602D516E03C
:1010F000A8F10108E04505DD02EB080313F8013C07
:10110000302BF5D0B8F1000F09DD02EB080313F81E
:10111000013C2E2B03D1090701D4A8F10108002DB1
:1011200005DD3E2102F808106D1E08F10108407C23
:10113000002E02F8080008F1010804DA2D2076429A
:1011400002F8080002E02B2002F808000A214FF400
:101150007A70864208F101080BDB96FBF0F330331E
:1011600002F8083096FBF0F308F1010800FB136663
:1011700001E0642E0CDB642096FBF0F3303302F8C0
:10118000083096FBF0F308F1010800FB136601E05C
:101190000A2E06DB96FBF1F0303002F8080008F169
:1011A000010896FBF1F001FB1060303002F80800F6
:1011B000A16908F1010808EB050202EB0A00081A10
:1011C000A0612078C00602D42046FFF73BF9216ACF
:1011D00008AE01EB0A00206204E0D4E9012116F810
:1011E000010B9047BAF1010AF7D22078C00602D568
:1011F0002046FFF727F96E4609E016F8010B3E2856
:101200000FD0D4E901219047206A401C2062B8F138
:101210000108F2D22046FFF72BF909B00320BDE800
:10122000F08F206A2844206203E0D4E901213020B5
:1012300090476D1EEBD3F8E7BD03010002FCFFFFF2
:1012400001694A1C02610878704700B58FB0CDE98A
:1012500001310021059105497944CDE9031011467A
:101260006846FFF77BF90FB000BD0000E5FFFFFF08
:101270000A6802F8010B0A60704710B5436913B1A0
:10128000AFF3008001E0FFF704F9012010BD1278F0
:1012900000F124010A7000224A700122EDE7116872
:1012A0004FF0FF32E9E70000074B70B50D467B4475
:1012B000FFF7CBFF0446284600F008F910B14FF0C5
:1012C000FF3070BD204670BD0F76000000487047AB
:1012D0001001002000487047F000002030B5B0F148
:1012E0000A0271F100034FEA900E4EEA817EB0EBE4
:1012F0000E0061EB91014FEA101E4EEA017E10EBE9
:101300000E0041EB11114FEA102E4EEA016E10EB68
:101310000E0041EB11214FEA104E4EEA014E10EB48
:101320000E0041EB1141401841F100014FEAD0009D
:1013300040EA41704FEAD1014FEA810444EA9074D7
:1013400010EB800544EB01046D1944EB0404521BBF
:10135000A3414FF0000348BF0A3200D530BD401C06
:1013600041F1000130BD00002DE9F0411F46044667
:1013700003260168072A01F4006004DB08B116A502
:1013800005E016A503E008B115A500E015A521F0BC
:1013900010002060A069C01EA0610FB1401EA061B6
:1013A0002046FFF74FF84FB1D4E901213846904766
:1013B000206A401C2062C01C206206E0206AFAE716
:1013C000D4E9012115F8010B9047761EF8D220468A
:1013D000FFF74EF8BDE8F0814E414E006E616E00A1
:1013E000494E4600696E66002DE9F0478146164673
:1013F0008AB0354878440DC88DE80D0032487844ED
:10140000801C03AC0DC884E80D0041F69B300844F5
:10141000372190FBF1F290FBF1F5A5F1800501FB7E
:1014200012041B3C02D56442012000E00020DFF8DA
:1014300098A080460027FA44AAF1BE0A0EE0E00711
:101440000AD03246684607EB470101230AEB8101C7
:101450000DF019FE8DE8070064107F1C002CEED102
:10146000194F7F44AE3F19E0E80715D007EB041091
:101470000DF1180A90E80E008AE80E00C068F042EC
:1014800001D1981908903246012306A903A80DF04E
:10149000FAFD03AB83E807006D10641C002DE3D157
:1014A0004FF0010332466946B8F1000F03A802D09D
:1014B0000DF0D4FD01E00DF0E6FDC9E90001C9F829
:1014C00008200AB0BDE8F0876C020100007B00F044
:1014D0008000704700487047F00000207546FFF715
:1014E000F9FFAE4605006946534620F007008546E1
:1014F00018B020B5FEF7C2FEBDE820404FF0000650
:101500004FF000074FF000084FF0000BAC46ACE87E
:10151000C009ACE8C009ACE8C009ACE8C00921F0DA
:1015200007018D46704710B50446AFF30080204692
:10153000BDE81040FEF78DBE30B44FF0013C50F8CE
:10154000042B51F8043BCCFA52F4D51A20D1FCB943
:1015500050F8042B51F8043BCCFA52F4D51A17D1A9
:10156000B4B950F8042B51F8043BCCFA52F4D51A14
:101570000ED16CB950F8042B51F8043BCCFA52F45C
:10158000D51A05D1002CDAD030BC4FF000007047DE
:1015900029BAB1FA81F111F01801D1F1200084408B
:1015A000F2D1CA40CB4012F0FF0213F0FF0330BC6F
:1015B000D01A704701491820ABBEFEE72600020092
:1015C0007047000070B540F2FC54C2F200040546BA
:1015D00020460E4601F03CFA701E062888BF70BDFA
:1015E0000DA030F8160044F24021C0F20F01B1FB0B
:1015F000F0F02168C862E0604008486309F05CF9D7
:1016000040F2A4234219C2F2000320460021DA80EE
:10161000BDE8704001F040BDEE010B024C029402A7
:10162000BA0210037003DC0370B540F27430C2F2EA
:101630000000067840F2D520C2F20000007840F2A7
:10164000A42530430006C2F2000578D040F2FC54D5
:10165000C2F20004204601F0FBF909F02DF940F236
:101660002501C2F2000109786A69B1FA81F14909DC
:101670000023904238BF012341EA0301A6B10029AB
:101680005DD140F208016B78C2F20001421D08688A
:101690006A613BB30238B0F5487F086002BF0020A2
:1016A00068704FF4487026E0002948D1A96940F2DB
:1016B0000802C2F2000202EB41029288C83068615F
:1016C00052B344F24020C0F20F00B0FBF2F02168A8
:1016D000C862E060400848632046002101F0DCFC5D
:1016E000A9691FE00230B0F5AF6F086003D1012097
:1016F00068704FF4AF6044F24021C0F20F01B1FBBB
:10170000F0F02168C862E06040084863204600218C
:1017100001F0C2FC13E000BF20680122C262E26057
:1017200000224263481C4AF6AB21CAF6AA21A0FB5C
:101730000112D10801EB4101A0EB8100A861E8880A
:10174000002808BF70BD09F0B7F8E988884201D2C7
:1017500070BD00BF002240F2FC50C2F20000002128
:10176000EA80BDE8704001F021BD0000FEE7000006
:101770002DE9F04387B041F2000900200121C4F2B5
:1017800002090590CDE9011002200391049001A9FE
:10179000484600F0E3FB4846012100F0BDFC00286C
:1017A0003CD041F2040540F2B4064DF683670020B8
:1017B000CEF20005C2F20006C4F21B3731680446BF
:1017C000A1FB0712910C01912968069128680699DE
:1017D000019A401A904211D228680699019A401A3B
:1017E00090420BD228680699019A401A904205D27D
:1017F00028680699019A401A9042E7D34846012189
:1018000000F08AFC622C03D8002804F10100D5D135
:10181000622C03D9012007B0BDE8F08348460121BE
:1018200000F07AFC20B1002007B0BDE8F08300BFD3
:1018300041F2040540F2B4084DF683670020CEF271
:101840000005C2F20008C4F21B3700BFD8F8001030
:101850000646A1FB0712910C01912968069100BF71
:1018600028680699019A401A904211D22868069970
:10187000019A401A90420BD228680699019A401AA0
:10188000904205D228680699019A401A9042E7D3FF
:101890004846012100F040FCEE2E03D8002806F156
:1018A0000100D3D00020EE2E88BF012007B0BDE894
:1018B000F08300002DE9F04F87B041F2040641F2B9
:1018C00000044DF6836BCEF20006C4F2020400273A
:1018D00001250DF10808C4F21B3B4FF0000A4FF040
:1018E00000090CE00138B0FA80F0400900FA0AF073
:1018F0000AF1010ABAF1080F49EA00096AD0022088
:101900000590204641460697CDE90255049700F020
:1019100025FB20460121002200F004FC40F2B40027
:10192000C2F200000068A0FB0B01880C00EB8000F5
:10193000400002903068019030680199029A401A84
:10194000904211D230680199029A401A90420BD20B
:1019500030680199029A401A904205D23068019984
:10196000029A401A9042E7D3022005902046414651
:101970000697CDE90257049500F0F0FA20460121C0
:1019800000F0CAFB40F2B401C2F200010968A1FBF9
:101990000B12910C2D22514302913168019100BF2D
:1019A0003168019A029B891A99429BD23168019A47
:1019B000029B891A994295D23168019A029B891A31
:1019C00099428FD23168019A029B891A9942E7D3D2
:1019D00088E700BF5FFA89F007B0BDE8F08F00002C
:1019E00010B508F069FF40F2A424C2F20004A16817
:1019F00088425CD33230A06008F05EFF616A01F576
:101A00007A7188421ED908F057FF606206F054FED2
:101A10009FED271AB4EE410AF1EE10FA12DA40F205
:101A20007030C2F2000080ED000A10EE100A0FF0D4
:101A300001FC024640F20C300B46C2F200001DA130
:101A4000FEF7ECFC08F038FF40F2F422C2F200028C
:101A5000E16912681144884298BF10BD08F02CFF5C
:101A600040F2F822C2F200021168E0614A290DDC5E
:101A700040F27030C2F200004B1C0068136048F660
:101A8000B072C2F2000242F8210010BD48F6B074F4
:101A9000C2F20004211D20464FF49472FEF72FFF7E
:101AA00040F27030C2F200000068C4F8280110BD96
:101AB0000000FA42252E3166000000002DE9F04FAB
:101AC00087B0044641F200080120C4F20208CDE9C3
:101AD0000100022041F204060027049001A94046BB
:101AE000CEF200060597039700F038FA40F2B409E9
:101AF0004DF68365C2F20009C4F21B356FF0070A88
:101B00004FF03A0B06E000BF6408072F07F101070A
:101B100080F0A28040460121002200F003FBE00794
:101B20004CD1D9F80000A0FB0501880C46214843A0
:101B300001903068069000BF30680699019A401AFB
:101B4000904211D230680699019A401A90420BD205
:101B500030680699019A401A904205D23068069979
:101B6000019A401A9042E7D340460121012200F039
:101B7000D9FAD9F80000A0FB05016FF0010000EAD6
:101B8000514001903068069030680699019A401AD9
:101B90009042B9D230680699019A401A9042B3D265
:101BA00030680699019A401A9042ADD23068069981
:101BB000019A401A9042E7D3A6E700BFD9F8000087
:101BC000A0FB05010AEAD13001903068069000BF01
:101BD00030680699019A401A904211D230680699ED
:101BE000019A401A90420BD230680699019A401A25
:101BF000904205D230680699019A401A9042E7D384
:101C000040460121012200F08DFAD9F80000A0FB26
:101C10000501880C00FB0BF001903068069000BFB6
:101C200030680699019A401A9042BFF46DAF30684F
:101C30000699019A401A9042BFF466AF306806993F
:101C4000019A401A9042BFF45FAF30680699019A3A
:101C5000401A9042E4D357E707B0BDE8F08F000088
:101C6000704700002DE9F04F81B02DED088B9AB040
:101C700040F2D820C2F200000078002800F0C080B6
:101C800008F01AFE48F23464C2F200042168884267
:101C900040F2B68008F010FE00EE100A40F2280074
:101CA000C2F2000090ED008A9FED581A40F27030A9
:101CB000B8EE400A28EE011AC2F2000031EE000A26
:101CC0000068BCEEC00A84ED000A0FF0B3FACDE95B
:101CD000181040F25620C2F20000B0F90000169031
:101CE00040F25820C2F20000B0F90000159040F216
:101CF0005A20C2F20000B0F9005040F25020C2F267
:101D00000000B0F9007040F25220C2F20000B0F9B9
:101D1000006040F25420C2F20000B0F900001790B9
:101D200040F26820C2F2000000680FF083FA41EC34
:101D3000190B40F26C20C2F2000000680FF07AFA32
:101D400041EC1A0B40F27020C2F2000000680FF064
:101D500071FA41EC1B0B40F27430C2F2000090F8B3
:101D6000008040F2D520C2F2000090F8009040F2CE
:101D70002400C2F2000090F800A040F2D420C2F289
:101D8000000090F800B040F22500C2F20000047894
:101D900018EE100A0FF04EFA41EC100B0CA880E878
:101DA000000F06A88DED120B109480EC069B169880
:101DB00001A9009015980496A1C148F23866C2F2B4
:101DC000000642F29551199ADDE91773C0F6010138
:101DD00030460597FEF722FB3046FEF7E1FC40F265
:101DE0000831C2F200010A68024430460A601AB0A3
:101DF000BDEC088B01B0BDE8F04F04F093B800BF14
:101E00001AB0BDEC088B01B0BDE8F08F00007A4439
:101E1000EFF3108072B600BFFEE7000010B5ADF51D
:101E2000007D40F27420C2F2000000686946002282
:101E30000023002408F07CFD20B120460DF5007D34
:101E400010BD00BF684603F02DFC012420460DF5AF
:101E5000007D10BD10B582B01FFA80FE1FFA81FC14
:101E600040F66C409CB293B2C2F2000071466246EA
:101E7000009409F01BFE02B010BD000070B5866D25
:101E8000044600F055F994F8351002292ED1054684
:101E90002068216C026822F016020260426922F07A
:101EA0008002426109B9A16C19B1016821F00801F1
:101EB0000160016821F0010101600068C00708D0DD
:101EC00000F036F9401B052818D820680068C007C4
:101ED000F6D1E06D3F2101FA00F0B060012084F8F6
:101EE00035000020002184F8341070BD802060652A
:101EF0000120002184F8341070BD00BF20206065EF
:101F0000032084F83500002184F8341070BD0000EF
:101F100090F83510022909D1052180F835100068A4
:101F2000016821F0010101600020704780214165B6
:101F300001207047B0B5044600F0FAF8054640F2BB
:101F40000000C2F200000078611C18BF044400BF0A
:101F500000F0EEF8401BA042FAD3B0BD2DE9F04FDF
:101F600082B000F13E4241F6004502F1FF77C4F233
:101F7000020508224FEAB726A84208BF0722072E0B
:101F800038BF4FEAB7224FF0010A002400274FF074
:101F90000008009208E000BF023708F10108202F76
:101FA00004F1040400F0B4800E680AFA08F916EA95
:101FB000090FF1D0D1F804A00AF0030BABF1010630
:101FC000012E17D80322866802FA07FECA6826EA9D
:101FD0000E06BA40324382604268CAF3001522EA14
:101FE000090205FA08F54FEA480C6FEA0E062A4383
:101FF00042600BE00322BA40D643BBF1030FBC465C
:1020000004D1BC464FF0030B22E000BFC2688D68CC
:10201000324005FA0CF52A43BBF1020FC26017D11A
:102020006FF0030202EA5802024404F01C030F2579
:10203000D2F820E005FA03FA0D692EEA0A0E05FA35
:1020400003F343EA0E031362D1F804A00AF0030B72
:1020500002680BFA0CF332401A431AF4403F4FF077
:10206000010A026098D0002243F644030192C4F2B0
:1020700002031A6843F6004E42F480421A601A685E
:10208000C4F2010E02F480420192019A28F0030288
:102090004FF6084C7244CFF6FF7C52F80C3004F037
:1020A0000C060F25B540AB43009D05FA06F63343F9
:1020B00042F80C30DEF808204B6842EA090643F685
:1020C0000C4CDD0258BF22EA0906CEF80860C4F2C3
:1020D000010CDCF800209D0242EA090658BF22EA02
:1020E0000906CCF80060DEF804209D0342EA0906E8
:1020F00058BF22EA0906CEF80460DEF80020DB03B0
:1021000042EA090658BF22EA0906CEF8006043E712
:1021100002B0BDE8F08F00000069084018BF012040
:1021200070470000002A08BF090481617047000061
:1021300048F29C60C2F200000068704740F2000064
:1021400048F29C61C2F20000C2F2000100780A6805
:10215000104408607047000080B543F60040C4F2A8
:102160000200016841F400710160016841F480617E
:102170000160016841F480710160032000F0C4F83F
:102180000F2000F005F800F061F8002080BD00008D
:1021900070B586B0002543F640010195C4F20201F6
:1021A0000A68044642F020020A60096801A801F0AA
:1021B000200101910199694600F066F9049E002E04
:1021C00018BF012600F080F94DF68361B040C4F2DB
:1021D0001B31A0FB01014FF0FF3000EB914140F2B9
:1021E000446041F20042C2F20000C4F2000240F238
:1021F000E733C0E90021C0E902530561856100F0C1
:10220000DDFB054610B1284606B070BD40F24460C3
:10221000C2F2000000F01CFC05460028F3D1372074
:1022200000F036F80F2C0DD837202146002200256B
:1022300000F03EF840F20400C2F2000004602846BC
:1022400006B070BD0125284606B070BD82B00020E2
:1022500043F640010190C4F202014A6842F4804210
:102260004A604A6802F480420192019A009008682C
:10227000002240F08050086008680F2100F0805074
:10228000009000986FF0010002B000F011B800005B
:10229000002848BF704700F01F01012202FA01F137
:1022A0004EF200124009CEF2000242F820107047B0
:1022B00010B54EF60C5CCEF2000CDCF80030C3F327
:1022C000022E8EF00704042C28BF0424BEF1030361
:1022D0004FF0FF3E0EFA04F438BF0023A1439940AB
:1022E0000EFA03F39A4300F00F03043B11436344D7
:1022F00009010C3300F16042B0F1FF3FC8BF02F5A5
:102300006443197010BD00004EF60C51CEF200016E
:102310000A684FF6FF031A4060F30A2242F0806019
:1023200040F0FD70086070472DE9F041002800F092
:102330008B8043F60808C4F202080446D8F8F80374
:102340000D4600F00700884207D288F8F853D8F805
:10235000F80300F00700A84276D12068810717D55E
:10236000410705D5D8F8001041F4E051C8F8001035
:10237000010705D5D8F8001041F46041C8F80010F5
:10238000D8F80010A26821F0F0011143C8F800103D
:10239000C0073FD1D8F8F80300F00700A84207D9DA
:1023A00088F8F853D8F8F80300F00700A8424BD19A
:1023B0002068410707D5D8F80010E26821F4E05101
:1023C0001143C8F80010000708D5D8F800002169AB
:1023D00020F4604040EAC100C8F8000000F09CF81A
:1023E000D8F8001041F28262C1F30311C0F6010275
:1023F000515C40F2B40220FA01F140F20400C2F252
:1024000000000068C2F200021160FFF7C1FE002068
:10241000BDE8F0816068811E022907D258F8081CC7
:1024200089015CBF0120BDE8F08111E0012807D1DE
:1024300058F8081C89035CBF0120BDE8F08107E063
:1024400058F8081C890703D40120BDE8F08100BFBB
:10245000D8F8001021F003010843C8F80000FFF786
:1024600067FE064641F28837D8F80000616800F040
:102470000C00B0EB810F8DD0FFF75AFE801BB842E5
:10248000F2D90320BDE8F0810F22026043F6080272
:10249000C4F20202136803F003034360136803F0FD
:1024A000F0038360136803F4E053C360D2F800C004
:1024B0004FF4E05303EADC030361D2F8F80300F0C1
:1024C000070008607047000040F2B40043F60801BE
:1024D000C2F20000C4F202010068096841F292628F
:1024E000C1F38221C0F60102515CC8407047000070
:1024F00040F2B40043F60801C2F20000C4F2020147
:102500000068096841F29262C1F34231C0F60102EB
:10251000515CC8407047000010B543F60404C4F293
:102520000204606800F00C0142F200400829C0F289
:10253000F40007D0042918BF10BD41F20020C0F2FA
:102540007A0010BD216801F03F022168236849022A
:10255000C3F3881106D4A1FB00010023FDF7A0FE00
:1025600007E000BF41F20020C0F27A004843B0FB10
:10257000F2F021680222C1F3014102EB4101B0FBFC
:10258000F1F010BD2DE9F04182B000286AD0044678
:10259000007843F60006C007C4F202060BD0B0680C
:1025A00000F00C00042840F0A1803068800302D5C0
:1025B0006068002856D0207880071AD5B06810F0DF
:1025C0000C0F09D0B06800F00C00082840F0A8807B
:1025D0007068400200F1A4803068800702D5E0688E
:1025E00001283FD13068216920F0F80040EAC1009D
:1025F00030602078000739D4207840074ED4A56990
:102600005DB3B06800F00C00082840F0BD80012DDB
:1026100028D07068E16900F480028A4222D1216AE0
:1026200000F03F028A421DD147F6C071626A014044
:10263000B1EB821F16D1A26A0023CFF6FF7303EB22
:10264000C23200F440316FF30F0291420AD1E16AC5
:1026500000F07060B0EB016F04D1002002B0BDE863
:10266000F08100BF012002B0BDE8F0816069002860
:1026700040F20000C4F2472076D00121C0F8801E4D
:10268000FFF756FD054600BF706F8007B4D4FFF713
:102690004FFD401B0228F7D9DDE000BF306C10F081
:1026A00080580AD100200190306C40F08050306496
:1026B000306C00F080500190019847F20007C4F29E
:1026C00000073868C00541D4386840F4807038602D
:1026D000FFF72EFD054600BF3868C00536D4FFF76A
:1026E00027FD401B0228F7D9B5E000BFB06800F015
:1026F0000C00082803D1706840023FF556AF6068AF
:10270000B0F5803F07D0B0F5A02F40F08D80306845
:1027100040F480203060306840F4803030608DE0DC
:10272000E068002852D00020C4F247200121016057
:10273000FFF7FEFC054600BF306880073FF552AF4B
:10274000FFF7F6FC401B0228F6D984E0A0680128B8
:1027500005D005284ED1306F40F004003067306F4F
:1027600040F0010030674FE00021C0F8801EFFF705
:10277000DFFC0546706F80077FF53EAFFFF7D8FCA2
:10278000401B0228F6D966E00027C4F24727002044
:102790003866FFF7CDFC022D05460BD1306880016D
:1027A0005ED5FFF7C5FC401B02284FF00300F5D9AA
:1027B00054E700BF306880017FF54FAFFFF7B8FCEA
:1027C000401B02284FF00300F4D947E70020C4F271
:1027D000472000210160FFF7ABFC05463068800709
:1027E0007FF507AFFFF7A4FC401B02284FF0030062
:1027F000F4D933E7316F002821F001013167316FDF
:1028000021F0040131674DD0FFF792FC054641F2FB
:10281000883700BF306F800756D4FFF789FC401B14
:10282000B842F7D917E000BF3168002821F48031A1
:102830003160316821F4802131604FD0FFF778FC9E
:10284000054600BF306880033FF5B5AEFFF770FC6A
:10285000401B6428F6D9032002B0BDE8F08100BF18
:1028600004F11C052FCD08430021CFF6FF7140EA8B
:10287000821001EBC3316FF30F0140EA056008439A
:10288000706001203866FFF753FC04463068800111
:102890003FF5E3AEFFF74CFC001B02284FF00300AE
:1028A000F4D9DBE6FFF744FC054641F2883700BF68
:1028B000306F800708D5FFF73BFC401BB8424FF054
:1028C0000300F5D9CAE600BFB8F1000F7FF497AE58
:1028D000306C20F08050306491E600BFFFF728FC98
:1028E000054600BF306880037FF565AEFFF720FC2A
:1028F000401B64284FF00300F4D9AFE67047000096
:102900007047000010B590F83C20012A4FF00202F9
:1029100051D080F83D200268D2F804E0D2F808C017
:102920000C682EF07003234341F2FF74C4F20004DC
:10293000A24253600EDC40F2FF73C4F200039A42DD
:1029400016DCB2F1804F2BD040F20043C4F20003FA
:1029500024E000BF40F2FF33C4F201039A4213DCCB
:1029600041F60003C4F200039A4219D0002313E099
:1029700040F60003C4F200039A4211D040F600432F
:10298000C4F200030AE000BF44F20003C4F20103F2
:102990009A4205D040F20043C4F201039A4204D1A6
:1029A00049682CF08003194391600121002280F8CE
:1029B0003D1080F83C20104610BD0000002804BFE8
:1029C0000120704710B5044690F83D0028B900205A
:1029D00084F83C00204600F01FF8022084F83D00F7
:1029E0002068211D03F0DAFB012084F8460084F8FA
:1029F0003E0084F83F0084F8400084F8410084F8E9
:102A0000420084F8430084F8440084F8450084F8C8
:102A10003D00002010BD000081B0006840F2004180
:102A2000C4F20001884201D001B07047002000903C
:102A300043F64000C4F20200016841F00201016067
:102A4000006800F002000090009801B0704700009C
:102A500090F83D1001291CBF01207047022180F829
:102A60003D10006841F2FF72C168C4F2000290425A
:102A700041F00101C1600DDC40F2FF71C4F20001C0
:102A8000884215DCB0F1804F2AD040F20041C4F2F8
:102A9000000123E040F2FF31C4F20101884213DC5F
:102AA00041F60001C4F20001884219D0002113E070
:102AB00040F60001C4F20001884211D040F6004106
:102AC000C4F200010AE000BF44F20001C4F20101B7
:102AD000884205D040F20041C4F20101884206D18B
:102AE000816801F00701062904BF002070470168D2
:102AF00041F00101016000207047000080B590F8AE
:102B00003C20012A4FF0020200F0C28080F83D20F4
:102B1000D0F800C04FF67772DCF8083023EA0202E2
:102B2000CCF808200B684F2B28DC1F2B44DD202B12
:102B300045D0302B43D0402B40F0AC80D1F804E09E
:102B4000C968DCF82030DCF8202022F00102CCF843
:102B50002020DCF8182022F0F00242EA011123F0D4
:102B60000A0242EA0E02CCF81810CCF82020DCF859
:102B7000081041F0470121F0300180E06F2B27DD84
:102B8000B3F5005F48D0B3F5805F7AD0702B40F08A
:102B90008180D1E901E3C968DCF8082043EA0E032B
:102BA00022F47F4243EA01211143CCF80810DCF8FB
:102BB000081041F0770162E00BB1102B6AD1DCF80C
:102BC000081021F07001194341F0070157E000BFE0
:102BD000502B35D0602B5DD1D1F804E0C968DCF80A
:102BE000203023F01003CCF82030DCF81830DCF86B
:102BF000202023F4704322F0A00243EA013142EA8C
:102C00000E12CCF81810CCF82020DCF8081041F097
:102C1000670121F0100132E0D1E901E3C968DCF875
:102C2000082043EA0E0322F47F4243EA01211143C4
:102C3000CCF80810DCF8081041F480411FE000BF18
:102C4000D1F804E0C968DCF82030DCF8202022F05C
:102C50000102CCF82020DCF8182022F0F00242EA31
:102C6000011123F00A0242EA0E02CCF81810CCF847
:102C70002020DCF8081041F0570121F02001CCF8A9
:102C800008100022012180F83D10002180F83C103E
:102C9000104680BD0122F5E77047000010B50168BD
:102CA00004460869800744BFC8685FEA807039D469
:102CB0000869400744BFC8685FEA40703ED40869AD
:102CC000000744BFC8685FEA007045D40869C006C1
:102CD00044BFC8685FEAC0604AD40869C0071CBF27
:102CE000C8685FEAC07051D10869000644BFC8686F
:102CF0005FEA006052D40869400644BFC8685FEAD2
:102D0000406053D40869800646BFC8685FEA8060A7
:102D100010BD6FF0200220460A61BDE81040FFF7A9
:102D2000EFBD00BF6FF002000861012020778869C5
:102D3000800743D02046FFF7AFFF45E06FF0040067
:102D4000086102202077886910F4407F40D0204637
:102D5000FFF7A2FF42E000BF6FF008000861042007
:102D60002077C86980073DD02046FFF795FF3FE0F8
:102D70006FF01000086108202077C86910F4407FC8
:102D80003AD02046FFF788FF3CE000BF6FF001001B
:102D90000861204600F060FA2168A5E76FF0800026
:102DA00008612046FFF7AAFD2168A4E76FF0400004
:102DB0000861204600F05AFA2168A3E7204600F097
:102DC00025F8204600F066F92168002020776FE79B
:102DD000204600F01BF8204600F05CF92168002036
:102DE00020776CE7204600F011F8204600F052F9F9
:102DF00021680020207769E7204600F007F8204688
:102E000000F048F921680020207766E7704700004D
:102E10002DE9F04190F83C30012B04BF0220BDE8C1
:102E2000F0814FEAB202032A00F2FC80DFE802F0F0
:102E3000023E7EBE036840F200471A6A43F4806592
:102E400022F001021A621C6A1A46D3F804E052F812
:102E500018CF8E6824F00204C4F20107BD4244EA90
:102E6000060405D1CE6824F00C0426F00406344391
:102E70000E68BD4207D1D1E905572EF4407E45EAE0
:102E80000E0545EA070E2CF073073743C3F804E03C
:102E90009F614F6809695F631C629F6947F008077B
:102EA0009F619F6927F004079F61B1E0036840F2CA
:102EB00000481A6A43F4806522F010021A621C6A04
:102EC0001A46D3F804E052F818CF8F6824F0200493
:102ED000C4F20108454544EA071407D1CF686FF0F2
:102EE000400624F0C00406EA071634430F6845453F
:102EF00007D1D1E905562EF4406E4EEA850545EA24
:102F0000860E2CF4E64646EA0727C3F804E09F61E4
:102F10004F6809699F631C629F6947F400679F615E
:102F20009F6927F480679F6171E000BF036840F2EA
:102F300000481A6A43F4806522F480721A621C6A9F
:102F40001A46D3F804E052F81CCF8F6824F40074BA
:102F5000C4F20108454544EA072408D1CF6840F28D
:102F6000FF463F0224F4406427EA060634430F6814
:102F7000454507D1D1E905562EF4405E4EEA0515C8
:102F800045EA061E2CF073063743C3F804E0DF6100
:102F90004F680969DF631C62DF6947F00807DF617A
:102FA000DF6927F00407DF6132E000BF036840F209
:102FB00000451A6A43F4806722F480521A621A4666
:102FC000D3F820C05C6852F81CEFD1F800808E68FE
:102FD000C4F20105AF4204D14D6924F4804444EAAF
:102FE00085142CF4005747EA06372EF4E64646EAE5
:102FF00008265C60DE614E6809691E641F62DF6935
:1030000047F40067DF61DF6927F48067DF61090249
:103010001368194311600021002280F83C20084603
:10302000BDE8F0810121002280F83C200846BDE87F
:10303000F0810000002804BF0120704710B504464D
:1030400090F83D0028B9002084F83C00204600F0AC
:103050001FF8022084F83D002068211D03F09EF82F
:10306000012084F8460084F83E0084F83F0084F88C
:10307000400084F8410084F8420084F8430084F85A
:10308000440084F8450084F83D00002010BD000095
:10309000704700007047000041B1082910D0042992
:1030A00014BF00F1410200F13F020BE090F83E2016
:1030B000012A1CBF01207047022280F83E2013E045
:1030C00000F140021278012A1CBF01207047022241
:1030D000082907D0042914BF80F8412080F83F2038
:1030E00002E000BF80F84020006801F01F010122CB
:1030F000036A02FA01F123EA01020262026A114341
:1031000041F2FF72C4F20002904201620CDC40F214
:10311000FF71C4F20001884214DCB0F1804F37D057
:1031200040F2004116E000BF40F2FF31C4F201015D
:10313000884215DC41F60001C4F20001884227D024
:10314000002115E040F60001C4F2000188421FD0C2
:1031500040F60041C4F20001884219D01FE000BFD0
:1031600044F20001C4F20101884211D040F2004152
:10317000C4F20101884212D1416C40F2004340F494
:103180008062C4F2010341F400419A42416406D1D5
:10319000816801F00701062904BF0020704701681B
:1031A00041F00101016000207047000010B5026885
:1031B00001F01F0E4FF0010C146A0CFA0EF324EA12
:1031C0000303136240F20043D2F820C042F480644B
:1031D000C4F201039C42C2F820C009D1136A41F233
:1031E0001114234204D1136A40F2444423420FD005
:1031F000136A41F21114234213D1136A40F244447A
:1032000023420ED1136823F00103136009E000BFCD
:10321000536C23F400435364136A41F211142342A4
:10322000EBD008290CD0042910D000294FF001015F
:1032300014BF80F8411080F83E10002010BD00BF80
:10324000012180F84010002010BD00BF012180F84E
:103250003F10002010BD0000006841F20041C4F2A0
:103260000001884208BFFEF769BF70477047000041
:1032700081B090F83E30202B0CD100294FF0010393
:1032800018BF002A02D1184601B0704790F83C30B0
:10329000012B03D10223184601B0704701230363B9
:1032A00081628285C28500222221026480F83E105C
:1032B0000369016880F83C201BB1CA6842F480723F
:1032C000CA604A6942F001024A61CA6842F02002BB
:1032D000CA60026B012A39D1002300930A68009268
:1032E0004A680092009A51E8031FD0F800C041F0EC
:1032F00010014CE80312002AC5D000BF016851E854
:10330000031F026841F0100142E8031313B3016880
:1033100051E8031F026841F0100142E80313CBB1EA
:10332000016851E8031F026841F0100142E80313ED
:1033300083B1016851E8031F026841F0100142E8BF
:103340000313002B4FF00003D8D19CE7012318464C
:1033500001B070470023184601B0704770B540F2C5
:103360007426C2F200067268824218BF70BD40F235
:10337000D2350446C2F2000551B1681800228270AD
:103380003068298029460022002307F05FFB70681F
:103390000023A91C40F2FD1284F83C30BDE87040C7
:1033A000FFF766BF7047000010B50446206850E87C
:1033B000030F216820F4907041E80302BAB320683B
:1033C00050E8030F216820F4907041E8030272B3C3
:1033D000206850E8030F216820F4907041E8030250
:1033E0002AB3206850E8030F216820F4907041E868
:1033F0000302002ADAD11AE0206850E8050F21689C
:1034000020F0010041E80502DAB1206850E8050F1C
:10341000216820F0010041E8050292B1206850E8DF
:10342000050F216820F0010041E805024AB120683B
:1034300050E8050F216820F0010041E80502002A4C
:10344000DAD1206B012824D1206850E8030F2168CD
:1034500020F0100041E80302DAB1206850E8030FC1
:10346000216820F0100041E8030292B1206850E882
:10347000030F216820F0100041E803024AB12068E0
:1034800050E8030F216820F0100041E80302002AF1
:10349000DAD12068416949060AD400202021E0855C
:1034A00084F83E1020632046FFF77CFF002010BD0B
:1034B00050E8050F216820F0400041E80502EAB11C
:1034C000206850E8050F216820F0400041E805021F
:1034D000A2B1206850E8050F216820F0400041E8C3
:1034E00005025AB1206850E8050F216820F040001D
:1034F00041E8050212B12068DAE700BFA06B68B1AD
:1035000046F27531C0F600010165FEF701FD0028A5
:10351000CCD0A06B016D8847002010BD0020202179
:10352000E08584F83E1020632046FFF73BFF002033
:1035300010BD000070470000B0B582B005680446B9
:103540002968EA68686901F02F03202B02F0200344
:1035500006D12BB1204602B0BDE8B04002F014BF46
:103560005FEA017C1EBF00F0010E02F4907010EBC8
:103570000E002FD1236B02EA0100C10618D5012BE2
:1035800016D1002001902868019068680190019888
:103590006869400628D4A08DE18DE28D002A1CBF09
:1035A000411A5FEA014040F0D58102B0B0BD00BFD2
:1035B000010600F1D1804006F7D5E868202120F00F
:1035C0004000E860204684F83D1002B0BDE8B040FD
:1035D00000F0B6BCC80718BF12F4807040F0D0806D
:1035E000480700F1D380D8E0A06B01684A6893B225
:1035F000002BDAD0A18D8B42D7D2E285C069B0F51D
:10360000807F00F0A08055E8030F216820F48070CF
:1036100041E80302F2B1206850E8030F216820F46A
:10362000807041E80302AAB1206850E8030F2168C6
:1036300020F4807041E8030262B1206850E8030F73
:10364000216820F4807041E803021AB1206850E834
:10365000030FDAE7206850E8050F216820F0010029
:1036600041E80502BAB3206850E8050F216820F050
:10367000010041E8050272B3206850E8050F216897
:1036800020F0010041E805022AB3206850E8050F48
:10369000216820F0010041E80502002ADAD11AE091
:1036A000206850E8050F216820F0400041E805023D
:1036B000DAB1206850E8050F216820F0400041E8A9
:1036C000050292B1206850E8050F216820F0400003
:1036D00041E805024AB1206850E8050F216820F052
:1036E000400041E80502002ADAD1202084F83E009B
:1036F00000202063206850E8030F216820F01000AC
:1037000041E80302DAB1206850E8030F216820F095
:10371000100041E8030292B1206850E8030F2168CD
:1037200020F0100041E803024AB1206850E8030F7E
:10373000216820F0100041E80302002ADAD1A06BD2
:10374000FEF79CFBA18DE08D081A81B2204602B0E5
:10375000BDE8B040FFF702BE94F83D0021287FF499
:1037600024AFA068B0F5805F03D12069002800F085
:103770008781206A411C21620078686087E100BF70
:10378000206C40F001002064480706D5BEF1000F10
:1037900003D0206C40F002002064880706D5BEF1FB
:1037A000000F03D0206C40F004002064BCF1000F37
:1037B00006D55EEA030003D0206C40F008002064C8
:1037C000206C00283FF4F1AE02EA0100800603D528
:1037D000204602F0D9FD25686869216C00F04000A0
:1037E00001F00801401800F0AD8055E8030F00BF5C
:1037F000216820F4907041E80302D2B3206850E8B9
:10380000030F216820F4907041E803028AB3206816
:1038100050E8030F216820F4907041E8030242B39E
:10382000206850E8030F216820F4907041E80302FB
:10383000FAB1206850E8030FDAE700BF206850E8CB
:10384000050F216820F0010041E80502DAB1206887
:1038500050E8050F216820F0010041E8050292B10F
:10386000206850E8050F216820F0010041E80502BA
:103870004AB1206850E8050F216820F0010041E8B6
:103880000502002ADAD1206B012824D1206850E8F3
:10389000030F216820F0100041E80302DAB120682C
:1038A00050E8030F216820F0100041E8030292B1B4
:1038B000206850E8030F216820F0100041E803025F
:1038C0004AB1206850E8030F216820F0100041E859
:1038D0000302002ADAD1202084F83E000020206371
:1038E00020684169490640F1C58050E8050F21680C
:1038F00020F0400041E80502002A00F0A98020687D
:1039000050E8050F216820F0400041E80502002A38
:1039100000F09E80206850E8050F216820F04000EC
:1039200041E80502002A00F09380206850E8050F66
:10393000216820F0400041E80502002A00F088805C
:103940002068D2E72046FFF7F5FD0020206402B092
:10395000B0BD00BF55E8030F226820F4907042E824
:103960000303D3B3206850E8030F226820F490705B
:1039700042E803038BB3206850E8030F226820F469
:10398000907042E8030343B3206850E8030F2268B5
:1039900020F4907042E80303FBB1206850E8030F65
:1039A000DAE700BF206850E8050F226820F0010028
:1039B00042E80503DBB1206850E8050F226820F0DB
:1039C000010042E8050393B1206850E8050F226822
:1039D00020F0010042E805034BB1206850E8050FD4
:1039E000226820F0010042E80503002BDAD12020F4
:1039F00084F83E0000202063206850E8030F22680E
:103A000020F0100042E80303DBB1206850E8030F08
:103A1000226820F0100042E8030393B1206850E8C8
:103A2000030F226820F0100042E803034BB1206826
:103A300050E8030F226820F0100042E80303002B37
:103A4000DAD189B2204602B0BDE8B040FFF786BCAB
:103A5000A06B78B146F26931C0F600010165FEF74E
:103A600057FA00283FF4A1ADA06B016D02B0BDE88C
:103A7000B0400847204602B0BDE8B040FFF75ABD4D
:103A8000206A30F8021B6FF35F2169602062E08CCE
:103A900001380104E0847FF488ADE86820F08000FC
:103AA000E860E86840F04000E86002B0B0BD0000A7
:103AB000002804BF0120704710B5044690F83D006F
:103AC00028B9002084F83C00204600F021F824208A
:103AD00084F83D002068C16821F40051C16020468F
:103AE00002F0D4FC2068016921F490410161416930
:103AF00021F02A014161C16841F40051C1600020F8
:103B00002021206484F83D1084F83E1010BD000090
:103B100080B586B0006841F20042C4F20102002183
:103B20009042CDE90411CDE90211019130D041F26A
:103B30000001C4F2010188425BD1002043F630014C
:103B40000090C4F202014A6942F010024A614A69D7
:103B500002F010020092009A00900A6842F00102FE
:103B60000A60096801F00101009100994FF4C061F9
:103B700001910221CDE90210032004900720059055
:103B80000020C4F2020001A9FEF7E8F906B080BDEA
:103B900043F630000091C4F20200426942F0200274
:103BA0004261426902F020020092009A009102688C
:103BB00042F004020260006800F0040000900098E7
:103BC000C02001900220CDE90201032004900820CA
:103BD00005900020C4F2020000F5006001A9FEF784
:103BE000BDF9472005210022FEF762FB4720FEF7C2
:103BF0004FFB06B080BD000090F83E30202B0BD16B
:103C000000294FF0010318BF002A01D11846704760
:103C100090F83C30012B01D1022070470023036350
:103C2000816222218285C285036480F83E10026988
:103C3000016880F83C301AB1C86840F48070C860F0
:103C40004869002340F001004861C86840F0200046
:103C5000C860184670470000704700002DE9F04327
:103C600081B0044690F83D0020280DD10F46002970
:103C70004FF0010000F060811646002A00F05C81E0
:103C800094F83C00012803D1022001B0BDE8F08384
:103C9000012084F83C004FF0000921201D46C4F8A3
:103CA000409084F83D00FEF743FAA684E684A168BC
:103CB0008046B1F5805F40F09D80206900281CBFE0
:103CC00038464F463E46074684F83C90E08C002834
:103CD00000F09780681C00F097803DB9206828E0CC
:103CE000FEF726FAA0EB0800A8422BD8206801684E
:103CF0000906F5D517B117F8011B04E036F8021BC9
:103D000000276FF35F214160E18C0139E184E18C90
:103D10000029ECD198E000BF36F8021B00276FF3B2
:103D20005F214160E18C0139E184E18C002900F0E0
:103D30008B800168090605D5002FEDD017F8011B0F
:103D4000EFE700BF206850E8030F216820F4D0702F
:103D500041E80302BAB3206850E8030F216820F459
:103D6000D07041E8030272B3206850E8030F216865
:103D700020F4D07041E803022AB3206850E8030F12
:103D8000216820F4D07041E80302002ADAD11AE059
:103D9000206850E8050F216820F0010041E8050285
:103DA000DAB1206850E8050F216820F0010041E8F1
:103DB000050292B1206850E8050F216820F001004B
:103DC00041E805024AB1206850E8050F216820F05B
:103DD000010041E80502002ADAD1202084F83D00E4
:103DE00084F83E00002084F83C00032001B0BDE8C8
:103DF000F08300BF002684F83C90E08C00287FF41C
:103E000069AF206820E000BF206802E00168090671
:103E100009D4016809065FBF01685FEA01610168B2
:103E20005FEA0161F2D51FB117F8011B05E000BF81
:103E300036F8021B00276FF35F214160E18C0139E6
:103E4000E184E18C0029E4D1016849060FD4FDB179
:103E5000691C17D1016849065FBF01685FEA4161CB
:103E600001685FEA416102D401684906F2D5202069
:103E700084F83D00002001B0BDE8F08320680068B0
:103E80004006F4D4FEF754F9A0EB0800A842F5D997
:103E9000206850E8030F216820F4D07041E8030245
:103EA000BAB3206850E8030F216820F4D07041E8CD
:103EB000030272B3206850E8030F216820F4D07029
:103EC00041E803022AB3206850E8030F216820F478
:103ED000D07041E80302002ADAD11AE0206850E8E5
:103EE000050F216820F0010041E80502DAB12068E1
:103EF00050E8050F216820F0010041E8050292B169
:103F0000206850E8050F216820F0010041E8050213
:103F10004AB1206850E8050F216820F0010041E80F
:103F20000502002ADAD1202084F83D0084F83E0002
:103F3000002084F83C00032001B0BDE8F0830000BD
:103F400070470000FEE70000F0B583B040F2004487
:103F50000546C4F2020407260A2704E06D00300675
:103F6000A6F1010662D020464FF400410022FEF780
:103F7000D9F800970098A0B10098013800900098F7
:103F800078B1009801380090009850B1009801383D
:103F90000090009828B100980138009000980028FF
:103FA000EAD1E8B2C20920464FF40051FEF7BAF850
:103FB00002970298A8B100BF0298013802900298B7
:103FC00078B1029801380290029850B102980138F5
:103FD0000290029828B102980138029002980028B5
:103FE000EAD120464FF400410122FEF79BF80197E9
:103FF00001980028B2D000BF0198013801900198C3
:104000000028ABD001980138019001980028A5D074
:10401000019801380190019800289FD0019801383B
:10402000019001980028E7D198E700BF20464FF49F
:104030000041002203B0BDE8F040FEF773B8000075
:1040400010B584B040F20044C4F2020420464FF49C
:1040500000510122FEF766F820464FF4004101228C
:10406000FEF760F80A2001900198A0B1019801388C
:104070000190019878B1019801380190019850B1F0
:10408000019801380190019828B1019801380190F8
:1040900001980028EAD120464FF40051FEF73CF881
:1040A00028B320464FF400510022FEF73BF80A20C7
:1040B00003900398A8B100BF0398013803900398B8
:1040C00078B1039801380390039850B103980138F0
:1040D0000390039828B103980138039003980028AF
:1040E000EAD120464FF40051FEF716F810B1002037
:1040F00004B010BD20464FF400510022FEF712F824
:104100000A2002900298A0B1029801380290029809
:1041100078B1029801380290029850B102980138A3
:104120000290029828B10298013802900298002863
:10413000EAD1012004B010BDB0B582B040F2004415
:10414000C4F2020420464FF400410022FDF7EAFFCA
:104150000A2501950198A0B10198013801900198B4
:1041600078B1019801380190019850B10198013857
:104170000190019828B10198013801900198002818
:10418000EAD120464FF400510022FDF7CBFF019504
:104190000198A0B1019801380190019878B1019877
:1041A00001380190019850B10198013801900198AF
:1041B00028B101980138019001980028EAD12046E1
:1041C0004FF400410122FDF7ADFF0A25019501984A
:1041D000A8B100BF019801380190019878B1019809
:1041E00001380190019850B101980138019001986F
:1041F00028B101980138019001980028EAD12046A1
:104200004FF400510122FDF78DFF01950198A0B1F7
:10421000019801380190019878B101980138019016
:10422000019850B1019801380190019828B1019886
:104230000138019001980028EAD102B0B0BD000019
:10424000B0B584B040F20044C4F2020420464FF4FA
:1042500000410022FDF766FF0A2501950198A0B1F3
:10426000019801380190019878B1019801380190C6
:10427000019850B1019801380190019828B1019836
:104280000138019001980028EAD120464FF40051EE
:104290000122FDF747FF03950398A0B10398013869
:1042A0000390039878B1039801380390039850B1B4
:1042B000039801380390039828B1039801380390BC
:1042C00003980028EAD120464FF400410122FDF76F
:1042D00029FF0A2002900298A8B100BF0298013875
:1042E0000290029878B1029801380290029850B179
:1042F000029801380290029828B102980138029081
:1043000002980028EAD120464FF40051FDF704FF3F
:10431000B0FA80F0450920464FF400410022FDF735
:1043200001FF284604B0B0BD10B540F2D020C2F263
:1043300000000078002800F07F80FDF751FB00F0BE
:1043400069FC40F27430C2F20000017821BB40F2F7
:104350007031C2F2000191ED000A9FED381AB4EEFF
:10436000410AF1EE10FA17DA40F22401C2F200011C
:10437000097801EE101AB8EE411AB4EE410AF1EED6
:1043800010FA09DD0121017006F096FA40F2A4212D
:10439000C2F20001086110BD40F25020C2F20000DC
:1043A000B0F9003040F2522040F2542140F2D422C1
:1043B000C2F20000C2F20001C2F20002B0F9000035
:1043C000B1F9001012788AB340F2D52CC2F2000C79
:1043D0009CF8004054BB03EBE33484EAE33300EB86
:1043E000E03484EAE03080B210FA83F001EBE1338C
:1043F00083EAE13110FA81F0C2F10A014FF47A72D6
:104400005143884212DD40F2A424C2F20004207815
:104410000130C1B20329207038BF10BD01208CF8D3
:10442000000006F049FA206110BD00BF40F2A42050
:10443000C2F200000021017010BD00BF0000A042C8
:10444000F0B595B00446642006F026FA002C00F082
:10445000CF8040F27426C2F200063068746050B912
:1044600041F2C062C0F6010208204FF4007106F06C
:10447000A3FA7468306040F2D237C2F20007BD1C64
:104480002046294640F2FD12FFF7B6FB7068FEF7A2
:104490008BFF7068294640F2FD12FEF7E9FE00200E
:1044A000A7F800028FA0FCF71DF9706894A1032201
:1044B0004FF6FF73FFF7D2FB4FF4FA7006F0ECF9FA
:1044C00090A0FCF70FF9706895A104224FF6FF73D6
:1044D000FFF7C4FB4FF47A7006F0DEF997F800029C
:1044E000002800F0858042F61820C0F60100FCF795
:1044F000F9F8706842F63D11C0F6010106224FF648
:10450000FF73FFF7ABFB4FF4FA7006F0C5F942F604
:104510009610C0F60100FCF7E5F8706882A1082249
:104520004FF6FF73FFF79AFB4FF47A7006F0B4F979
:1045300080A0FCF7D7F8706882A10D224FF6FF73B8
:10454000FFF78CFB4FF4FA7006F0A6F981A0FCF798
:10455000C9F8706882A10B224FF6FF73FFF77EFB4C
:104560004FF4FA7006F098F980A0FCF7BBF8706879
:1045700083A10B224FF6FF73FFF770FB4FF4FA7025
:1045800006F08AF942F6FA1107F20220C0F601019C
:104590000822FCF7D9F868B342F62520C0F60100DE
:1045A000FCF7A0F8012042F6281142F6FA1242F672
:1045B000CC1301AC87F80102C0F60101C0F601027C
:1045C000C0F601032046FBF729FF75682046FCF77B
:1045D000E7F882B2284621464FF6FF73FFF73EFB0D
:1045E00042F2107006F058F997F80102022804D23E
:1045F00015B0F0BD022087F8010242F6E610C0F6C1
:104600000100FCF76FF8706842F66011C0F6010116
:104610000A224FF6FF73FFF721FB4FF4FA7006F002
:104620003BF942F63220C0F60100FCF75BF87068F7
:1046300042F66B11C0F601010E224FF6FF73FFF731
:104640000DFB4FF4FA7006F027F942F6AA10C0F6F7
:104650000100FCF747F842F67A1142F6D71201AC96
:10466000C0F60101C0F60102204641F68523FBF7A2
:10467000D5FE75682046FCF793F882B2284621469D
:104680004FF6FF73FFF7EAFA4FF4FA6006F004F909
:1046900042F60B20C0F60100FCF724F8706842F6E1
:1046A0004411C0F601010E224FF6FF73FFF7D6FA50
:1046B0004FF4FA7006F0F0F842F60220C0F601005E
:1046C000FCF710F8706842F65311C0F601010C2295
:1046D0004FF6FF73FFF7C2FA4FF4FA7006F0DCF8FA
:1046E00015B0F0BDCDCBB3F64553503031C4A3BFA8
:1046F000E9CDB8B4ABC4A3CABD2E2E2E0000000075
:104700002B2B2B00B2E2CAD44553503031C4A3BF87
:10471000E9CAC7B7F1B4E6D4DA2E2E2E00000000A5
:1047200041540D0A0000000041542B474D520D0A20
:1047300000000000BFAAC6F441502B535441C4A34B
:10474000CABD000041542B43574D4F44453D330DE6
:104750000A000000B2E9D1AF535349440000000001
:1047600041542B43575341503F0D0A00B2E9D1AF9A
:10477000B5B1C7B0C1ACBDD3B5C4C8C8B5E30000BE
:1047800041542B43574A41503F0D0A00B0B506F043
:1047900093F840F2D024C2F20004216A01F5FA71C4
:1047A000884205D3A079C043A07106F085F8206245
:1047B000E56906F081F8EDB1E16901F5FA61884239
:1047C0001AD906F079F8E16941F288321144884239
:1047D00016D906F071F8E16901F5FA51884213D94A
:1047E000012020804FF48070E0800020C4E90700A1
:1047F000B0BD00BFE061B0BD00206070B0BD00BFC3
:1048000001206070B0BD00BF02206070B0BD00002C
:1048100090ED000A90ED011A91ED004A91ED045AD5
:1048200090ED022A91ED086A90ED033A91ED0C7A31
:1048300020EE040A21EE051A30EE010A22EE061AD5
:1048400030EE010A23EE071A30EE010A82ED000A6B
:1048500090ED000A90ED011A91ED014A91ED055A93
:1048600090ED022A91ED096A90ED033A91ED0D7AEF
:1048700020EE040A21EE051A30EE010A22EE061A95
:1048800030EE010A23EE071A30EE010A82ED010A2A
:1048900090ED000A90ED011A91ED024A91ED065A51
:1048A00090ED022A91ED0A6A90ED033A91ED0E7AAD
:1048B00020EE040A21EE051A30EE010A22EE061A55
:1048C00030EE010A23EE071A30EE010A82ED020AE9
:1048D00090ED000A90ED011A91ED034A91ED075A0F
:1048E00090ED022A91ED0B6A90ED033A91ED0F7A6B
:1048F00020EE040A21EE051A30EE010A22EE061A15
:1049000030EE010A23EE071A30EE010A82ED030AA7
:1049100090ED040A90ED051A91ED004A91ED045ACC
:1049200090ED062A91ED086A90ED073A91ED0C7A28
:1049300020EE040A21EE051A30EE010A22EE061AD4
:1049400030EE010A23EE071A30EE010A82ED040A66
:1049500090ED040A90ED051A91ED014A91ED055A8A
:1049600090ED062A91ED096A90ED073A91ED0D7AE6
:1049700020EE040A21EE051A30EE010A22EE061A94
:1049800030EE010A23EE071A30EE010A82ED050A25
:1049900090ED040A90ED051A91ED024A91ED065A48
:1049A00090ED062A91ED0A6A90ED073A91ED0E7AA4
:1049B00020EE040A21EE051A30EE010A22EE061A54
:1049C00030EE010A23EE071A30EE010A82ED060AE4
:1049D00090ED040A90ED051A91ED034A91ED075A06
:1049E00090ED062A91ED0B6A90ED073A91ED0F7A62
:1049F00020EE040A21EE051A30EE010A22EE061A14
:104A000030EE010A23EE071A30EE010A82ED070AA2
:104A100090ED080A90ED091A91ED004A91ED045AC3
:104A200090ED0A2A91ED086A90ED0B3A91ED0C7A1F
:104A300020EE040A21EE051A30EE010A22EE061AD3
:104A400030EE010A23EE071A30EE010A82ED080A61
:104A500090ED080A90ED091A91ED014A91ED055A81
:104A600090ED0A2A91ED096A90ED0B3A91ED0D7ADD
:104A700020EE040A21EE051A30EE010A22EE061A93
:104A800030EE010A23EE071A30EE010A82ED090A20
:104A900090ED080A90ED091A91ED024A91ED065A3F
:104AA00090ED0A2A91ED0A6A90ED0B3A91ED0E7A9B
:104AB00020EE040A21EE051A30EE010A22EE061A53
:104AC00030EE010A23EE071A30EE010A82ED0A0ADF
:104AD00090ED080A90ED091A91ED034A91ED075AFD
:104AE00090ED0A2A91ED0B6A90ED0B3A91ED0F7A59
:104AF00020EE040A21EE051A30EE010A22EE061A13
:104B000030EE010A23EE071A30EE010A82ED0B0A9D
:104B100090ED0C0A90ED0D1A91ED004A91ED045ABA
:104B200090ED0E2A91ED086A90ED0F3A91ED0C7A16
:104B300020EE040A21EE051A30EE010A22EE061AD2
:104B400030EE010A23EE071A30EE010A82ED0C0A5C
:104B500090ED0C0A90ED0D1A91ED014A91ED055A78
:104B600090ED0E2A91ED096A90ED0F3A91ED0D7AD4
:104B700020EE040A21EE051A30EE010A22EE061A92
:104B800030EE010A23EE071A30EE010A82ED0D0A1B
:104B900090ED0C0A90ED0D1A91ED024A91ED065A36
:104BA00090ED0E2A91ED0A6A90ED0F3A91ED0E7A92
:104BB00020EE040A21EE051A30EE010A22EE061A52
:104BC00030EE010A23EE071A30EE010A82ED0E0ADA
:104BD00090ED0C0A90ED0D1A91ED034A91ED075AF4
:104BE00090ED0E2A91ED0B6A90ED0F3A91ED0F7A50
:104BF00020EE040A21EE051A30EE010A22EE061A12
:104C000030EE010A23EE071A30EE010A82ED0F0A98
:104C100070470000F0B581B005F04EFE40F2A424CC
:104C2000C2F20004E1688842C0F0F5803230E060F2
:104C300000F0F6F805F040FE40F2F422C2F2000265
:104C4000216A12681144884240F2E58005F034FE82
:104C5000206240F25620C2F2000042F20464B0F931
:104C6000002040F21130C0F60104C2F200002146DB
:104C7000FBF7D4FB40F25820C2F20000B0F900204C
:104C800040F21B30C2F200002146FBF7C7FB40F2A6
:104C90005A20C2F20000B0F9002040F22530C2F2E2
:104CA00000002146FBF7BAFB40F25020C2F20000A0
:104CB000B0F9002040F22F30C2F200002146FBF78D
:104CC000ADFB40F25220C2F20000B0F9002040F2E9
:104CD0003930C2F200002146FBF7A0FB40F254201D
:104CE000C2F20000B0F9002040F24330C2F20000EE
:104CF0002146FBF793FB40F26827C2F200073868B1
:104D00000CF098FA42F20764024640F24D30C0F6C9
:104D100001040B46C2F200002146FBF77FFB40F284
:104D20006C26C2F2000630680CF084FA024640F2AB
:104D300057300B46C2F200002146FBF76FFB40F2F2
:104D40007025C2F2000528680CF074FA024640F2A1
:104D500061300B46C2F200002146FBF75FFB40F2D8
:104D6000FC21C2F2000108684A2809DC431C3A68A9
:104D70000B6048F65851C2F2000141F820200CE0C7
:104D800048F65854C2F20004211D20464FF4947294
:104D9000FBF7B5FD3868C4F8280140F20031C2F2D3
:104DA000000108684A2809DC431C32680B6048F699
:104DB0008461C2F2000141F820200CE048F68464CE
:104DC000C2F20004211D20464FF49472FBF797FDB8
:104DD0003068C4F8280140F20431C2F200010868CA
:104DE0004A280BDC431C2A680B6049F2DC01C2F242
:104DF000000141F8202001B0F0BD00BF49F2DC0401
:104E0000C2F20004211D20464FF49472FBF777FD97
:104E10002868C4F8280101B0F0BD000000000000BF
:104E2000F0B581B02DED0A8B8CB00DF11E000DF1A7
:104E30001D0700900DF1260008A903AA0BAB0197EE
:104E400003F096F8BDF81E0040F25026C105C2F2EC
:104E5000000640F1BB809DED030A9DED041A9DED17
:104E6000052A9DED063A9FED6A4AB8EEC00A40F267
:104E7000B807B8EEC11A20EE040AC2F2000721EE0C
:104E8000041AB8EEC22AB8EEC33A87ED000A22EE41
:104E9000042A23EE043A86ED031A31EE011A30EEAD
:104EA000000A21EE031A20EE020A30EE410A10EE4B
:104EB000100A86ED042A86ED053A0CF0BBF941ECA8
:104EC000100B0AF031FA51EC100B9FED4F0B54EC24
:104ED000105B2A4623460BF0E9FE0BF099FBB0610C
:104EE00096ED04AA97ED001A96ED039A96ED050A41
:104EF0003AEE0ABA31EE011A2BEE000A21EE091A37
:104F000030EE010A10EE100A0CF094F9B8EE000A27
:104F100029EE000A29EE000A2AEE0B1A30EE410AA9
:104F2000B7EE001A30EE010A41EC180B10EE100A31
:104F30000CF080F941EC110BB0EE480AF0EE680A73
:104F40000AF00EFD51EC100B2A4623460BF0AEFE84
:104F50000BF05EFBF06196ED039A96ED04AA96EDD8
:104F600005BA97ED00CA29EE0A0A2CEE0B1A30EEAC
:104F7000010A30EE000A10EE100A0CF05BF92CEE7C
:104F80000C0A29EE091A31EE000A2AEE0A1A30EE4E
:104F9000410A2BEE0B1A30EE410A41EC180B10EED1
:104FA000100A0CF047F941EC110BB0EE480AF0EE94
:104FB000680A0AF0D5FC51EC100B2A4623460BF088
:104FC00075FE0BF025FB3062BDF81E0010F0700F6F
:104FD00008D0BDF826103180BDF828107180BDF8CA
:104FE0002A10B180000708D5BDF82000F080BDF878
:104FF00022003081BDF8240070810CB0BDEC0A8B1A
:1050000001B0F0BD00BF00BF6666666666A64C4094
:105010000000803010B588B004F092F910B1002083
:1050200008B010BD72A0FBF75DFB782005F08CFB8B
:1050300030B178A0FBF756FB002008B010BD00BFD0
:105040007EA0FBF74FFB782004F0BAF840B142F69F
:10505000FC00C0F60100FBF745FB002008B010BDC6
:1050600042F2D070C0F60100FBF73CFB322005F0A5
:10507000C9FA48B142F2F370C0F60100FBF732FB07
:10508000002008B010BD00BF42F24470C0F601001D
:10509000FBF728FB02F060FF40B142F61400C0F6B7
:1050A0000100FBF71FFB002008B010BD42F2F160C9
:1050B000C0F60100FBF716FBAC2003F041F948B144
:1050C00042F6CF00C0F60100FBF70CFB002008B051
:1050D00010BD00BF42F2AC70C0F60100FBF702FB4E
:1050E00040F2731002F0F2FD40B142F64D00C0F6FE
:1050F0000100FBF7F7FA002008B010BD42F2217062
:10510000C0F60100FBF7EEFA322003F07FF848B159
:1051100042F67900C0F60100FBF7E4FA002008B07F
:1051200010BD00BF42F26870C0F60100FBF7DAFA6A
:1051300005A802A904F042FD07283BD101A801AC53
:1051400004F0E4F894ED040A94ED051A94ED062AAF
:1051500094ED003AB8EEC00AB8EEC11AB8EEC22A11
:1051600023EE000A23EE011A23EE022ABDEEC00A46
:10517000BDEEC11ABDEEC22A05A884ED040A84ED75
:10518000051A84ED062A03F079F80DF1020004F007
:1051900085F802ABBDF802000ECB4143029102FB41
:1051A00000F15843049002A8039102F0CFFF2BA016
:1051B00004E000BF42F2CF60C0F60100FBF792FAB4
:1051C000012005F0A3F948B142F6A400C0F60100A1
:1051D000FBF788FA002008B010BD00BF42F28A70C9
:1051E000C0F60100FBF77EFA012008B010BD00BF39
:1051F0006D707520696E697469616C697A61746932
:105200006F6E20636F6D706C6574652E2E2E2E2E62
:105210002E0000006D70755F7365745F73656E734B
:105220006F7220636F6D65206163726F73732065A9
:1052300072726F72202E2E2E2E2E2E006D70755FC4
:105240007365745F73656E736F7220636F6D706CDE
:10525000657465202E2E2E2E2E2E0000736574741C
:10526000696E672062696173207375636365736635
:10527000756C6C79202E2E2E2E2E2E0010B546F237
:10528000650041F22072C0F60000C0F60102002164
:1052900005F030FC40F25014C2F20004206046F2E7
:1052A0000D0041F2FC62C0F60000C0F601020021D0
:1052B00005F020FC606046F2A10041F24472C0F6A5
:1052C0000000C0F60102002105F014FCA06045F6C4
:1052D000E57041F2D862C0F60000C0F6010200217C
:1052E00005F008FCE06045F6D57041F29C62C0F61E
:1052F0000000C0F60102002105F0FCFB206110BD9A
:105300002DE9F04F87B0002543F63000CDE9055573
:105310000195C4F20200016841F2000741F010015A
:1053200001600168C4F2020701F0100101910199C6
:1053300001950168012241F08001016001684FF090
:10534000010A01F08001019101990195016841F084
:1053500002010160016801F00201019101990195CA
:10536000016841F004010160016801F0040101914C
:1053700001990195016841F00101016000684FF455
:10538000FE4100F00100019001983846FCF7CAFE8A
:10539000384648F201010022FCF7C4FEA7F540663A
:1053A00030464AF2C0410022FCF7BCFEA7F5006976
:1053B00048464FF4706100224FF4706BFCF7B2FE68
:1053C000A7F5805840464FF419410022FCF7AAFE89
:1053D0001E2002A902AC81E8210438462146FCF7D0
:1053E000BDFD6020CDE9020502200490384621462B
:1053F000FCF7B4FD4FF60170CDE9020A38462146AC
:10540000CDE90455FCF7AAFD4FF49860CDE9020AF6
:1054100030462146CDE90455FCF7A0FD4FF420406D
:1054200002901120CDE90305304621460595FCF791
:1054300095FD48462146CDE902BACDE90455FCF771
:105440008DFD4FF41940CDE9020A40462146CDE9D1
:105450000455FCF783FD07B0BDE8F08FB0B594B0FC
:1054600040F2FC5040F200450021C2F2000040F240
:10547000E733C4F200050E91CDE90C110991CDE995
:105480000711CDE90511CDE90311CDE90111532231
:10549000C0E9021301618021C0E900528161FDF77A
:1054A0008DFA002818BFFCF7B3FC4FF480500B9026
:1054B00040F2FC50C2F200000BA9FDF71FFB0028D0
:1054C00018BFFCF7A5FC40F2FC50C2F20000FDF74B
:1054D000B1FD002818BFFCF79BFC40F2FC500024F3
:1054E000C2F2000008A9CDE90844FDF70BFA002834
:1054F00018BFFCF78DFC6020CDE9010403940594EE
:1055000040F2FC54C2F2000401A920460022FDF73B
:105510007FFC002818BFFCF77BFC2068A84201D064
:1055200014B0B0BD002043F630010F90C4F2020168
:105530000A6842F002020A60096801F002010F9154
:105540000F9910210F910221CDE91010CDE9120120
:1055500005F500300FA9FCF701FD14B0B0BD000047
:1055600080B540F28C6041F20001C2F20000C4F24A
:10557000010100234FF00C0C4FF4E13280E80E00E3
:10558000C0E90333C0E905C3C361FEF791FA0028FF
:1055900008BF80BDBDE88040FCF73ABC80B540F252
:1055A000D06041F20041C2F20000C4F201010023C8
:1055B0004FF00C0C4FF4E13280E80E00C0E90333E9
:1055C000C0E905C3C361FEF773FA002808BF80BDB8
:1055D000BDE88040FCF71CBCFEE70000FEE70000D1
:1055E000EFF30980BFF36F8F154B1A681EF0100F91
:1055F00008BF20ED108A20E9F04F10602DE9090066
:105600004FF0500080F31188BFF34F8FBFF36F8FBF
:1056100008F0BEFA4FF0000080F31188BDE80900E1
:1056200019680868B0E8F04F1EF0100F08BFB0EC22
:10563000108A80F30988BFF36F8F704700BF00BFE7
:10564000640100209FED152AB5EE401A20EE020AF3
:1056500031EE023A9FED124AF1EE10FA08BFB0EEB9
:10566000443A80EE030A20EE821A81EE031A02EE1B
:10567000101AB8EEC22A30EE020ABDEEC00A10EED1
:10568000101A00EE102AB8EEC00A31EE000ABDEE84
:10569000C00A10EE102AC0E9001270470000004452
:1056A00000400044F0B581B0002800F0838005463A
:1056B0000088002800F07E80AC1C3FA02146FAF74D
:1056C000A1FE40A12046FBF72DF840F2D236A042C1
:1056D000C2F2000604D296F8000220B96AE000BFC8
:1056E000012086F8000238A120460422FBF777F853
:1056F00048B996F80102012805D1022086F8010276
:1057000033A0FAF7EFFF36A120460E22FBF767F829
:1057100028B9012086F8010235A0FAF7E3FF38A185
:1057200020460D22FBF75BF896F80172002808BFAF
:10573000022F21D036A120461122FBF750F8022F6C
:1057400008BF002818D037A120460722FBF747F8EA
:10575000F0B136A120460722FBF741F850BB0A35CD
:1057600028462221FAF7D4FFA84223D9001BA0F132
:10577000080206F2022017E0032142F6BF10C0F62D
:10578000010086F8011201B0BDE8F040FAF7AABFA7
:105790000A3528462221FAF7BBFFA8420AD9001B86
:1057A000A0F1080206F21620294601B0BDE8F0403B
:1057B000FBF728B901B0F0BD455350303120727865
:1057C0003A2573004F4B00000D0A4F4B00000000BC
:1057D000455350303120636F6E6E3A320000000046
:1057E0005749464920434F4E4E45435445440000D7
:1057F000455350303120636F6E6E3A310000000027
:10580000434F4E4E4543540D0A0D0A4F4B000000C6
:10581000414C524541445920434F4E4E4543544517
:10582000440000002B43575341503A002B43574A42
:1058300041503A002DE9F04F81B02DED068BA2B01A
:1058400012AC054620460E46B0EE418AB0EE609A94
:10585000B0EE40AA05F0CAFE20466FF003016FF0DB
:1058600003026FF0030300F037FDB1EE000A20469B
:10587000F0EE400AB0EE401A00F0A8FA2046B0EE72
:105880004A0AF0EE490AB0EE481A00F029F920461B
:1058900000210022002300F01FFD9FED8F9A20467B
:1058A000B0EE490AF0EE490AB0EE491A08F0CEF916
:1058B0002DB236B210AF384629463246FFF7C2FE47
:1058C0001098B2EE008A07901198B0EE480A069040
:1058D000F0EE490AB0EE491A204608F0B7F938460A
:1058E00029463246FFF7AEFE1098B0EE490A0F90F7
:1058F0001198F0EE480A0E90B0EE491A204608F0D2
:10590000A5F9384629463246FFF79CFE1098B0EEBE
:10591000480A0D901198F0EE480A0C90B0EE491A22
:10592000204608F093F9384629463246FFF78AFEAA
:105930001098B7EE009A0B901198B0EE490A0A90B1
:10594000F0EE490AB0EE481A204608F07FF93846D2
:1059500029463246FFF776FE1098B1EE0CAA099060
:105960001198B0EE4A0A0890F0EE490AB0EE481AD3
:10597000204608F06BF9384629463246FFF762FEAA
:105980001098B0EE490A03901198F0EE4A0A02907E
:10599000B0EE481A204608F059F9384629463246F2
:1059A000FFF750FE1098B0EE4A0A05901198F0EEFD
:1059B0004A0A0490B0EE481A204608F047F93846E3
:1059C00029463246FFF73EFEDDE9100100F07F0870
:1059D000079801F03F0900F07F040698079400F053
:1059E0003F050F98294600F07F0A0E98524600F0B6
:1059F0003F0B20465B460695CDF804A0CDF800B0DD
:105A0000FCF728FA0D98294600F07F060C983246DC
:105A100000F03F0720463B460D960C97FCF71AFA1C
:105A20000B98524600F07F040A985B4600F03F0551
:105A3000204629460F940E95FCF70CFA204629467D
:105A400032463B46FCF706FA099800F07F060898B4
:105A500000F03F070398394600F07F0A029852464B
:105A600000F03F0B30465B46FCF7F4F905983946E9
:105A700000F07F040498224600F03F0530462B4694
:105A8000FCF7E8F94046494652465B46FCF7E2F926
:105A90004046494622462B46FCF7DCF9DDE9061074
:105AA00032463B46FCF7D6F9DDE9001052465B462C
:105AB000FCF7D0F9DDE90C1022462B46FCF7CAF9B9
:105AC000DDE90E1042464B46FCF7C4F922B0BDECAE
:105AD000068B01B0BDE8F08F000000000000000060
