:020000040800F2
:1000000018A900206D020008754900082938000869
:1000100071490008F5180008B975000800000000D3
:100020000000000000000000000000005152000825
:10003000111C000800000000214A0008015B0008B4
:10004000870200088702000887020008870200086C
:10005000870200088702000887020008870200085C
:10006000870200088702000887020008870200084C
:10007000870200088702000887020008870200083C
:10008000870200088702000887020008870200082C
:10009000870200088702000887020008870200081C
:1000A000870200088702000887020008870200080C
:1000B00087020008870200088702000887020008FC
:1000C00087020008870200088702000887020008EC
:1000D00087020008870200088702000887020008DC
:1000E00087020008870200088702000887020008CC
:1000F00087020008870200088702000887020008BC
:1001000087020008870200088702000887020008AB
:10011000870200088702000887020008D55B0008F4
:10012000870200088702000887020008870200088B
:10013000870200088702000887020008870200087B
:10014000870200088702000887020008870200086B
:1001500087020008870200088702000885740008EB
:10016000870200088702000887020008870200084B
:1001700087020008870200088702000800000000CC
:10018000870200088702000800F002F800F05EF81D
:100190000AA090E8000C82448344AAF10107DA45E2
:1001A00001D100F053F8AFF2090EBAE80F0013F0D6
:1001B000010F18BFFB1A43F0010318470CA20500FA
:1001C0002CA20500103A24BF78C878C1FAD852078B
:1001D00024BF30C830C144BF04680C6070470000C1
:1001E0000023002400250026103A28BF78C1FBD840
:1001F000520728BF30C148BF0B60704766290FF017
:10020000688765290FF0658767290FF06287612984
:100210000FF06187642900F06B81732901F057802A
:10022000002070471FB50FF042FF01F0ABF804004B
:10023000002000210FF06CF8401C606000200021BD
:100240000FF050F8E0601FBD10B510BD01F0EAF9E5
:100250001146FFF7E7FF08F059FE01F016FA03B464
:10026000FFF7F2FF03BC01F059FA0000094880478C
:1002700009480047FEE7FEE7FEE7FEE7FEE7FEE788
:10028000FEE7FEE7FEE7FEE704480549054A064BA0
:1002900070470000C15B00088901000818A3002016
:1002A00018A9002018A5002018A5002053EA020C68
:1002B00000F069802DE9F04B4FF00006002B1FBFC6
:1002C000B3FA83F503FA05F424FA05F65E4012BF8B
:1002D0001643B2FA82F502FA05F4C5F120051EBFF5
:1002E00022FA05FC44EA0C04203556EA044C4FEA95
:1002F000144418BF641C4FF000084FF000099042EE
:1003000071EB030C39D3002919BFB1FA81F701FA57
:1003100007F6B0FA80F700FA07F6C7F120071EBF0C
:1003200020FA07FC46EA0C062037B6FBF4FCA7EBE4
:100330000507103F07F01F0BCBF120062CFA06F63D
:100340000CFA0BFB44BFB3460026202FA4BF5E4629
:100350004FF0000B5BEA060C08BF4FF0010B19EBE6
:100360000B0948EB0608ABFB027C06FB02CC0BFB3F
:1003700003CCC01B71EB0C01C1E70B4602464146A2
:100380004846BDE8F08B13B5084318BF4FF0FF3067
:100390000146AFF30080BDE81C40704753EA020CF1
:1003A00023D010B54C1084EA530404D54042C1F167
:1003B000000138BF491E1B4204D55242C3F100035D
:1003C00038BF5B1EFFF772FF14F0804F04D040422D
:1003D000C1F1000138BF491E14F0004F04D0524251
:1003E000C3F1000338BF5B1E10BD13B540424FF090
:1003F000000070EB0104B8BF012001F000410028AB
:100400001CBF6FF000414FF0FF30AFF300801CBD08
:100410000FB4044910B503AA029800F05DFF10BCA8
:100420005DF814FB201200200FB41CB5074B06AA80
:100430007B4469460090059800F01FFF0020694644
:1004400000F02EFF1CBC5DF814FB00006D0E0000D8
:1004500070B5044685690068C10601D5302600E004
:100460002026C00707D070BDD4E90121304690474F
:10047000206A401C20626D1EF6D570BD70B5044622
:1004800085690078C00707D170BDD4E9012120201B
:100490009047206A401C20626D1EF6D570BD70B575
:1004A0000C460546012A05D02878800600D5EA6961
:1004B000002302E0012305E05B1C934202D2E05CD2
:1004C0000028F9D1A869E618C01AA861286A18445A
:1004D00028622846FFF7BCFF04E0D5E9012114F8A3
:1004E000010B9047B442F8D32846FFF7C7FF70BD11
:1004F0002DE9F0410646002410687529314616A5FD
:1005000010D0AFF30080002802DA404213A507E0C4
:1005100031688A0701D512A502E0490704D511A563
:10052000012401E0AFF3008000210A2206F1240734
:1005300009E0B0FBF2FCB0FBF2F302FB1C00303030
:1005400078541846491C0028F3D123462A463046E1
:10055000BDE8F04100F0A7BA000000002D00000047
:100560002B000000200000002DE9F05F89460446C2
:100570004FF0000ADFF874B1FB44C0F820A0204619
:10058000E1688847002874D0252806D0D4E90121E5
:100590009047206A401C2062F1E700265F46204613
:1005A000E16888472028054607DB312D05D27819F8
:1005B00010F8200C08B10643F1E7B00701D526F08A
:1005C0000406C4F81CA00027C4F818A02A2D09D0DE
:1005D00028460EF035FE38B304EB8708303DC8F8E6
:1005E000185019E059F8041B204604EB870291616A
:1005F000E1688847012F054618D1E069002820DA14
:1006000026F020061DE0D8F8180000EB800005EB6E
:1006100040003038C8F818002046E1688847054691
:100620000EF00EFE0028EED1012F0AD02E2D08D19B
:100630002046E16888477F1C0546022F46F02006C9
:10064000C4DBA069002803DA404246F00106A0613D
:10065000F00701D026F010066C2D0BD0682D09D0C4
:100660004C2D39D06A2D35D0742D35D07A2D33D01C
:1006700016E038E0E1682F4620468847B842054634
:1006800009D16C2F26D04FF48060E16806432046E4
:100690008847054604E06C2F1AD04FF4807006435B
:1006A0000DB3A5F14100192802D8203546F40066A3
:1006B0004A462946204626604E46FFF79FFD80B1F8
:1006C00001280BD0F61D26F0070000F1080956E7B7
:1006D0004020E4E78020D8E70020D6E706F10409AF
:1006E0004DE7284652E7206ABDE8F09F5EFB000018
:1006F00070B5064600F0C8F90468054630460A227F
:10070000002100F0FBFD2C6070BD000010B5044618
:1007100003E007F0F1FF401C09D014F8010B054974
:100720000028F6D1BDE810400A2007F0E5BF4FF0E1
:10073000FF3010BD20120020401ECAB210F8011F69
:100740008A4202D00029F9D10020704730B5054611
:100750000B462A4613F8014B12F8010B08B1A042D0
:10076000F8D01CB1002802D06D1CF1E7284630BD3E
:1007700040EA010310B59B070FD1042A0DD310C81E
:1007800008C9121F9C42F8D020BA19BA884201D970
:10079000012010BD4FF0FF3010BD1AB1D30703D0B8
:1007A000521C07E0002010BD10F8013B11F8014B6E
:1007B0001B1B07D110F8013B11F8014B1B1B01D18A
:1007C000921EF1D1184610BD10B5431C02E010F87E
:1007D000011B71B18107FAD14FF0013202C88C1AA6
:1007E0008C4314EAC211F9D0C01A0A0603D0C01E05
:1007F00010BDC01A10BD0A0401D0801E10BD090230
:10080000FCD0401E10BD40EA010370B59B072ED1FD
:100810004FF00136042A2AD308C810C99D1B9D43F6
:10082000121F15EAC61517D0D8B2E1B2401A50EA25
:10083000056110D198B2A1B2401A50EA05410AD11F
:1008400023F07F4024F07F41401A50EA052102D175
:10085000180EA0EB146070BDA342DBD018BA21BA09
:10086000884201D9012070BD4FF0FF3070BD0AB938
:10087000002070BD10F8013B11F8014B63B1A34299
:100880000AD1521E08D010F8013B11F8014B1BB1E0
:10089000A34201D1521EEDD1181B70BD032A40F2B4
:1008A000308010F0030C00F0158011F8013BBCF112
:1008B000020F624498BF11F801CB00F8013B38BF2A
:1008C00011F8013BA2F1040298BF00F801CB38BF38
:1008D00000F8013B11F0030300F02580083AC0F056
:1008E000088051F8043B083A51F804CBA0E80810FE
:1008F000F5E7121D5CBF51F8043B40F8043BAFF331
:100900000080D20724BF11F8013B11F801CB48BF8A
:1009100011F8012B24BF00F8013B00F801CB48BFC0
:1009200000F8012B704710B5203AC0F00B80B1E8F9
:100930001850A0E81850B1E81850A0E81850203A14
:10094000BFF4F5AF5FEA027C24BFB1E81850A0E81D
:10095000185044BF18C918C0BDE810405FEA827C37
:1009600024BF51F8043B40F8043B08BF7047D2074E
:1009700028BF31F8023B48BF11F8012B28BF20F8EF
:10098000023B48BF00F8012B704702F0FF0343EA27
:10099000032242EA024200F024B84FF00002042988
:1009A000C0F0128010F0030C00F01B80CCF1040C9E
:1009B000BCF1020F18BF00F8012BA8BF20F8022BD2
:1009C000A1EB0C0100F00DB85FEAC17C24BF00F878
:1009D000012B00F8012B48BF00F8012B70474FF0A6
:1009E000000200B5134694469646203922BFA0E87F
:1009F0000C50A0E80C50B1F12001BFF4F7AF09078B
:100A000028BFA0E80C5048BF0CC05DF804EB89007B
:100A100028BF40F8042B08BF704748BF20F8022BBE
:100A200011F0804F18BF00F8012B704710B5044635
:100A300010F0030F08BF11F0030F40F015804FF0C6
:100A4000013E121FC0F20E8051F8043BA3EB0E0CC6
:100A50002CEA030C1CEACE1C08BF40F8043BF0D083
:100A6000A1F1040102F10402521E08DB11F8013B5E
:100A700000F8013B002BF7D11146FFF78EFF20460F
:100A800010BD704770477047004870470001002054
:100A900010B5FFF7F9FF006810BD10B50446FFF769
:100AA000F3FF046010BD2DE9F0470D4699469246CC
:100AB000044600F124080168880604D5E06921F0A5
:100AC0001001216000E00120A84201DD471B00E089
:100AD0000027A1697A1902EB0900081AA0612078A1
:100AE000C00602D42046FFF7B3FC002608E0D4E994
:100AF00001211AF806009047206A401C761C2062EB
:100B00004E45F4DB2078C0060AD52046FFF7A0FC4E
:100B100006E0D4E9012130209047206A401C206281
:100B2000381EA7F10107F4DC07E0D4E9012118F829
:100B300005009047206A401C2062281EA5F101058F
:100B4000F3DC2046FFF79AFC2078000602D502204D
:100B5000BDE8F0870120FBE72DE9FF4F0C461E465C
:100B60004FF0FF378BB0D2E90001DDF860800A90CA
:100B70008A46C1F30A5505B93D46002108464FF0A3
:100B80000000BAF1000F00F4400005DA00EB80002D
:100B90004FF4400101EA50004FEA9059B9F1010FBA
:100BA00000DDB9460A9850EA4A000ED044F61050CB
:100BB000A5F2FF3545432F14B8F1000F1ED0754242
:100BC000291E1EDDC9F100021CE0B8F1010F4FF033
:100BD000000001D0302103E0F24305E02154401C25
:100BE000B042FBDB30460022002121540B99C1F8B2
:100BF0000880C1E900200FB0BDE8F08FBD1B6D1C5F
:100C0000DEE74A4600DA694206A800F095FC06AB2A
:100C100093E8070003AB83E8070050460A990CF0FD
:100C20002DFE8DE80700A0F500501F3800900398B6
:100C3000002D0ADD42F21F014A460844002303A9A1
:100C4000039068460DF096F809E0A0F500504A467A
:100C50001F38002303A9039068460DF0A0F88DE823
:100C600007000004000C03D04FF0FF30410800E003
:100C70001046B8F1000F03D00022009215461EE086
:100C8000751E05D400F082FB303262556D1EF9D519
:100C9000B3460122084302D000227F1C04E02078E2
:100CA000302801D100227F1E002A099784D01DE040
:100CB000112D07DA00F06AFB303262556D1C50EAE4
:100CC0000102F5D1084302D00098C8B10EE000211E
:100CD000681E05E0235C625C63542254401E491C7C
:100CE0008142F7DBAB46A81B401E0990002004F8A8
:100CF0000B000B98099AC0F80880C0E9002B7AE72E
:100D000011264FF0000857E72DE9F04F88460446BA
:100D1000D21D22F0070191B0D1E90001CDE90A010D
:100D20000DF074F902460B98C00F01D02D2007E09A
:100D30002068810701D52B2002E0202101EAC000B4
:100D4000032A099001D0072A05DB034641462046C5
:100D500000F062FB0BE12078800601D5E06900E03D
:100D60000620B8F1650F814606D0B8F1660F18D09D
:100D7000B8F1670F70D131E00020B9F1110F009088
:100D800001DB112301E009F101030AAA01A90CA862
:100D9000FFF7E2FEDDE90C70002609F1010583464C
:100DA00047E001204B4600904FF000470AAA01A9F6
:100DB0000CA8FFF7D1FEDDE90DB00C995D460026C9
:100DC00010B909F101000D18B9EB050003D4C0F109
:100DD000FF3609F10105A5EB09002BE0B9F1010F80
:100DE00001DA4FF001090020B9F1110F00904846D7
:100DF00001DD112300E003460AAA01A90CA8FFF7B0
:100E0000ABFEDDE90C704D460026834620780007D6
:100E10000AD4AB4500DA5D4601A8012D04DD411975
:100E200011F8011C302907D04F4502DA17F1040FE1
:100E300004DA012082460FE06D1EEEE7002F02DC8F
:100E4000ED1B3E4403E0781CA84200DD7D1CB81B6E
:100E500000F1010A4FF000472078000703D4AA45AB
:100E600001DB4FF0FF3A0021B7F1004F0DF14308CD
:100E70008DF8431024D002202B23002F01DA7F426B
:100E80002D230A21021EA0F1010000DC5FB197FBB7
:100E9000F1FC97FBF1F201FB1C7C17460CF1300CC6
:100EA00008F801CDEEE7A8F10100037021880905DB
:100EB00001D5452100E06521A0F1010800F8011CE1
:100EC00009980FA9A1EB0807FF1D00B101204119E6
:100ED00001EBEA70A1693844081A401EA06120782D
:100EE000C00602D42046FFF7B3FA099828B1D4E926
:100EF00001219047206A401C20622078C00622D53C
:100F00002046FFF7A5FA1EE0002E04DBB34502DD04
:100F100001A8805D00E03020D4E901219047206ADB
:100F2000401C2062761CAAF101005FEA000A0AD187
:100F300000F028FAC0680168405CD4E901219047BC
:100F4000206A401C2062281EA5F10105DCDC07E0B8
:100F5000D4E9012118F8010B9047206A401C206257
:100F6000381EA7F10107F3DC2046FFF787FA0320BC
:100F700011B041E62DE9F04F04460D46D21D22F096
:100F8000070089B0D0E90097484639460DF03EF891
:100F90000246F80F01D02D2307E02068810701D514
:100FA0002B2302E0202101EAC0038DF820300BB191
:100FB000012000E00020032A824601D0072A04DB3A
:100FC0002946204600F028FA3FE12078800601D427
:100FD0000D2500E0E569C7F30A560D2D49DA002119
:100FE0004FEA175B08464FF00000002F00F4400066
:100FF00007DA00EB80004FF4400100EBD07001EA0B
:1010000060008115012901DD4FF0FF3100224FEA18
:10101000850CBCF1180F06D31346ACF118004FF045
:101020008052C24003E04FF4801323FA0CF30CF11A
:101030000C0CBCF1200F04D3ACF1200C09FA0CF01D
:1010400001E007FA0CF000294FF0004801DD18B963
:101050000FE00ED140450CD319EB02095F4121B9D5
:10106000404502D19F4329EA0209BBEB175F00D03C
:10107000761C2088000502D57B48784402E07A4837
:101080007844193808AA302302F80A30037C0AF1A0
:101090000101002E0AF1020A53546A4602DC4FF0A5
:1010A000300101E04FF031014FF001088DF80010E0
:1010B00002D0A6F2FF3603E059EA470100D06B4E9A
:1010C000002D02DC2178090704D54FF002082E21FB
:1010D0008DF80110C44600210BE0C7F303433F0124
:1010E000C35C491C6D1E02F80830052908F101088F
:1010F00001DA002DF1DC00210CE000EB1973491C32
:101100001B786D1E082902F808304FEA091908F10A
:10111000010801DA002DF0DC21688B0602D516E00B
:10112000A8F10108E04505DD02EB080313F8013CD6
:10113000302BF5D0B8F1000F09DD02EB080313F8EE
:10114000013C2E2B03D1090701D4A8F10108002D81
:1011500005DD3E2102F808106D1E08F10108407CF3
:10116000002E02F8080008F1010804DA2D2076426A
:1011700002F8080002E02B2002F808000A214FF4D0
:101180007A70864208F101080BDB96FBF0F33033EE
:1011900002F8083096FBF0F308F1010800FB136633
:1011A00001E0642E0CDB642096FBF0F3303302F890
:1011B000083096FBF0F308F1010800FB136601E02C
:1011C0000A2E06DB96FBF1F0303002F8080008F139
:1011D000010896FBF1F001FB1060303002F80800C6
:1011E000A16908F1010808EB050202EB0A00081AE0
:1011F000A0612078C00602D42046FFF729F9216AB1
:1012000008AE01EB0A00206204E0D4E9012116F8DF
:10121000010B9047BAF1010AF7D22078C00602D537
:101220002046FFF715F96E4609E016F8010B3E2837
:101230000FD0D4E901219047206A401C2062B8F108
:101240000108F2D22046FFF719F909B00320BDE8E2
:10125000F08F206A2844206203E0D4E90121302085
:1012600090476D1EEBD3F8E7D5F0000002FCFFFFBE
:1012700001694A1C02610878704700B58FB0CDE95A
:1012800001310021059105497944CDE9031011464A
:101290006846FFF769F90FB000BD0000E5FFFFFFEA
:1012A0000A6802F8010B0A60704710B5436913B170
:1012B000AFF3008001E0FFF7F2F8012010BD1278D3
:1012C00000F124010A7000224A700122EDE7116842
:1012D0004FF0FF32E9E70000074B70B50D467B4445
:1012E000FFF7CBFF0446284600F098F910B14FF005
:1012F000FF3070BD204670BD177400002DE9F04727
:1013000091460F4680460446002614F8015B2DB135
:1013100000F030F80068405DC007F6D12B2D02D0F8
:101320002D2D18D0641E4A463946204600F0B4F8E8
:1013300027B13968A14201D1C7F800804FF00204FB
:1013400071050BD54042002803DDFFF79DFB0460CB
:10135000A007BDE8F08746F48066E4E70028F8DAE5
:10136000FFF792FB04606FF00040F2E7004870471F
:101370000001002010B500F005F8001D10BD00BFF1
:1013800091DF0000004870472001002030B5B0F127
:101390000A0271F100034FEA900E4EEA817EB0EB33
:1013A0000E0061EB91014FEA101E4EEA017E10EB38
:1013B0000E0041EB11114FEA102E4EEA016E10EBB8
:1013C0000E0041EB11214FEA104E4EEA014E10EB98
:1013D0000E0041EB1141401841F100014FEAD000ED
:1013E00040EA41704FEAD1014FEA810444EA907427
:1013F00010EB800544EB01046D1944EB0404521B0F
:10140000A3414FF0000348BF0A3200D530BD401C55
:1014100041F1000130BD00002DE9F0411F460446B6
:1014200003260168072A01F4006004DB08B116A551
:1014300005E016A503E008B115A500E015A521F00B
:1014400010002060A069C01EA0610FB1401EA06105
:101450002046FEF7FDFF4FB1D4E901213846904701
:10146000206A401C2062C01C206206E0206AFAE765
:10147000D4E9012115F8010B9047761EF8D22046D9
:10148000FEF7FCFFBDE8F0814E414E006E616E003C
:10149000494E4600696E66002DE9F05F82461546AA
:1014A0008B4600270AF10104B9460078302801D0A4
:1014B0009DB113E014F8010B0127782803D05828B8
:1014C00001D045B10AE00DB1102D07D1002714F865
:1014D000010B102502E0082500E00A250026B04691
:1014E0000EE005FB080005FB06F101271FFA80F856
:1014F00001EB1046B6F5803F00D3B94614F8010B56
:10150000294600F0B4F80028EBDABBF1000F05D053
:101510000FB1641E00E05446CBF80040B9F1000F53
:1015200006D0FFF7B1FA02210160C81EBDE8F09FA6
:1015300048EA0640FAE700002DE9F04781461646E2
:101540008AB0354878440DC88DE80D00324878449B
:10155000801C03AC0DC884E80D0041F69B300844A4
:10156000372190FBF1F290FBF1F5A5F1800501FB2D
:1015700012041B3C02D56442012000E00020DFF889
:1015800098A080460027FA44AAF1BE0A0EE0E007C0
:101590000AD03246684607EB470101230AEB810176
:1015A0000CF0FDFB8DE8070064107F1C002CEED1D1
:1015B000194F7F44AE3F19E0E80715D007EB041040
:1015C0000DF1180A90E80E008AE80E00C068F0429B
:1015D00001D1981908903246012306A903A80CF0FE
:1015E000DEFB03AB83E807006D10641C002DE3D124
:1015F0004FF0010332466946B8F1000F03A802D04C
:101600000CF0B8FB01E00CF0CAFBC9E90001C9F815
:1016100008200AB0BDE8F08764EE0000007B00F00F
:10162000800070477546FFF7A1FEAE46050069468B
:10163000534620F00700854618B020B5FEF724FE7B
:10164000BDE820404FF000064FF000074FF00008C3
:101650004FF0000BAC46ACE8C009ACE8C009ACE800
:10166000C009ACE8C00921F007018D4670473A284F
:1016700000D2303820F02002412A01D3A2F13700F5
:10168000884201D34FF0FF30704710B50446AFF3E6
:1016900000802046BDE81040FEF7E1BD00000000DC
:1016A00030B44FF0013C50F8042B51F8043BCCFA15
:1016B00052F4D51A20D1FCB950F8042B51F8043B50
:1016C000CCFA52F4D51A17D1B4B950F8042B51F80A
:1016D000043BCCFA52F4D51A0ED16CB950F8042B55
:1016E00051F8043BCCFA52F4D51A05D1002CDAD0CB
:1016F00030BC4FF00000704729BAB1FA81F111F007
:101700001801D1F120008440F2D1CA40CB4012F040
:10171000FF0213F0FF0330BCD01A704701491820B4
:10172000ABBEFEE72600020070470000B0B541F2F4
:101730005454C2F200040546204601F089FA08F02C
:1017400003FB40F2E801C2F200018978012D1DD1AE
:10175000E1B141F27C22C2F200021168884252D308
:1017600041F2782C451DC2F2000C40F270009CF84A
:101770000010C2F2000003680029156044D0991ED1
:10178000B1F5487F016047D1002143E0022D3AD1F5
:10179000C9B341F27C21C2F200010A68904238BF0D
:1017A000B0BD41F27425C2F200052A6840F2A403DC
:1017B000C2F2000333F81220C83008607AB144F254
:1017C0004020C0F20F00B0FBF2F02168C862E06078
:1017D000400848632046002101F064FC05E02068D1
:1017E0000121C162E1600021416328684AF6AB2112
:1017F0000130CAF6AA21A0FB0112D10801EB410178
:10180000A0EB81002860B0BD991CB1F5AF6F0160FD
:1018100002D101218CF80010006844F24021C0F28E
:101820000F01B1FBF0F02168C862E0604008486336
:101830002046002101F036FCB0BD000070B541F239
:101840005454C2F20004054620460E4601F000FA48
:10185000701E062888BF70BD0DA030F8160044F237
:101860004021C0F20F01B1FBF0F02168C862E060D6
:101870004008486308F068FA41F286212844C2F221
:10188000000108802046002101F00CFC70BD00BF63
:10189000EE010B024C029402BA0210037003DC0347
:1018A00010B540F20020C2F20000017840F2F210C0
:1018B000C2F2000000780843000605D0012000298C
:1018C00008BF0220FFF732FF41F28624C2F2000473
:1018D000208870B108F038FA2188884238BF10BDDE
:1018E0000020208041F25450C2F20000002101F09B
:1018F0006BFC10BDFEE7000010B586B0002005901F
:10190000CDE90300CDE90100009043F63000C4F2B8
:101910000200016841F2000441F01001016000681A
:10192000C4F2020400F01000009000980120CDE9FC
:1019300001000220049001A9204600F0E7FA2046A9
:101940000121012200F0B6FB06B010BD80B586B0C3
:101950000020059002900120019003900220049045
:1019600041F20000C4F2020001A900F0CFFA06B073
:1019700080BD000080B586B0002005900390012056
:10198000CDE901000220049041F20000C4F20200FF
:1019900001A900F0BBFA06B080BD0000B0B541F26D
:1019A0000004C4F20204FFF7D1FF2046012100F039
:1019B0007BFB98B1002000BF0546012006F056F9D8
:1019C0002046012100F070FB622D03D8002805F1AC
:1019D0000100F1D1622D84BF0120B0BD204601215C
:1019E00000F062FB00281CBF0020B0BD002000BF3B
:1019F0000546012006F03AF92046012100F054FB8B
:101A0000EE2D03D8002805F10100F1D00020EE2DC5
:101A100088BF0120B0BD000010B5FFF7ABFF41F259
:101A20000004C4F2020420460121002200F042FB1F
:101A30000A2006F01BF9FFF789FF2046012100F07C
:101A400033FB0138B0FA80F044092D2006F00EF97E
:101A5000204610BDB0B50024002500BFFFF7DCFF15
:101A6000A0400134082C45EA0005F7D1E8B2B0BD2A
:101A700010B5FFF77FFF41F20004C4F202042046D4
:101A80000121002200F016FB40F2EE2006F0EEF8F5
:101A900020460121012200F00DFB0F2006F0E6F8A0
:101AA00010BD000010B508F04FF940F2F811C2F275
:101AB00000010A68904264D33230086008F044F9AB
:101AC00040F2F414C2F20004216801F57A718842F0
:101AD0001ED908F039F9206006F0D2FD9FED291AD1
:101AE000B4EE410AF1EE10FA12DA40F2FC10C2F242
:101AF000000080ED000A10EE100A0EF03DFA0246DA
:101B000041F60C400B46C2F200001FA1FEF78CFC10
:101B100008F01AF941F6184441F27862C2F2000462
:101B2000C2F20002216812681144884298BF10BDB9
:101B300008F00AF941F29022C2F200021168206016
:101B40004A290DDC40F2FC10C2F200004B1C006878
:101B5000136049F6A872C2F2000242F8210010BDDB
:101B600049F6A874C2F20004211D20464FF4947275
:101B7000FEF7D9FE40F2FC10C2F200000068C4F883
:101B8000280110BD0000FA42252E31660000000039
:101B9000F0B581B041F200050446C4F20205FFF73A
:101BA000E9FE002728460121002204F0010664080E
:101BB00000F080FA002E4FF008004FF03A0608BF00
:101BC000462008BF022606F051F8284601210122CE
:101BD00000F070FA304606F049F8072F07F10107C8
:101BE000E0D301B0F0BD00004EF6FC50CEF2000094
:101BF000016841F08071016041F20000CEF2000006
:101C0000016841F00101016000214160704700005E
:101C10007047000070B504464D1E00202A1A215C52
:101C2000B2FA82F2461C5209C0B205F0F9FE012058
:101C300008F07AF8042E3046F0D170BD2DE9F04F4F
:101C400081B02DED088B9AB041F2C820C2F200009D
:101C50000078002800F0B98008F076F849F2E854DE
:101C6000C2F200042168884240F2AF8008F06CF8AC
:101C700040F2E806C2F2000696ED018A9FED561A80
:101C800000EE100A40F2FC10B8EE400A28EE011AED
:101C9000C2F2000031EE000A0068BCEEC00A84ED1A
:101CA000000A0EF069F9CDE9181041F28020C2F265
:101CB0000000B0F90000169041F28220C2F200004C
:101CC000B0F90000159041F28420C2F20000B0F992
:101CD000005041F2F440C2F20000B0F9007041F24D
:101CE000F640C2F20000B0F9008041F2F840C2F2C2
:101CF0000000B0F90000179041F2B420C2F20000D9
:101D000000680EF039F941EC190B41F2B820C2F22B
:101D1000000000680EF030F941EC1A0B41F2BC20D3
:101D2000C2F2000000680EF027F941EC1B0B40F2F4
:101D30000020C2F2000090F8009040F2F210C2F2CF
:101D4000000090F800A096F800B07478B67818EE0D
:101D5000100A0EF011F941EC100B0CA880E8000EEF
:101D600006A880EC069B1698CDE90F4600901598C2
:101D700001A949F2EC5681E8A101C2F2000641F244
:101D80003831199ADDE91773C0F6010130468DED3F
:101D9000120B0597FEF748FB3046FEF715FD41F2A2
:101DA000B022C2F2000241F2AB211368C2F200017C
:101DB0000F781844002F106004BF0120087049F20A
:101DC000EC50C2F2000003F077FC1AB0BDEC088BB7
:101DD00001B0BDE8F08F00BF00007A44EFF310803F
:101DE00072B600BFFEE7000010B5ADF5007D40F211
:101DF0008410C2F20000006869460022002300241B
:101E000007F0DAFF18B9684602F06CFE012420469C
:101E10000DF5007D10BD000010B582B01FFA80FEE8
:101E20001FFA81FC41F61C409CB293B2C2F2000042
:101E300071466246009409F0BFF802B010BD000080
:101E400070B5866D044600F03BF994F83510022910
:101E500025D105462068216C026822F01602026036
:101E6000426922F08002426109B9A16C19B101688E
:101E700021F008010160016821F00101016000BF4B
:101E800020680068C0070ED000F01AF9401B062831
:101E9000F6D320206065032084F835000CE0802014
:101EA0006065012008E0E06D3F2101FA00F0B060BC
:101EB000012084F835000020002184F8341070BD22
:101EC00090F83510022909D1052180F835100068F5
:101ED000016821F001010160002070478021416507
:101EE00001207047B0B5044600F0EAF8054640F21C
:101EF000F000C2F200000078611C18BF044400BF6B
:101F000000F0DEF8401BA042FAD3B0BD2DE9F04F3F
:101F100083B000F13E4202F1FF724FEAB22241F675
:101F200000470192C4F2020708224FF0010E00257B
:101F30004FF0000A4FF00008B84208BF0722009295
:101F40000AE000BF08F101080AF1040AB8F1100F15
:101F500005F1020500F0A4800C680EFA08FB14EAF3
:101F60000B09EFD04C6804F0030CACF1010EBEF18C
:101F7000010F11D80322876802FA05F6CA68B74331
:101F8000AA403A4382604268C4F3001722EA0B0277
:101F900007FA08F73A434260BCF1030F1CD0C2684D
:101FA00003238E6803FA05F7BA4306FA05F73A43A6
:101FB000BCF1020FC2600FD16FF0030202EA5802B7
:101FC00002440AF01C060F23176A03FA06F40B6991
:101FD000A743B3403B431362026803234F68AB40FF
:101FE0009A4307F00303AB401A4317F4403F4FF006
:101FF000010E0260A6D0002243F644030292C4F20E
:1020000002031A6843F6004442F480421A601A68D8
:10201000C4F2010402F480420292029A28F0030200
:102020004FF6084B2244CFF6FF7B52F80B300AF0F4
:102030000C070F26BE4023EA060C019B009E072BCF
:1020400038BF1E4606FA07F747EA0C0342F80B3082
:10205000A2684B6842EA090743F60C4CDE0258BFFF
:1020600022EA0907A760C4F2010CDCF800209E02F6
:1020700042EA090758BF22EA0907CCF800706268F3
:102080009E0342EA090758BF22EA090767602268EF
:10209000DB0342EA090358BF22EA0903236051E740
:1020A00003B0BDE8F08F00000069084018BF0120B0
:1020B00070470000002A08BF0904816170470000D2
:1020C00049F28060C2F200000068704740F2F00000
:1020D00049F28061C2F20000C2F2000100780A6891
:1020E000104408607047000080B543F60040C4F219
:1020F0000200016841F400710160016841F48061EF
:102100000160016841F480710160032000F098F8DB
:102110000F2000F005F800F05BF8002080BD000003
:1021200070B586B0002543F640010195C4F2020166
:102130000A68044642F020020A60096801A801F01A
:10214000200101910199694600F02EF9049E002EAC
:1021500018BF012600F04EF94DF68361B040C4F27D
:102160001B31A0FB01014FF0FF3000EB914141F228
:102170009C5041F20042C2F20000C4F2000240F260
:10218000E733C0E90021C0E902530561856100F031
:1021900015FD0546C0B941F29C50C2F2000000F0A6
:1021A00057FD054680B9372000F036F80F2C0AD8C5
:1021B00037202146002200F033F840F2F400C2F24A
:1021C0000000046000E00125284606B070BD000054
:1021D00080B582B0002043F640010190C4F20201B4
:1021E0004A6842F480424A604A6802F4804201929E
:1021F000019A00900868002240F08050086008684A
:102200000F2100F08050009000986FF0010000F066
:1022100007F802B080BD000080B505F06BFC80BD02
:1022200070B514460D46064605F074FC2946224654
:1022300002F0A2FB0146304605F074FC70BD0000C0
:1022400080B505F089FC80BD2DE9F041002800F043
:102250008B8043F60808C4F202080446D8F8F80355
:102260000D4600F00700884207D288F8F853D8F8E6
:10227000F80300F00700A84276D12068810717D53F
:10228000410705D5D8F8001041F4E051C8F8001016
:10229000010705D5D8F8001041F46041C8F80010D6
:1022A000D8F80010A26821F0F0011143C8F800101E
:1022B000C0073FD1D8F8F80300F00700A84207D9BB
:1022C00088F8F853D8F8F80300F00700A8424BD17B
:1022D0002068410707D5D8F80010E26821F4E051E2
:1022E0001143C8F80010000708D5D8F8000021698C
:1022F00020F4604040EAC100C8F8000000F09EF8F9
:10230000D8F8001040F2CA32C1F30311C0F601023E
:10231000515C40F2680220FA01F140F2F400C2F28E
:1023200000000068C2F200021160FFF7F9FE002011
:10233000BDE8F0816068811E022907D258F8081CA8
:1023400089015CBF0120BDE8F08110E0012807D1C0
:1023500058F8081C89035CBF0120BDE8F08106E045
:1023600058F8081C890702D40120BDE8F081D8F88C
:10237000001021F003010843C8F80000FFF7A0FE99
:10238000064641F2883700BFD8F80000616800F0C7
:102390000C00B0EB810F8DD0FFF792FE801BB8428E
:1023A000F2D90320BDE8F0810F22026043F6080253
:1023B000C4F20202136803F003034360136803F0DE
:1023C000F0038360136803F4E053C360D2F800C0E5
:1023D0004FF4E05303EADC030361D2F8F80300F0A2
:1023E000070008607047000040F26800C2F2000079
:1023F0000068704780B5FFF7F7FF43F60801C4F2A5
:102400000201096840F2DA32C1F38221C0F601020A
:10241000515CC84080BD000080B5FFF7E5FF43F682
:102420000801C4F20201096840F2DA32C1F3423114
:10243000C0F60102515CC84080BD000010B543F6F3
:102440000404C4F20204606800F00C0142F200408F
:102450000829C0F2F40007D0042918BF10BD41F2CA
:102460000020C0F27A0010BD216801F03F0221680F
:1024700023684902C3F3881105D4A1FB000100239E
:10248000FDF714FF06E041F20020C0F27A00484355
:10249000B0FBF2F021680222C1F3014102EB4101DD
:1024A000B0FBF1F010BD00002DE9F04182B0002832
:1024B00000F0A2800446007843F60006C007C4F28C
:1024C000020643D0B06800F00C00042805D1306843
:1024D00080033BD56068C8BB8EE0B06800F00C009C
:1024E000082802D170684002F1D46568B5F5A02FC4
:1024F0000AD0B5F5803F0BD0306820F480303060D2
:10250000306820F4802006E0306840F4802030609D
:10251000306840F480303060FFF7D2FD002D054672
:1025200011D000BF3068800310D4FFF7C9FD401BF5
:102530006428F7D922E100BFFFF7C2FD401B6428E1
:102540004FF0030055D830688003F5D42078800719
:102550001AD5B06810F00C0F09D0B06800F00C006C
:10256000082840F08A807068400200F18680306858
:10257000800702D5E06801283ED13068216920F04B
:10258000F80040EAC10030602078000738D4207895
:1025900040074CD4A5695DB3B06800F00C00082872
:1025A00040F09E80012D27D07068E16900F4800220
:1025B0008A4221D1216A00F03F028A421CD147F6AB
:1025C000C071626A0140B1EB821F15D1A26A00237B
:1025D000CFF6FF7303EBC23200F440316FF30F020A
:1025E000914209D1E16A00F07060B0EB016F03D154
:1025F000002002B0BDE8F081012002B0BDE8F0810A
:102600006069002840F20000C4F2472057D0012141
:10261000C0F8801EFFF754FD054600BF706F8007AD
:10262000B5D4FFF74DFD401B0228F7D9A6E0306C6A
:1026300010F080580AD100200190306C40F080509A
:102640003064306C00F080500190019847F2000730
:10265000C4F200073868C00524D4386840F480709C
:102660003860FFF72DFD05463868C0051AD4FFF71E
:1026700027FD401B0228F7D980E0E068002851D0F0
:102680000020C4F2472001210160FFF719FD054633
:10269000306880073FF571AFFFF712FD401B02283D
:1026A000F6D96BE0A568052D50D0012D52D0306FC2
:1026B00020F001003067306F20F004004DE0002171
:1026C000C0F8801EFFF7FCFC054600BF706F800756
:1026D0007FF55DAFFFF7F4FC401B0228F6D94DE013
:1026E0000027C4F2472700203866FFF7E9FC022DD7
:1026F00005460BD13068800158D5FFF7E1FC401B3F
:1027000002284FF00300F5D973E700BF306880015D
:102710007FF56EAFFFF7D4FC401B02284FF003009B
:10272000F4D966E70020C4F2472000210160FFF7DA
:10273000C7FC0546306880077FF526AFFFF7C0FC71
:10274000401B02284FF00300F4D952E7306F40F0ED
:1027500004003067306F40F001003067FFF7B0FCD5
:10276000002D054641F2883714D000BF306F800736
:1027700013D4FFF7A5FC401BB842F7D9032002B0E1
:10278000BDE8F081FFF79CFC401BB8424FF003000E
:102790003FF62FAF306F8007F4D4B8F1000F7FF40D
:1027A000F9AE306C20F080503064F3E604F11C0583
:1027B0002FCD08430021CFF6FF7140EA821001EBD4
:1027C000C3316FF30F0140EA0560084370600120D8
:1027D0003866FFF775FC0446306880013FF508AFA6
:1027E000FFF76EFC001B02284FF00300F4D900E74E
:1027F00070B538B10446406A30B10020206104F160
:10280000140007E0012070BD6068B0F5827F03D03E
:1028100004F11C00002101600026A66294F851001A
:1028200020B9204684F8506000F03CF8022084F87B
:10283000510094E80F0001F48271056802F404422B
:1028400025F040050560114403F40062236911443A
:1028500003F002026369114403F00102A369E56910
:10286000114403F40072114405F03802256A114442
:1028700005F08002A56A114305F40052114301607E
:10288000626A042101EA134102F01002114441601E
:10289000C16921F40061C1610120666584F85100BD
:1028A000304670BD80B586B043F200010068C4F2C6
:1028B0000101002288420592CDE903220292019291
:1028C00001D006B080BD43F630000092C4F2020091
:1028D000436943F480534361436903F48053009395
:1028E000009B0092036843F001030360006800F05E
:1028F000010000900098E02001900220CDE9020242
:10290000032004900520059001F5504001A9FFF730
:10291000FDFA06B080BD00002DE9F04381B0044609
:1029200090F85000012803D1022001B0BDE8F083E7
:1029300001201E4615460F4684F85000FFF7C0FBE5
:1029400094F85110814601290CD06068B0F5827F5F
:1029500076D104294FF0020040F0C680A16800291A
:1029600040F0C280002F4FF0010018BF002D00F092
:10297000BB80002E00F0B88094F85100002104289C
:102980001CBF052084F851006165A563E687A68712
:102990002763E6862068A68621646164016849068B
:1029A00003D4016841F0400101606168731EE26870
:1029B000B1FA81F1B3FA83F3DDF8208049095B09AC
:1029C000B2F5006F41EA03013CD139B1216B0988AE
:1029D000C160B81C2063E08E0138E086012608F152
:1029E000010500BFE08E10B9E08F002866D0206896
:1029F000816889070CD5E18E012E09D141B1216B87
:102A0000002631F8022BC2602163E18E0139E18694
:102A10008168C9070AD0E18F41B1C068A16B012666
:102A200021F8020BA163E08F0138E087FFF748FB34
:102A3000002DD7D0A0EB09004045D3D3032053E0AD
:102A4000022051E039B139780173206B01302063E5
:102A5000E08E0138E086012608F10105E08E08B914
:102A6000E08F58B32068816889070DD5E18E012E6B
:102A70000AD149B1216B002609780173206B01301E
:102A80002063E08E0138E08620688168C9070BD09A
:102A9000E18F49B1C068A16B01260870A06B0130BD
:102AA000A063E08F0138E087FFF70AFB002DD5D047
:102AB000A0EB09004045D1D3032015E02046414654
:102AC0004A4602F027FB18B12020606501200BE088
:102AD000A06800284FF0000006D100902168CA6865
:102AE0000092896800910099012184F85110002119
:102AF00084F8501001B0BDE8F0830000704700007A
:102B00007047000010B590F83C20012A4FF00202F7
:102B100052D0012380F83C3080F83D200268D2F882
:102B200004E0D2F808C00C682EF07003234341F291
:102B3000FF74C4F20004A24253600DDC40F2FF7344
:102B4000C4F200039A4215DCB2F1804F29D040F262
:102B50000043C4F2000322E040F2FF33C4F2010359
:102B60009A4212DC41F60003C4F200039A4218D0E4
:102B7000002312E040F60003C4F200039A4210D092
:102B800040F60043C4F2000309E044F20003C4F23B
:102B900001039A4205D040F20043C4F201039A4275
:102BA00004D149682CF0800319439160012100226F
:102BB00080F83D1080F83C20104610BD002804BF6E
:102BC0000120704710B5044690F83D0028B9002058
:102BD00084F83C00204600F01FF8022084F83D00F5
:102BE0002068211D02F0FEFF012084F8460084F8D1
:102BF0003E0084F83F0084F8400084F8410084F8E7
:102C0000420084F8430084F8440084F8450084F8C6
:102C10003D00002010BD000081B0006840F200417E
:102C2000C4F20001884201D001B07047002000903A
:102C300043F64000C4F20200016841F00201016065
:102C4000006800F002000090009801B0704700009A
:102C500090F83D1001291CBF01207047022180F827
:102C60003D10006841F2FF72C168C4F20002904258
:102C700041F00101C1600DDC40F2FF71C4F20001BE
:102C8000884215DCB0F1804F29D040F20041C4F2F7
:102C9000000122E040F2FF31C4F20101884212DC5F
:102CA00041F60001C4F20001884218D0002112E070
:102CB00040F60001C4F20001884210D040F6004105
:102CC000C4F2000109E044F20001C4F201018842AB
:102CD00005D040F20041C4F20101884206D181686A
:102CE00001F00701062904BF00207047016841F088
:102CF000010101600020704710B5044690F83C00C7
:102D000001284FF0020008BF10BD012284F83C20CA
:102D100084F83D0020684FF6777382689A4382609A
:102D20000A684F2A0FDC1F2A22DD202A23D0302AEE
:102D300021D0402A4DD14B68CA68194603F0CEF81D
:102D4000206840213BE06F2A17DDB2F5005F20D0FC
:102D5000B2F5805F2AD0702A3BD1D1E9012CCB6833
:102D6000614602F0E3FF2068816841F077011AE0D4
:102D70000AB1102A2DD1114621E0502A18D0602A1C
:102D800027D14B68CA68194603F0BAF82068602159
:102D900015E0D1E9012CCB68614602F0C7FF20683D
:102DA000816841F48041816000200BE0002009E04F
:102DB0004B68CA68194603F091F82068502102F068
:102DC000C1FF0020012184F83D10002184F83C104F
:102DD00010BD0120F6E700007047000010B5044662
:102DE00000680169890744BFC1685FEA817138D40E
:102DF00020680169490744BFC1685FEA41713CD45A
:102E000020680169090744BFC1685FEA017141D4C4
:102E100020680169C90644BFC1685FEAC16145D441
:102E200020680169C9071CBFC1685FEAC1714AD146
:102E300020680169090644BFC1685FEA016149D49D
:102E400020680169490644BFC1685FEA416148D40E
:102E500020680169890644BFC1685FEA816147D47F
:102E600010BD6FF0020101610121217780698007A7
:102E700045D02046FFF7B0FF47E06FF00401016145
:102E800002212177806910F4407F41D02046FFF76E
:102E9000A3FF43E06FF00801016104212177C069BD
:102EA00080073ED02046FFF797FF40E06FF010010B
:102EB000016108212177C06910F4407F3AD0204693
:102EC000FFF78AFF3CE06FF001010161204600F04E
:102ED000BDF9ADE76FF0800101612046FFF70EFEFE
:102EE000AEE76FF040010161204600F0BBF9AFE7AB
:102EF0006FF0200101612046FFF702FE10BD204661
:102F000000F050F8204600F0CBF8002020776FE763
:102F1000204600F047F8204600F0C2F80020207755
:102F20006EE7204600F03EF8204600F0B9F8002099
:102F300020776DE7204600F035F8204600F0B0F825
:102F4000002020776CE7000080B586B040F2004199
:102F50000068C4F20001002288420592CDE90322F4
:102F60000292019201D006B080BD43F6300000927B
:102F7000C4F20200036843F002030360006800F03B
:102F8000020000900098102001900220CDE902027A
:102F9000CDE9042001F5003001A9FEF7B7FF06B026
:102FA00080BD000070470000B0B5044690F83C00BA
:102FB000012804BF0220B0BD0D464FEAB201012036
:102FC000032984F83C0037D8DFE801F0020A122216
:102FD0002068294602F0BEFE206850F8181F0EE057
:102FE0002068294602F0E8FE206850F8181F16E015
:102FF0002068294602F016FF206850F81C1F41F097
:1030000008010160016821F00401016029690FE0F5
:103010002068294602F03AFF206850F81C1F41F44E
:1030200000610160016821F4806101602969090281
:103030000268114301600020002184F83C10B0BDFB
:10304000002804BF0120704710B5044690F83D00E9
:1030500028B9002084F83C00204600F01FF8022028
:1030600084F83D002068211D02F0BCFD012084F899
:10307000460084F83E0084F83F0084F8400084F85D
:10308000410084F8420084F8430084F8440084F846
:10309000450084F83D00002010BD0000704700008E
:1030A0007047000010B5044641B1082909D0042931
:1030B00014BF04F1410004F13F0004E004F13E00BC
:1030C00001E004F14000007801281CBF012010BD80
:1030D000022041B1082909D0042914BF84F8410015
:1030E00084F83F0004E084F83E0001E084F84000EA
:1030F0002068012202F008FE206841F2FF71C4F24C
:10310000000188420FDC40F2FF71C4F200018842E6
:1031100017DCB0F1804F49D040F20041C4F2000109
:10312000884243D049E040F2FF32C4F201029042AB
:1031300014DC41F60003C4F20003984236D00023A9
:1031400014E040F60001C4F2000188422ED040F69F
:103150000041C4F20001884228D02EE044F200036E
:10316000C4F20103984221D040F20043C4F20103AB
:10317000984222D1436C884243F400434364C2DD49
:10318000904207DC41F60001C4F2000188420DD0F4
:10319000002107E044F20001C4F20101884205D099
:1031A00040F20041C4F20101884206D1816801F079
:1031B0000701062904BF002010BD016841F001018C
:1031C0000160002010BD0000B0B504460068002278
:1031D0000D4602F099FD206840F2004240F4806103
:1031E000C4F2010291420DD1016A41F21112114261
:1031F00008D1016A40F24442114203D1416C21F4EA
:1032000000414164016A41F21112114208D1016A80
:1032100040F24442114203D1016821F001010160F2
:103220000120082D09D0042D0BD0002D14BF84F8E7
:10323000410084F83E000020B0BD84F8400000202A
:10324000B0BD84F83F000020B0BD000080B500682C
:1032500041F20041C4F20001884208BFFEF736FF88
:1032600080BD000070470000B0B582B0044690F801
:103270003E0020280BD100294FF0010518BF002A7D
:1032800006D094F83C00012805D1022500E0022573
:10329000284602B0B0BD0125204684F83C50256385
:1032A00002F08AFF206B0128F2D1002001902068F3
:1032B0000168019140680190019800BF206850E8C2
:1032C000030F216840F0100041E80302002AF5D105
:1032D0000025DDE780B501F0C7FE80BD7047000026
:1032E00010B50446206850E8030F216820F4907060
:1032F00041E80302002AF5D1206850E8050F216853
:1033000020F0010041E80502002AF5D1206B0128D8
:103310000AD100BF206850E8030F216820F0100098
:1033200041E80302002AF5D12068406940060BD429
:1033300000202021E08584F83E1020632046FFF71E
:10334000CDFF002010BD00BF206850E8050F2168A8
:1033500020F0400041E80502002AF5D1A06B68B1D9
:1033600045F69971C0F600010165FEF7A9FD002838
:10337000E7D0A06B016D8847002010BD0020202100
:10338000E08584F83E1020632046FFF7A7FF002069
:1033900010BD000070470000B0B582B0036804465D
:1033A0001868D9685A6900F02F05202D01F0200512
:1033B00005D125B1204602F02FFE02B0B0BD5FEA74
:1033C000007C1EBF02F0010E01F4907212EB0E029F
:1033D00048D1226B0840C1063BD5012A39D10020D3
:1033E000019018680190586801900198586940064A
:1033F00040D4A08DE18DE28D002A1CBF401A5FEA07
:10340000004101D102B0B0BD216851E8031F22681C
:1034100021F4907142E80313002BF5D1216851E8A3
:10342000051F226821F0010142E80513002BF5D1A8
:10343000202184F83E100021216300BF216851E85B
:10344000031F226821F0100142E80313002BF5D17D
:1034500052E0010656D44006D4D5204602F0D0FDF5
:1034600002B0B0BDC20718BF11F480724FD142073D
:1034700053D459E0A06B016849688AB2002AC1D0D0
:10348000A38D9A42BED2E185C069B0F5807F30D06D
:10349000206850E8030F216820F4807041E803029F
:1034A000002AF5D1206850E8050F216820F00100BE
:1034B00041E80502002AF5D1206850E8050F21688F
:1034C00020F0400041E80502002AF5D1202084F8D0
:1034D0003E000020206300BF206850E8030F2168F1
:1034E00020F0100041E80302002AF5D1A06BFEF79E
:1034F000A7FCA08DE18D401A81B22046FFF7EAFEBD
:1035000002B0B0BD204602F073FE02B0B0BD226C26
:1035100042F001022264420706D5BEF1000F03D03B
:10352000226C42F002022264820706D5BEF1000F2F
:1035300003D0226C42F004022264BCF1000F06D5D5
:103540005EEA050203D0226C42F008022264226C7B
:10355000002A3FF457AF0840800602D5204602F00B
:103560005BFD20684069216C00F0400001F008011B
:10357000401827D0204602F01BFD20684069400615
:103580001BD500BF206850E8050F216820F04000DF
:1035900041E80502002AF5D1A06B70B145F68971AA
:1035A000C0F600010165FEF78BFC00283FF42AAF4E
:1035B000A06B016D884702B0B0BD2046FFF7EAFE60
:1035C00002B0B0BD2046FFF7E5FE0020206402B047
:1035D000B0BD0000002804BF0120704710B50446AC
:1035E00090F83D0028B9002084F83C00204600F007
:1035F00021F8242084F83D002068C16821F400519E
:10360000C160204602F06AFD2068016921F4904102
:103610000161416921F02A014161C16841F4005111
:10362000C16000202021206484F83D1084F83E1001
:1036300010BD000080B586B0006841F20042C4F2BF
:10364000010200219042CDE90411CDE9021101915E
:1036500030D041F20001C4F2010188425BD1002068
:1036600043F630010090C4F202014A6942F01002B0
:103670004A614A6902F010020092009A00900A68BA
:1036800042F001020A60096801F00101009100990D
:103690004FF4C06101910221CDE902100320049092
:1036A000072005900020C4F2020001A9FEF72EFCBD
:1036B00006B080BD43F630000091C4F202004269BA
:1036C00042F020024261426902F020020092009A18
:1036D0000091026842F004020260006800F00400F9
:1036E00000900098C02001900220CDE90201032043
:1036F0000490082005900020C4F2020000F500604C
:1037000001A9FEF703FC472005210022FEF788FDF2
:103710004720FEF781FD06B080BD000010B590F88F
:103720003E30202B0BD100294FF0010418BF002A96
:1037300001D1204610BD90F83C30012B01D1022070
:1037400010BD0123002480F83C30046302F034FDF6
:10375000204610BD704700002DE9F04381B00446BB
:1037600090F83D0020280BD10E4600294FF00100B3
:1037700055D01746002A52D094F83C00012803D1B6
:10378000022001B0BDE8F083012084F83C004FF036
:10379000000921201D46C4F8409084F83D00FEF742
:1037A0008FFCA784E784A1680746B1F5805F07D145
:1037B000206900281CBF30464E46B046064601E050
:1037C0004FF0000884F83C9007E000BF16F8010BAA
:1037D00021684860E08C0138E084E08C80B12046AC
:1037E00080213A462B4602F02DFD80B9002EEDD106
:1037F00038F8020B21686FF35F2048600026E9E784
:10380000204640213A462B4602F01CFD18B1032009
:1038100001B0BDE8F083202084F83D00002001B015
:10382000BDE8F08370470000FEE7000010B540F2ED
:103830000044C4F2020420464FF400410022FEF787
:1038400039FC00F02DF920464FF400510022FEF71C
:1038500031FC00F025F920464FF400410122FEF72B
:1038600029FC00F01DF920464FF400410022FEF72C
:1038700021FC00F015F910BD10B540F20044C4F26F
:10388000020420464FF400410022FEF713FC00F032
:1038900007F920464FF400510122FEF70BFC00F01F
:1038A000FFF820464FF400410122FEF703FC00F030
:1038B000F7F820464FF400410022FEF7FBFB00F032
:1038C000EFF810BD70B540F20044C4F20204204687
:1038D0004FF400510122FEF7EDFB0826002500BF42
:1038E00020464FF400410022013EFEF7E3FB00F0CA
:1038F000D7F820464FF400410122FEF7DBFB00F031
:10390000CFF820464FF40051FEF7CEFB002818BF39
:103910000120310640EA4505E2D120464FF400413E
:103920000022FEF7C7FBE8B270BD000070B540F2A0
:10393000004405460726C4F2020400BF20464FF4A7
:1039400000410022FEF7B6FB00F0AAF8E8B2C20977
:1039500020464FF40051FEF7ADFB6D0000F0A0F8DB
:1039600020464FF400410122FEF7A4FB00F098F836
:103970003006A6F10106E1D120464FF400410022B5
:10398000FEF798FB70BD0000B0B540F20044C4F2F1
:10399000020420464FF400510122FEF78BFB204623
:1039A0004FF400410122FEF785FB00F079F8204634
:1039B0004FF40051FEF778FB80B120464FF40051E0
:1039C00000220025FEF776FB00F06AF820464FF44F
:1039D0000051FEF769FB18B12846B0BD0020B0BD0C
:1039E00020464FF400510022FEF764FB00F058F827
:1039F00001252846B0BD000010B540F20044C4F2D5
:103A0000020420464FF400410022FEF753FB00F071
:103A100047F820464FF400510022FEF74BFB00F020
:103A20003FF820464FF400410122FEF743FB00F02F
:103A300037F820464FF400510122FEF73BFB00F01F
:103A40002FF810BDB0B540F20044C4F20204204685
:103A50004FF400410022FEF72DFB00F021F8204634
:103A60004FF400510122FEF725FB00F019F8204623
:103A70004FF400410122FEF71DFB00F011F8204633
:103A80004FF40051FEF710FBB0FA80F045092046D4
:103A90004FF400410022FEF70DFB2846B0BD0000A8
:103AA00081B00A200090009830B100BF0098013822
:103AB000009000980028F9D101B0704780B540F21D
:103AC0000120C2F200000078002878D0FDF7EAFF5C
:103AD00000F090FA40F20021C2F20001087840F2B2
:103AE000E80CC2F2000CD0B940F2FC10C2F20000A7
:103AF00090ED000A9FED321AB4EE410AF1EE10FA91
:103B00000DDA9CF8000001EE100AB8EE411AB4EE8E
:103B1000410AF1EE10FA02DD0120087041E041F2A5
:103B2000F440C2F20000B0F9003041F2F64041F238
:103B3000F841C2F20000C2F20001B0F90000B1F990
:103B400000E09CF80110A1B340F2F21CC2F2000C9C
:103B50009CF800206ABB03EBE33282EAE33200EB1D
:103B6000E03383EAE03080B210FA82F00EEBEE32FE
:103B700082EAEE3210FA82F0C1F10A014FF47A7251
:103B80005143884215DD4AF20020C2F2000001785C
:103B90000131CAB2032A017038BF80BD01208CF800
:103BA000000006F0D1F84AF20421C2F200010860D8
:103BB00080BD4AF20020C2F200000021017080BDE9
:103BC0000000A04270B594B00446642006F0ACF842
:103BD000002C00F0FF8040F28415C2F20005286836
:103BE00041F28866C2F20006346048B940F2684289
:103BF000C0F6010208204FF4007106F021F9286098
:103C000041F2CA25C2F200053068AC1C214640F2E0
:103C1000FD12FFF783FD3068FFF762FB3068214635
:103C200040F2FD12FFF720FB0020A5F800026AA079
:103C3000FCF76CFD71A04FF4FA7101F021FD70A04A
:103C4000FCF764FD77A04FF47A7101F019FD95F847
:103C50000002002800F0BE8041F62A00C0F60100F4
:103C6000FCF754FD41F2EC60C0F601004FF4FA712C
:103C700001F006FD41F26F70C0F60100FCF746FD51
:103C80006AA04FF47A7101F0FBFC41F2C470C0F6F7
:103C90000100FCF73BFD41F20270C0F601004FF459
:103CA000FA7101F0EDFC64A0FCF730FD65A04FF463
:103CB000FA7101F0E5FC66A0FCF728FD6BA04FF45B
:103CC000FA7101F0DDFC41F2BC7105F20220C0F690
:103CD00001010822FCF74CFDF0B141F61900C0F6D5
:103CE0000100FCF713FD012041F2D76141F2BC72E3
:103CF00041F299736C4685F80102C0F60101C0F6E5
:103D00000102C0F601032046FCF78EFB204642F27A
:103D1000107101F0B5FC02E0022085F8010295F86F
:103D20000102022856D341F2A470C0F60100FCF74C
:103D3000EDFC41F21D70C0F601004FF4FA7101F084
:103D40009FFC41F2F770C0F60100FCF7DFFC41F286
:103D50002870C0F601004FF4FA7101F091FC41F2B5
:103D60005370C0F60100FCF7D1FC41F2377141F20B
:103D70008B726C46C0F60101C0F60102204642F289
:103D8000EE13FCF751FB20464FF4FA6101F078FC8A
:103D900041F2D770C0F60100FCF7B8FC41F2F360C5
:103DA000C0F601004FF4FA7101F06AFC41F2EA70CA
:103DB000C0F60100FCF7AAFC41F21070C0F6010049
:103DC0004FF4FA7101F05CFC41F61240C2F20000BF
:103DD0000121018014B070BDE98080E587BA4553A8
:103DE000503031E6A8A1E59D97E9808FE4BCA0E6BC
:103DF000A8A1E5BC8F2E2E2E000000002B2B2B003F
:103E0000E6B58BE8AF954553503031E6A8A1E59D66
:103E100097E698AFE590A6E5AD98E59CA82E2E2EE6
:103E20000000000041540D0A0000000041542B47DF
:103E30004D520D0A00000000E69FA5E8AFA25353C3
:103E40004944000041542B43575341503F0D0A0051
:103E5000E69FA5E8AFA2E5BD93E5898DE8BF9EE6A4
:103E60008EA5E79A84E783ADE782B90041542B43DE
:103E7000574A41503F0D0A0070B505F065FF41F209
:103E80006C64C2F20004216801F5FA71884209D31A
:103E900041F27060C2F200000178C943017005F080
:103EA00053FF206041F27465C2F200052E6805F0F0
:103EB0004BFF66B3296801F5FA61884229D905F0FC
:103EC00043FF296841F288321144884228D905F01D
:103ED0003BFF296801F5FA51884228D940F20120B8
:103EE000C2F200000121017040F2D410C2F20000C1
:103EF0000022027041F27060C2F20000027041F6CE
:103F00001440C2F200002A602260017070BD286077
:103F100070BD40F2D410C2F200000021017070BDEB
:103F200040F2D410C2F200000121017070BD40F2D5
:103F3000D410C2F200000221017070BD10B5A0F1D2
:103F4000040C4FF0000E00BF6FF00303604600BF8B
:103F500050F8042FCC1804330C2B6260F8D10EF10A
:103F6000010EBEF1040F0CF1100C01F1100108BF9D
:103F700010BDE9E72DE9F041A1F1040CA2F1040E16
:103F80004FF0000800EB08110A1D01F1080401F1CF
:103F90000C0504267746634691ED000A93ED011A5D
:103FA00093ED052A20EE010A92ED001A93ED093AED
:103FB00021EE021A94ED002A93ED0D4A30EE010A2B
:103FC00022EE031A95ED002A30EE010A22EE041AC1
:103FD00030EE010A043387ED010A0437013EDBD1DC
:103FE00008F10108B8F1040F0EF1100E08BFBDE88A
:103FF000F081C7E7F0B581B005F0A6FE40F2D81118
:10400000C2F200010A689042C0F0F88032300860C5
:1040100000F0F6F805F098FE41F27C6441F2786217
:10402000C2F20004C2F20002216812681144884200
:1040300040F2E48005F088FE206041F28020C2F268
:10404000000041F2A434B0F9002040F26010C0F644
:104050000104C2F200002146FCF7E6F941F2822099
:10406000C2F20000B0F9002040F26A10C2F2000073
:104070002146FCF7D9F941F28420C2F20000B0F9E0
:10408000002040F27410C2F200002146FCF7CCF987
:1040900041F2F440C2F20000B0F9002040F2AC104E
:1040A000C2F200002146FCF7BFF941F2F640C2F22D
:1040B0000000B0F9002040F2B610C2F20000214624
:1040C000FCF7B2F941F2F840C2F20000B0F900206A
:1040D00040F2C010C2F200002146FCF7A5F941F2FF
:1040E000B427C2F2000738680BF046FF41F2A7344C
:1040F000024640F28810C0F601040B46C2F20000EE
:104100002146FCF791F941F2B826C2F20006306868
:104110000BF032FF024640F292100B46C2F2000052
:104120002146FCF781F941F2BC25C2F2000528685E
:104130000BF022FF024640F29C100B46C2F2000038
:104140002146FCF771F941F28821C2F200010868AA
:104150004A2809DC431C3A680B6049F65051C2F208
:10416000000141F820200CE049F65054C2F200044E
:10417000211D20464FF49472FCF7D5FB3868C4F833
:10418000280141F28C21C2F2000108684A2809DCAA
:10419000431C32680B6049F67C61C2F2000141F8B1
:1041A00020200CE049F67C64C2F20004211D204668
:1041B0004FF49472FCF7B7FB3068C4F8280141F261
:1041C0009421C2F2000108684A280ADC431C2A68CC
:1041D0000B604AF2D401C2F2000141F8202001B084
:1041E000F0BD4AF2D404C2F20004211D20464FF46F
:1041F0009472FCF798FB2868C4F8280101B0F0BD60
:104200002DE9F04381B02DED0A8B8CB00DF11E002D
:104210000DF11D0700900DF1260008A903AA0BABB4
:10422000019703F08DFEBDF81E00C00540F1D1805E
:104230009DED030A9DED041A9DED052A9DED063ABC
:104240009FED814AB8EEC00A40F2A008B8EEC11A4C
:1042500041F6004920EE040AC2F2000821EE041AD9
:10426000C2F20009B8EEC22AB8EEC33A88ED000ADD
:1042700089ED001A22EE042A23EE043A31EE011AE7
:1042800030EE000A21EE031A20EE020A41F604463F
:1042900041F6084730EE410AC2F20006C2F20007BA
:1042A00010EE100A86ED002A87ED003A0BF064FE4E
:1042B00041EC100B09F0C4FE51EC100B9FED600BAC
:1042C00054EC105B2A4623460BF092FB0BF042F8AD
:1042D00041F2B421C2F20001086096ED009A98ED17
:1042E000001A97ED000A99ED00BA39EE09AA31EEED
:1042F000011A2AEE000A21EE0B1A30EE010A10EE26
:10430000100A0BF039FEB8EE000A2BEE000A2BEE75
:10431000000A29EE0A1A30EE410AB7EE001A30EE12
:10432000010A41EC180B10EE100A0BF025FE41ECCF
:10433000110BB0EE480AF0EE680A0AF09DF951EC54
:10434000100B2A4623460BF053FB0BF003F841F207
:10435000B821C2F20001086099ED009A96ED00AA1A
:1043600098ED00BA97ED00CA29EE0A0A2BEE0C1A56
:1043700030EE010A30EE000A10EE100A0BF0FCFDE0
:104380002BEE0B0A29EE091A31EE000A2AEE0A1A60
:1043900030EE410A2CEE0C1A30EE410A41EC180BBB
:1043A00010EE100A0BF0E8FD41EC110BB0EE480ADC
:1043B000F0EE680A0AF060F951EC100B2A46234629
:1043C0000BF016FB0AF0C6FF41F2BC21C2F200015D
:1043D0000860BDF81E0010F0700F14D0BDF8261054
:1043E00041F2F442C2F200021180BDF8281041F2FD
:1043F000F642C2F200021180BDF82A1041F2F842E2
:10440000C2F200021180000714D5BDF8200041F26D
:104410008021C2F200010880BDF8220041F2822111
:10442000C2F200010880BDF8240041F28421C2F2EA
:10443000000108800CB0BDEC0A8B01B0BDE8F08330
:104440006666666666A64C400000803010B504F0D3
:104450004DFE00281CBF002010BD43A0FCF756F9FC
:10446000782005F0D1FB10B1002448A077E041F29C
:10447000AF50C0F60100FCF749F9782004F05CFD6C
:1044800010B100244BA06AE041F28C50C0F601004C
:10449000FCF73CF9322005F071FB28B141F2CE5017
:1044A0000024C0F601005AE041F20050C0F60100BD
:1044B000FCF72CF903F036FD28B141F2EF5000244F
:1044C000C0F601004BE041F2AD40C0F60100FCF740
:1044D0001DF904F0E7FC03F0F9FE28B141F2AA60EF
:1044E0000024C0F601003AE041F26850C0F6010035
:1044F000FCF70CF940F2731003F0ECFB28B141F229
:1045000028600024C0F6010029E041F2DD40C0F639
:104510000100FCF7FBF8322003F040FE28B141F225
:1045200054600024C0F6010019E041F22450C0F6A6
:104530000100FCF7EBF806F0E5FA012005F02CFA93
:104540000146B0FA80F0440941F27F6041F24652E0
:10455000C0F60100C0F60102002908BF1046FCF7B2
:10456000D5F8204610BD00BF6D707520696E697466
:1045700069616C697A6174696F6E20636F6D706CCC
:104580006574652E2E2E2E2E2E0000006D70755F28
:104590007365745F73656E736F7220636F6D6520F2
:1045A0006163726F7373206572726F72202E2E2E8C
:1045B0002E2E2E006D70755F636F6E666967757263
:1045C000655F6669666F20636F6D65206163726FFA
:1045D0007373206572726F72202E2E2E2E2E2E0077
:1045E00080B545F2F57040F2C842C0F60000C0F652
:1045F0000102002105F0BCFC40F2DC11C2F2000116
:10460000086045F2A17040F2A442C0F60000C0F676
:104610000102002105F0ACFC40F2D011C2F2000111
:10462000086045F6310040F2EC42C0F60000C0F6EA
:104630000102002105F09CFC40F21021C2F20001B1
:10464000086045F27D7040F28042C0F60000C0F67E
:104650000102002105F08CFC40F2A811C2F2000119
:10466000086045F26D7040F24442C0F60000C0F6AA
:104670000102002105F07CFC40F28011C2F2000131
:10468000086080BD2DE9F04F87B0002743F6300069
:104690000697CDE90477CDE902770197C4F20200CD
:1046A000016841F2000441F0100101600168C4F2A8
:1046B000020401F010010191019901970168A4F52C
:1046C000006941F0800101600168002201F0800171
:1046D00001910199019701684FF4716B41F001015B
:1046E0000160016801F001010191019901970168E0
:1046F00041F004010160016801F004010191019998
:104700000197016841F00201016000684FF4716196
:1047100000F00200019001984846FDF7CBFC2046CE
:104720004FF4FE4101224FF0010AFDF7C3FC204681
:1047300048F201010022FDF7BDFCA4F540663046B9
:104740004AF2C0410022FDF7B5FCA4F5805840466E
:104750004FF419410022FDF7ADFC1E2002A902AD65
:1047600081E8810420462946FDF7D0FB6020CDE991
:1047700002070220049020462946FDF7C7FB484661
:104780002946CDE902BACDE90477FDF7BFFB4FF624
:104790000170CDE9020A20462946CDE90477FDF7EC
:1047A000B5FB4FF49860CDE9020A30462946CDE9C1
:1047B0000477FDF7ABFB4FF4204002901120CDE9C8
:1047C0000307304629460597FDF7A0FB4FF4194033
:1047D000CDE9020A40462946CDE90477FDF796FB6C
:1047E00007B0BDE8F08F000080B541F2FC4043F215
:1047F0000001C2F20000C4F201014FF482720023F2
:1048000080E80E0000F114014FF4007C4FF0100E10
:1048100081E808500A21C0E90333C0E90833C0E940
:104820000A31FDF7E5FF002818BFFDF7D7FA80BD74
:1048300010B58EB041F254500021C2F2000040F297
:10484000004240F2E7340D91CDE90B11CDE9091199
:10485000CDE90711CDE90511CDE90311CDE901112C
:10486000C4F200025323C0E9021401618021C0E9AF
:1048700000238161FEF7A2F9002818BFFDF7AEFA08
:104880004FF480500A9041F25450C2F200000AA93D
:10489000FEF732FA002818BFFDF7A0FA41F2545093
:1048A000C2F20000FEF7CCFB002818BFFDF796FA15
:1048B00041F254500024C2F2000008A9CDE9084496
:1048C000FEF720F9002818BFFDF788FA6020CDE92F
:1048D000010441F25450C2F2000001A900220394E5
:1048E0000594FEF761FB002818BFFDF777FA41F247
:1048F0005450C2F20000FEF727FB0EB010BD0000BE
:1049000080B541F2E45041F20001C2F20000C4F26D
:10491000010100234FF00C0C4FF4E13280E80E004F
:10492000C0E90333C0E905C3C361FEF753FE0028A5
:1049300018BFFDF753FA80BD80B541F2286041F2FF
:104940000041C2F20000C4F2010100234FF00C0C40
:104950004FF4E13280E80E00C0E90333C0E905C33B
:10496000C361FEF737FE002818BFFDF737FA80BD98
:10497000FEE70000FEE7000000F0070080F00703FC
:10498000042B28BF04234FF0FF3C03380CFA03F339
:1049900038BF0020994381400CFA00F022EA000061
:1049A0000843704792ED000A92ED011A92ED022A37
:1049B0009FED1A3AB8EEC00AB8EEC11A80EE030AAB
:1049C00081EE031AB8EEC22A82EE032A401A92ED53
:1049D000043A04EE100AB8EEC44A92ED055A33EEDA
:1049E000043A34EE455A82ED034A82ED043A82EDF0
:1049F000054A20EE040A21EE031A30EE010A22EEE7
:104A0000051A30EE010A01EE101AB8EEC11A30EEA6
:104A1000010ABDEEC00A10EE100A704700007A4489
:104A2000EFF30980BFF36F8F154B1A681EF0100F5C
:104A300008BF20ED108A20E9F04F10602DE9090031
:104A40004FF0500080F31188BFF34F8FBFF36F8F8B
:104A500007F0D4FF4FF0000080F31188BDE8090093
:104A600019680868B0E8F04F1EF0100F08BFB0ECEE
:104A7000108A80F30988BFF36F8F704700BF00BFB3
:104A8000881700209FED152AB5EE401A20EE020A85
:104A900031EE023A9FED124AF1EE10FA08BFB0EE85
:104AA000443A80EE030A20EE821A81EE031A02EEE7
:104AB000101AB8EEC22A30EE020ABDEEC00A10EE9D
:104AC000101A00EE102AB8EEC00A31EE000ABDEE50
:104AD000C00A10EE102AC0E900127047000000441E
:104AE00000400044F0B581B000287CD00546008825
:104AF000002878D0AC1C3DA02146FBF789FC3EA1E4
:104B00002046FBF723FE41F2CA26A042C2F200066D
:104B100024BF012086F8000296F80002002862D027
:104B200036A120460422FBF76EFE48B996F8010232
:104B3000012805D1022086F8010232A0FBF7E6FD2C
:104B400034A120460E22FBF75EFE28B9012086F82C
:104B5000010234A0FBF7DAFD36A120460D22FBF757
:104B600052FE96F80172002808BF022F24D035A10A
:104B700020461122FBF747FE022F08BF00281BD05A
:104B800035A120460722FBF73EFEE8B134A12046BE
:104B90000722FBF738FE30BB0A3528462221FBF7F7
:104BA000CBFDA8421FD9001BA0F1080206F202208B
:104BB0002946FBF73BFF16E0032086F801022AA0F6
:104BC000FBF7A4FD01B0F0BD0A3528462221FBF712
:104BD000B3FDA84207D9001BA0F1080206F2162077
:104BE0002946FBF723FF01B0F0BD00BF455350300D
:104BF000312072783A2573004F4B00000D0A4F4B5D
:104C000000000000455350303120636F6E6E3A3221
:104C1000000000005749464920434F4E4E4543543B
:104C200045440000455350303120636F6E6E3A3179
:104C300000000000434F4E4E4543540D0A0D0A4FED
:104C40004B000000414C524541445920434F4E4EC9
:104C500045435445440000002B43575341503A000C
:104C60002B43574A41503A00455350303120636F2F
:104C70006E6E3A33000000002DE9F04F81B02DED4B
:104C8000068BAAB00DF16808054640460E46B0EE08
:104C9000418AB0EE609AB0EE40AA05F0C9FF4046E6
:104CA0006FF003016FF003026FF0030301F03AF9B4
:104CB000B1EE000A4046F0EE400AB0EE401A00F0B5
:104CC00039FC4046B0EE4A0AF0EE490AB0EE481A06
:104CD00000F0AAF84046002100220023002401F041
:104CE00021F940F2E430C0F6010008380FFA85FAE5
:104CF00036B20DF120090AAF00F1080191EC030A68
:104D000000F10C05404607F0C7FE484651463246C2
:104D1000FFF7B8FEDDE9081207EBC40047F83410CE
:104D200001F07F01426047F8341002F03F01013486
:104D30004160082C2846DFD1BDF92840BDF92C5030
:104D4000BDF93080BDF934902046294642464B4695
:104D500005940495CDF80C80CDF80890FDF75CF82B
:104D6000BDF93860BDF93C702046294632463B46C5
:104D700001960097FDF750F8BDF94040BDF9445049
:104D80002046294642464B4607940695FDF744F8CF
:104D90002046294632463B46FDF73EF8BDF94860BD
:104DA000BDF94C70BDF95080BDF95490304639467C
:104DB00042464B46FDF730F8BDF958A0BDF95CB04E
:104DC0003046394652465B46FDF726F8BDF960404D
:104DD000BDF964502046294642464B46FDF71CF873
:104DE0002046294652465B46FDF716F8DDE90410D9
:104DF00032463B46FDF710F8DDE9021042464B46CD
:104E0000FDF70AF8DDE9001052465B46FDF704F8AD
:104E1000DDE9061022462B46FCF7FEFF2AB0BDEC6A
:104E2000068B01B0BDE8F08F2DE9F0472DED048B26
:104E3000D0B0804610EE100AB0EE418AB0EE609A13
:104E40000BF09AF89FED840B55EC107B3A462B46FD
:104E50000AF0CEFD9FED820B54EC106B32462346D8
:104E60000AF05EFB0AF076FA824619EE100A0BF0A1
:104E700083F83A462B460AF0BBFD324623460AF039
:104E80004FFB0AF067FA814618EE100A0BF074F82F
:104E90003A462B460AF0ACFD324623460AF040FB68
:104EA0000AF058FA05464FF07E54504620940BF015
:104EB00063F841EC180B0026B0EE480AF0EE680AE1
:104EC000CDE92166CDE9236609F0D6FC51EC100B43
:104ED0000AF040FAB0EE480AF0EE680A259009F0B0
:104EE0002FFD51EC100B0AF035FAB0EE480A80F0B5
:104EF0000040F0EE680ACDE92606289609F020FD6C
:104F000051EC100B0AF026FAB0EE480AF0EE680AEF
:104F1000299009F0B1FC51EC100B0AF01BFACDE915
:104F20002A064846CDE92C66CDE92E640BF024F81C
:104F300041EC180BB0EE480AF0EE680A09F09CFC50
:104F400051EC100B0AF006FAB0EE480AF0EE680ACF
:104F5000CDE9100609F0F4FC51EC100B0AF0FAF957
:104F6000B0EE480AF0EE680ACDE91206CDE9146405
:104F7000CDE9166609F0E4FC51EC100B0AF0EAF9F1
:104F8000B0EE480A80F00040F0EE680ACDE918065D
:104F900009F072FC51EC100B0AF0DCF9CDE91A06AD
:104FA0002846CDE91C66CDE91E640AF0E5FF41EC18
:104FB000180BB0EE480AF0EE680A09F05DFC51ECFF
:104FC000100B0AF0C7F9B0EE480AF0EE680A00903C
:104FD00009F0B6FC51EC100B0AF0BCF9B0EE480A2F
:104FE00080F00040F0EE680ACDE90106039609F072
:104FF000A7FC51EC100B0AF0ADF9B0EE480AF0EE48
:10500000680A049009F038FC51EC100B0AF0A2F980
:10501000CDE909640F9440ACCDE9050620A94046CE
:105020002246CDE90766CDE90B66CDE90D66FEF7B0
:10503000A1FF30AD10A920462A46FEF79BFF694626
:1050400028464246FEF796FF50B0BDEC048BBDE803
:10505000F08700BF00BF00BF4AD8124DFB210940B6
:10506000000000000080664070B541F28866C2F220
:1050700000063268824218BF70BD41F2CA2504465C
:10508000C2F2000569B168180022827040F28410F3
:10509000C2F200000068298029460022002304F0A3
:1050A0001FFF002084F83C003068A91C40F2FD126C
:1050B000FEF7DAF870BD000080B582B08DF8070009
:1050C00041F2FC404FF47A7CC2F200000DF107017E
:1050D0000DF106020123CDF800C0FDF71DFC9DF87F
:1050E000060002B080BD000041F2FC41C2F20001A6
:1050F00009684FF6C7730A6822F040020A600A681E
:105100001A400A600A6810430860086840F04000CE
:105110000860704710B582B040F26803C2F2000325
:105120001B6849F68174C1F25E64A3FB043C04462B
:105130004FEA5C504FF47A73584301906068B0F5C1
:10514000827F0DD113460A462046802100F014F8D4
:1051500078B1606D40F020006065032002B010BDA2
:10516000019830B1019801380190206880680006EC
:10517000F6D4002002B010BD2DE9F04381B01E46E8
:1051800090460D468146FCF79BFF301A00EB08075E
:10519000FCF796FF40F26801C2F200010968C1F312
:1051A000CB3179430091D9F8001089682940A94290
:1051B00019D1064608F1010406E000BFD9F8000045
:1051C00080682840A8420ED1002CF7D0FCF778FF69
:1051D000801BB8420BD200980099002808BF0746F0
:1051E000481E0090EAE7002001B0BDE8F083D9E94D
:1051F00000014268B1F5827F22F0E00242600BD1EB
:10520000D9F80810B1F5004F02D0B1F5806F03D185
:10521000016821F040010160D9F82810B1F5005F64
:1052200007D1016821F400510160016841F4005187
:105230000160012089F85100002089F85000032006
:1052400001B0BDE8F0830000000000000000000095
:10525000074B19680868B0E8F04F80F30988BFF37E
:105260006F8F4FF0000080F31188704700BF00BFC0
:105270008817002080B502F067FC80BD00000000A8
:105280002DE9F0412DED028B82B04FF47A7004F0DD
:105290004BFD03F0E9F902F0C3F940F2E814C2F261
:1052A000000420460021082202F0CEF920785A2876
:1052B00032D8607809282FD8A0783C282CD894EDD3
:1052C000018A18EE100A0AF057FEB2EE040AB4EE94
:1052D000408AF1EE10FA1FDC9FED210B53EC102BEE
:1052E0000AF098FEC0B940F2E805C2F2000568680D
:1052F00095F800806E78AF780AF03EFE41EC100B16
:1053000019A0414632463B468DED000BFBF780F875
:10531000D4E90001C5E90001FFF798F841F2806483
:10532000C2F20004010620700AD041F22860C2F2E5
:105330000000FEF747FC02B0BDEC028BBDE8F08137
:10534000002500BFFA2004F0EFFCFFF77FF8012DE5
:105350002070EAD8000605F10105F3D0E5E700BFAB
:105360009A9999999999B93F4C6F61643A2025644B
:10537000E284832C2025642C202564E7A7922C202E
:10538000252E3166E6AFABE7A79200002DE9F04F7E
:1053900081B02DED068B9AB040F20120C2F20000E0
:1053A0000078002808BFFEF767FD41F61444C2F2FA
:1053B0000004207828B1FA200521FCF73FFA0020EC
:1053C000207002F097FAFCF76BFA41F61240C2F235
:1053D00000000088012840F0A48040F2FC10C2F2D6
:1053E000000000680AF0C8FDCDE9181041F28020E5
:1053F000C2F20000B0F90000169041F28220C2F221
:105400000000B0F90000159041F28420C2F20000C3
:10541000B0F9007041F2F440C2F20000B0F900406F
:1054200041F2F640C2F20000B0F9008041F2F840CB
:10543000C2F20000B0F90000179041F2B420C2F2AD
:10544000000000680AF098FD41EC180B41F2B8200A
:10545000C2F2000000680AF08FFD41EC190B41F226
:10546000BC20C2F2000000680AF086FD41EC1A0B75
:1054700040F20020C2F2000090F8009040F2F210DA
:10548000C2F2000090F800A040F2E800C2F2000072
:1054900090F800B04678857840680AF06DFD41ECE0
:1054A000100B0CA880E8000E06A880EC068B16985E
:1054B000CDE90F650090159849F2EC56CDE901074A
:1054C000C2F2000641F23831199ADDE91773C0F6CD
:1054D000010130468DED120BCDE903480597FAF72F
:1054E000A3FF3046FBF770F941F2B022C2F200028E
:1054F00041F2AB211368C2F200010F781844002F6B
:10550000106004BF0120087049F2EC50C2F20000A4
:1055100000F0D2F841F61241C2F2000108880130D1
:105520000880FCF78BFB1AB0BDEC068B01B0BDE820
:10553000F08F0000B0B5A0B004460020CDE9010016
:10554000CDE90300CDE90600CDE90800CDE90B0067
:10555000CDE90D004FF07E5010AD0F90694620460A
:105560002A468DED000ACDED050A8DED0A1AFEF7EB
:1055700001FD28462146FEF7E1FC20B0B0BD000049
:10558000B0B541F20004C4F2020420460221FCF747
:105590008BFDB0FA80F0450920460421FCF784FD1C
:1055A000002820464FF0080108BF0235FCF77CFDBB
:1055B000002820464FF0100108BF0435FCF774FDA9
:1055C000002820464FF0200108BF0835FCF76CFD8D
:1055D000012820464FF0400108BF45F01005FCF7B8
:1055E00063FD012840F2F110C2F2000008BF45F04F
:1055F000200501782A0627D0EAB28A4224D140F257
:10560000F012C2F2000213780133DCB2022C1370E4
:1056100020D14FF0FF3252FA85F21F2A1AD8DFE864
:1056200002F0211019231919192619191919191914
:1056300019291919191919191919191919191919CA
:10564000192C0325E8B2B0BD40F2F012C2F20002FC
:1056500000231370EAB28A4202D10025E8B2B0BD3D
:1056600005700025E8B2B0BD0425E8B2B0BD022542
:10567000E8B2B0BD0525E8B2B0BD0625E8B2B0BDC0
:10568000002808BF704770B5054641F28860C2F235
:105690000000066828460C46FBF796F882B23046B2
:1056A00029464FF6FF73FEF757F8204604F03CFBFF
:1056B000BDE8704070470000002808BF7047B0B5D3
:1056C000044641F28860C2F2000005682046FBF7FC
:1056D0007BF882B2284621464FF6FF73FEF73CF86E
:1056E000BDE8B0407047000070B541F200040126EB
:1056F000C4F20204054626EA000220464FF48071F7
:10570000FCF7D8FC26EA550220464FF40071FCF75E
:10571000D1FC26EA950220464FF48061FCF7CAFCD2
:1057200026EAD50220464FF40061FCF7C3FC26EAC6
:10573000151220464FF48051FCF7BCFC26EA5512A6
:1057400020464FF40051FCF7B5FC26EA951220469E
:105750004FF48041FCF7AEFCE843C0B2C2092046DA
:105760004FF40041FCF7A6FC70BD0000FFF788FD78
:10577000FEF7A4F9052004F0D7FAF9E701F032F8B2
:1057800041F28064C2F20004207818B9012004F0CC
:10579000CBFAF9E701F02AFB012004F0C5FAF9E79A
:1057A00011A0FAF735FE41F28064C2F2000400BF96
:1057B000207818B9012004F0B7FAF9E740F2002484
:1057C00040F2F215C2F20004C2F2000505E000BF8B
:1057D00001F01AFB012004F0A7FA20782978084389
:1057E000F6D001F057FEF5E7696E206B65795461DC
:1057F000736B000009A0FAF70BFE41F28064C2F25D
:10580000000400BF207818B9012004F08DFAF9E7F0
:10581000FFF7BCFD012004F087FAF9E7696E206DFF
:1058200061696E5461736B2100000000000000008C
:1058300088B041F2CA2041F2AB2841F2706A40F2CE
:10584000F31940F20127C2F2000041F2AC2B9FEDA8
:105850009B8A9FED91ABC2F20008C2F2000AFF24BE
:10586000C2F200090025C2F20007C2F2000B0230AA
:10587000B2EE049A079008E041F2C8210120C2F27A
:1058800000010870012004F04FFA98F80000012888
:105890000FD199F800008AF800400130C1B20A29FE
:1058A00089F8000022BF8AF8005088F8005089F873
:1058B00000509AF80000FFF717FFFCF795FA002850
:1058C000E0D038780028DDD0012088F8000041F2CF
:1058D000CA20C2F200000088DBF800100028014452
:1058E00089F80050CBF80010CCD041F2CA20C2F2A7
:1058F0000000D0F8020045F25501C4F64F6188421D
:10590000BAD0079E66A130460522FAF731FF00287B
:1059100000F08780304664A10722FAF729FF0028AB
:1059200000F08580304662A10922FAF721FF0028A5
:10593000A8D141F2CA20C2F2000000F10B063046A5
:10594000FAF7D6FE069030462C21FAF7F5FE0799B5
:10595000884297D9471C3846FAF7CAFE06463846A9
:1059600040F201272C21C2F20007FAF7E5FE079961
:1059700088427FF687AF471C3846FAF7B9FE059094
:10598000384640F201272C21C2F20007FAF7D4FE74
:10599000079988427FF676AF0130FAF7A9FE00EE4C
:1059A000100AB8EEC00A80EE08BA1BEE100A0AF020
:1059B000E3FAB4EE49BAF1EE10FA3FF763AF53ECF5
:1059C0001A2B41EC1C0B0AF025FB00287FF45AAF80
:1059D0000698C1B25A293FF655AF06F0FE000928D5
:1059E0003FF650AF0598C3B23C2B3FF64BAF40F2A9
:1059F000E8020698C2F20002107005985670907086
:105A000082ED01BAF2B22EA08DED00CBFAF700FDC7
:105A100040F2E800C2F200000021082201F09CFEE2
:105A200030E741F2C820C2F2000005702AE740F2D8
:105A3000E800C2F2000006784778847840680AF0EF
:105A40009BFA41EC100B49F2EC50C2F2000025A188
:105A500032463B468DED020B00940446FAF7E4FC17
:105A60002046FAF7B1FE41F2B023C2F200031968F2
:105A700098F800200844002A186004BF012088F824
:105A800000002046FFF718FE40F20127FF24C2F273
:105A90000007F7E600BF00BF9A9999999999B93F15
:105AA00055504F4646000000474554504152410072
:105AB000506172616D5365743A00000000007A44D1
:105AC000536176653A202564E284832C2025642C7A
:105AD000202564E7A7922C20252E3166E6AFABE7A0
